{
  "_format": "hh-sol-artifact-1",
  "contractName": "BaseENSManager",
  "sourceName": "contracts/thirdparty/ens/BaseENSManager.sol",
  "abi": [
    {
      "inputs": [
        {
          "internalType": "string",
          "name": "_rootName",
          "type": "string"
        },
        {
          "internalType": "bytes32",
          "name": "_rootNode",
          "type": "bytes32"
        },
        {
          "internalType": "address",
          "name": "_ensRegistry",
          "type": "address"
        },
        {
          "internalType": "address",
          "name": "_ensResolver",
          "type": "address"
        }
      ],
      "stateMutability": "nonpayable",
      "type": "constructor"
    },
    {
      "anonymous": false,
      "inputs": [
        {
          "indexed": false,
          "internalType": "address",
          "name": "addr",
          "type": "address"
        }
      ],
      "name": "ENSResolverChanged",
      "type": "event"
    },
    {
      "anonymous": false,
      "inputs": [
        {
          "indexed": true,
          "internalType": "address",
          "name": "manager",
          "type": "address"
        }
      ],
      "name": "ManagerAdded",
      "type": "event"
    },
    {
      "anonymous": false,
      "inputs": [
        {
          "indexed": true,
          "internalType": "address",
          "name": "manager",
          "type": "address"
        }
      ],
      "name": "ManagerRemoved",
      "type": "event"
    },
    {
      "anonymous": false,
      "inputs": [
        {
          "indexed": true,
          "internalType": "address",
          "name": "previousOwner",
          "type": "address"
        },
        {
          "indexed": true,
          "internalType": "address",
          "name": "newOwner",
          "type": "address"
        }
      ],
      "name": "OwnershipTransferred",
      "type": "event"
    },
    {
      "anonymous": false,
      "inputs": [
        {
          "indexed": true,
          "internalType": "address",
          "name": "_wallet",
          "type": "address"
        },
        {
          "indexed": false,
          "internalType": "address",
          "name": "_owner",
          "type": "address"
        },
        {
          "indexed": false,
          "internalType": "string",
          "name": "_ens",
          "type": "string"
        }
      ],
      "name": "Registered",
      "type": "event"
    },
    {
      "anonymous": false,
      "inputs": [
        {
          "indexed": true,
          "internalType": "bytes32",
          "name": "_rootnode",
          "type": "bytes32"
        },
        {
          "indexed": true,
          "internalType": "address",
          "name": "_newOwner",
          "type": "address"
        }
      ],
      "name": "RootnodeOwnerChange",
      "type": "event"
    },
    {
      "anonymous": false,
      "inputs": [
        {
          "indexed": false,
          "internalType": "string",
          "name": "_ens",
          "type": "string"
        }
      ],
      "name": "Unregistered",
      "type": "event"
    },
    {
      "inputs": [],
      "name": "ADDR_REVERSE_NODE",
      "outputs": [
        {
          "internalType": "bytes32",
          "name": "",
          "type": "bytes32"
        }
      ],
      "stateMutability": "view",
      "type": "function"
    },
    {
      "inputs": [
        {
          "internalType": "address",
          "name": "manager",
          "type": "address"
        }
      ],
      "name": "addManager",
      "outputs": [],
      "stateMutability": "nonpayable",
      "type": "function"
    },
    {
      "inputs": [
        {
          "internalType": "address",
          "name": "_ensResolver",
          "type": "address"
        }
      ],
      "name": "changeENSResolver",
      "outputs": [],
      "stateMutability": "nonpayable",
      "type": "function"
    },
    {
      "inputs": [
        {
          "internalType": "address",
          "name": "_newOwner",
          "type": "address"
        }
      ],
      "name": "changeRootnodeOwner",
      "outputs": [],
      "stateMutability": "nonpayable",
      "type": "function"
    },
    {
      "inputs": [],
      "name": "claimOwnership",
      "outputs": [],
      "stateMutability": "nonpayable",
      "type": "function"
    },
    {
      "inputs": [],
      "name": "ensResolver",
      "outputs": [
        {
          "internalType": "address",
          "name": "",
          "type": "address"
        }
      ],
      "stateMutability": "view",
      "type": "function"
    },
    {
      "inputs": [],
      "name": "getENSRegistry",
      "outputs": [
        {
          "internalType": "contract ENSRegistry",
          "name": "",
          "type": "address"
        }
      ],
      "stateMutability": "view",
      "type": "function"
    },
    {
      "inputs": [],
      "name": "getENSReverseRegistrar",
      "outputs": [
        {
          "internalType": "contract ENSReverseRegistrar",
          "name": "",
          "type": "address"
        }
      ],
      "stateMutability": "view",
      "type": "function"
    },
    {
      "inputs": [
        {
          "internalType": "bytes32",
          "name": "_subnode",
          "type": "bytes32"
        }
      ],
      "name": "isAvailable",
      "outputs": [
        {
          "internalType": "bool",
          "name": "",
          "type": "bool"
        }
      ],
      "stateMutability": "view",
      "type": "function"
    },
    {
      "inputs": [
        {
          "internalType": "address",
          "name": "addr",
          "type": "address"
        }
      ],
      "name": "isManager",
      "outputs": [
        {
          "internalType": "bool",
          "name": "",
          "type": "bool"
        }
      ],
      "stateMutability": "view",
      "type": "function"
    },
    {
      "inputs": [],
      "name": "managers",
      "outputs": [
        {
          "internalType": "address[]",
          "name": "",
          "type": "address[]"
        }
      ],
      "stateMutability": "view",
      "type": "function"
    },
    {
      "inputs": [],
      "name": "numManagers",
      "outputs": [
        {
          "internalType": "uint256",
          "name": "",
          "type": "uint256"
        }
      ],
      "stateMutability": "view",
      "type": "function"
    },
    {
      "inputs": [],
      "name": "owner",
      "outputs": [
        {
          "internalType": "address",
          "name": "",
          "type": "address"
        }
      ],
      "stateMutability": "view",
      "type": "function"
    },
    {
      "inputs": [],
      "name": "pendingOwner",
      "outputs": [
        {
          "internalType": "address",
          "name": "",
          "type": "address"
        }
      ],
      "stateMutability": "view",
      "type": "function"
    },
    {
      "inputs": [
        {
          "internalType": "address",
          "name": "_wallet",
          "type": "address"
        },
        {
          "internalType": "address",
          "name": "_owner",
          "type": "address"
        },
        {
          "internalType": "string",
          "name": "_label",
          "type": "string"
        },
        {
          "internalType": "bytes",
          "name": "_approval",
          "type": "bytes"
        }
      ],
      "name": "register",
      "outputs": [],
      "stateMutability": "nonpayable",
      "type": "function"
    },
    {
      "inputs": [
        {
          "internalType": "address",
          "name": "manager",
          "type": "address"
        }
      ],
      "name": "removeManager",
      "outputs": [],
      "stateMutability": "nonpayable",
      "type": "function"
    },
    {
      "inputs": [],
      "name": "renounceOwnership",
      "outputs": [],
      "stateMutability": "nonpayable",
      "type": "function"
    },
    {
      "inputs": [
        {
          "internalType": "bytes32",
          "name": "_node",
          "type": "bytes32"
        }
      ],
      "name": "resolveEns",
      "outputs": [
        {
          "internalType": "address",
          "name": "",
          "type": "address"
        }
      ],
      "stateMutability": "view",
      "type": "function"
    },
    {
      "inputs": [
        {
          "internalType": "address",
          "name": "_wallet",
          "type": "address"
        }
      ],
      "name": "resolveName",
      "outputs": [
        {
          "internalType": "string",
          "name": "",
          "type": "string"
        }
      ],
      "stateMutability": "view",
      "type": "function"
    },
    {
      "inputs": [],
      "name": "rootName",
      "outputs": [
        {
          "internalType": "string",
          "name": "",
          "type": "string"
        }
      ],
      "stateMutability": "view",
      "type": "function"
    },
    {
      "inputs": [],
      "name": "rootNode",
      "outputs": [
        {
          "internalType": "bytes32",
          "name": "",
          "type": "bytes32"
        }
      ],
      "stateMutability": "view",
      "type": "function"
    },
    {
      "inputs": [
        {
          "internalType": "address",
          "name": "newOwner",
          "type": "address"
        }
      ],
      "name": "transferOwnership",
      "outputs": [],
      "stateMutability": "nonpayable",
      "type": "function"
    }
  ],
  "bytecode": "0x60c06040523480156200001157600080fd5b506040516200326638038062003266833981810160405260808110156200003757600080fd5b81019080805160405193929190846401000000008211156200005857600080fd5b838201915060208201858111156200006f57600080fd5b82518660018202830111640100000000821117156200008d57600080fd5b8083526020830192505050908051906020019080838360005b83811015620000c3578082015181840152602081019050620000a6565b50505050905090810190601f168015620000f15780820380516001836020036101000a031916815260200191505b5060405260200180519060200190929190805190602001909291908051906020019092919050505081336000806101000a81548173ffffffffffffffffffffffffffffffffffffffff021916908373ffffffffffffffffffffffffffffffffffffffff1602179055508073ffffffffffffffffffffffffffffffffffffffff1660808173ffffffffffffffffffffffffffffffffffffffff1660601b81525050508360039080519060200190620001aa929190620001fe565b508260a0818152505080600460006101000a81548173ffffffffffffffffffffffffffffffffffffffff021916908373ffffffffffffffffffffffffffffffffffffffff16021790555050505050620002a4565b828054600181600116156101000203166002900490600052602060002090601f016020900481019282601f106200024157805160ff191683800117855562000272565b8280016001018555821562000272579182015b828111156200027157825182559160200191906001019062000254565b5b50905062000281919062000285565b5090565b5b80821115620002a057600081600090555060010162000286565b5090565b60805160601c60a051612f82620002e460003980610e0a5280610fa9528061171552806117b9528061180c528061213152508061093e5250612f826000f3fe608060405234801561001057600080fd5b50600436106101425760003560e01c80639eb869c7116100b8578063e68777d71161007c578063e68777d71461060f578063f20387df1461062d578063f2fde38b146106b0578063f3ae2415146106f4578063faff50a81461074e578063fb4199991461076c57610142565b80639eb869c71461044e578063ac18de43146104a6578063adce1c5f146104ea578063c456b2051461051e578063e30c3978146105db57610142565b8063723117051161010a578063723117051461020757806376d64974146102665780637cf8a2eb1461037457806386605d961461039257806389b6f027146103d65780638da5cb5b1461041a57610142565b806309d73442146101475780632d06177a1461017b5780632f680795146101bf5780634e71e0c8146101f3578063715018a6146101fd575b600080fd5b61014f6107b0565b604051808273ffffffffffffffffffffffffffffffffffffffff16815260200191505060405180910390f35b6101bd6004803603602081101561019157600080fd5b81019080803573ffffffffffffffffffffffffffffffffffffffff16906020019092919050505061086d565b005b6101c761093a565b604051808273ffffffffffffffffffffffffffffffffffffffff16815260200191505060405180910390f35b6101fb610962565b005b610205610b67565b005b61020f610ce6565b6040518080602001828103825283818151815260200191508051906020019060200280838360005b83811015610252578082015181840152602081019050610237565b505050509050019250505060405180910390f35b6103726004803603608081101561027c57600080fd5b81019080803573ffffffffffffffffffffffffffffffffffffffff169060200190929190803573ffffffffffffffffffffffffffffffffffffffff169060200190929190803590602001906401000000008111156102d957600080fd5b8201836020820111156102eb57600080fd5b8035906020019184600183028401116401000000008311171561030d57600080fd5b90919293919293908035906020019064010000000081111561032e57600080fd5b82018360208201111561034057600080fd5b8035906020019184600183028401116401000000008311171561036257600080fd5b9091929391929390505050610d16565b005b61037c611608565b6040518082815260200191505060405180910390f35b6103d4600480360360208110156103a857600080fd5b81019080803573ffffffffffffffffffffffffffffffffffffffff16906020019092919050505061162f565b005b610402600480360360208110156103ec57600080fd5b8101908080359060200190929190505050611807565b60405180821515815260200191505060405180910390f35b61042261193e565b604051808273ffffffffffffffffffffffffffffffffffffffff16815260200191505060405180910390f35b61047a6004803603602081101561046457600080fd5b8101908080359060200190929190505050611962565b604051808273ffffffffffffffffffffffffffffffffffffffff16815260200191505060405180910390f35b6104e8600480360360208110156104bc57600080fd5b81019080803573ffffffffffffffffffffffffffffffffffffffff169060200190929190505050611a8e565b005b6104f2611bbf565b604051808273ffffffffffffffffffffffffffffffffffffffff16815260200191505060405180910390f35b6105606004803603602081101561053457600080fd5b81019080803573ffffffffffffffffffffffffffffffffffffffff169060200190929190505050611be5565b6040518080602001828103825283818151815260200191508051906020019080838360005b838110156105a0578082015181840152602081019050610585565b50505050905090810190601f1680156105cd5780820380516001836020036101000a031916815260200191505b509250505060405180910390f35b6105e3611e08565b604051808273ffffffffffffffffffffffffffffffffffffffff16815260200191505060405180910390f35b610617611e2e565b6040518082815260200191505060405180910390f35b610635611e5e565b6040518080602001828103825283818151815260200191508051906020019080838360005b8381101561067557808201518184015260208101905061065a565b50505050905090810190601f1680156106a25780820380516001836020036101000a031916815260200191505b509250505060405180910390f35b6106f2600480360360208110156106c657600080fd5b81019080803573ffffffffffffffffffffffffffffffffffffffff169060200190929190505050611efc565b005b6107366004803603602081101561070a57600080fd5b81019080803573ffffffffffffffffffffffffffffffffffffffff1690602001909291905050506120fc565b60405180821515815260200191505060405180910390f35b61075661212f565b6040518082815260200191505060405180910390f35b6107ae6004803603602081101561078257600080fd5b81019080803573ffffffffffffffffffffffffffffffffffffffff169060200190929190505050612153565b005b60006107ba61093a565b73ffffffffffffffffffffffffffffffffffffffff166302571be37f91d1777781884d03a6757a803996e38de2a42967fb37eeaca72729271025a9e260001b6040518263ffffffff1660e01b81526004018082815260200191505060206040518083038186803b15801561082d57600080fd5b505afa158015610841573d6000803e3d6000fd5b505050506040513d602081101561085757600080fd5b8101908080519060200190929190505050905090565b60008054906101000a900473ffffffffffffffffffffffffffffffffffffffff1673ffffffffffffffffffffffffffffffffffffffff163373ffffffffffffffffffffffffffffffffffffffff161461092e576040517f08c379a000000000000000000000000000000000000000000000000000000000815260040180806020018281038252600c8152602001807f554e415554484f52495a4544000000000000000000000000000000000000000081525060200191505060405180910390fd5b61093781612348565b50565b60007f0000000000000000000000000000000000000000000000000000000000000000905090565b600160009054906101000a900473ffffffffffffffffffffffffffffffffffffffff1673ffffffffffffffffffffffffffffffffffffffff163373ffffffffffffffffffffffffffffffffffffffff1614610a25576040517f08c379a000000000000000000000000000000000000000000000000000000000815260040180806020018281038252600c8152602001807f554e415554484f52495a4544000000000000000000000000000000000000000081525060200191505060405180910390fd5b600160009054906101000a900473ffffffffffffffffffffffffffffffffffffffff1673ffffffffffffffffffffffffffffffffffffffff1660008054906101000a900473ffffffffffffffffffffffffffffffffffffffff1673ffffffffffffffffffffffffffffffffffffffff167f8be0079c531659141344cd1fd0a4f28419497f9722a3daafe3b4186f6b6457e060405160405180910390a3600160009054906101000a900473ffffffffffffffffffffffffffffffffffffffff166000806101000a81548173ffffffffffffffffffffffffffffffffffffffff021916908373ffffffffffffffffffffffffffffffffffffffff1602179055506000600160006101000a81548173ffffffffffffffffffffffffffffffffffffffff021916908373ffffffffffffffffffffffffffffffffffffffff160217905550565b60008054906101000a900473ffffffffffffffffffffffffffffffffffffffff1673ffffffffffffffffffffffffffffffffffffffff163373ffffffffffffffffffffffffffffffffffffffff1614610c28576040517f08c379a000000000000000000000000000000000000000000000000000000000815260040180806020018281038252600c8152602001807f554e415554484f52495a4544000000000000000000000000000000000000000081525060200191505060405180910390fd5b600073ffffffffffffffffffffffffffffffffffffffff1660008054906101000a900473ffffffffffffffffffffffffffffffffffffffff1673ffffffffffffffffffffffffffffffffffffffff167f8be0079c531659141344cd1fd0a4f28419497f9722a3daafe3b4186f6b6457e060405160405180910390a360008060006101000a81548173ffffffffffffffffffffffffffffffffffffffff021916908373ffffffffffffffffffffffffffffffffffffffff160217905550565b6060610d117fae79206ff8d89355a31a27bc7df0c55f5fe15ce3ae94530629cd19b6712ea1f86123ba565b905090565b610d1f336120fc565b610d91576040517f08c379a000000000000000000000000000000000000000000000000000000000815260040180806020018281038252600b8152602001807f4e4f545f4d414e4147455200000000000000000000000000000000000000000081525060200191505060405180910390fd5b610d9f8686868686866124f6565b6000610da961093a565b90506000600460009054906101000a900473ffffffffffffffffffffffffffffffffffffffff1690506000868660405160200180838380828437808301925050509250505060405160208183030381529060405280519060200120905060007f000000000000000000000000000000000000000000000000000000000000000082604051602001808381526020018281526020019250505060405160208183030381529060405280519060200120905060008473ffffffffffffffffffffffffffffffffffffffff166302571be3836040518263ffffffff1660e01b81526004018082815260200191505060206040518083038186803b158015610eac57600080fd5b505afa158015610ec0573d6000803e3d6000fd5b505050506040513d6020811015610ed657600080fd5b81019080805190602001909291905050509050600073ffffffffffffffffffffffffffffffffffffffff168173ffffffffffffffffffffffffffffffffffffffff1614610f8b576040517f08c379a000000000000000000000000000000000000000000000000000000000815260040180806020018281038252601d8152602001807f41454d3a205f6c6162656c20697320616c7265616c6479206f776e656400000081525060200191505060405180910390fd5b8473ffffffffffffffffffffffffffffffffffffffff166306ab59237f000000000000000000000000000000000000000000000000000000000000000085306040518463ffffffff1660e01b8152600401808481526020018381526020018273ffffffffffffffffffffffffffffffffffffffff1681526020019350505050600060405180830381600087803b15801561102457600080fd5b505af1158015611038573d6000803e3d6000fd5b505050508473ffffffffffffffffffffffffffffffffffffffff16631896f70a83866040518363ffffffff1660e01b8152600401808381526020018273ffffffffffffffffffffffffffffffffffffffff16815260200192505050600060405180830381600087803b1580156110ad57600080fd5b505af11580156110c1573d6000803e3d6000fd5b505050508473ffffffffffffffffffffffffffffffffffffffff16635b0fc9c3838d6040518363ffffffff1660e01b8152600401808381526020018273ffffffffffffffffffffffffffffffffffffffff16815260200192505050600060405180830381600087803b15801561113657600080fd5b505af115801561114a573d6000803e3d6000fd5b505050508373ffffffffffffffffffffffffffffffffffffffff1663d5fa2b00838d6040518363ffffffff1660e01b8152600401808381526020018273ffffffffffffffffffffffffffffffffffffffff16815260200192505050600060405180830381600087803b1580156111bf57600080fd5b505af11580156111d3573d6000803e3d6000fd5b505050506060600267ffffffffffffffff811180156111f157600080fd5b5060405190808252806020026020018201604052801561122b57816020015b611218612f32565b8152602001906001900390816112105790505b50905061127b8a8a8080601f016020809104026020016040519081016040528093929190818152602001838380828437600081840152601f19601f82011690508083019250505050505050612697565b8160008151811061128857fe5b602002602001018190525061133660038054600181600116156101000203166002900480601f01602080910402602001604051908101604052809291908181526020018280546001816001161561010002031660029004801561132c5780601f106113015761010080835404028352916020019161132c565b820191906000526020600020905b81548152906001019060200180831161130f57829003601f168201915b5050505050612697565b8160018151811061134357fe5b602002602001018190525060606113a0826113926040518060400160405280600181526020017f2e00000000000000000000000000000000000000000000000000000000000000815250612697565b6126c590919063ffffffff16565b905060006113ac6107b0565b73ffffffffffffffffffffffffffffffffffffffff1663bffbe61c8f6040518263ffffffff1660e01b8152600401808273ffffffffffffffffffffffffffffffffffffffff16815260200191505060206040518083038186803b15801561141257600080fd5b505afa158015611426573d6000803e3d6000fd5b505050506040513d602081101561143c57600080fd5b810190808051906020019092919050505090508673ffffffffffffffffffffffffffffffffffffffff16637737221382846040518363ffffffff1660e01b81526004018083815260200180602001828103825283818151815260200191508051906020019080838360005b838110156114c25780820151818401526020810190506114a7565b50505050905090810190601f1680156114ef5780820380516001836020036101000a031916815260200191505b509350505050600060405180830381600087803b15801561150f57600080fd5b505af1158015611523573d6000803e3d6000fd5b505050508d73ffffffffffffffffffffffffffffffffffffffff167f74cae52d13d0a6674c3c1893c783092016dfec46784236cb118fcf9c0dd071cf8e84604051808373ffffffffffffffffffffffffffffffffffffffff16815260200180602001828103825283818151815260200191508051906020019080838360005b838110156115bd5780820151818401526020810190506115a2565b50505050905090810190601f1680156115ea5780820380516001836020036101000a031916815260200191505b50935050505060405180910390a25050505050505050505050505050565b7f91d1777781884d03a6757a803996e38de2a42967fb37eeaca72729271025a9e260001b81565b60008054906101000a900473ffffffffffffffffffffffffffffffffffffffff1673ffffffffffffffffffffffffffffffffffffffff163373ffffffffffffffffffffffffffffffffffffffff16146116f0576040517f08c379a000000000000000000000000000000000000000000000000000000000815260040180806020018281038252600c8152602001807f554e415554484f52495a4544000000000000000000000000000000000000000081525060200191505060405180910390fd5b6116f861093a565b73ffffffffffffffffffffffffffffffffffffffff16635b0fc9c37f0000000000000000000000000000000000000000000000000000000000000000836040518363ffffffff1660e01b8152600401808381526020018273ffffffffffffffffffffffffffffffffffffffff16815260200192505050600060405180830381600087803b15801561178857600080fd5b505af115801561179c573d6000803e3d6000fd5b505050508073ffffffffffffffffffffffffffffffffffffffff167f00000000000000000000000000000000000000000000000000000000000000007f1219ccb7de3c75be86cb7065f05d9d42fb6a5162e02537d1b0d95a890ff4fd9d60405160405180910390a350565b6000807f0000000000000000000000000000000000000000000000000000000000000000836040516020018083815260200182815260200192505050604051602081830303815290604052805190602001209050600061186561093a565b73ffffffffffffffffffffffffffffffffffffffff166302571be3836040518263ffffffff1660e01b81526004018082815260200191505060206040518083038186803b1580156118b557600080fd5b505afa1580156118c9573d6000803e3d6000fd5b505050506040513d60208110156118df57600080fd5b81019080805190602001909291905050509050600073ffffffffffffffffffffffffffffffffffffffff168173ffffffffffffffffffffffffffffffffffffffff16141561193257600192505050611939565b6000925050505b919050565b60008054906101000a900473ffffffffffffffffffffffffffffffffffffffff1681565b60008061196d61093a565b73ffffffffffffffffffffffffffffffffffffffff16630178b8bf846040518263ffffffff1660e01b81526004018082815260200191505060206040518083038186803b1580156119bd57600080fd5b505afa1580156119d1573d6000803e3d6000fd5b505050506040513d60208110156119e757600080fd5b810190808051906020019092919050505090508073ffffffffffffffffffffffffffffffffffffffff16633b3b57de846040518263ffffffff1660e01b81526004018082815260200191505060206040518083038186803b158015611a4b57600080fd5b505afa158015611a5f573d6000803e3d6000fd5b505050506040513d6020811015611a7557600080fd5b8101908080519060200190929190505050915050919050565b60008054906101000a900473ffffffffffffffffffffffffffffffffffffffff1673ffffffffffffffffffffffffffffffffffffffff163373ffffffffffffffffffffffffffffffffffffffff1614611b4f576040517f08c379a000000000000000000000000000000000000000000000000000000000815260040180806020018281038252600c8152602001807f554e415554484f52495a4544000000000000000000000000000000000000000081525060200191505060405180910390fd5b611b797fae79206ff8d89355a31a27bc7df0c55f5fe15ce3ae94530629cd19b6712ea1f882612829565b8073ffffffffffffffffffffffffffffffffffffffff167fef69f7d97228658c92417be1b16b19058315de71fecb435d07b7d23728b6bd3160405160405180910390a250565b600460009054906101000a900473ffffffffffffffffffffffffffffffffffffffff1681565b60606000611bf16107b0565b73ffffffffffffffffffffffffffffffffffffffff1663bffbe61c846040518263ffffffff1660e01b8152600401808273ffffffffffffffffffffffffffffffffffffffff16815260200191505060206040518083038186803b158015611c5757600080fd5b505afa158015611c6b573d6000803e3d6000fd5b505050506040513d6020811015611c8157600080fd5b81019080805190602001909291905050509050600460009054906101000a900473ffffffffffffffffffffffffffffffffffffffff1673ffffffffffffffffffffffffffffffffffffffff1663691f3431826040518263ffffffff1660e01b81526004018082815260200191505060006040518083038186803b158015611d0757600080fd5b505afa158015611d1b573d6000803e3d6000fd5b505050506040513d6000823e3d601f19601f820116820180604052506020811015611d4557600080fd5b8101908080516040519392919084640100000000821115611d6557600080fd5b83820191506020820185811115611d7b57600080fd5b8251866001820283011164010000000082111715611d9857600080fd5b8083526020830192505050908051906020019080838360005b83811015611dcc578082015181840152602081019050611db1565b50505050905090810190601f168015611df95780820380516001836020036101000a031916815260200191505b50604052505050915050919050565b600160009054906101000a900473ffffffffffffffffffffffffffffffffffffffff1681565b6000611e597fae79206ff8d89355a31a27bc7df0c55f5fe15ce3ae94530629cd19b6712ea1f8612ac6565b905090565b60038054600181600116156101000203166002900480601f016020809104026020016040519081016040528092919081815260200182805460018160011615610100020316600290048015611ef45780601f10611ec957610100808354040283529160200191611ef4565b820191906000526020600020905b815481529060010190602001808311611ed757829003601f168201915b505050505081565b60008054906101000a900473ffffffffffffffffffffffffffffffffffffffff1673ffffffffffffffffffffffffffffffffffffffff163373ffffffffffffffffffffffffffffffffffffffff1614611fbd576040517f08c379a000000000000000000000000000000000000000000000000000000000815260040180806020018281038252600c8152602001807f554e415554484f52495a4544000000000000000000000000000000000000000081525060200191505060405180910390fd5b600073ffffffffffffffffffffffffffffffffffffffff168173ffffffffffffffffffffffffffffffffffffffff1614158015612046575060008054906101000a900473ffffffffffffffffffffffffffffffffffffffff1673ffffffffffffffffffffffffffffffffffffffff168173ffffffffffffffffffffffffffffffffffffffff1614155b6120b8576040517f08c379a000000000000000000000000000000000000000000000000000000000815260040180806020018281038252600f8152602001807f494e56414c49445f41444452455353000000000000000000000000000000000081525060200191505060405180910390fd5b80600160006101000a81548173ffffffffffffffffffffffffffffffffffffffff021916908373ffffffffffffffffffffffffffffffffffffffff16021790555050565b60006121287fae79206ff8d89355a31a27bc7df0c55f5fe15ce3ae94530629cd19b6712ea1f883612aeb565b9050919050565b7f000000000000000000000000000000000000000000000000000000000000000081565b60008054906101000a900473ffffffffffffffffffffffffffffffffffffffff1673ffffffffffffffffffffffffffffffffffffffff163373ffffffffffffffffffffffffffffffffffffffff1614612214576040517f08c379a000000000000000000000000000000000000000000000000000000000815260040180806020018281038252600c8152602001807f554e415554484f52495a4544000000000000000000000000000000000000000081525060200191505060405180910390fd5b600073ffffffffffffffffffffffffffffffffffffffff168173ffffffffffffffffffffffffffffffffffffffff1614156122b7576040517f08c379a000000000000000000000000000000000000000000000000000000000815260040180806020018281038252601a8152602001807f57463a20616464726573732063616e6e6f74206265206e756c6c00000000000081525060200191505060405180910390fd5b80600460006101000a81548173ffffffffffffffffffffffffffffffffffffffff021916908373ffffffffffffffffffffffffffffffffffffffff1602179055507f8bd878c65101d815c50829c7b19270ff5c19e91bd1ad6ebaa282c4a65a5baa5f81604051808273ffffffffffffffffffffffffffffffffffffffff16815260200191505060405180910390a150565b6123747fae79206ff8d89355a31a27bc7df0c55f5fe15ce3ae94530629cd19b6712ea1f8826001612b4c565b8073ffffffffffffffffffffffffffffffffffffffff167f3b4a40cccf2058c593542587329dd385be4f0b588db5471fbd9598e56dd7093a60405160405180910390a250565b606060006002600084815260200190815260200160002090508060000180549050816002015414612453576040517f08c379a000000000000000000000000000000000000000000000000000000000815260040180806020018281038252600e8152602001807f4e4f545f4d41494e5441494e454400000000000000000000000000000000000081525060200191505060405180910390fd5b600260008481526020019081526020016000206000018054806020026020016040519081016040528092919081815260200182805480156124e957602002820191906000526020600020905b8160009054906101000a900473ffffffffffffffffffffffffffffffffffffffff1673ffffffffffffffffffffffffffffffffffffffff168152602001906001019080831161249f575b5050505050915050919050565b600086868686604051602001808573ffffffffffffffffffffffffffffffffffffffff1660601b81526014018473ffffffffffffffffffffffffffffffffffffffff1660601b81526014018383808284378083019250505094505050505060405160208183030381529060405280519060200120905060008160405160200180807f19457468657265756d205369676e6564204d6573736167653a0a333200000000815250601c01828152602001915050604051602081830303815290604052805190602001209050600061260f8286868080601f016020809104026020016040519081016040528093929190818152602001838380828437600081840152601f19601f82011690508083019250505050505050612deb565b905061261a816120fc565b61268c576040517f08c379a000000000000000000000000000000000000000000000000000000000815260040180806020018281038252600c8152602001807f554e415554484f52495a4544000000000000000000000000000000000000000081525060200191505060405180910390fd5b505050505050505050565b61269f612f32565b600060208301905060405180604001604052808451815260200182815250915050919050565b60606000825114156126e857604051806020016040528060008152509050612823565b60006001835103846000015102905060005b835181101561272c5783818151811061270f57fe5b6020026020010151600001518201915080806001019150506126fa565b5060608167ffffffffffffffff8111801561274657600080fd5b506040519080825280601f01601f1916602001820160405280156127795781602001600182028036833780820191505090505b509050600060208201905060005b855181101561281b576127c9828783815181106127a057fe5b6020026020010151602001518884815181106127b857fe5b602002602001015160000151612ee9565b8581815181106127d557fe5b60200260200101516000015182019150600186510381101561280e576128048288602001518960000151612ee9565b8660000151820191505b8080600101915050612787565b508193505050505b92915050565b600060026000848152602001908152602001600020905060008160010160008473ffffffffffffffffffffffffffffffffffffffff1673ffffffffffffffffffffffffffffffffffffffff16815260200190815260200160002054905060008114156128fd576040517f08c379a000000000000000000000000000000000000000000000000000000000815260040180806020018281038252600a8152602001807f4e4f545f494e5f5345540000000000000000000000000000000000000000000081525060200191505060405180910390fd5b8160010160008473ffffffffffffffffffffffffffffffffffffffff1673ffffffffffffffffffffffffffffffffffffffff1681526020019081526020016000206000905560018260020160008282540392505081905550600082600001805490501115612ac05760008260000183600201548154811061297a57fe5b9060005260206000200160009054906101000a900473ffffffffffffffffffffffffffffffffffffffff1690508373ffffffffffffffffffffffffffffffffffffffff168173ffffffffffffffffffffffffffffffffffffffff1614612a7c57808360000160018403815481106129ed57fe5b9060005260206000200160006101000a81548173ffffffffffffffffffffffffffffffffffffffff021916908373ffffffffffffffffffffffffffffffffffffffff160217905550818360010160008373ffffffffffffffffffffffffffffffffffffffff1673ffffffffffffffffffffffffffffffffffffffff168152602001908152602001600020819055505b82600001805480612a8957fe5b6001900381819060005260206000200160006101000a81549073ffffffffffffffffffffffffffffffffffffffff02191690559055505b50505050565b6000806002600084815260200190815260200160002090508060020154915050919050565b6000806002600085815260200190815260200160002060010160008473ffffffffffffffffffffffffffffffffffffffff1673ffffffffffffffffffffffffffffffffffffffff168152602001908152602001600020541415905092915050565b600060026000858152602001908152602001600020905060008160010160008573ffffffffffffffffffffffffffffffffffffffff1673ffffffffffffffffffffffffffffffffffffffff1681526020019081526020016000205414612c1a576040517f08c379a000000000000000000000000000000000000000000000000000000000815260040180806020018281038252600e8152602001807f414c52454144595f494e5f53455400000000000000000000000000000000000081525060200191505060405180910390fd5b8115612d0a578060020154816000018054905014612ca0576040517f08c379a00000000000000000000000000000000000000000000000000000000081526004018080602001828103825260198152602001807f50524556494f55534c595f4e4f545f4d41494e5441494c45440000000000000081525060200191505060405180910390fd5b80600001839080600181540180825580915050600190039060005260206000200160009091909190916101000a81548173ffffffffffffffffffffffffffffffffffffffff021916908373ffffffffffffffffffffffffffffffffffffffff160217905550612d88565b6000816000018054905014612d87576040517f08c379a000000000000000000000000000000000000000000000000000000000815260040180806020018281038252600d8152602001807f4d5553545f4d41494e5441494e0000000000000000000000000000000000000081525060200191505060405180910390fd5b5b6001816002016000828254019250508190555080600201548160010160008573ffffffffffffffffffffffffffffffffffffffff1673ffffffffffffffffffffffffffffffffffffffff1681526020019081526020016000208190555050505050565b60006041825114612dff5760009050612ee3565b6000806000602085015192506040850151915060ff60418601511690507f7fffffffffffffffffffffffffffffff5d576e7357a4501ddfe92f46681b20a08260001c1115612e535760009350505050612ee3565b601b8160ff161480612e685750601c8160ff16145b15612edb5760018682858560405160008152602001604052604051808581526020018460ff1681526020018381526020018281526020019450505050506020604051602081039080840390855afa158015612ec7573d6000803e3d6000fd5b505050602060405103519350505050612ee3565b600093505050505b92915050565b5b60208110612f0d5781518352602083019250602082019150602081039050612eea565b60006001826020036101000a0390508019835116818551168181178652505050505050565b60405180604001604052806000815260200160008152509056fea2646970667358221220ef20ccbb50420a498bf2091bbb0a35bd64073ec3baf558d57cd8477739ba890864736f6c63430007030033",
  "linkReferences": {},
  "deployedLinkReferences": {}
}