{
  "contractName": "OrderRegistry",
  "abi": [
    {
      "constant": true,
      "inputs": [
        {
          "name": "",
          "type": "address"
        },
        {
          "name": "",
          "type": "bytes32"
        }
      ],
      "name": "hashMap",
      "outputs": [
        {
          "name": "",
          "type": "bool"
        }
      ],
      "payable": false,
      "stateMutability": "view",
      "type": "function"
    },
    {
      "payable": true,
      "stateMutability": "payable",
      "type": "fallback"
    },
    {
      "anonymous": false,
      "inputs": [
        {
          "indexed": false,
          "name": "broker",
          "type": "address"
        },
        {
          "indexed": false,
          "name": "orderHash",
          "type": "bytes32"
        }
      ],
      "name": "OrderRegistered",
      "type": "event"
    },
    {
      "constant": true,
      "inputs": [
        {
          "name": "broker",
          "type": "address"
        },
        {
          "name": "orderHash",
          "type": "bytes32"
        }
      ],
      "name": "isOrderHashRegistered",
      "outputs": [
        {
          "name": "",
          "type": "bool"
        }
      ],
      "payable": false,
      "stateMutability": "view",
      "type": "function"
    },
    {
      "constant": false,
      "inputs": [
        {
          "name": "orderHash",
          "type": "bytes32"
        }
      ],
      "name": "registerOrderHash",
      "outputs": [],
      "payable": false,
      "stateMutability": "nonpayable",
      "type": "function"
    }
  ],
  "bytecode": "0x608060405234801561001057600080fd5b5061039f806100206000396000f3fe608060405260043610610050577c010000000000000000000000000000000000000000000000000000000060003504631c856696811461012057806371c288211461017a578063a44c02de146101a6575b604080518082018252600b81527f554e535550504f52544544000000000000000000000000000000000000000000602080830191825292517f08c379a00000000000000000000000000000000000000000000000000000000081526004810193845282516024820152825192939283926044909201919080838360005b838110156100e55781810151838201526020016100cd565b50505050905090810190601f1680156101125780820380516001836020036101000a031916815260200191505b509250505060405180910390fd5b34801561012c57600080fd5b506101666004803603604081101561014357600080fd5b5073ffffffffffffffffffffffffffffffffffffffff81351690602001356101ec565b604080519115158252519081900360200190f35b34801561018657600080fd5b506101a46004803603602081101561019d57600080fd5b5035610222565b005b3480156101b257600080fd5b50610166600480360360408110156101c957600080fd5b5073ffffffffffffffffffffffffffffffffffffffff8135169060200135610356565b73ffffffffffffffffffffffffffffffffffffffff91909116600090815260208181526040808320938352929052205460ff1690565b33600090815260208181526040808320848452825291829020548251808401909352600d83527f414c52454144595f4558495354000000000000000000000000000000000000009183019190915260ff16156102da576040517f08c379a0000000000000000000000000000000000000000000000000000000008152600401808060200182810382528381815181526020019150805190602001908083836000838110156100e55781810151838201526020016100cd565b503360008181526020818152604080832085845282529182902080547fffffffffffffffffffffffffffffffffffffffffffffffffffffffffffffff001660011790558151928352820183905280517fb0b1ce0b2b735693ba0fd49bca7c26aac51ab40e9a71b9e88f28878a1f6d678c9281900390910190a150565b600060208181529281526040808220909352908152205460ff168156fea165627a7a723058202a9d15cf458f22ce4ca294075b08bb959ef1004581cbe8273ab8875c4c80fd500029",
  "source": "/*\n\n  Copyright 2017 Loopring Project Ltd (Loopring Foundation).\n\n  Licensed under the Apache License, Version 2.0 (the \"License\");\n  you may not use this file except in compliance with the License.\n  You may obtain a copy of the License at\n\n  http://www.apache.org/licenses/LICENSE-2.0\n\n  Unless required by applicable law or agreed to in writing, software\n  distributed under the License is distributed on an \"AS IS\" BASIS,\n  WITHOUT WARRANTIES OR CONDITIONS OF ANY KIND, either express or implied.\n  See the License for the specific language governing permissions and\n  limitations under the License.\n*/\npragma solidity 0.5.2;\n\nimport \"../iface/IOrderRegistry.sol\";\nimport \"../lib/NoDefaultFunc.sol\";\n\n\n/// @title An Implementation of IBrokerRegistry.\n/// @author Daniel Wang - <daniel@loopring.org>.\ncontract OrderRegistry is IOrderRegistry, NoDefaultFunc {\n\n    mapping (address => mapping (bytes32 => bool)) public hashMap;\n\n    event OrderRegistered(address broker, bytes32 orderHash);\n\n    function isOrderHashRegistered(\n        address broker,\n        bytes32 orderHash\n        )\n        external\n        view\n        returns (bool)\n    {\n        return hashMap[broker][orderHash];\n    }\n\n    function registerOrderHash(\n        bytes32 orderHash\n        )\n        external\n    {\n        require(hashMap[msg.sender][orderHash] == false, ALREADY_EXIST);\n        hashMap[msg.sender][orderHash] = true;\n        emit OrderRegistered(msg.sender, orderHash);\n    }\n}\n",
  "sourcePath": "/usr/local/klzhong/workspace/loopring/protocol2/contracts/impl/OrderRegistry.sol",
  "compiler": {
    "name": "solc",
    "version": "0.5.2+commit.1df8f40c.Emscripten.clang"
  },
  "schemaVersion": "3.0.0",
  "updatedAt": "2019-03-19T09:16:27.495Z",
  "devdoc": {
    "author": "Daniel Wang - <daniel@loopring.org>.",
    "methods": {},
    "title": "An Implementation of IBrokerRegistry."
  },
  "userdoc": {
    "methods": {}
  }
}