{
  "_format": "hh-sol-artifact-1",
  "contractName": "Wallet",
  "sourceName": "contracts/base/Wallet.sol",
  "abi": [
    {
      "inputs": [
        {
          "internalType": "address",
          "name": "_versionRegistry",
          "type": "address"
        }
      ],
      "stateMutability": "nonpayable",
      "type": "constructor"
    },
    {
      "anonymous": false,
      "inputs": [
        {
          "indexed": false,
          "internalType": "address",
          "name": "prevVersion",
          "type": "address"
        },
        {
          "indexed": false,
          "internalType": "address",
          "name": "newVersion",
          "type": "address"
        }
      ],
      "name": "VersionChanged",
      "type": "event"
    },
    {
      "stateMutability": "payable",
      "type": "fallback"
    },
    {
      "inputs": [],
      "name": "domainSeperator",
      "outputs": [
        {
          "internalType": "bytes32",
          "name": "",
          "type": "bytes32"
        }
      ],
      "stateMutability": "view",
      "type": "function"
    },
    {
      "inputs": [],
      "name": "owner",
      "outputs": [
        {
          "internalType": "address",
          "name": "",
          "type": "address"
        }
      ],
      "stateMutability": "view",
      "type": "function"
    },
    {
      "inputs": [
        {
          "internalType": "address",
          "name": "newVersion",
          "type": "address"
        }
      ],
      "name": "setVersion",
      "outputs": [],
      "stateMutability": "nonpayable",
      "type": "function"
    },
    {
      "inputs": [],
      "name": "version",
      "outputs": [
        {
          "internalType": "address",
          "name": "",
          "type": "address"
        }
      ],
      "stateMutability": "view",
      "type": "function"
    },
    {
      "inputs": [],
      "name": "versionRegistry",
      "outputs": [
        {
          "internalType": "address",
          "name": "",
          "type": "address"
        }
      ],
      "stateMutability": "view",
      "type": "function"
    },
    {
      "stateMutability": "payable",
      "type": "receive"
    }
  ],
  "bytecode": "0x60a060405234801561001057600080fd5b50604051610c65380380610c658339818101604052602081101561003357600080fd5b81019080805190602001909291905050508073ffffffffffffffffffffffffffffffffffffffff1660808173ffffffffffffffffffffffffffffffffffffffff1660601b815250505060805160601c610bc761009e6000398061040a52806108de5250610bc76000f3fe60806040526004361061004e5760003560e01c80632a946df81461013557806354fd4d501461018657806360893515146101c75780638da5cb5b14610208578063cb73ac561461024957610055565b3661005557005b60006100846000357fffffffff0000000000000000000000000000000000000000000000000000000016610274565b9050600073ffffffffffffffffffffffffffffffffffffffff168173ffffffffffffffffffffffffffffffffffffffff161415610129576040517f08c379a00000000000000000000000000000000000000000000000000000000081526004018080602001828103825260108152602001807f4e4f5f42494e44494e475f464f554e440000000000000000000000000000000081525060200191505060405180910390fd5b61013281610374565b50005b34801561014157600080fd5b506101846004803603602081101561015857600080fd5b81019080803573ffffffffffffffffffffffffffffffffffffffff169060200190929190505050610405565b005b34801561019257600080fd5b5061019b6108b0565b604051808273ffffffffffffffffffffffffffffffffffffffff16815260200191505060405180910390f35b3480156101d357600080fd5b506101dc6108dc565b604051808273ffffffffffffffffffffffffffffffffffffffff16815260200191505060405180910390f35b34801561021457600080fd5b5061021d610900565b604051808273ffffffffffffffffffffffffffffffffffffffff16815260200191505060405180910390f35b34801561025557600080fd5b5061025e61092c565b6040518082815260200191505060405180910390f35b60008061027f6108b0565b9050600073ffffffffffffffffffffffffffffffffffffffff168173ffffffffffffffffffffffffffffffffffffffff1614156102c057600091505061036f565b8073ffffffffffffffffffffffffffffffffffffffff16638cccc18c846040518263ffffffff1660e01b815260040180827bffffffffffffffffffffffffffffffffffffffffffffffffffffffff1916815260200191505060206040518083038186803b15801561033057600080fd5b505afa158015610344573d6000803e3d6000fd5b505050506040513d602081101561035a57600080fd5b81019080805190602001909291905050509150505b919050565b600060608273ffffffffffffffffffffffffffffffffffffffff16600036604051808383808284378083019250505092505050600060405180830381855af49150503d80600081146103e2576040519150601f19603f3d011682016040523d82523d6000602084013e6103e7565b606091505b509150915081600081146103fd57815160208301f35b815160208301fd5b8060007f000000000000000000000000000000000000000000000000000000000000000073ffffffffffffffffffffffffffffffffffffffff166338c6b575836040518263ffffffff1660e01b8152600401808273ffffffffffffffffffffffffffffffffffffffff16815260200191505060206040518083038186803b15801561048f57600080fd5b505afa1580156104a3573d6000803e3d6000fd5b505050506040513d60208110156104b957600080fd5b81019080805190602001909291905050501161053d576040517f08c379a00000000000000000000000000000000000000000000000000000000081526004018080602001828103825260178152602001807f494e56414c49445f56455253494f4e5f4144445245535300000000000000000081525060200191505060405180910390fd5b600061056c6000357fffffffff0000000000000000000000000000000000000000000000000000000016610274565b9050600073ffffffffffffffffffffffffffffffffffffffff168173ffffffffffffffffffffffffffffffffffffffff16146105b0576105ab81610374565b6108ab565b60006105ba6108b0565b9050600073ffffffffffffffffffffffffffffffffffffffff168173ffffffffffffffffffffffffffffffffffffffff161461065e576040517f08c379a00000000000000000000000000000000000000000000000000000000081526004018080602001828103825260138152602001807f494e495449414c495a45445f414c52454144590000000000000000000000000081525060200191505060405180910390fd5b80600060010160006101000a81548173ffffffffffffffffffffffffffffffffffffffff021916908373ffffffffffffffffffffffffffffffffffffffff1602179055507f716df4de7182d4621d096a14d6dd57f66c670afe2d4bac14fb34e0fdc4d29ea88185604051808373ffffffffffffffffffffffffffffffffffffffff1681526020018273ffffffffffffffffffffffffffffffffffffffff1681526020019250505060405180910390a160007f1068361fb4b95956caf942b596fa9e85b3f4d4786ce81a98a579153f9cffb24c9050600061073d82610274565b9050600073ffffffffffffffffffffffffffffffffffffffff168173ffffffffffffffffffffffffffffffffffffffff16146108a7578073ffffffffffffffffffffffffffffffffffffffff1682848860405160200180847bffffffffffffffffffffffffffffffffffffffffffffffffffffffff191681526004018373ffffffffffffffffffffffffffffffffffffffff1660601b81526014018273ffffffffffffffffffffffffffffffffffffffff1660601b815260140193505050506040516020818303038152906040526040518082805190602001908083835b6020831061083e578051825260208201915060208101905060208303925061081b565b6001836020036101000a038019825116818451168082178552505050505050905001915050600060405180830381855af49150503d806000811461089e576040519150601f19603f3d011682016040523d82523d6000602084013e6108a3565b606091505b5050505b5050505b505050565b60008060010160009054906101000a900473ffffffffffffffffffffffffffffffffffffffff16905090565b7f000000000000000000000000000000000000000000000000000000000000000081565b60008060000160009054906101000a900473ffffffffffffffffffffffffffffffffffffffff16905090565b600060606109386108b0565b73ffffffffffffffffffffffffffffffffffffffff1663cb4774c46040518163ffffffff1660e01b815260040160006040518083038186803b15801561097d57600080fd5b505afa158015610991573d6000803e3d6000fd5b505050506040513d6000823e3d601f19601f8201168201806040525060208110156109bb57600080fd5b81019080805160405193929190846401000000008211156109db57600080fd5b838201915060208201858111156109f157600080fd5b8251866001820283011164010000000082111715610a0e57600080fd5b8083526020830192505050908051906020019080838360005b83811015610a42578082015181840152602081019050610a27565b50505050905090810190601f168015610a6f5780820380516001836020036101000a031916815260200191505b506040525050509050610ae660405180606001604052806040518060400160405280600f81526020017f4c6f6f7072696e672057616c6c6574000000000000000000000000000000000081525081526020018381526020013073ffffffffffffffffffffffffffffffffffffffff16815250610aec565b91505090565b6000804690507f8b73c3c69bb8fe3d512ecc4cf759cc79239f7b179b0ffacaa9a75d522b39400f836000015180519060200120846020015180519060200120838660400151604051602001808681526020018581526020018481526020018381526020018273ffffffffffffffffffffffffffffffffffffffff168152602001955050505050506040516020818303038152906040528051906020012091505091905056fea2646970667358221220aae3049410d4dc8cc7a1e802190bcee8d9d00bdf414d71d57c537782947b7d9a64736f6c63430007030033",
  "linkReferences": {},
  "deployedLinkReferences": {}
}