{
  "_format": "hh-sol-artifact-1",
  "contractName": "ERC1271Module",
  "sourceName": "contracts/version2_0/modules/ERC1271Module.sol",
  "abi": [
    {
      "inputs": [],
      "name": "bindableMethods",
      "outputs": [
        {
          "internalType": "bytes4[]",
          "name": "methods",
          "type": "bytes4[]"
        }
      ],
      "stateMutability": "pure",
      "type": "function"
    },
    {
      "inputs": [
        {
          "internalType": "bytes32",
          "name": "_signHash",
          "type": "bytes32"
        },
        {
          "internalType": "bytes",
          "name": "_signature",
          "type": "bytes"
        }
      ],
      "name": "isValidSignature",
      "outputs": [
        {
          "internalType": "bytes4",
          "name": "magicValue",
          "type": "bytes4"
        }
      ],
      "stateMutability": "view",
      "type": "function"
    }
  ],
  "bytecode": "0x608060405234801561001057600080fd5b50610d2b806100206000396000f3fe608060405234801561001057600080fd5b50600436106100365760003560e01c80631626ba7e1461003b578063afa3363d1461006b575b600080fd5b61005560048036038101906100509190610800565b610089565b6040516100629190610adb565b60405180910390f35b610073610158565b6040516100809190610a44565b60405180910390f35b60006100956000610208565b8061013657506101346100a6610214565b73ffffffffffffffffffffffffffffffffffffffff16638da5cb5b6040518163ffffffff1660e01b815260040160206040518083038186803b1580156100eb57600080fd5b505afa1580156100ff573d6000803e3d6000fd5b505050506040513d601f19601f8201168201806040525081019061012391906107d7565b838561021c9092919063ffffffff16565b155b1561014757600060e01b9050610152565b631626ba7e60e01b90505b92915050565b6060600167ffffffffffffffff8111801561017257600080fd5b506040519080825280602002602001820160405280156101a15781602001602082028036833780820191505090505b509050631626ba7e60e01b816000815181106101b957fe5b60200260200101907bffffffffffffffffffffffffffffffffffffffffffffffffffffffff191690817bffffffffffffffffffffffffffffffffffffffffffffffffffffffff19168152505090565b60008030905050919050565b600030905090565b60008073ffffffffffffffffffffffffffffffffffffffff168373ffffffffffffffffffffffffffffffffffffffff16141561025b576000905061029d565b61027a8373ffffffffffffffffffffffffffffffffffffffff166102a4565b61028e576102898484846102e9565b61029a565b610299848484610467565b5b90505b9392505050565b600080823f90506000801b81141580156102e157507fc5d2460186f7233c927e7db2dcc703c0e500b653ca82273b7bfad8045d85a47060001b8114155b915050919050565b60008073ffffffffffffffffffffffffffffffffffffffff168373ffffffffffffffffffffffffffffffffffffffff1614156103285760009050610460565b600061033f600184516105d090919063ffffffff16565b90506000610356828561062090919063ffffffff16565b60ff16600481111561036457fe5b90508184526002600481111561037657fe5b81600481111561038257fe5b14156103c7576103928685610648565b73ffffffffffffffffffffffffffffffffffffffff168573ffffffffffffffffffffffffffffffffffffffff16149250610457565b600360048111156103d457fe5b8160048111156103e057fe5b1415610451576000866040516020016103f99190610a1e565b60405160208183030381529060405280519060200120905061041b8186610648565b73ffffffffffffffffffffffffffffffffffffffff168673ffffffffffffffffffffffffffffffffffffffff1614935050610456565b600092505b5b60018201845250505b9392505050565b60006060631626ba7e60e01b8584604051602401610486929190610a66565b604051602081830303815290604052907bffffffffffffffffffffffffffffffffffffffffffffffffffffffff19166020820180517bffffffffffffffffffffffffffffffffffffffffffffffffffffffff83818316178352505050509050600060608573ffffffffffffffffffffffffffffffffffffffff168360405161050e9190610a07565b600060405180830381855afa9150503d8060008114610549576040519150601f19603f3d011682016040523d82523d6000602084013e61054e565b606091505b5091509150818015610561575060208151145b80156105c45750631626ba7e60e01b7bffffffffffffffffffffffffffffffffffffffffffffffffffffffff19166105a360008361073190919063ffffffff16565b7bffffffffffffffffffffffffffffffffffffffffffffffffffffffff1916145b93505050509392505050565b600082821115610615576040517f08c379a000000000000000000000000000000000000000000000000000000000815260040161060c90610af6565b60405180910390fd5b818303905092915050565b6000600182018351101561063357600080fd5b60008260018501015190508091505092915050565b6000604182511461065c576000905061072b565b6000806000602085015192506040850151915060ff60418601511690507f7fffffffffffffffffffffffffffffff5d576e7357a4501ddfe92f46681b20a08260001c11156106b0576000935050505061072b565b601b8160ff1614806106c55750601c8160ff16145b1561072357600186828585604051600081526020016040526040516106ed9493929190610a96565b6020604051602081039080840390855afa15801561070f573d6000803e3d6000fd5b50505060206040510351935050505061072b565b600093505050505b92915050565b6000600482018351101561074457600080fd5b60008260208501015190508091505092915050565b60008151905061076881610cc7565b92915050565b60008135905061077d81610cde565b92915050565b600082601f83011261079457600080fd5b81356107a76107a282610b47565b610b16565b915080825260208301602083018583830111156107c357600080fd5b6107ce838284610c68565b50505092915050565b6000602082840312156107e957600080fd5b60006107f784828501610759565b91505092915050565b6000806040838503121561081357600080fd5b60006108218582860161076e565b925050602083013567ffffffffffffffff81111561083e57600080fd5b61084a85828601610783565b9150509250929050565b600061086083836108f0565b60208301905092915050565b600061087782610b87565b6108818185610baa565b935061088c83610b77565b8060005b838110156108bd5781516108a48882610854565b97506108af83610b9d565b925050600181019050610890565b5085935050505092915050565b6108d381610c05565b82525050565b6108ea6108e582610c05565b610caa565b82525050565b6108f981610c0f565b82525050565b61090881610c0f565b82525050565b600061091982610b92565b6109238185610bbb565b9350610933818560208601610c77565b61093c81610cb6565b840191505092915050565b600061095282610b92565b61095c8185610bcc565b935061096c818560208601610c77565b80840191505092915050565b6000610985601c83610be8565b91507f19457468657265756d205369676e6564204d6573736167653a0a3332000000006000830152601c82019050919050565b60006109c5600d83610bd7565b91507f5355425f554e444552464c4f57000000000000000000000000000000000000006000830152602082019050919050565b610a0181610c5b565b82525050565b6000610a138284610947565b915081905092915050565b6000610a2982610978565b9150610a3582846108d9565b60208201915081905092915050565b60006020820190508181036000830152610a5e818461086c565b905092915050565b6000604082019050610a7b60008301856108ca565b8181036020830152610a8d818461090e565b90509392505050565b6000608082019050610aab60008301876108ca565b610ab860208301866109f8565b610ac560408301856108ca565b610ad260608301846108ca565b95945050505050565b6000602082019050610af060008301846108ff565b92915050565b60006020820190508181036000830152610b0f816109b8565b9050919050565b6000604051905081810181811067ffffffffffffffff82111715610b3d57610b3c610cb4565b5b8060405250919050565b600067ffffffffffffffff821115610b6257610b61610cb4565b5b601f19601f8301169050602081019050919050565b6000819050602082019050919050565b600081519050919050565b600081519050919050565b6000602082019050919050565b600082825260208201905092915050565b600082825260208201905092915050565b600081905092915050565b600082825260208201905092915050565b600081905092915050565b6000610bfe82610c3b565b9050919050565b6000819050919050565b60007fffffffff0000000000000000000000000000000000000000000000000000000082169050919050565b600073ffffffffffffffffffffffffffffffffffffffff82169050919050565b600060ff82169050919050565b82818337600083830152505050565b60005b83811015610c95578082015181840152602081019050610c7a565b83811115610ca4576000848401525b50505050565b6000819050919050565bfe5b6000601f19601f8301169050919050565b610cd081610bf3565b8114610cdb57600080fd5b50565b610ce781610c05565b8114610cf257600080fd5b5056fea2646970667358221220918af7d65d0eccac934a70b2d8beba61052513bd94265e811978651b47a3120064736f6c63430007030033",
  "linkReferences": {},
  "deployedLinkReferences": {}
}