{
    "contractName": "BrokerRegistry",
    "abi": [
        {
            "constant": true,
            "inputs": [
                {
                    "name": "",
                    "type": "address"
                },
                {
                    "name": "",
                    "type": "uint256"
                }
            ],
            "name": "brokersMap",
            "outputs": [
                {
                    "name": "owner",
                    "type": "address"
                },
                {
                    "name": "addr",
                    "type": "address"
                },
                {
                    "name": "interceptor",
                    "type": "address"
                }
            ],
            "payable": false,
            "stateMutability": "view",
            "type": "function"
        },
        {
            "constant": true,
            "inputs": [
                {
                    "name": "",
                    "type": "address"
                },
                {
                    "name": "",
                    "type": "address"
                }
            ],
            "name": "positionMap",
            "outputs": [
                {
                    "name": "",
                    "type": "uint256"
                }
            ],
            "payable": false,
            "stateMutability": "view",
            "type": "function"
        },
        {
            "payable": true,
            "stateMutability": "payable",
            "type": "fallback"
        },
        {
            "anonymous": false,
            "inputs": [
                {
                    "indexed": false,
                    "name": "owner",
                    "type": "address"
                },
                {
                    "indexed": false,
                    "name": "broker",
                    "type": "address"
                },
                {
                    "indexed": false,
                    "name": "interceptor",
                    "type": "address"
                }
            ],
            "name": "BrokerRegistered",
            "type": "event"
        },
        {
            "anonymous": false,
            "inputs": [
                {
                    "indexed": false,
                    "name": "owner",
                    "type": "address"
                },
                {
                    "indexed": false,
                    "name": "broker",
                    "type": "address"
                },
                {
                    "indexed": false,
                    "name": "interceptor",
                    "type": "address"
                }
            ],
            "name": "BrokerUnregistered",
            "type": "event"
        },
        {
            "anonymous": false,
            "inputs": [
                {
                    "indexed": false,
                    "name": "owner",
                    "type": "address"
                }
            ],
            "name": "AllBrokersUnregistered",
            "type": "event"
        },
        {
            "constant": true,
            "inputs": [
                {
                    "name": "owner",
                    "type": "address"
                },
                {
                    "name": "addr",
                    "type": "address"
                }
            ],
            "name": "getBroker",
            "outputs": [
                {
                    "name": "registered",
                    "type": "bool"
                },
                {
                    "name": "interceptor",
                    "type": "address"
                }
            ],
            "payable": false,
            "stateMutability": "view",
            "type": "function"
        },
        {
            "constant": true,
            "inputs": [
                {
                    "name": "owner",
                    "type": "address"
                },
                {
                    "name": "start",
                    "type": "uint256"
                },
                {
                    "name": "count",
                    "type": "uint256"
                }
            ],
            "name": "getBrokers",
            "outputs": [
                {
                    "name": "brokers",
                    "type": "address[]"
                },
                {
                    "name": "interceptors",
                    "type": "address[]"
                }
            ],
            "payable": false,
            "stateMutability": "view",
            "type": "function"
        },
        {
            "constant": false,
            "inputs": [
                {
                    "name": "broker",
                    "type": "address"
                },
                {
                    "name": "interceptor",
                    "type": "address"
                }
            ],
            "name": "registerBroker",
            "outputs": [],
            "payable": false,
            "stateMutability": "nonpayable",
            "type": "function"
        },
        {
            "constant": false,
            "inputs": [
                {
                    "name": "addr",
                    "type": "address"
                }
            ],
            "name": "unregisterBroker",
            "outputs": [],
            "payable": false,
            "stateMutability": "nonpayable",
            "type": "function"
        },
        {
            "constant": false,
            "inputs": [],
            "name": "unregisterAllBrokers",
            "outputs": [],
            "payable": false,
            "stateMutability": "nonpayable",
            "type": "function"
        },
        {
            "constant": true,
            "inputs": [
                {
                    "name": "addr",
                    "type": "address"
                }
            ],
            "name": "isContract",
            "outputs": [
                {
                    "name": "",
                    "type": "bool"
                }
            ],
            "payable": false,
            "stateMutability": "view",
            "type": "function"
        }
    ],
    "bytecode": "0x608060405234801561001057600080fd5b50611025806100206000396000f3fe608060405260043610610098576000357c010000000000000000000000000000000000000000000000000000000090048063a11e8cd31161006b578063a11e8cd3146102fc578063b790b1ca1461033c578063e4bf9a3114610421578063fab7c9ea1461047b57610098565b806316279055146101685780632dfc6eed146101bc57806332ed41981461023457806340b8d0291461027e575b604080518082018252600b81527f554e535550504f52544544000000000000000000000000000000000000000000602080830191825292517f08c379a00000000000000000000000000000000000000000000000000000000081526004810193845282516024820152825192939283926044909201919080838360005b8381101561012d578181015183820152602001610115565b50505050905090810190601f16801561015a5780820380516001836020036101000a031916815260200191505b509250505060405180910390fd5b34801561017457600080fd5b506101a86004803603602081101561018b57600080fd5b503573ffffffffffffffffffffffffffffffffffffffff16610490565b604080519115158252519081900360200190f35b3480156101c857600080fd5b50610204600480360360408110156101df57600080fd5b5073ffffffffffffffffffffffffffffffffffffffff81358116916020013516610498565b60408051921515835273ffffffffffffffffffffffffffffffffffffffff90911660208301528051918290030190f35b34801561024057600080fd5b5061027c6004803603604081101561025757600080fd5b5073ffffffffffffffffffffffffffffffffffffffff8135811691602001351661056c565b005b34801561028a57600080fd5b506102c4600480360360408110156102a157600080fd5b5073ffffffffffffffffffffffffffffffffffffffff81351690602001356108c8565b6040805173ffffffffffffffffffffffffffffffffffffffff9485168152928416602084015292168183015290519081900360600190f35b34801561030857600080fd5b5061027c6004803603602081101561031f57600080fd5b503573ffffffffffffffffffffffffffffffffffffffff16610923565b34801561034857600080fd5b506103886004803603606081101561035f57600080fd5b5073ffffffffffffffffffffffffffffffffffffffff8135169060208101359060400135610c9f565b604051808060200180602001838103835285818151815260200191508051906020019060200280838360005b838110156103cc5781810151838201526020016103b4565b50505050905001838103825284818151815260200191508051906020019060200280838360005b8381101561040b5781810151838201526020016103f3565b5050505090500194505050505060405180910390f35b34801561042d57600080fd5b506104696004803603604081101561044457600080fd5b5073ffffffffffffffffffffffffffffffffffffffff81358116916020013516610e43565b60408051918252519081900360200190f35b34801561048757600080fd5b5061027c610e60565b6000903b1190565b73ffffffffffffffffffffffffffffffffffffffff808316600090815260016020908152604080832093851683529290529081205481908015156104df5760009250610564565b73ffffffffffffffffffffffffffffffffffffffff851660009081526020819052604081208054600195507fffffffffffffffffffffffffffffffffffffffffffffffffffffffffffffffff840190811061053657fe5b600091825260209091206002600390920201015473ffffffffffffffffffffffffffffffffffffffff169250505b509250929050565b60408051808201909152600c81527f5a45524f5f414444524553530000000000000000000000000000000000000000602082015273ffffffffffffffffffffffffffffffffffffffff8316151561061f576040517f08c379a00000000000000000000000000000000000000000000000000000000081526004018080602001828103825283818151815260200191508051906020019080838360008381101561012d578181015183820152602001610115565b5033600090815260016020908152604080832073ffffffffffffffffffffffffffffffffffffffff86168452825291829020548251808401909352600d83527f414c52454144595f45584953540000000000000000000000000000000000000091830191909152156106ed576040517f08c379a00000000000000000000000000000000000000000000000000000000081526004018080602001828103825283818151815260200191508051906020019080838360008381101561012d578181015183820152602001610115565b5073ffffffffffffffffffffffffffffffffffffffff8116156107b25761071381610490565b60408051808201909152600f81527f494e56414c49445f41444452455353000000000000000000000000000000000060208201529015156107b0576040517f08c379a00000000000000000000000000000000000000000000000000000000081526004018080602001828103825283818151815260200191508051906020019080838360008381101561012d578181015183820152602001610115565b505b3360009081526020819052604090206107c9610f2a565b5060408051606081810183523380835273ffffffffffffffffffffffffffffffffffffffff87811660208086018281528984168789018181528a5460018181018d5560008d81528681208c516003909402018054938a167fffffffffffffffffffffffff000000000000000000000000000000000000000094851617815595518683018054918b16918516919091179055925160029095018054959098169490911693909317909555895486865291835288852084865283529388902055865193845283015281850152925191927f36b7b2ff29211c57984199f61a0826290aca04fd09908a2bee3ec66c9ab158aa929081900390910190a150505050565b6000602052816000526040600020818154811015156108e357fe5b600091825260209091206003909102018054600182015460029092015473ffffffffffffffffffffffffffffffffffffffff918216945091811692501683565b60408051808201909152600c81527f5a45524f5f414444524553530000000000000000000000000000000000000000602082015273ffffffffffffffffffffffffffffffffffffffff821615156109d6576040517f08c379a00000000000000000000000000000000000000000000000000000000081526004018080602001828103825283818151815260200191508051906020019080838360008381101561012d578181015183820152602001610115565b5033600090815260016020908152604080832073ffffffffffffffffffffffffffffffffffffffff85168452825291829020548251808401909352600983527f4e4f545f464f554e4400000000000000000000000000000000000000000000009183019190915290811515610aa7576040517f08c379a00000000000000000000000000000000000000000000000000000000081526004018080602001828103825283818151815260200191508051906020019080838360008381101561012d578181015183820152602001610115565b5033600090815260208190526040812080549091827fffffffffffffffffffffffffffffffffffffffffffffffffffffffffffffffff8501838110610ae857fe5b600091825260209091206002600390920201015473ffffffffffffffffffffffffffffffffffffffff169050838214610bf45760008360018403815481101515610b2e57fe5b90600052602060002090600302019050808460018703815481101515610b5057fe5b60009182526020808320845460039093020180547fffffffffffffffffffffffff000000000000000000000000000000000000000090811673ffffffffffffffffffffffffffffffffffffffff94851617825560018087015481840180548416918716919091179055600296870154969092018054909116958416959095179094558454821683528381526040808420959094015490911682529290925290208490555b82547fffffffffffffffffffffffffffffffffffffffffffffffffffffffffffffffff01610c228482610f4a565b5033600081815260016020908152604080832073ffffffffffffffffffffffffffffffffffffffff8a81168086529184528285209490945581519485529184019190915290831682820152517f0480c7b23494c0d6fbacb5f122d0caa2d603f94ba89de1da0aa4247d498452a99181900360600190a15050505050565b73ffffffffffffffffffffffffffffffffffffffff8316600090815260208190526040902080546060918291808610610cda5750610e3b9050565b85850181811115610ce85750805b868103604051908082528060200260200182016040528015610d14578160200160208202803883390190505b509450868103604051908082528060200260200182016040528015610d43578160200160208202803883390190505b509350865b81811015610e36578381815481101515610d5e57fe5b6000918252602090912060016003909202010154865173ffffffffffffffffffffffffffffffffffffffff9091169087908a8403908110610d9b57fe5b73ffffffffffffffffffffffffffffffffffffffff9092166020928302909101909101528354849082908110610dcd57fe5b6000918252602090912060026003909202010154855173ffffffffffffffffffffffffffffffffffffffff9091169086908a8403908110610e0a57fe5b73ffffffffffffffffffffffffffffffffffffffff909216602092830290910190910152600101610d48565b505050505b935093915050565b600160209081526000928352604080842090915290825290205481565b336000908152602081905260408120905b8154811015610edb573360009081526001602052604081208354909190849084908110610e9a57fe5b60009182526020808320600160039093020182015473ffffffffffffffffffffffffffffffffffffffff168452830193909352604090910181205501610e71565b50336000908152602081905260408120610ef491610f7b565b6040805133815290517f80c479028bb8b0b4f9ed6662dbfb9dc998a199c22cf1c0d9925e6086bd29d5759181900360200190a150565b604080516060810182526000808252602082018190529181019190915290565b815481835581811115610f7657600302816003028360005260206000209182019101610f769190610f9f565b505050565b5080546000825560030290600052602060002090810190610f9c9190610f9f565b50565b610ff691905b80821115610ff25780547fffffffffffffffffffffffff00000000000000000000000000000000000000009081168255600182018054821690556002820180549091169055600301610fa5565b5090565b9056fea165627a7a723058202e1e414a20a4bd9088bb9c71b4cd50ce541e034d7ee4cdaaad9372ef4a9c0ba90029",
    "source": "/*\n\n  Copyright 2017 Loopring Project Ltd (Loopring Foundation).\n\n  Licensed under the Apache License, Version 2.0 (the \"License\");\n  you may not use this file except in compliance with the License.\n  You may obtain a copy of the License at\n\n  http://www.apache.org/licenses/LICENSE-2.0\n\n  Unless required by applicable law or agreed to in writing, software\n  distributed under the License is distributed on an \"AS IS\" BASIS,\n  WITHOUT WARRANTIES OR CONDITIONS OF ANY KIND, either express or implied.\n  See the License for the specific language governing permissions and\n  limitations under the License.\n*/\npragma solidity 0.5.2;\n\nimport \"../iface/Errors.sol\";\nimport \"../iface/IBrokerRegistry.sol\";\nimport \"../lib/NoDefaultFunc.sol\";\n\n\n/// @title An Implementation of IBrokerRegistry.\n/// @author Daniel Wang - <daniel@loopring.org>.\ncontract BrokerRegistry is IBrokerRegistry, NoDefaultFunc {\n    struct Broker {\n        address owner;\n        address addr;\n        address interceptor;\n    }\n\n    mapping (address => Broker[]) public brokersMap;\n    mapping (address => mapping (address => uint)) public positionMap;\n\n    function getBroker(\n        address owner,\n        address addr\n        )\n        external\n        view\n        returns(\n            bool registered,\n            address interceptor\n        )\n    {\n        uint pos = positionMap[owner][addr];\n        if (pos == 0) {\n            registered = false;\n        } else {\n            registered = true;\n            Broker storage broker = brokersMap[owner][pos - 1];\n            interceptor = broker.interceptor;\n        }\n    }\n\n    function getBrokers(\n        address owner,\n        uint    start,\n        uint    count\n        )\n        external\n        view\n        returns (\n            address[] memory brokers,\n            address[] memory interceptors\n        )\n    {\n        Broker[] storage _brokers = brokersMap[owner];\n        uint size = _brokers.length;\n\n        if (start >= size) {\n            return (brokers, interceptors);\n        }\n\n        uint end = start + count;\n        if (end > size) {\n            end = size;\n        }\n\n        brokers = new address[](end - start);\n        interceptors = new address[](end - start);\n\n        for (uint i = start; i < end; i++) {\n            brokers[i - start] = _brokers[i].addr;\n            interceptors[i - start] = _brokers[i].interceptor;\n        }\n    }\n\n    function registerBroker(\n        address broker,\n        address interceptor  // 0x0 allowed\n        )\n        external\n    {\n        require(address(0x0) != broker, ZERO_ADDRESS);\n        require(\n            0 == positionMap[msg.sender][broker],\n            ALREADY_EXIST\n        );\n\n        if (interceptor != address(0x0)) {\n            require(isContract(interceptor), INVALID_ADDRESS);\n        }\n\n        Broker[] storage brokers = brokersMap[msg.sender];\n        Broker memory b = Broker(\n            msg.sender,\n            broker,\n            interceptor\n        );\n\n        brokers.push(b);\n        positionMap[msg.sender][broker] = brokers.length;\n\n        emit BrokerRegistered(\n            msg.sender,\n            broker,\n            interceptor\n        );\n    }\n\n    function unregisterBroker(\n        address addr\n        )\n        external\n    {\n        require(address(0x0) != addr, ZERO_ADDRESS);\n\n        uint pos = positionMap[msg.sender][addr];\n        require(pos != 0, NOT_FOUND);\n\n        Broker[] storage brokers = brokersMap[msg.sender];\n        uint size = brokers.length;\n\n        address interceptor = brokers[pos - 1].interceptor;\n        if (pos != size) {\n            Broker storage lastOne = brokers[size - 1];\n            brokers[pos - 1] = lastOne;\n            positionMap[lastOne.owner][lastOne.addr] = pos;\n        }\n\n        brokers.length -= 1;\n        delete positionMap[msg.sender][addr];\n\n        emit BrokerUnregistered(\n            msg.sender,\n            addr,\n            interceptor\n        );\n    }\n\n    function unregisterAllBrokers(\n        )\n        external\n    {\n        Broker[] storage brokers = brokersMap[msg.sender];\n\n        for (uint i = 0; i < brokers.length; i++) {\n            delete positionMap[msg.sender][brokers[i].addr];\n        }\n        delete brokersMap[msg.sender];\n\n        emit AllBrokersUnregistered(msg.sender);\n    }\n\n    // Currently here to work around InternalCompilerErrors when implemented\n    // in a library. Because extcodesize is used the function cannot be pure,\n    // so view is used which sometimes gives InternalCompilerErrors when\n    // combined with internal.\n    function isContract(\n        address addr\n        )\n        public\n        view\n        returns (bool)\n    {\n        uint size;\n        assembly { size := extcodesize(addr) }\n        return size > 0;\n    }\n}\n",
    "sourcePath": "/usr/local/klzhong/workspace/loopring/protocol2/contracts/impl/BrokerRegistry.sol",
    "compiler": {
        "name": "solc",
        "version": "0.5.2+commit.1df8f40c.Emscripten.clang"
    },
    "schemaVersion": "3.0.0",
    "updatedAt": "2019-03-19T09:16:27.473Z",
    "devdoc": {
        "author": "Daniel Wang - <daniel@loopring.org>.",
        "methods": {},
        "title": "An Implementation of IBrokerRegistry."
    },
    "userdoc": {
        "methods": {}
    }
}