{
    "contractName": "DummyBrokerInterceptor",
    "abi": [
        {
            "constant": true,
            "inputs": [
                {
                    "name": "",
                    "type": "address"
                },
                {
                    "name": "",
                    "type": "address"
                },
                {
                    "name": "",
                    "type": "address"
                }
            ],
            "name": "spent",
            "outputs": [
                {
                    "name": "",
                    "type": "uint256"
                }
            ],
            "payable": false,
            "stateMutability": "view",
            "type": "function"
        },
        {
            "constant": true,
            "inputs": [],
            "name": "submitRingsData",
            "outputs": [
                {
                    "name": "",
                    "type": "bytes"
                }
            ],
            "payable": false,
            "stateMutability": "view",
            "type": "function"
        },
        {
            "constant": true,
            "inputs": [
                {
                    "name": "",
                    "type": "address"
                },
                {
                    "name": "",
                    "type": "address"
                },
                {
                    "name": "",
                    "type": "address"
                }
            ],
            "name": "allowance",
            "outputs": [
                {
                    "name": "",
                    "type": "uint256"
                }
            ],
            "payable": false,
            "stateMutability": "view",
            "type": "function"
        },
        {
            "constant": true,
            "inputs": [],
            "name": "exchangeAddress",
            "outputs": [
                {
                    "name": "",
                    "type": "address"
                }
            ],
            "payable": false,
            "stateMutability": "view",
            "type": "function"
        },
        {
            "constant": true,
            "inputs": [],
            "name": "doReentrancyAttack",
            "outputs": [
                {
                    "name": "",
                    "type": "bool"
                }
            ],
            "payable": false,
            "stateMutability": "view",
            "type": "function"
        },
        {
            "constant": true,
            "inputs": [],
            "name": "doFailAllFunctions",
            "outputs": [
                {
                    "name": "",
                    "type": "bool"
                }
            ],
            "payable": false,
            "stateMutability": "view",
            "type": "function"
        },
        {
            "inputs": [
                {
                    "name": "_exchangeAddress",
                    "type": "address"
                }
            ],
            "payable": false,
            "stateMutability": "nonpayable",
            "type": "constructor"
        },
        {
            "constant": true,
            "inputs": [
                {
                    "name": "owner",
                    "type": "address"
                },
                {
                    "name": "broker",
                    "type": "address"
                },
                {
                    "name": "token",
                    "type": "address"
                }
            ],
            "name": "getAllowance",
            "outputs": [
                {
                    "name": "",
                    "type": "uint256"
                }
            ],
            "payable": false,
            "stateMutability": "view",
            "type": "function"
        },
        {
            "constant": false,
            "inputs": [
                {
                    "name": "owner",
                    "type": "address"
                },
                {
                    "name": "broker",
                    "type": "address"
                },
                {
                    "name": "token",
                    "type": "address"
                },
                {
                    "name": "amount",
                    "type": "uint256"
                }
            ],
            "name": "onTokenSpent",
            "outputs": [
                {
                    "name": "ok",
                    "type": "bool"
                }
            ],
            "payable": false,
            "stateMutability": "nonpayable",
            "type": "function"
        },
        {
            "constant": false,
            "inputs": [
                {
                    "name": "broker",
                    "type": "address"
                },
                {
                    "name": "owner",
                    "type": "address"
                },
                {
                    "name": "token",
                    "type": "address"
                },
                {
                    "name": "amount",
                    "type": "uint256"
                }
            ],
            "name": "setAllowance",
            "outputs": [],
            "payable": false,
            "stateMutability": "nonpayable",
            "type": "function"
        },
        {
            "constant": false,
            "inputs": [
                {
                    "name": "_enable",
                    "type": "bool"
                },
                {
                    "name": "_submitRingsData",
                    "type": "bytes"
                }
            ],
            "name": "setReentrancyAttackEnabled",
            "outputs": [],
            "payable": false,
            "stateMutability": "nonpayable",
            "type": "function"
        },
        {
            "constant": false,
            "inputs": [
                {
                    "name": "_doFailAllFunctions",
                    "type": "bool"
                }
            ],
            "name": "setFailAllFunctions",
            "outputs": [],
            "payable": false,
            "stateMutability": "nonpayable",
            "type": "function"
        }
    ],
    "bytecode": "0x608060405260028054600160a860020a03191690556004805460ff1916905534801561002a57600080fd5b50604051602080610b8f8339810180604052602081101561004a57600080fd5b5051600160a060020a03811615156100ad576040517f08c379a0000000000000000000000000000000000000000000000000000000008152600401808060200182810382526022815260200180610b6d6022913960400191505060405180910390fd5b60028054600160a060020a031916600160a060020a0392909216919091179055610a91806100dc6000396000f3fe608060405234801561001057600080fd5b50600436106100e6576000357c0100000000000000000000000000000000000000000000000000000000900480639e80e44d1161009e578063e0a1647111610078578063e0a1647114610394578063e7092b411461039c578063fe76cc7b146103e1576100e6565b80639e80e44d146102e6578063a707037314610343578063a8f6be321461038c576100e6565b806365ea35bc116100cf57806365ea35bc146101f3578063927da105146102705780639cd01605146102b5576100e6565b80631bdff7e6146100eb578063508a980c14610142575b600080fd5b6101306004803603606081101561010157600080fd5b5073ffffffffffffffffffffffffffffffffffffffff8135811691602081013582169160409091013516610400565b60408051918252519081900360200190f35b6101f16004803603604081101561015857600080fd5b81351515919081019060408101602082013564010000000081111561017c57600080fd5b82018360208201111561018e57600080fd5b803590602001918460018302840111640100000000831117156101b057600080fd5b91908080601f016020809104026020016040519081016040528093929190818152602001838380828437600092019190915250929550610422945050505050565b005b6101fb6105b4565b6040805160208082528351818301528351919283929083019185019080838360005b8381101561023557818101518382015260200161021d565b50505050905090810190601f1680156102625780820380516001836020036101000a031916815260200191505b509250505060405180910390f35b6101306004803603606081101561028657600080fd5b5073ffffffffffffffffffffffffffffffffffffffff8135811691602081013582169160409091013516610660565b6102bd610683565b6040805173ffffffffffffffffffffffffffffffffffffffff9092168252519081900360200190f35b61032f600480360360808110156102fc57600080fd5b5073ffffffffffffffffffffffffffffffffffffffff81358116916020810135821691604082013516906060013561069f565b604080519115158252519081900360200190f35b6101f16004803603608081101561035957600080fd5b5073ffffffffffffffffffffffffffffffffffffffff8135811691602081013582169160408201351690606001356108bf565b61032f610901565b61032f610922565b610130600480360360608110156103b257600080fd5b5073ffffffffffffffffffffffffffffffffffffffff813581169160208101358216916040909101351661092b565b6101f1600480360360208110156103f757600080fd5b50351515610999565b6000602081815293815260408082208552928152828120909352825290205481565b600280547fffffffffffffffffffffff00ffffffffffffffffffffffffffffffffffffffff1674010000000000000000000000000000000000000000841515021790558051604080518281526020601f84017fffffffffffffffffffffffffffffffffffffffffffffffffffffffffffffffe0168201019091529080156104b0576020820181803883390190505b5080516104c5916003916020909101906109ca565b5060005b81518110156105af5781818151811015156104e057fe5b9060200101517f010000000000000000000000000000000000000000000000000000000000000090047f010000000000000000000000000000000000000000000000000000000000000002600382815460018160011615610100020316600290048110151561054b57fe5b81546001161561056a5790600052602060002090602091828204019190065b601f036101000a81548160ff021916907f01000000000000000000000000000000000000000000000000000000000000008404021790555080806001019150506104c9565b505050565b6003805460408051602060026001851615610100027fffffffffffffffffffffffffffffffffffffffffffffffffffffffffffffffff0190941693909304601f810184900484028201840190925281815292918301828280156106585780601f1061062d57610100808354040283529160200191610658565b820191906000526020600020905b81548152906001019060200180831161063b57829003601f168201915b505050505081565b600160209081526000938452604080852082529284528284209052825290205481565b60025473ffffffffffffffffffffffffffffffffffffffff1681565b60045460009060ff16156107305773ffffffffffffffffffffffffffffffffffffffff85161561073057604080517f08c379a000000000000000000000000000000000000000000000000000000000815260206004820152600a60248201527f46616b6520636865636b00000000000000000000000000000000000000000000604482015290519081900360640190fd5b60025474010000000000000000000000000000000000000000900460ff161561087257600280546040517fcbaef59b000000000000000000000000000000000000000000000000000000008152602060048201908152600380547fffffffffffffffffffffffffffffffffffffffffffffffffffffffffffffffff6001821615610100020116949094046024830181905273ffffffffffffffffffffffffffffffffffffffff9093169363cbaef59b9390928291604490910190849080156108395780601f1061080e57610100808354040283529160200191610839565b820191906000526020600020905b81548152906001019060200180831161081c57829003601f168201915b505092505050600060405180830381600087803b15801561085957600080fd5b505af115801561086d573d6000803e3d6000fd5b505050505b5073ffffffffffffffffffffffffffffffffffffffff9283166000908152602081815260408083209686168352958152858220939094168152919092529190912080549091019055600190565b73ffffffffffffffffffffffffffffffffffffffff93841660009081526001602090815260408083209587168352948152848220939095168152919093522055565b60025474010000000000000000000000000000000000000000900460ff1681565b60045460ff1681565b60045460009060ff16156109575773ffffffffffffffffffffffffffffffffffffffff84161561095757fe5b5073ffffffffffffffffffffffffffffffffffffffff918216600090815260016020908152604080832095851683529481528482209290931681529152205490565b600480547fffffffffffffffffffffffffffffffffffffffffffffffffffffffffffffff0016911515919091179055565b828054600181600116156101000203166002900490600052602060002090601f016020900481019282601f10610a0b57805160ff1916838001178555610a38565b82800160010185558215610a38579182015b82811115610a38578251825591602001919060010190610a1d565b50610a44929150610a48565b5090565b610a6291905b80821115610a445760008155600101610a4e565b9056fea165627a7a72305820de42ceca9d980789e2140276821208195b03d1917ce4fd3682ea29aff40b1058002945786368616e67652061646472657373206e6565647320746f2062652076616c6964",
    "source": "/*\n\n  Copyright 2017 Loopring Project Ltd (Loopring Foundation).\n\n  Licensed under the Apache License, Version 2.0 (the \"License\");\n  you may not use this file except in compliance with the License.\n  You may obtain a copy of the License at\n\n  http://www.apache.org/licenses/LICENSE-2.0\n\n  Unless required by applicable law or agreed to in writing, software\n  distributed under the License is distributed on an \"AS IS\" BASIS,\n  WITHOUT WARRANTIES OR CONDITIONS OF ANY KIND, either express or implied.\n  See the License for the specific language governing permissions and\n  limitations under the License.\n*/\npragma solidity 0.5.2;\n\nimport \"../iface/IBrokerInterceptor.sol\";\nimport \"../iface/IRingSubmitter.sol\";\n\n/// @author Brecht Devos - <brecht@loopring.org>\ncontract DummyBrokerInterceptor is IBrokerInterceptor {\n\n    mapping(address => mapping(address => mapping(address => uint))) public spent;\n    mapping(address => mapping(address => mapping(address => uint))) public allowance;\n\n    address public exchangeAddress = address(0x0);\n\n    bool public doReentrancyAttack = false;\n    bytes public submitRingsData;\n\n    bool public doFailAllFunctions = false;\n\n    constructor(\n        address _exchangeAddress\n        )\n        public\n    {\n        require(_exchangeAddress != address(0x0), \"Exchange address needs to be valid\");\n        exchangeAddress = _exchangeAddress;\n    }\n\n    function getAllowance(\n        address owner,\n        address broker,\n        address token\n        )\n        public\n        view\n        returns (uint)\n    {\n        if (doFailAllFunctions) {\n            assert(owner == address(0x0));\n        }\n        return allowance[broker][owner][token];\n    }\n\n    function onTokenSpent(\n        address owner,\n        address broker,\n        address token,\n        uint    amount\n        )\n        public\n        returns (bool ok)\n    {\n        if (doFailAllFunctions) {\n            require(owner == address(0x0), \"Fake check\");\n        }\n        if (doReentrancyAttack) {\n            IRingSubmitter(exchangeAddress).submitRings(submitRingsData);\n        }\n        spent[broker][owner][token] += amount;\n        ok = true;\n    }\n\n    function setAllowance(\n        address broker,\n        address owner,\n        address token,\n        uint amount\n        )\n        public\n    {\n        allowance[broker][owner][token] = amount;\n    }\n\n    function setReentrancyAttackEnabled(\n        bool _enable,\n        bytes memory _submitRingsData\n        )\n        public\n    {\n        doReentrancyAttack = _enable;\n        submitRingsData = new bytes(_submitRingsData.length);\n        for (uint i = 0; i < _submitRingsData.length; i++) {\n            submitRingsData[i] = _submitRingsData[i];\n        }\n    }\n\n    function setFailAllFunctions(\n        bool _doFailAllFunctions\n        )\n        public\n    {\n        doFailAllFunctions = _doFailAllFunctions;\n    }\n\n}\n",
    "sourcePath": "/usr/local/klzhong/workspace/loopring/protocol2/contracts/test/DummyBrokerInterceptor.sol",
    "compiler": {
        "name": "solc",
        "version": "0.5.2+commit.1df8f40c.Emscripten.clang"
    },
    "schemaVersion": "3.0.0",
    "updatedAt": "2019-03-19T09:16:27.521Z",
    "devdoc": {
        "author": "Brecht Devos - <brecht@loopring.org>",
        "methods": {}
    },
    "userdoc": {
        "methods": {}
    }
}