{
    "contractName": "DummyBurnManager",
    "abi": [
        {
            "constant": true,
            "inputs": [],
            "name": "feeHolderAddress",
            "outputs": [
                {
                    "name": "",
                    "type": "address"
                }
            ],
            "payable": false,
            "stateMutability": "view",
            "type": "function"
        },
        {
            "inputs": [
                {
                    "name": "_feeHolderAddress",
                    "type": "address"
                }
            ],
            "payable": false,
            "stateMutability": "nonpayable",
            "type": "constructor"
        },
        {
            "constant": false,
            "inputs": [
                {
                    "name": "token",
                    "type": "address"
                },
                {
                    "name": "value",
                    "type": "uint256"
                }
            ],
            "name": "withdrawBurned",
            "outputs": [
                {
                    "name": "success",
                    "type": "bool"
                }
            ],
            "payable": false,
            "stateMutability": "nonpayable",
            "type": "function"
        }
    ],
    "bytecode": "0x608060405260008054600160a060020a031916905534801561002057600080fd5b5060405160208061023e8339810180604052602081101561004057600080fd5b505160008054600160a060020a03909216600160a060020a03199092169190911790556101cc806100726000396000f3fe608060405234801561001057600080fd5b5060043610610052577c01000000000000000000000000000000000000000000000000000000006000350463787748a78114610057578063fece7826146100a4575b600080fd5b6100906004803603604081101561006d57600080fd5b5073ffffffffffffffffffffffffffffffffffffffff81351690602001356100d5565b604080519115158252519081900360200190f35b6100ac610184565b6040805173ffffffffffffffffffffffffffffffffffffffff9092168252519081900360200190f35b60008054604080517f787748a700000000000000000000000000000000000000000000000000000000815273ffffffffffffffffffffffffffffffffffffffff8681166004830152602482018690529151919092169163787748a791604480830192602092919082900301818787803b15801561015157600080fd5b505af1158015610165573d6000803e3d6000fd5b505050506040513d602081101561017b57600080fd5b50519392505050565b60005473ffffffffffffffffffffffffffffffffffffffff168156fea165627a7a723058206cf2dfac53cee91824c24e33c4f948173838e63c4e858be8fef280d89fdcfbc20029",
    "source": "/*\n\n  Copyright 2017 Loopring Project Ltd (Loopring Foundation).\n\n  Licensed under the Apache License, Version 2.0 (the \"License\");\n  you may not use this file except in compliance with the License.\n  You may obtain a copy of the License at\n\n  http://www.apache.org/licenses/LICENSE-2.0\n\n  Unless required by applicable law or agreed to in writing, software\n  distributed under the License is distributed on an \"AS IS\" BASIS,\n  WITHOUT WARRANTIES OR CONDITIONS OF ANY KIND, either express or implied.\n  See the License for the specific language governing permissions and\n  limitations under the License.\n*/\npragma solidity 0.5.2;\n\nimport \"../iface/IFeeHolder.sol\";\n\n/// @author Brecht Devos - <brecht@loopring.org>\ncontract DummyBurnManager {\n\n    address public feeHolderAddress = address(0x0);\n\n    constructor(\n        address _feeHolderAddress\n        )\n        public\n    {\n        feeHolderAddress = _feeHolderAddress;\n    }\n\n    function withdrawBurned(address token, uint value)\n        external\n        returns (bool success)\n    {\n        return IFeeHolder(feeHolderAddress).withdrawBurned(token, value);\n    }\n}\n",
    "sourcePath": "/usr/local/klzhong/workspace/loopring/protocol2/contracts/test/DummyBurnManager.sol",
    "compiler": {
        "name": "solc",
        "version": "0.5.2+commit.1df8f40c.Emscripten.clang"
    },
    "schemaVersion": "3.0.0",
    "updatedAt": "2019-03-19T09:16:27.522Z",
    "devdoc": {
        "author": "Brecht Devos - <brecht@loopring.org>",
        "methods": {}
    },
    "userdoc": {
        "methods": {}
    }
}