{
    "contractName": "DummyExchange",
    "abi": [
        {
            "constant": true,
            "inputs": [],
            "name": "tradeHistoryAddress",
            "outputs": [
                {
                    "name": "",
                    "type": "address"
                }
            ],
            "payable": false,
            "stateMutability": "view",
            "type": "function"
        },
        {
            "constant": true,
            "inputs": [],
            "name": "ringSubmitterAddress",
            "outputs": [
                {
                    "name": "",
                    "type": "address"
                }
            ],
            "payable": false,
            "stateMutability": "view",
            "type": "function"
        },
        {
            "constant": true,
            "inputs": [],
            "name": "tradeDelegateAddress",
            "outputs": [
                {
                    "name": "",
                    "type": "address"
                }
            ],
            "payable": false,
            "stateMutability": "view",
            "type": "function"
        },
        {
            "constant": true,
            "inputs": [],
            "name": "feeHolderAddress",
            "outputs": [
                {
                    "name": "",
                    "type": "address"
                }
            ],
            "payable": false,
            "stateMutability": "view",
            "type": "function"
        },
        {
            "inputs": [
                {
                    "name": "_tradeDelegateAddress",
                    "type": "address"
                },
                {
                    "name": "_tradeHistoryAddress",
                    "type": "address"
                },
                {
                    "name": "_feeHolderAddress",
                    "type": "address"
                },
                {
                    "name": "_ringSubmitterAddress",
                    "type": "address"
                }
            ],
            "payable": false,
            "stateMutability": "nonpayable",
            "type": "constructor"
        },
        {
            "constant": false,
            "inputs": [
                {
                    "name": "data",
                    "type": "bytes"
                }
            ],
            "name": "submitRings",
            "outputs": [],
            "payable": false,
            "stateMutability": "nonpayable",
            "type": "function"
        },
        {
            "constant": false,
            "inputs": [
                {
                    "name": "data",
                    "type": "bytes32[]"
                }
            ],
            "name": "batchAddFeeBalances",
            "outputs": [],
            "payable": false,
            "stateMutability": "nonpayable",
            "type": "function"
        },
        {
            "constant": false,
            "inputs": [
                {
                    "name": "data",
                    "type": "bytes32[]"
                }
            ],
            "name": "batchTransfer",
            "outputs": [],
            "payable": false,
            "stateMutability": "nonpayable",
            "type": "function"
        },
        {
            "constant": false,
            "inputs": [
                {
                    "name": "data",
                    "type": "bytes32[]"
                }
            ],
            "name": "batchUpdateFilled",
            "outputs": [],
            "payable": false,
            "stateMutability": "nonpayable",
            "type": "function"
        },
        {
            "constant": false,
            "inputs": [
                {
                    "name": "broker",
                    "type": "address"
                },
                {
                    "name": "orderHash",
                    "type": "bytes32"
                }
            ],
            "name": "setCancelled",
            "outputs": [],
            "payable": false,
            "stateMutability": "nonpayable",
            "type": "function"
        },
        {
            "constant": false,
            "inputs": [
                {
                    "name": "broker",
                    "type": "address"
                },
                {
                    "name": "cutoff",
                    "type": "uint256"
                }
            ],
            "name": "setCutoffs",
            "outputs": [],
            "payable": false,
            "stateMutability": "nonpayable",
            "type": "function"
        },
        {
            "constant": false,
            "inputs": [
                {
                    "name": "broker",
                    "type": "address"
                },
                {
                    "name": "tokenPair",
                    "type": "bytes20"
                },
                {
                    "name": "cutoff",
                    "type": "uint256"
                }
            ],
            "name": "setTradingPairCutoffs",
            "outputs": [],
            "payable": false,
            "stateMutability": "nonpayable",
            "type": "function"
        },
        {
            "constant": false,
            "inputs": [
                {
                    "name": "broker",
                    "type": "address"
                },
                {
                    "name": "owner",
                    "type": "address"
                },
                {
                    "name": "cutoff",
                    "type": "uint256"
                }
            ],
            "name": "setCutoffsOfOwner",
            "outputs": [],
            "payable": false,
            "stateMutability": "nonpayable",
            "type": "function"
        },
        {
            "constant": false,
            "inputs": [
                {
                    "name": "broker",
                    "type": "address"
                },
                {
                    "name": "owner",
                    "type": "address"
                },
                {
                    "name": "tokenPair",
                    "type": "bytes20"
                },
                {
                    "name": "cutoff",
                    "type": "uint256"
                }
            ],
            "name": "setTradingPairCutoffsOfOwner",
            "outputs": [],
            "payable": false,
            "stateMutability": "nonpayable",
            "type": "function"
        },
        {
            "constant": false,
            "inputs": [
                {
                    "name": "addr",
                    "type": "address"
                }
            ],
            "name": "authorizeAddress",
            "outputs": [],
            "payable": false,
            "stateMutability": "nonpayable",
            "type": "function"
        },
        {
            "constant": false,
            "inputs": [
                {
                    "name": "addr",
                    "type": "address"
                }
            ],
            "name": "deauthorizeAddress",
            "outputs": [],
            "payable": false,
            "stateMutability": "nonpayable",
            "type": "function"
        },
        {
            "constant": false,
            "inputs": [],
            "name": "suspend",
            "outputs": [],
            "payable": false,
            "stateMutability": "nonpayable",
            "type": "function"
        },
        {
            "constant": false,
            "inputs": [],
            "name": "resume",
            "outputs": [],
            "payable": false,
            "stateMutability": "nonpayable",
            "type": "function"
        },
        {
            "constant": false,
            "inputs": [],
            "name": "kill",
            "outputs": [],
            "payable": false,
            "stateMutability": "nonpayable",
            "type": "function"
        }
    ],
    "bytecode": "0x608060405260008054600160a060020a03199081169091556001805482169055600280548216905560038054909116905534801561003c57600080fd5b506040516080806112198339810180604052608081101561005c57600080fd5b5080516020820151604083015160609093015160008054600160a060020a03948516600160a060020a031991821617909155600180549385169382169390931790925560028054948416948316949094179093556003805492909316911617905561114d806100cc6000396000f3fe608060405234801561001057600080fd5b5060043610610153576000357c0100000000000000000000000000000000000000000000000000000000900480639bdbf652116100cf578063e6400bbe1161009e578063f73857cc11610083578063f73857cc1461051d578063fa369e6614610550578063fece7826146105f357610153565b8063e6400bbe146104aa578063f732282b146104b257610153565b80639bdbf6521461035d578063cb23e899146103a0578063cbaef59b14610401578063cfd854c21461047157610153565b806341c0e1b5116101265780634a874dd91161010b5780634a874dd91461020f578063689064da146102b2578063843ff0e5146102ba57610153565b806341c0e1b5146101d45780634a5db3b5146101dc57610153565b8063046f7da21461015857806305e455601461016257806312f510f21461019b57806322b7c6aa146101cc575b600080fd5b6101606105fb565b005b6101606004803603604081101561017857600080fd5b5073ffffffffffffffffffffffffffffffffffffffff813516906020013561071a565b6101a36107b1565b6040805173ffffffffffffffffffffffffffffffffffffffff9092168252519081900360200190f35b6101a36107cd565b6101606107e9565b610160600480360360208110156101f257600080fd5b503573ffffffffffffffffffffffffffffffffffffffff166108ee565b6101606004803603602081101561022557600080fd5b81019060208101813564010000000081111561024057600080fd5b82018360208201111561025257600080fd5b8035906020019184602083028401116401000000008311171561027457600080fd5b919080806020026020016040519081016040528093929190818152602001838360200280828437600092019190915250929550610a06945050505050565b6101a3610ab2565b610160600480360360208110156102d057600080fd5b8101906020810181356401000000008111156102eb57600080fd5b8201836020820111156102fd57600080fd5b8035906020019184602083028401116401000000008311171561031f57600080fd5b919080806020026020016040519081016040528093929190818152602001838360200280828437600092019190915250929550610ace945050505050565b6101606004803603606081101561037357600080fd5b5073ffffffffffffffffffffffffffffffffffffffff813581169160208101359091169060400135610b54565b610160600480360360608110156103b657600080fd5b5073ffffffffffffffffffffffffffffffffffffffff813516907fffffffffffffffffffffffffffffffffffffffff0000000000000000000000006020820135169060400135610bf4565b6101606004803603602081101561041757600080fd5b81019060208101813564010000000081111561043257600080fd5b82018360208201111561044457600080fd5b8035906020019184600183028401116401000000008311171561046657600080fd5b509092509050610c97565b6101606004803603604081101561048757600080fd5b5073ffffffffffffffffffffffffffffffffffffffff8135169060200135610d34565b610160610daf565b610160600480360360808110156104c857600080fd5b5073ffffffffffffffffffffffffffffffffffffffff81358116916020810135909116907fffffffffffffffffffffffffffffffffffffffff0000000000000000000000006040820135169060600135610eb4565b6101606004803603602081101561053357600080fd5b503573ffffffffffffffffffffffffffffffffffffffff16610f7d565b6101606004803603602081101561056657600080fd5b81019060208101813564010000000081111561058157600080fd5b82018360208201111561059357600080fd5b803590602001918460208302840111640100000000831117156105b557600080fd5b91908080602002602001604051908101604052809392919081815260200183836020028082843760009201919091525092955061107a945050505050565b6101a3611105565b60008054604080517f046f7da2000000000000000000000000000000000000000000000000000000008152905173ffffffffffffffffffffffffffffffffffffffff9092169263046f7da29260048084019382900301818387803b15801561066257600080fd5b505af1158015610676573d6000803e3d6000fd5b50505050600160009054906101000a900473ffffffffffffffffffffffffffffffffffffffff1673ffffffffffffffffffffffffffffffffffffffff1663046f7da26040518163ffffffff167c0100000000000000000000000000000000000000000000000000000000028152600401600060405180830381600087803b15801561070057600080fd5b505af1158015610714573d6000803e3d6000fd5b50505050565b600154604080517f05e4556000000000000000000000000000000000000000000000000000000000815273ffffffffffffffffffffffffffffffffffffffff858116600483015260248201859052915191909216916305e4556091604480830192600092919082900301818387803b15801561079557600080fd5b505af11580156107a9573d6000803e3d6000fd5b505050505050565b60015473ffffffffffffffffffffffffffffffffffffffff1681565b60035473ffffffffffffffffffffffffffffffffffffffff1681565b60008054604080517f41c0e1b5000000000000000000000000000000000000000000000000000000008152905173ffffffffffffffffffffffffffffffffffffffff909216926341c0e1b59260048084019382900301818387803b15801561085057600080fd5b505af1158015610864573d6000803e3d6000fd5b50505050600160009054906101000a900473ffffffffffffffffffffffffffffffffffffffff1673ffffffffffffffffffffffffffffffffffffffff166341c0e1b56040518163ffffffff167c0100000000000000000000000000000000000000000000000000000000028152600401600060405180830381600087803b15801561070057600080fd5b60008054604080517f4a5db3b500000000000000000000000000000000000000000000000000000000815273ffffffffffffffffffffffffffffffffffffffff858116600483015291519190921692634a5db3b5926024808201939182900301818387803b15801561095f57600080fd5b505af1158015610973573d6000803e3d6000fd5b5050600154604080517f4a5db3b500000000000000000000000000000000000000000000000000000000815273ffffffffffffffffffffffffffffffffffffffff86811660048301529151919092169350634a5db3b59250602480830192600092919082900301818387803b1580156109eb57600080fd5b505af11580156109ff573d6000803e3d6000fd5b5050505050565b6002546040517f4a874dd900000000000000000000000000000000000000000000000000000000815260206004820181815284516024840152845173ffffffffffffffffffffffffffffffffffffffff90941693634a874dd99386938392604490920191818601910280838360005b83811015610a8d578181015183820152602001610a75565b5050505090500192505050600060405180830381600087803b1580156109eb57600080fd5b60005473ffffffffffffffffffffffffffffffffffffffff1681565b6001546040517f843ff0e500000000000000000000000000000000000000000000000000000000815260206004820181815284516024840152845173ffffffffffffffffffffffffffffffffffffffff9094169363843ff0e593869383926044909201918186019102808383600083811015610a8d578181015183820152602001610a75565b600154604080517f9bdbf65200000000000000000000000000000000000000000000000000000000815273ffffffffffffffffffffffffffffffffffffffff868116600483015285811660248301526044820185905291519190921691639bdbf65291606480830192600092919082900301818387803b158015610bd757600080fd5b505af1158015610beb573d6000803e3d6000fd5b50505050505050565b600154604080517fcb23e89900000000000000000000000000000000000000000000000000000000815273ffffffffffffffffffffffffffffffffffffffff86811660048301527fffffffffffffffffffffffffffffffffffffffff00000000000000000000000086166024830152604482018590529151919092169163cb23e89991606480830192600092919082900301818387803b158015610bd757600080fd5b6003546040517fcbaef59b0000000000000000000000000000000000000000000000000000000081526020600482019081526024820184905273ffffffffffffffffffffffffffffffffffffffff9092169163cbaef59b91859185918190604401848480828437600081840152601f19601f8201169050808301925050509350505050600060405180830381600087803b15801561079557600080fd5b600154604080517fcfd854c200000000000000000000000000000000000000000000000000000000815273ffffffffffffffffffffffffffffffffffffffff8581166004830152602482018590529151919092169163cfd854c291604480830192600092919082900301818387803b15801561079557600080fd5b60008054604080517fe6400bbe000000000000000000000000000000000000000000000000000000008152905173ffffffffffffffffffffffffffffffffffffffff9092169263e6400bbe9260048084019382900301818387803b158015610e1657600080fd5b505af1158015610e2a573d6000803e3d6000fd5b50505050600160009054906101000a900473ffffffffffffffffffffffffffffffffffffffff1673ffffffffffffffffffffffffffffffffffffffff1663e6400bbe6040518163ffffffff167c0100000000000000000000000000000000000000000000000000000000028152600401600060405180830381600087803b15801561070057600080fd5b600154604080517ff732282b00000000000000000000000000000000000000000000000000000000815273ffffffffffffffffffffffffffffffffffffffff878116600483015286811660248301527fffffffffffffffffffffffffffffffffffffffff00000000000000000000000086166044830152606482018590529151919092169163f732282b91608480830192600092919082900301818387803b158015610f5f57600080fd5b505af1158015610f73573d6000803e3d6000fd5b5050505050505050565b60008054604080517ff73857cc00000000000000000000000000000000000000000000000000000000815273ffffffffffffffffffffffffffffffffffffffff85811660048301529151919092169263f73857cc926024808201939182900301818387803b158015610fee57600080fd5b505af1158015611002573d6000803e3d6000fd5b5050600154604080517ff73857cc00000000000000000000000000000000000000000000000000000000815273ffffffffffffffffffffffffffffffffffffffff8681166004830152915191909216935063f73857cc9250602480830192600092919082900301818387803b1580156109eb57600080fd5b600080546040517ffa369e6600000000000000000000000000000000000000000000000000000000815260206004820181815285516024840152855173ffffffffffffffffffffffffffffffffffffffff9094169463fa369e669487949293849360440192818701929091029081908490849083811015610a8d578181015183820152602001610a75565b60025473ffffffffffffffffffffffffffffffffffffffff168156fea165627a7a72305820e18072ac2a8f76efa4a880a84c93b1eb79166f7f96db53ad885c5689cf34c4380029",
    "source": "/*\n\n  Copyright 2017 Loopring Project Ltd (Loopring Foundation).\n\n  Licensed under the Apache License, Version 2.0 (the \"License\");\n  you may not use this file except in compliance with the License.\n  You may obtain a copy of the License at\n\n  http://www.apache.org/licenses/LICENSE-2.0\n\n  Unless required by applicable law or agreed to in writing, software\n  distributed under the License is distributed on an \"AS IS\" BASIS,\n  WITHOUT WARRANTIES OR CONDITIONS OF ANY KIND, either express or implied.\n  See the License for the specific language governing permissions and\n  limitations under the License.\n*/\npragma solidity 0.5.2;\n\nimport \"../iface/IFeeHolder.sol\";\nimport \"../iface/IRingSubmitter.sol\";\nimport \"../iface/ITradeDelegate.sol\";\nimport \"../iface/ITradeHistory.sol\";\n\n\n/// @author Brecht Devos - <brecht@loopring.org>\ncontract DummyExchange {\n\n    address public tradeDelegateAddress = address(0x0);\n    address public tradeHistoryAddress = address(0x0);\n    address public feeHolderAddress = address(0x0);\n    address public ringSubmitterAddress = address(0x0);\n\n    constructor(\n        address _tradeDelegateAddress,\n        address _tradeHistoryAddress,\n        address _feeHolderAddress,\n        address _ringSubmitterAddress\n        )\n        public\n    {\n        tradeDelegateAddress = _tradeDelegateAddress;\n        tradeHistoryAddress = _tradeHistoryAddress;\n        feeHolderAddress = _feeHolderAddress;\n        ringSubmitterAddress = _ringSubmitterAddress;\n    }\n\n    function submitRings(\n        bytes calldata data\n        )\n        external\n    {\n        IRingSubmitter(ringSubmitterAddress).submitRings(data);\n    }\n\n    function batchAddFeeBalances(\n        bytes32[] memory data\n        )\n        public\n    {\n        IFeeHolder(feeHolderAddress).batchAddFeeBalances(data);\n    }\n\n    function batchTransfer(\n        bytes32[] memory data\n        )\n        public\n    {\n        ITradeDelegate(tradeDelegateAddress).batchTransfer(data);\n    }\n\n    function batchUpdateFilled(\n        bytes32[] memory data\n        )\n        public\n    {\n        ITradeHistory(tradeHistoryAddress).batchUpdateFilled(data);\n    }\n\n    function setCancelled(\n        address broker,\n        bytes32 orderHash\n        )\n        external\n    {\n        ITradeHistory(tradeHistoryAddress).setCancelled(broker, orderHash);\n    }\n\n    function setCutoffs(\n        address broker,\n        uint cutoff\n        )\n        external\n    {\n        ITradeHistory(tradeHistoryAddress).setCutoffs(broker, cutoff);\n    }\n\n    function setTradingPairCutoffs(\n        address broker,\n        bytes20 tokenPair,\n        uint cutoff\n        )\n        external\n    {\n        ITradeHistory(tradeHistoryAddress).setTradingPairCutoffs(broker, tokenPair, cutoff);\n    }\n\n    function setCutoffsOfOwner(\n        address broker,\n        address owner,\n        uint cutoff\n        )\n        external\n    {\n        ITradeHistory(tradeHistoryAddress).setCutoffsOfOwner(broker, owner, cutoff);\n    }\n\n    function setTradingPairCutoffsOfOwner(\n        address broker,\n        address owner,\n        bytes20 tokenPair,\n        uint cutoff\n        )\n        external\n    {\n        ITradeHistory(tradeHistoryAddress).setTradingPairCutoffsOfOwner(broker, owner, tokenPair, cutoff);\n    }\n\n    function authorizeAddress(\n        address addr\n        )\n        external\n    {\n        ITradeDelegate(tradeDelegateAddress).authorizeAddress(addr);\n        ITradeHistory(tradeHistoryAddress).authorizeAddress(addr);\n    }\n\n    function deauthorizeAddress(\n        address addr\n        )\n        external\n    {\n        ITradeDelegate(tradeDelegateAddress).deauthorizeAddress(addr);\n        ITradeHistory(tradeHistoryAddress).deauthorizeAddress(addr);\n    }\n\n    function suspend()\n        external\n    {\n        ITradeDelegate(tradeDelegateAddress).suspend();\n        ITradeHistory(tradeHistoryAddress).suspend();\n    }\n\n    function resume()\n        external\n    {\n        ITradeDelegate(tradeDelegateAddress).resume();\n        ITradeHistory(tradeHistoryAddress).resume();\n    }\n\n    function kill()\n        external\n    {\n        ITradeDelegate(tradeDelegateAddress).kill();\n        ITradeHistory(tradeHistoryAddress).kill();\n    }\n}\n",
    "sourcePath": "/usr/local/klzhong/workspace/loopring/protocol2/contracts/test/DummyExchange.sol",
    "compiler": {
        "name": "solc",
        "version": "0.5.2+commit.1df8f40c.Emscripten.clang"
    },
    "schemaVersion": "3.0.0",
    "updatedAt": "2019-03-19T09:16:27.522Z",
    "devdoc": {
        "author": "Brecht Devos - <brecht@loopring.org>",
        "methods": {}
    },
    "userdoc": {
        "methods": {}
    }
}