{
    "contractName": "TEST",
    "abi": [
        {
            "constant": true,
            "inputs": [],
            "name": "TEST_NO_RETURN_VALUE",
            "outputs": [
                {
                    "name": "",
                    "type": "uint8"
                }
            ],
            "payable": false,
            "stateMutability": "view",
            "type": "function"
        },
        {
            "constant": true,
            "inputs": [],
            "name": "name",
            "outputs": [
                {
                    "name": "",
                    "type": "string"
                }
            ],
            "payable": false,
            "stateMutability": "view",
            "type": "function"
        },
        {
            "constant": false,
            "inputs": [
                {
                    "name": "_spender",
                    "type": "address"
                },
                {
                    "name": "_value",
                    "type": "uint256"
                }
            ],
            "name": "approve",
            "outputs": [
                {
                    "name": "",
                    "type": "bool"
                }
            ],
            "payable": false,
            "stateMutability": "nonpayable",
            "type": "function"
        },
        {
            "constant": true,
            "inputs": [],
            "name": "TEST_NOTHING",
            "outputs": [
                {
                    "name": "",
                    "type": "uint8"
                }
            ],
            "payable": false,
            "stateMutability": "view",
            "type": "function"
        },
        {
            "constant": true,
            "inputs": [],
            "name": "totalSupply",
            "outputs": [
                {
                    "name": "",
                    "type": "uint256"
                }
            ],
            "payable": false,
            "stateMutability": "view",
            "type": "function"
        },
        {
            "constant": false,
            "inputs": [
                {
                    "name": "_target",
                    "type": "address"
                },
                {
                    "name": "_value",
                    "type": "uint256"
                }
            ],
            "name": "addBalance",
            "outputs": [],
            "payable": false,
            "stateMutability": "nonpayable",
            "type": "function"
        },
        {
            "constant": true,
            "inputs": [],
            "name": "decimals",
            "outputs": [
                {
                    "name": "",
                    "type": "uint8"
                }
            ],
            "payable": false,
            "stateMutability": "view",
            "type": "function"
        },
        {
            "constant": true,
            "inputs": [],
            "name": "TEST_RETURN_FALSE",
            "outputs": [
                {
                    "name": "",
                    "type": "uint8"
                }
            ],
            "payable": false,
            "stateMutability": "view",
            "type": "function"
        },
        {
            "constant": false,
            "inputs": [
                {
                    "name": "_value",
                    "type": "uint256"
                }
            ],
            "name": "burn",
            "outputs": [
                {
                    "name": "",
                    "type": "bool"
                }
            ],
            "payable": false,
            "stateMutability": "nonpayable",
            "type": "function"
        },
        {
            "constant": true,
            "inputs": [],
            "name": "submitRingsData",
            "outputs": [
                {
                    "name": "",
                    "type": "bytes"
                }
            ],
            "payable": false,
            "stateMutability": "view",
            "type": "function"
        },
        {
            "constant": false,
            "inputs": [
                {
                    "name": "_spender",
                    "type": "address"
                },
                {
                    "name": "_subtractedValue",
                    "type": "uint256"
                }
            ],
            "name": "decreaseApproval",
            "outputs": [
                {
                    "name": "",
                    "type": "bool"
                }
            ],
            "payable": false,
            "stateMutability": "nonpayable",
            "type": "function"
        },
        {
            "constant": true,
            "inputs": [
                {
                    "name": "_owner",
                    "type": "address"
                }
            ],
            "name": "balanceOf",
            "outputs": [
                {
                    "name": "",
                    "type": "uint256"
                }
            ],
            "payable": false,
            "stateMutability": "view",
            "type": "function"
        },
        {
            "constant": true,
            "inputs": [],
            "name": "TEST_INVALID_RETURN_SIZE",
            "outputs": [
                {
                    "name": "",
                    "type": "uint8"
                }
            ],
            "payable": false,
            "stateMutability": "view",
            "type": "function"
        },
        {
            "constant": false,
            "inputs": [
                {
                    "name": "_owner",
                    "type": "address"
                },
                {
                    "name": "_value",
                    "type": "uint256"
                }
            ],
            "name": "burnFrom",
            "outputs": [
                {
                    "name": "",
                    "type": "bool"
                }
            ],
            "payable": false,
            "stateMutability": "nonpayable",
            "type": "function"
        },
        {
            "constant": true,
            "inputs": [],
            "name": "symbol",
            "outputs": [
                {
                    "name": "",
                    "type": "string"
                }
            ],
            "payable": false,
            "stateMutability": "view",
            "type": "function"
        },
        {
            "constant": true,
            "inputs": [],
            "name": "exchangeAddress",
            "outputs": [
                {
                    "name": "",
                    "type": "address"
                }
            ],
            "payable": false,
            "stateMutability": "view",
            "type": "function"
        },
        {
            "constant": true,
            "inputs": [],
            "name": "TEST_REENTRANCY",
            "outputs": [
                {
                    "name": "",
                    "type": "uint8"
                }
            ],
            "payable": false,
            "stateMutability": "view",
            "type": "function"
        },
        {
            "constant": true,
            "inputs": [],
            "name": "TEST_REQUIRE_FAIL",
            "outputs": [
                {
                    "name": "",
                    "type": "uint8"
                }
            ],
            "payable": false,
            "stateMutability": "view",
            "type": "function"
        },
        {
            "constant": false,
            "inputs": [
                {
                    "name": "_spender",
                    "type": "address"
                },
                {
                    "name": "_addedValue",
                    "type": "uint256"
                }
            ],
            "name": "increaseApproval",
            "outputs": [
                {
                    "name": "",
                    "type": "bool"
                }
            ],
            "payable": false,
            "stateMutability": "nonpayable",
            "type": "function"
        },
        {
            "constant": true,
            "inputs": [
                {
                    "name": "_owner",
                    "type": "address"
                },
                {
                    "name": "_spender",
                    "type": "address"
                }
            ],
            "name": "allowance",
            "outputs": [
                {
                    "name": "",
                    "type": "uint256"
                }
            ],
            "payable": false,
            "stateMutability": "view",
            "type": "function"
        },
        {
            "constant": false,
            "inputs": [
                {
                    "name": "_target",
                    "type": "address"
                },
                {
                    "name": "_value",
                    "type": "uint256"
                }
            ],
            "name": "setBalance",
            "outputs": [],
            "payable": false,
            "stateMutability": "nonpayable",
            "type": "function"
        },
        {
            "constant": true,
            "inputs": [],
            "name": "testCase",
            "outputs": [
                {
                    "name": "",
                    "type": "uint256"
                }
            ],
            "payable": false,
            "stateMutability": "view",
            "type": "function"
        },
        {
            "inputs": [],
            "payable": false,
            "stateMutability": "nonpayable",
            "type": "constructor"
        },
        {
            "payable": true,
            "stateMutability": "payable",
            "type": "fallback"
        },
        {
            "anonymous": false,
            "inputs": [
                {
                    "indexed": true,
                    "name": "burner",
                    "type": "address"
                },
                {
                    "indexed": false,
                    "name": "value",
                    "type": "uint256"
                }
            ],
            "name": "Burn",
            "type": "event"
        },
        {
            "anonymous": false,
            "inputs": [
                {
                    "indexed": true,
                    "name": "owner",
                    "type": "address"
                },
                {
                    "indexed": true,
                    "name": "spender",
                    "type": "address"
                },
                {
                    "indexed": false,
                    "name": "value",
                    "type": "uint256"
                }
            ],
            "name": "Approval",
            "type": "event"
        },
        {
            "anonymous": false,
            "inputs": [
                {
                    "indexed": true,
                    "name": "from",
                    "type": "address"
                },
                {
                    "indexed": true,
                    "name": "to",
                    "type": "address"
                },
                {
                    "indexed": false,
                    "name": "value",
                    "type": "uint256"
                }
            ],
            "name": "Transfer",
            "type": "event"
        },
        {
            "constant": false,
            "inputs": [
                {
                    "name": "_to",
                    "type": "address"
                },
                {
                    "name": "_value",
                    "type": "uint256"
                }
            ],
            "name": "transfer",
            "outputs": [
                {
                    "name": "",
                    "type": "bool"
                }
            ],
            "payable": false,
            "stateMutability": "nonpayable",
            "type": "function"
        },
        {
            "constant": false,
            "inputs": [
                {
                    "name": "_from",
                    "type": "address"
                },
                {
                    "name": "_to",
                    "type": "address"
                },
                {
                    "name": "_value",
                    "type": "uint256"
                }
            ],
            "name": "transferFrom",
            "outputs": [
                {
                    "name": "",
                    "type": "bool"
                }
            ],
            "payable": false,
            "stateMutability": "nonpayable",
            "type": "function"
        },
        {
            "constant": false,
            "inputs": [
                {
                    "name": "_testCase",
                    "type": "uint8"
                }
            ],
            "name": "setTestCase",
            "outputs": [],
            "payable": false,
            "stateMutability": "nonpayable",
            "type": "function"
        },
        {
            "constant": false,
            "inputs": [
                {
                    "name": "_exchangeAddress",
                    "type": "address"
                },
                {
                    "name": "_submitRingsData",
                    "type": "bytes"
                }
            ],
            "name": "setReentrancyAttackData",
            "outputs": [],
            "payable": false,
            "stateMutability": "nonpayable",
            "type": "function"
        }
    ],
    "bytecode": "0x60c0604052601e60808190527f4e6577204c6f6f7072696e6720746f6b656e206f6e20657468657265756d000060a0908152620000409160039190620008b3565b506040805180820190915260038082527f4c5243000000000000000000000000000000000000000000000000000000000060209092019182526200008791600491620008b3565b506005805460ff19166012179055600060065560078054600160a060020a0319169055348015620000b757600080fd5b50604080518082018252600981527f544553545f5445535400000000000000000000000000000000000000000000006020808301919091528251808401909352600483527f5445535400000000000000000000000000000000000000000000000000000000908301529060126b033b2e3c9fd0803ce80000008383838333801515620001a457604080517f08c379a000000000000000000000000000000000000000000000000000000000815260206004820152600c60248201527f5a45524f5f414444524553530000000000000000000000000000000000000000604482015290519081900360640190fd5b620001b9848664010000000062000226810204565b8451620001ce906003906020880190620008b3565b508351620001e4906004906020870190620008b3565b506005805460ff191660ff94909416939093179092556001819055600160a060020a039091166000908152602081905260409020555062000958945050505050565b815182906003118015906200023d57506008815111155b1515620002ab57604080517f08c379a000000000000000000000000000000000000000000000000000000000815260206004820152600c60248201527f494e56414c49445f53495a450000000000000000000000000000000000000000604482015290519081900360640190fd5b60005b815181101562000689578181815181101515620002c757fe5b9060200101517f010000000000000000000000000000000000000000000000000000000000000090047f010000000000000000000000000000000000000000000000000000000000000002600160f860020a031916602e7f0100000000000000000000000000000000000000000000000000000000000000021480620003d2575081818151811015156200035757fe5b9060200101517f010000000000000000000000000000000000000000000000000000000000000090047f010000000000000000000000000000000000000000000000000000000000000002600160f860020a031916605f7f010000000000000000000000000000000000000000000000000000000000000002145b80620004f2575081517f4100000000000000000000000000000000000000000000000000000000000000908390839081106200040a57fe5b9060200101517f010000000000000000000000000000000000000000000000000000000000000090047f010000000000000000000000000000000000000000000000000000000000000002600160f860020a03191610158015620004f2575081517f5a00000000000000000000000000000000000000000000000000000000000000908390839081106200049a57fe5b9060200101517f010000000000000000000000000000000000000000000000000000000000000090047f010000000000000000000000000000000000000000000000000000000000000002600160f860020a03191611155b8062000612575081517f6100000000000000000000000000000000000000000000000000000000000000908390839081106200052a57fe5b9060200101517f010000000000000000000000000000000000000000000000000000000000000090047f010000000000000000000000000000000000000000000000000000000000000002600160f860020a0319161015801562000612575081517f7a0000000000000000000000000000000000000000000000000000000000000090839083908110620005ba57fe5b9060200101517f010000000000000000000000000000000000000000000000000000000000000090047f010000000000000000000000000000000000000000000000000000000000000002600160f860020a03191611155b15156200068057604080517f08c379a000000000000000000000000000000000000000000000000000000000815260206004820152600d60248201527f494e56414c49445f56414c554500000000000000000000000000000000000000604482015290519081900360640190fd5b600101620002ae565b5080518251839111801590620006a157506080815111155b15156200070f57604080517f08c379a000000000000000000000000000000000000000000000000000000000815260206004820152600c60248201527f494e56414c49445f53495a450000000000000000000000000000000000000000604482015290519081900360640190fd5b60005b8151811015620008ac5781517f2000000000000000000000000000000000000000000000000000000000000000908390839081106200074d57fe5b9060200101517f010000000000000000000000000000000000000000000000000000000000000090047f010000000000000000000000000000000000000000000000000000000000000002600160f860020a0319161015801562000835575081517f7e0000000000000000000000000000000000000000000000000000000000000090839083908110620007dd57fe5b9060200101517f010000000000000000000000000000000000000000000000000000000000000090047f010000000000000000000000000000000000000000000000000000000000000002600160f860020a03191611155b1515620008a357604080517f08c379a000000000000000000000000000000000000000000000000000000000815260206004820152600d60248201527f494e56414c49445f56414c554500000000000000000000000000000000000000604482015290519081900360640190fd5b60010162000712565b5050505050565b828054600181600116156101000203166002900490600052602060002090601f016020900481019282601f10620008f657805160ff191683800117855562000926565b8280016001018555821562000926579182015b828111156200092657825182559160200191906001019062000909565b506200093492915062000938565b5090565b6200095591905b808211156200093457600081556001016200093f565b90565b611f3280620009686000396000f3fe6080604052600436106101be576000357c01000000000000000000000000000000000000000000000000000000009004806370a08231116100fe578063a9059cbb116100a7578063d73dd62311610081578063d73dd6231461077b578063dd62ed3e146107c1578063e30443bc14610809578063f91cc28f1461084f576101be565b8063a9059cbb146106f3578063b751083014610739578063be8594bb1461074e576101be565b806395d89b41116100d857806395d89b411461068b5780639cd01605146106a0578063a1fb2b3d146106de576101be565b806370a08231146105f057806372ec1edc1461063057806379cc679014610645576101be565b806323b872dd1161016b5780633d2e9069116101455780633d2e90691461055657806342966c681461056b57806365ea35bc1461059557806366188463146105aa576101be565b806323b872dd1461042157806330715b6814610471578063313ce56714610541576101be565b80630bd21a6a1161019c5780630bd21a6a1461039d57806318160ddd146103b257806321e5383a146103d9576101be565b8063043694811461028e57806306fdde03146102b9578063095ea7b314610343575b604080518082018252600b81527f554e535550504f52544544000000000000000000000000000000000000000000602080830191825292517f08c379a00000000000000000000000000000000000000000000000000000000081526004810193845282516024820152825192939283926044909201919080838360005b8381101561025357818101518382015260200161023b565b50505050905090810190601f1680156102805780820380516001836020036101000a031916815260200191505b509250505060405180910390fd5b34801561029a57600080fd5b506102a3610864565b6040805160ff9092168252519081900360200190f35b3480156102c557600080fd5b506102ce610869565b6040805160208082528351818301528351919283929083019185019080838360005b838110156103085781810151838201526020016102f0565b50505050905090810190601f1680156103355780820380516001836020036101000a031916815260200191505b509250505060405180910390f35b34801561034f57600080fd5b506103896004803603604081101561036657600080fd5b5073ffffffffffffffffffffffffffffffffffffffff8135169060200135610915565b604080519115158252519081900360200190f35b3480156103a957600080fd5b506102a3610988565b3480156103be57600080fd5b506103c761098d565b60408051918252519081900360200190f35b3480156103e557600080fd5b5061041f600480360360408110156103fc57600080fd5b5073ffffffffffffffffffffffffffffffffffffffff8135169060200135610994565b005b34801561042d57600080fd5b506103896004803603606081101561044457600080fd5b5073ffffffffffffffffffffffffffffffffffffffff813581169160208101359091169060400135610a66565b34801561047d57600080fd5b5061041f6004803603604081101561049457600080fd5b73ffffffffffffffffffffffffffffffffffffffff82351691908101906040810160208201356401000000008111156104cc57600080fd5b8201836020820111156104de57600080fd5b8035906020019184600183028401116401000000008311171561050057600080fd5b91908080601f016020809104026020016040519081016040528093929190818152602001838380828437600092019190915250929550610d64945050505050565b34801561054d57600080fd5b506102a3610ef3565b34801561056257600080fd5b506102a3610efc565b34801561057757600080fd5b506103896004803603602081101561058e57600080fd5b5035610f01565b3480156105a157600080fd5b506102ce61107e565b3480156105b657600080fd5b50610389600480360360408110156105cd57600080fd5b5073ffffffffffffffffffffffffffffffffffffffff81351690602001356110f7565b3480156105fc57600080fd5b506103c76004803603602081101561061357600080fd5b503573ffffffffffffffffffffffffffffffffffffffff1661121b565b34801561063c57600080fd5b506102a3611243565b34801561065157600080fd5b506103896004803603604081101561066857600080fd5b5073ffffffffffffffffffffffffffffffffffffffff8135169060200135611248565b34801561069757600080fd5b506102ce611569565b3480156106ac57600080fd5b506106b56115e2565b6040805173ffffffffffffffffffffffffffffffffffffffff9092168252519081900360200190f35b3480156106ea57600080fd5b506102a36115fe565b3480156106ff57600080fd5b506103896004803603604081101561071657600080fd5b5073ffffffffffffffffffffffffffffffffffffffff8135169060200135611603565b34801561074557600080fd5b506102a36117d5565b34801561075a57600080fd5b5061041f6004803603602081101561077157600080fd5b503560ff166117da565b34801561078757600080fd5b506103896004803603604081101561079e57600080fd5b5073ffffffffffffffffffffffffffffffffffffffff81351690602001356117e2565b3480156107cd57600080fd5b506103c7600480360360408110156107e457600080fd5b5073ffffffffffffffffffffffffffffffffffffffff81358116916020013516611895565b34801561081557600080fd5b5061041f6004803603604081101561082c57600080fd5b5073ffffffffffffffffffffffffffffffffffffffff81351690602001356118cd565b34801561085b57600080fd5b506103c761195c565b600481565b6003805460408051602060026001851615610100027fffffffffffffffffffffffffffffffffffffffffffffffffffffffffffffffff0190941693909304601f8101849004840282018401909252818152929183018282801561090d5780601f106108e25761010080835404028352916020019161090d565b820191906000526020600020905b8154815290600101906020018083116108f057829003601f168201915b505050505081565b33600081815260026020908152604080832073ffffffffffffffffffffffffffffffffffffffff8716808552908352818420869055815186815291519394909390927f8c5be1e5ebec7d5bd14f71427d1e84f3dd0314c0f7b2291e5b200ac8c7c3b925928290030190a350600192915050565b600081565b6001545b90565b600061099f8361121b565b9050818101811115610a1257604080517f08c379a000000000000000000000000000000000000000000000000000000000815260206004820152600d60248201527f494e56414c49445f56414c554500000000000000000000000000000000000000604482015290519081900360640190fd5b600154610a25908363ffffffff61196216565b600155610a38818363ffffffff61196216565b73ffffffffffffffffffffffffffffffffffffffff9093166000908152602081905260409020929092555050565b600073ffffffffffffffffffffffffffffffffffffffff83161515610aec57604080517f08c379a000000000000000000000000000000000000000000000000000000000815260206004820152600c60248201527f5a45524f5f414444524553530000000000000000000000000000000000000000604482015290519081900360640190fd5b73ffffffffffffffffffffffffffffffffffffffff8416600090815260208190526040902054821115610b8057604080517f08c379a000000000000000000000000000000000000000000000000000000000815260206004820152600d60248201527f494e56414c49445f56414c554500000000000000000000000000000000000000604482015290519081900360640190fd5b73ffffffffffffffffffffffffffffffffffffffff84166000908152600260209081526040808320338452909152902054821115610c1f57604080517f08c379a000000000000000000000000000000000000000000000000000000000815260206004820152600d60248201527f494e56414c49445f56414c554500000000000000000000000000000000000000604482015290519081900360640190fd5b73ffffffffffffffffffffffffffffffffffffffff8416600090815260208190526040902054610c55908363ffffffff61197116565b73ffffffffffffffffffffffffffffffffffffffff8086166000908152602081905260408082209390935590851681522054610c97908363ffffffff61196216565b73ffffffffffffffffffffffffffffffffffffffff808516600090815260208181526040808320949094559187168152600282528281203382529091522054610ce6908363ffffffff61197116565b73ffffffffffffffffffffffffffffffffffffffff808616600081815260026020908152604080832033845282529182902094909455805186815290519287169391927fddf252ad1be2c89b69c2b068fc378daa952ba7f163c4a11628f55a4df523b3ef929181900390910190a3610d5c611983565b949350505050565b600780547fffffffffffffffffffffffff00000000000000000000000000000000000000001673ffffffffffffffffffffffffffffffffffffffff84161790558051604080518281526020601f84017fffffffffffffffffffffffffffffffffffffffffffffffffffffffffffffffe016820101909152908015610def576020820181803883390190505b508051610e0491600891602090910190611e6e565b5060005b8151811015610eee578181815181101515610e1f57fe5b9060200101517f010000000000000000000000000000000000000000000000000000000000000090047f0100000000000000000000000000000000000000000000000000000000000000026008828154600181600116156101000203166002900481101515610e8a57fe5b815460011615610ea95790600052602060002090602091828204019190065b601f036101000a81548160ff021916907f0100000000000000000000000000000000000000000000000000000000000000840402179055508080600101915050610e08565b505050565b60055460ff1681565b600381565b33600090815260208190526040812054821115610f7f57604080517f08c379a000000000000000000000000000000000000000000000000000000000815260206004820152600d60248201527f494e56414c49445f56414c554500000000000000000000000000000000000000604482015290519081900360640190fd5b33600081815260208190526040902054610f9f908463ffffffff61197116565b73ffffffffffffffffffffffffffffffffffffffff8216600090815260208190526040902055600154610fd8908463ffffffff61197116565b60015560408051848152905173ffffffffffffffffffffffffffffffffffffffff8316917fcc16f5dbb4873280815c1ee09dbd06736cffcc184412cf7a71a0fdb75d397ca5919081900360200190a260408051848152905160009173ffffffffffffffffffffffffffffffffffffffff8416917fddf252ad1be2c89b69c2b068fc378daa952ba7f163c4a11628f55a4df523b3ef9181900360200190a350600192915050565b6008805460408051602060026001851615610100027fffffffffffffffffffffffffffffffffffffffffffffffffffffffffffffffff0190941693909304601f8101849004840282018401909252818152929183018282801561090d5780601f106108e25761010080835404028352916020019161090d565b33600090815260026020908152604080832073ffffffffffffffffffffffffffffffffffffffff86168452909152812054808311156111665733600090815260026020908152604080832073ffffffffffffffffffffffffffffffffffffffff881684529091528120556111a8565b611176818463ffffffff61197116565b33600090815260026020908152604080832073ffffffffffffffffffffffffffffffffffffffff891684529091529020555b33600081815260026020908152604080832073ffffffffffffffffffffffffffffffffffffffff89168085529083529281902054815190815290519293927f8c5be1e5ebec7d5bd14f71427d1e84f3dd0314c0f7b2291e5b200ac8c7c3b925929181900390910190a35060019392505050565b73ffffffffffffffffffffffffffffffffffffffff1660009081526020819052604090205490565b600581565b600073ffffffffffffffffffffffffffffffffffffffff831615156112ce57604080517f08c379a000000000000000000000000000000000000000000000000000000000815260206004820152600c60248201527f5a45524f5f414444524553530000000000000000000000000000000000000000604482015290519081900360640190fd5b73ffffffffffffffffffffffffffffffffffffffff831660009081526020819052604090205482111561136257604080517f08c379a000000000000000000000000000000000000000000000000000000000815260206004820152600d60248201527f494e56414c49445f56414c554500000000000000000000000000000000000000604482015290519081900360640190fd5b73ffffffffffffffffffffffffffffffffffffffff8316600090815260026020908152604080832033845290915290205482111561140157604080517f08c379a000000000000000000000000000000000000000000000000000000000815260206004820152600d60248201527f494e56414c49445f56414c554500000000000000000000000000000000000000604482015290519081900360640190fd5b73ffffffffffffffffffffffffffffffffffffffff8316600090815260208190526040902054611437908363ffffffff61197116565b73ffffffffffffffffffffffffffffffffffffffff841660009081526020818152604080832093909355600281528282203383529052205461147f908363ffffffff61197116565b73ffffffffffffffffffffffffffffffffffffffff841660009081526002602090815260408083203384529091529020556001546114c3908363ffffffff61197116565b60015560408051838152905173ffffffffffffffffffffffffffffffffffffffff8516917fcc16f5dbb4873280815c1ee09dbd06736cffcc184412cf7a71a0fdb75d397ca5919081900360200190a260408051838152905160009173ffffffffffffffffffffffffffffffffffffffff8616917fddf252ad1be2c89b69c2b068fc378daa952ba7f163c4a11628f55a4df523b3ef9181900360200190a350600192915050565b6004805460408051602060026001851615610100027fffffffffffffffffffffffffffffffffffffffffffffffffffffffffffffffff0190941693909304601f8101849004840282018401909252818152929183018282801561090d5780601f106108e25761010080835404028352916020019161090d565b60075473ffffffffffffffffffffffffffffffffffffffff1681565b600181565b600073ffffffffffffffffffffffffffffffffffffffff8316151561168957604080517f08c379a000000000000000000000000000000000000000000000000000000000815260206004820152600c60248201527f5a45524f5f414444524553530000000000000000000000000000000000000000604482015290519081900360640190fd5b3360009081526020819052604090205482111561170757604080517f08c379a000000000000000000000000000000000000000000000000000000000815260206004820152600d60248201527f494e56414c49445f56414c554500000000000000000000000000000000000000604482015290519081900360640190fd5b33600090815260208190526040902054611727908363ffffffff61197116565b336000908152602081905260408082209290925573ffffffffffffffffffffffffffffffffffffffff851681522054611766908363ffffffff61196216565b73ffffffffffffffffffffffffffffffffffffffff8416600081815260208181526040918290209390935580518581529051919233927fddf252ad1be2c89b69c2b068fc378daa952ba7f163c4a11628f55a4df523b3ef9281900390910190a36117ce611983565b9392505050565b600281565b60ff16600655565b33600090815260026020908152604080832073ffffffffffffffffffffffffffffffffffffffff86168452909152812054611823908363ffffffff61196216565b33600081815260026020908152604080832073ffffffffffffffffffffffffffffffffffffffff89168085529083529281902085905580519485525191937f8c5be1e5ebec7d5bd14f71427d1e84f3dd0314c0f7b2291e5b200ac8c7c3b925929081900390910190a350600192915050565b73ffffffffffffffffffffffffffffffffffffffff918216600090815260026020908152604080832093909416825291909152205490565b60006118d88361121b565b90508082101561190c576119046118f5828463ffffffff61197116565b6001549063ffffffff61197116565b600155611932565b61192e61191f838363ffffffff61197116565b6001549063ffffffff61196216565b6001555b5073ffffffffffffffffffffffffffffffffffffffff909116600090815260208190526040902055565b60065481565b6000828201838110156117ce57fe5b60008282111561197d57fe5b50900390565b600654600090151561199757506001610991565b60065460011415611dc5576040516020602482019081526008805460027fffffffffffffffffffffffffffffffffffffffffffffffffffffffffffffffff6001831615610100020190911604604484018190526060937fcbaef59b00000000000000000000000000000000000000000000000000000000939182916064019084908015611a655780601f10611a3a57610100808354040283529160200191611a65565b820191906000526020600020905b815481529060010190602001808311611a4857829003601f168201915b5050604080517fffffffffffffffffffffffffffffffffffffffffffffffffffffffffffffffe08184030181529181526020820180517bffffffffffffffffffffffffffffffffffffffffffffffffffffffff167fffffffff000000000000000000000000000000000000000000000000000000009097169690961786526007549051825192975060009673ffffffffffffffffffffffffffffffffffffffff9092169550879450925082918083835b60208310611b5257805182527fffffffffffffffffffffffffffffffffffffffffffffffffffffffffffffffe09092019160209182019101611b15565b6001836020036101000a0380198251168184511680821785525050505050509050019150506000604051808303816000865af19150503d8060008114611bb4576040519150601f19603f3d011682016040523d82523d6000602084013e611bb9565b606091505b505060408051606480825260a082019092529192506060919060208201818038833901905050905060646000602083013e604080517f4572726f7228737472696e6729000000000000000000000000000000000000008152815190819003600d0181208183018352600782527f5245454e5452590000000000000000000000000000000000000000000000000060208084019182529351602481019485528351604482015283516060959394939283926064019180838360005b83811015611c8b578181015183820152602001611c73565b50505050905090810190601f168015611cb85780820380516001836020036101000a031916815260200191505b50604080517fffffffffffffffffffffffffffffffffffffffffffffffffffffffffffffffe0818403018152919052602080820180517bffffffffffffffffffffffffffffffffffffffffffffffffffffffff167fffffffff000000000000000000000000000000000000000000000000000000009097169690961786528751908801208151909520909550909314159250611db891505057604080517f08c379a000000000000000000000000000000000000000000000000000000000815260206004820152601160248201527f5245564552545f4d4553534147455f4f4b000000000000000000000000000000604482015290519081900360640190fd5b6001945050505050610991565b60065460021415611e3757604080517f08c379a000000000000000000000000000000000000000000000000000000000815260206004820152600e60248201527f524551554952455f4641494c4544000000000000000000000000000000000000604482015290519081900360640190fd5b60065460031415611e4a57506000610991565b60065460041415611e5757005b60065460051415611e685760406000f35b50600190565b828054600181600116156101000203166002900490600052602060002090601f016020900481019282601f10611eaf57805160ff1916838001178555611edc565b82800160010185558215611edc579182015b82811115611edc578251825591602001919060010190611ec1565b50611ee8929150611eec565b5090565b61099191905b80821115611ee85760008155600101611ef256fea165627a7a723058203fca5dcc1ae6a478fe4d9d4b93bd2c88287bb87bdc21dea23b53c8d6856919800029",
    "source": "/*\n\n  Copyright 2017 Loopring Project Ltd (Loopring Foundation).\n\n  Licensed under the Apache License, Version 2.0 (the \"License\");\n  you may not use this file except in compliance with the License.\n  You may obtain a copy of the License at\n\n  http://www.apache.org/licenses/LICENSE-2.0\n\n  Unless required by applicable law or agreed to in writing, software\n  distributed under the License is distributed on an \"AS IS\" BASIS,\n  WITHOUT WARRANTIES OR CONDITIONS OF ANY KIND, either express or implied.\n  See the License for the specific language governing permissions and\n  limitations under the License.\n*/\npragma solidity 0.5.2;\n\nimport \"../DummyToken.sol\";\nimport \"../../iface/IRingSubmitter.sol\";\n\n/// @author Brecht Devos - <brecht@loopring.org>\ncontract TEST is DummyToken {\n\n    // Test cases\n    uint8 public constant TEST_NOTHING = 0;\n    uint8 public constant TEST_REENTRANCY = 1;\n    uint8 public constant TEST_REQUIRE_FAIL = 2;\n    uint8 public constant TEST_RETURN_FALSE = 3;\n    uint8 public constant TEST_NO_RETURN_VALUE = 4;\n    uint8 public constant TEST_INVALID_RETURN_SIZE = 5;\n\n    uint public testCase = TEST_NOTHING;\n\n    address public exchangeAddress = address(0x0);\n    bytes public submitRingsData;\n\n    constructor() DummyToken(\n        \"TEST_TEST\",\n        \"TEST\",\n        18,\n        10 ** 27\n    ) public\n    {\n    }\n\n    function transfer(\n        address _to,\n        uint256 _value\n        )\n        public\n        returns (bool)\n    {\n        require(_to != address(0x0), \"ZERO_ADDRESS\");\n        require(_value <= balances[msg.sender], \"INVALID_VALUE\");\n        // SafeMath.sub will throw if there is not enough balance.\n        balances[msg.sender] = balances[msg.sender].sub(_value);\n        balances[_to] = balances[_to].add(_value);\n        emit Transfer(msg.sender, _to, _value);\n        return doTestCase();\n    }\n\n    function transferFrom(\n        address _from,\n        address _to,\n        uint256 _value\n        )\n        public\n        returns (bool)\n    {\n        require(_to != address(0x0), \"ZERO_ADDRESS\");\n        require(_value <= balances[_from], \"INVALID_VALUE\");\n        require(_value <= allowed[_from][msg.sender], \"INVALID_VALUE\");\n        balances[_from] = balances[_from].sub(_value);\n        balances[_to] = balances[_to].add(_value);\n        allowed[_from][msg.sender] = allowed[_from][msg.sender].sub(_value);\n        emit Transfer(_from, _to, _value);\n        return doTestCase();\n    }\n\n    function doTestCase()\n        internal\n        returns (bool)\n    {\n        if (testCase == TEST_NOTHING) {\n            return true;\n        } else if (testCase == TEST_REENTRANCY) {\n            // Call submitRings without ever throwing\n            bytes memory callData = abi.encodeWithSelector(\n                IRingSubmitter(exchangeAddress).submitRings.selector,\n                submitRingsData\n            );\n            (bool success, ) = exchangeAddress.call(callData);\n            success; // to disable unused local variable warning\n\n            // Copy the 100 bytes containing the revert message\n            bytes memory returnData = new bytes(100);\n            assembly {\n                returndatacopy(add(returnData, 32), 0, 100)\n            }\n\n            // Revert reason should match REENTRY\n            bytes memory reentryMessageData = abi.encodeWithSelector(\n                bytes4(keccak256(\"Error(string)\")),\n                REENTRY\n            );\n            // Throw here when the results are as expected. This way we know the test was correctly executed.\n            require(keccak256(reentryMessageData) != keccak256(returnData), \"REVERT_MESSAGE_OK\");\n            return true;\n        } else if (testCase == TEST_REQUIRE_FAIL) {\n            require(false, \"REQUIRE_FAILED\");\n            return true;\n        } else if (testCase == TEST_RETURN_FALSE) {\n            return false;\n        } else if (testCase == TEST_NO_RETURN_VALUE) {\n            assembly {\n                return(0, 0)\n            }\n        } else if (testCase == TEST_INVALID_RETURN_SIZE) {\n            assembly {\n                return(0, 64)\n            }\n        }\n        return true;\n    }\n\n    function setTestCase(\n        uint8 _testCase\n        )\n        external\n    {\n        testCase = _testCase;\n    }\n\n    function setReentrancyAttackData(\n        address _exchangeAddress,\n        bytes memory _submitRingsData\n        )\n        public\n    {\n        exchangeAddress = _exchangeAddress;\n        submitRingsData = new bytes(_submitRingsData.length);\n        for (uint i = 0; i < _submitRingsData.length; i++) {\n            submitRingsData[i] = _submitRingsData[i];\n        }\n    }\n}\n",
    "sourcePath": "/usr/local/klzhong/workspace/loopring/protocol2/contracts/test/tokens/TEST.sol",
    "compiler": {
        "name": "solc",
        "version": "0.5.2+commit.1df8f40c.Emscripten.clang"
    },
    "schemaVersion": "3.0.0",
    "updatedAt": "2019-03-19T09:16:27.549Z",
    "devdoc": {
        "author": "Brecht Devos - <brecht@loopring.org>",
        "methods": {
            "allowance(address,address)": {
                "details": "Function to check the amount of tokens that an owner allowed to a spender.",
                "params": {
                    "_owner": "address The address which owns the funds.",
                    "_spender": "address The address which will spend the funds."
                },
                "return": "A uint256 specifying the amount of tokens still available for the spender."
            },
            "approve(address,uint256)": {
                "details": "Approve the passed address to spend the specified amount of tokens on behalf of msg.sender.     * Beware that changing an allowance with this method brings the risk that someone may use both the old and the new allowance by unfortunate transaction ordering. One possible solution to mitigate this race condition is to first reduce the spender's allowance to 0 and set the desired value afterwards: https://github.com/ethereum/EIPs/issues/20#issuecomment-263524729",
                "params": {
                    "_spender": "The address which will spend the funds.",
                    "_value": "The amount of tokens to be spent."
                }
            },
            "balanceOf(address)": {
                "details": "Gets the balance of the specified address.",
                "params": {
                    "_owner": "The address to query the the balance of."
                },
                "return": "An uint256 representing the amount owned by the passed address."
            },
            "decreaseApproval(address,uint256)": {
                "details": "Decrease the amount of tokens that an owner allowed to a spender.     * approve should be called when allowed[_spender] == 0. To decrement allowed value is better to use this function to avoid 2 calls (and wait until the first transaction is mined) From MonolithDAO Token.sol",
                "params": {
                    "_spender": "The address which will spend the funds.",
                    "_subtractedValue": "The amount of tokens to decrease the allowance by."
                }
            },
            "increaseApproval(address,uint256)": {
                "details": "Increase the amount of tokens that an owner allowed to a spender.     * approve should be called when allowed[_spender] == 0. To increment allowed value is better to use this function to avoid 2 calls (and wait until the first transaction is mined) From MonolithDAO Token.sol",
                "params": {
                    "_addedValue": "The amount of tokens to increase the allowance by.",
                    "_spender": "The address which will spend the funds."
                }
            },
            "totalSupply()": {
                "details": "total number of tokens in existence"
            }
        }
    },
    "userdoc": {
        "methods": {}
    }
}