{
    "contractName": "TradeDelegate",
    "abi": [
        {
            "constant": false,
            "inputs": [],
            "name": "resume",
            "outputs": [],
            "payable": false,
            "stateMutability": "nonpayable",
            "type": "function"
        },
        {
            "constant": false,
            "inputs": [],
            "name": "kill",
            "outputs": [],
            "payable": false,
            "stateMutability": "nonpayable",
            "type": "function"
        },
        {
            "constant": false,
            "inputs": [
                {
                    "name": "addr",
                    "type": "address"
                }
            ],
            "name": "authorizeAddress",
            "outputs": [],
            "payable": false,
            "stateMutability": "nonpayable",
            "type": "function"
        },
        {
            "constant": false,
            "inputs": [],
            "name": "claimOwnership",
            "outputs": [],
            "payable": false,
            "stateMutability": "nonpayable",
            "type": "function"
        },
        {
            "constant": true,
            "inputs": [],
            "name": "suspended",
            "outputs": [
                {
                    "name": "",
                    "type": "bool"
                }
            ],
            "payable": false,
            "stateMutability": "view",
            "type": "function"
        },
        {
            "constant": true,
            "inputs": [],
            "name": "owner",
            "outputs": [
                {
                    "name": "",
                    "type": "address"
                }
            ],
            "payable": false,
            "stateMutability": "view",
            "type": "function"
        },
        {
            "constant": true,
            "inputs": [
                {
                    "name": "addr",
                    "type": "address"
                }
            ],
            "name": "isAddressAuthorized",
            "outputs": [
                {
                    "name": "",
                    "type": "bool"
                }
            ],
            "payable": false,
            "stateMutability": "view",
            "type": "function"
        },
        {
            "constant": true,
            "inputs": [],
            "name": "pendingOwner",
            "outputs": [
                {
                    "name": "",
                    "type": "address"
                }
            ],
            "payable": false,
            "stateMutability": "view",
            "type": "function"
        },
        {
            "constant": false,
            "inputs": [],
            "name": "suspend",
            "outputs": [],
            "payable": false,
            "stateMutability": "nonpayable",
            "type": "function"
        },
        {
            "constant": false,
            "inputs": [
                {
                    "name": "newOwner",
                    "type": "address"
                }
            ],
            "name": "transferOwnership",
            "outputs": [],
            "payable": false,
            "stateMutability": "nonpayable",
            "type": "function"
        },
        {
            "constant": false,
            "inputs": [
                {
                    "name": "addr",
                    "type": "address"
                }
            ],
            "name": "deauthorizeAddress",
            "outputs": [],
            "payable": false,
            "stateMutability": "nonpayable",
            "type": "function"
        },
        {
            "payable": true,
            "stateMutability": "payable",
            "type": "fallback"
        },
        {
            "anonymous": false,
            "inputs": [
                {
                    "indexed": true,
                    "name": "addr",
                    "type": "address"
                }
            ],
            "name": "AddressAuthorized",
            "type": "event"
        },
        {
            "anonymous": false,
            "inputs": [
                {
                    "indexed": true,
                    "name": "addr",
                    "type": "address"
                }
            ],
            "name": "AddressDeauthorized",
            "type": "event"
        },
        {
            "anonymous": false,
            "inputs": [
                {
                    "indexed": true,
                    "name": "previousOwner",
                    "type": "address"
                },
                {
                    "indexed": true,
                    "name": "newOwner",
                    "type": "address"
                }
            ],
            "name": "OwnershipTransferred",
            "type": "event"
        },
        {
            "constant": false,
            "inputs": [
                {
                    "name": "batch",
                    "type": "bytes32[]"
                }
            ],
            "name": "batchTransfer",
            "outputs": [],
            "payable": false,
            "stateMutability": "nonpayable",
            "type": "function"
        }
    ],
    "bytecode": "0x60806040526004805460ff1916905560008054600160a060020a031916331790556116e18061002f6000396000f3fe6080604052600436106100e4576000357c010000000000000000000000000000000000000000000000000000000090048063ced3fb9c11610091578063f2fde38b1161006b578063f2fde38b14610306578063f73857cc14610346578063fa369e6614610386576100e4565b8063ced3fb9c1461029c578063e30c3978146102dc578063e6400bbe146102f1576100e4565b80634e71e0c8116100c25780634e71e0c814610220578063702efdf3146102355780638da5cb5b1461025e576100e4565b8063046f7da2146101b457806341c0e1b5146101cb5780634a5db3b5146101e0575b604080518082018252600b81527f554e535550504f52544544000000000000000000000000000000000000000000602080830191825292517f08c379a00000000000000000000000000000000000000000000000000000000081526004810193845282516024820152825192939283926044909201919080838360005b83811015610179578181015183820152602001610161565b50505050905090810190601f1680156101a65780820380516001836020036101000a031916815260200191505b509250505060405180910390fd5b3480156101c057600080fd5b506101c9610403565b005b3480156101d757600080fd5b506101c9610557565b3480156101ec57600080fd5b506101c96004803603602081101561020357600080fd5b503573ffffffffffffffffffffffffffffffffffffffff166106d5565b34801561022c57600080fd5b506101c9610a27565b34801561024157600080fd5b5061024a610b43565b604080519115158252519081900360200190f35b34801561026a57600080fd5b50610273610b4c565b6040805173ffffffffffffffffffffffffffffffffffffffff9092168252519081900360200190f35b3480156102a857600080fd5b5061024a600480360360208110156102bf57600080fd5b503573ffffffffffffffffffffffffffffffffffffffff16610b68565b3480156102e857600080fd5b50610273610b91565b3480156102fd57600080fd5b506101c9610bad565b34801561031257600080fd5b506101c96004803603602081101561032957600080fd5b503573ffffffffffffffffffffffffffffffffffffffff16610d03565b34801561035257600080fd5b506101c96004803603602081101561036957600080fd5b503573ffffffffffffffffffffffffffffffffffffffff16610e7d565b34801561039257600080fd5b506101c9600480360360208110156103a957600080fd5b8101906020810181356401000000008111156103c457600080fd5b8201836020820111156103d657600080fd5b803590602001918460208302840111640100000000831117156103f857600080fd5b5090925090506111db565b60005473ffffffffffffffffffffffffffffffffffffffff16331461048957604080517f08c379a000000000000000000000000000000000000000000000000000000000815260206004820152600960248201527f4e4f545f4f574e45520000000000000000000000000000000000000000000000604482015290519081900360640190fd5b60045460408051808201909152600d81527f494e56414c49445f53544154450000000000000000000000000000000000000060208201529060ff16151561052c576040517f08c379a000000000000000000000000000000000000000000000000000000000815260040180806020018281038252838181518152602001915080519060200190808383600083811015610179578181015183820152602001610161565b50600480547fffffffffffffffffffffffffffffffffffffffffffffffffffffffffffffff00169055565b60005473ffffffffffffffffffffffffffffffffffffffff1633146105dd57604080517f08c379a000000000000000000000000000000000000000000000000000000000815260206004820152600960248201527f4e4f545f4f574e45520000000000000000000000000000000000000000000000604482015290519081900360640190fd5b60045460408051808201909152600d81527f494e56414c49445f53544154450000000000000000000000000000000000000060208201529060ff161515610680576040517f08c379a000000000000000000000000000000000000000000000000000000000815260040180806020018281038252838181518152602001915080519060200190808383600083811015610179578181015183820152602001610161565b50600080547fffffffffffffffffffffffff000000000000000000000000000000000000000016815560405181907f8be0079c531659141344cd1fd0a4f28419497f9722a3daafe3b4186f6b6457e0908290a3565b60005473ffffffffffffffffffffffffffffffffffffffff16331461075b57604080517f08c379a000000000000000000000000000000000000000000000000000000000815260206004820152600960248201527f4e4f545f4f574e45520000000000000000000000000000000000000000000000604482015290519081900360640190fd5b60408051808201909152600c81527f5a45524f5f414444524553530000000000000000000000000000000000000000602082015273ffffffffffffffffffffffffffffffffffffffff8216151561080e576040517f08c379a000000000000000000000000000000000000000000000000000000000815260040180806020018281038252838181518152602001915080519060200190808383600083811015610179578181015183820152602001610161565b5073ffffffffffffffffffffffffffffffffffffffff8116600090815260036020908152604091829020548251808401909352600d83527f414c52454144595f45584953540000000000000000000000000000000000000091830191909152156108d4576040517f08c379a000000000000000000000000000000000000000000000000000000000815260040180806020018281038252838181518152602001915080519060200190808383600083811015610179578181015183820152602001610161565b506108de816114d0565b60408051808201909152600f81527f494e56414c49445f414444524553530000000000000000000000000000000000602082015290151561097b576040517f08c379a000000000000000000000000000000000000000000000000000000000815260040180806020018281038252838181518152602001915080519060200190808383600083811015610179578181015183820152602001610161565b50600280546001810182557f405787fa12a823e0f2b7631cc41b3ba8828b3321ca811111fa75cd3aa3bb5ace0180547fffffffffffffffffffffffff00000000000000000000000000000000000000001673ffffffffffffffffffffffffffffffffffffffff841690811790915590546000828152600360205260408082209290925590517faa4a1856deca699ff17682b11b9090fe141669ccd7c1951ab8605ad8c9ab17759190a250565b60015473ffffffffffffffffffffffffffffffffffffffff163314610aad57604080517f08c379a000000000000000000000000000000000000000000000000000000000815260206004820152600c60248201527f554e415554484f52495a45440000000000000000000000000000000000000000604482015290519081900360640190fd5b6001546000805460405173ffffffffffffffffffffffffffffffffffffffff93841693909116917f8be0079c531659141344cd1fd0a4f28419497f9722a3daafe3b4186f6b6457e091a360018054600080547fffffffffffffffffffffffff000000000000000000000000000000000000000090811673ffffffffffffffffffffffffffffffffffffffff841617909155169055565b60045460ff1681565b60005473ffffffffffffffffffffffffffffffffffffffff1681565b73ffffffffffffffffffffffffffffffffffffffff166000908152600360205260408120541190565b60015473ffffffffffffffffffffffffffffffffffffffff1681565b60005473ffffffffffffffffffffffffffffffffffffffff163314610c3357604080517f08c379a000000000000000000000000000000000000000000000000000000000815260206004820152600960248201527f4e4f545f4f574e45520000000000000000000000000000000000000000000000604482015290519081900360640190fd5b60045460408051808201909152600d81527f494e56414c49445f53544154450000000000000000000000000000000000000060208201529060ff1615610cd5576040517f08c379a000000000000000000000000000000000000000000000000000000000815260040180806020018281038252838181518152602001915080519060200190808383600083811015610179578181015183820152602001610161565b50600480547fffffffffffffffffffffffffffffffffffffffffffffffffffffffffffffff00166001179055565b60005473ffffffffffffffffffffffffffffffffffffffff163314610d8957604080517f08c379a000000000000000000000000000000000000000000000000000000000815260206004820152600960248201527f4e4f545f4f574e45520000000000000000000000000000000000000000000000604482015290519081900360640190fd5b73ffffffffffffffffffffffffffffffffffffffff811615801590610dc9575060005473ffffffffffffffffffffffffffffffffffffffff828116911614155b1515610e3657604080517f08c379a000000000000000000000000000000000000000000000000000000000815260206004820152600f60248201527f494e56414c49445f414444524553530000000000000000000000000000000000604482015290519081900360640190fd5b600180547fffffffffffffffffffffffff00000000000000000000000000000000000000001673ffffffffffffffffffffffffffffffffffffffff92909216919091179055565b60005473ffffffffffffffffffffffffffffffffffffffff163314610f0357604080517f08c379a000000000000000000000000000000000000000000000000000000000815260206004820152600960248201527f4e4f545f4f574e45520000000000000000000000000000000000000000000000604482015290519081900360640190fd5b60408051808201909152600c81527f5a45524f5f414444524553530000000000000000000000000000000000000000602082015273ffffffffffffffffffffffffffffffffffffffff82161515610fb6576040517f08c379a000000000000000000000000000000000000000000000000000000000815260040180806020018281038252838181518152602001915080519060200190808383600083811015610179578181015183820152602001610161565b5073ffffffffffffffffffffffffffffffffffffffff8116600090815260036020908152604091829020548251808401909352600983527f4e4f545f464f554e440000000000000000000000000000000000000000000000918301919091529081151561107f576040517f08c379a000000000000000000000000000000000000000000000000000000000815260040180806020018281038252838181518152602001915080519060200190808383600083811015610179578181015183820152602001610161565b5060025481811461115657600060026001830381548110151561109e57fe5b6000918252602090912001546002805473ffffffffffffffffffffffffffffffffffffffff909216925082917fffffffffffffffffffffffffffffffffffffffffffffffffffffffffffffffff86019081106110f657fe5b600091825260208083209190910180547fffffffffffffffffffffffff00000000000000000000000000000000000000001673ffffffffffffffffffffffffffffffffffffffff9485161790559290911681526003909152604090208290555b600280547fffffffffffffffffffffffffffffffffffffffffffffffffffffffffffffffff0190611187908261166f565b5073ffffffffffffffffffffffffffffffffffffffff8316600081815260036020526040808220829055517fff697c8ffb6d1c8456e82cc41dade65a5222e9914aa8c020f55b73b617ad50c09190a2505050565b336000908152600360209081526040808320548151808301909252600c82527f554e415554484f52495a4544000000000000000000000000000000000000000092820192909252911061128a576040517f08c379a000000000000000000000000000000000000000000000000000000000815260040180806020018281038252838181518152602001915080519060200190808383600083811015610179578181015183820152602001610161565b5060045460408051808201909152600d81527f494e56414c49445f53544154450000000000000000000000000000000000000060208201529060ff161561132d576040517f08c379a000000000000000000000000000000000000000000000000000000000815260040180806020018281038252838181518152602001915080519060200190808383600083811015610179578181015183820152602001610161565b5060408051808201909152600c81527f494e56414c49445f53495a4500000000000000000000000000000000000000006020820152819060038216156113cf576040517f08c379a000000000000000000000000000000000000000000000000000000000815260040180806020018281038252838181518152602001915080519060200190808383600083811015610179578181015183820152602001610161565b506044602082028101815b818110156114c857803560208201356040830135606084013561141b73ffffffffffffffffffffffffffffffffffffffff851684848463ffffffff6114d816565b60408051808201909152601081527f5452414e534645525f4641494c5552450000000000000000000000000000000060208201529015156114b8576040517f08c379a000000000000000000000000000000000000000000000000000000000815260040180806020018281038252838181518152602001915080519060200190808383600083811015610179578181015183820152602001610161565b50505050506080810190506113da565b505050505050565b6000903b1190565b6040805173ffffffffffffffffffffffffffffffffffffffff80861660248301528085166044830152606480830185905283518084039091018152608490920183526020820180517bffffffffffffffffffffffffffffffffffffffffffffffffffffffff167f23b872dd0000000000000000000000000000000000000000000000000000000017815292518251600094928916928492918291908083835b602083106115b457805182527fffffffffffffffffffffffffffffffffffffffffffffffffffffffffffffffe09092019160209182019101611577565b6001836020036101000a0380198251168184511680821785525050505050509050019150506000604051808303816000865af19150503d8060008114611616576040519150601f19603f3d011682016040523d82523d6000602084013e61161b565b606091505b50508092505061162a82611634565b9695505050505050565b6000811561166b573d8015611654576020811461165d5760009250611669565b60019250611669565b60206000803e60005192505b505b5090565b81548183558181111561169357600083815260209020611693918101908301611698565b505050565b6116b291905b8082111561166b576000815560010161169e565b9056fea165627a7a7230582062f040e44a8460d0f53a70f5c4d88ce4ec3f2052da5f36d6cf00e07a926b45f90029",
    "source": "/*\n\n  Copyright 2017 Loopring Project Ltd (Loopring Foundation).\n\n  Licensed under the Apache License, Version 2.0 (the \"License\");\n  you may not use this file except in compliance with the License.\n  You may obtain a copy of the License at\n\n  http://www.apache.org/licenses/LICENSE-2.0\n\n  Unless required by applicable law or agreed to in writing, software\n  distributed under the License is distributed on an \"AS IS\" BASIS,\n  WITHOUT WARRANTIES OR CONDITIONS OF ANY KIND, either express or implied.\n  See the License for the specific language governing permissions and\n  limitations under the License.\n*/\npragma solidity 0.5.2;\n\nimport \"../iface/ITradeDelegate.sol\";\nimport \"../lib/Authorizable.sol\";\nimport \"../lib/ERC20SafeTransfer.sol\";\nimport \"../lib/Killable.sol\";\nimport \"../lib/NoDefaultFunc.sol\";\n\n\n/// @title An Implementation of ITradeDelegate.\n/// @author Daniel Wang - <daniel@loopring.org>.\n/// @author Kongliang Zhong - <kongliang@loopring.org>.\ncontract TradeDelegate is ITradeDelegate, Authorizable, Killable, NoDefaultFunc {\n    using ERC20SafeTransfer for address;\n\n    function batchTransfer(\n        bytes32[] calldata batch\n        )\n        external\n        onlyAuthorized\n        notSuspended\n    {\n        uint length = batch.length;\n        require(length % 4 == 0, INVALID_SIZE);\n\n        uint start = 68;\n        uint end = start + length * 32;\n        for (uint p = start; p < end; p += 128) {\n            address token;\n            address from;\n            address to;\n            uint amount;\n            assembly {\n                token := calldataload(add(p,  0))\n                from := calldataload(add(p, 32))\n                to := calldataload(add(p, 64))\n                amount := calldataload(add(p, 96))\n            }\n            require(\n                token.safeTransferFrom(\n                    from,\n                    to,\n                    amount\n                ),\n                TRANSFER_FAILURE\n            );\n        }\n    }\n}\n",
    "sourcePath": "/usr/local/klzhong/workspace/loopring/protocol2/contracts/impl/TradeDelegate.sol",
    "compiler": {
        "name": "solc",
        "version": "0.5.2+commit.1df8f40c.Emscripten.clang"
    },
    "schemaVersion": "3.0.0",
    "updatedAt": "2019-03-19T09:16:27.501Z",
    "devdoc": {
        "author": "Daniel Wang - <daniel@loopring.org>.Kongliang Zhong - <kongliang@loopring.org>.",
        "methods": {
            "claimOwnership()": {
                "details": "Allows the pendingOwner address to finalize the transfer."
            },
            "transferOwnership(address)": {
                "details": "Allows the current owner to set the pendingOwner address.",
                "params": {
                    "newOwner": "The address to transfer ownership to."
                }
            }
        },
        "title": "An Implementation of ITradeDelegate."
    },
    "userdoc": {
        "methods": {
            "kill()": {
                "notice": "owner must suspend the delegate first before invoking the kill method."
            }
        }
    }
}