{
    "contractName": "TradeHistory",
    "abi": [
        {
            "constant": false,
            "inputs": [],
            "name": "resume",
            "outputs": [],
            "payable": false,
            "stateMutability": "nonpayable",
            "type": "function"
        },
        {
            "constant": true,
            "inputs": [
                {
                    "name": "",
                    "type": "bytes32"
                }
            ],
            "name": "filled",
            "outputs": [
                {
                    "name": "",
                    "type": "uint256"
                }
            ],
            "payable": false,
            "stateMutability": "view",
            "type": "function"
        },
        {
            "constant": false,
            "inputs": [],
            "name": "kill",
            "outputs": [],
            "payable": false,
            "stateMutability": "nonpayable",
            "type": "function"
        },
        {
            "constant": false,
            "inputs": [
                {
                    "name": "addr",
                    "type": "address"
                }
            ],
            "name": "authorizeAddress",
            "outputs": [],
            "payable": false,
            "stateMutability": "nonpayable",
            "type": "function"
        },
        {
            "constant": false,
            "inputs": [],
            "name": "claimOwnership",
            "outputs": [],
            "payable": false,
            "stateMutability": "nonpayable",
            "type": "function"
        },
        {
            "constant": true,
            "inputs": [],
            "name": "suspended",
            "outputs": [
                {
                    "name": "",
                    "type": "bool"
                }
            ],
            "payable": false,
            "stateMutability": "view",
            "type": "function"
        },
        {
            "constant": true,
            "inputs": [],
            "name": "owner",
            "outputs": [
                {
                    "name": "",
                    "type": "address"
                }
            ],
            "payable": false,
            "stateMutability": "view",
            "type": "function"
        },
        {
            "constant": true,
            "inputs": [
                {
                    "name": "",
                    "type": "address"
                },
                {
                    "name": "",
                    "type": "address"
                },
                {
                    "name": "",
                    "type": "bytes20"
                }
            ],
            "name": "tradingPairCutoffsOwner",
            "outputs": [
                {
                    "name": "",
                    "type": "uint256"
                }
            ],
            "payable": false,
            "stateMutability": "view",
            "type": "function"
        },
        {
            "constant": true,
            "inputs": [
                {
                    "name": "",
                    "type": "address"
                },
                {
                    "name": "",
                    "type": "bytes20"
                }
            ],
            "name": "tradingPairCutoffs",
            "outputs": [
                {
                    "name": "",
                    "type": "uint256"
                }
            ],
            "payable": false,
            "stateMutability": "view",
            "type": "function"
        },
        {
            "constant": true,
            "inputs": [
                {
                    "name": "addr",
                    "type": "address"
                }
            ],
            "name": "isAddressAuthorized",
            "outputs": [
                {
                    "name": "",
                    "type": "bool"
                }
            ],
            "payable": false,
            "stateMutability": "view",
            "type": "function"
        },
        {
            "constant": true,
            "inputs": [
                {
                    "name": "",
                    "type": "address"
                },
                {
                    "name": "",
                    "type": "bytes32"
                }
            ],
            "name": "cancelled",
            "outputs": [
                {
                    "name": "",
                    "type": "bool"
                }
            ],
            "payable": false,
            "stateMutability": "view",
            "type": "function"
        },
        {
            "constant": true,
            "inputs": [
                {
                    "name": "",
                    "type": "address"
                }
            ],
            "name": "cutoffs",
            "outputs": [
                {
                    "name": "",
                    "type": "uint256"
                }
            ],
            "payable": false,
            "stateMutability": "view",
            "type": "function"
        },
        {
            "constant": true,
            "inputs": [],
            "name": "pendingOwner",
            "outputs": [
                {
                    "name": "",
                    "type": "address"
                }
            ],
            "payable": false,
            "stateMutability": "view",
            "type": "function"
        },
        {
            "constant": false,
            "inputs": [],
            "name": "suspend",
            "outputs": [],
            "payable": false,
            "stateMutability": "nonpayable",
            "type": "function"
        },
        {
            "constant": false,
            "inputs": [
                {
                    "name": "newOwner",
                    "type": "address"
                }
            ],
            "name": "transferOwnership",
            "outputs": [],
            "payable": false,
            "stateMutability": "nonpayable",
            "type": "function"
        },
        {
            "constant": false,
            "inputs": [
                {
                    "name": "addr",
                    "type": "address"
                }
            ],
            "name": "deauthorizeAddress",
            "outputs": [],
            "payable": false,
            "stateMutability": "nonpayable",
            "type": "function"
        },
        {
            "constant": true,
            "inputs": [
                {
                    "name": "",
                    "type": "address"
                },
                {
                    "name": "",
                    "type": "address"
                }
            ],
            "name": "cutoffsOwner",
            "outputs": [
                {
                    "name": "",
                    "type": "uint256"
                }
            ],
            "payable": false,
            "stateMutability": "view",
            "type": "function"
        },
        {
            "payable": true,
            "stateMutability": "payable",
            "type": "fallback"
        },
        {
            "anonymous": false,
            "inputs": [
                {
                    "indexed": true,
                    "name": "addr",
                    "type": "address"
                }
            ],
            "name": "AddressAuthorized",
            "type": "event"
        },
        {
            "anonymous": false,
            "inputs": [
                {
                    "indexed": true,
                    "name": "addr",
                    "type": "address"
                }
            ],
            "name": "AddressDeauthorized",
            "type": "event"
        },
        {
            "anonymous": false,
            "inputs": [
                {
                    "indexed": true,
                    "name": "previousOwner",
                    "type": "address"
                },
                {
                    "indexed": true,
                    "name": "newOwner",
                    "type": "address"
                }
            ],
            "name": "OwnershipTransferred",
            "type": "event"
        },
        {
            "constant": false,
            "inputs": [
                {
                    "name": "filledInfo",
                    "type": "bytes32[]"
                }
            ],
            "name": "batchUpdateFilled",
            "outputs": [],
            "payable": false,
            "stateMutability": "nonpayable",
            "type": "function"
        },
        {
            "constant": false,
            "inputs": [
                {
                    "name": "broker",
                    "type": "address"
                },
                {
                    "name": "orderHash",
                    "type": "bytes32"
                }
            ],
            "name": "setCancelled",
            "outputs": [],
            "payable": false,
            "stateMutability": "nonpayable",
            "type": "function"
        },
        {
            "constant": false,
            "inputs": [
                {
                    "name": "broker",
                    "type": "address"
                },
                {
                    "name": "cutoff",
                    "type": "uint256"
                }
            ],
            "name": "setCutoffs",
            "outputs": [],
            "payable": false,
            "stateMutability": "nonpayable",
            "type": "function"
        },
        {
            "constant": false,
            "inputs": [
                {
                    "name": "broker",
                    "type": "address"
                },
                {
                    "name": "tokenPair",
                    "type": "bytes20"
                },
                {
                    "name": "cutoff",
                    "type": "uint256"
                }
            ],
            "name": "setTradingPairCutoffs",
            "outputs": [],
            "payable": false,
            "stateMutability": "nonpayable",
            "type": "function"
        },
        {
            "constant": false,
            "inputs": [
                {
                    "name": "broker",
                    "type": "address"
                },
                {
                    "name": "owner",
                    "type": "address"
                },
                {
                    "name": "cutoff",
                    "type": "uint256"
                }
            ],
            "name": "setCutoffsOfOwner",
            "outputs": [],
            "payable": false,
            "stateMutability": "nonpayable",
            "type": "function"
        },
        {
            "constant": false,
            "inputs": [
                {
                    "name": "broker",
                    "type": "address"
                },
                {
                    "name": "owner",
                    "type": "address"
                },
                {
                    "name": "tokenPair",
                    "type": "bytes20"
                },
                {
                    "name": "cutoff",
                    "type": "uint256"
                }
            ],
            "name": "setTradingPairCutoffsOfOwner",
            "outputs": [],
            "payable": false,
            "stateMutability": "nonpayable",
            "type": "function"
        },
        {
            "constant": true,
            "inputs": [
                {
                    "name": "batch",
                    "type": "bytes32[]"
                }
            ],
            "name": "batchGetFilledAndCheckCancelled",
            "outputs": [
                {
                    "name": "fills",
                    "type": "uint256[]"
                }
            ],
            "payable": false,
            "stateMutability": "view",
            "type": "function"
        }
    ],
    "bytecode": "0x6080604052600a805460ff1916905560068054600160a060020a0319163317905561282b8061002f6000396000f3fe6080604052600436106101a8576000357c010000000000000000000000000000000000000000000000000000000090048063b8d641a3116100f3578063e30c39781161009c578063f732282b11610076578063f732282b14610802578063f73857cc14610867578063f7a6301d146108a7576101a8565b8063e30c397814610798578063e6400bbe146107ad578063f2fde38b146107c2576101a8565b8063cfd854c2116100cd578063cfd854c2146106cc578063d387978d14610712578063de794c1e14610758576101a8565b8063b8d641a3146105dc578063cb23e89914610631578063ced3fb9c1461068c576101a8565b8063702efdf3116101555780639bdbf6521161012f5780639bdbf6521461045f578063aec782d4146104af578063b30ecbf41461057c576101a8565b8063702efdf31461037b578063843ff0e5146103a45780638da5cb5b14610421576101a8565b806341c0e1b51161018657806341c0e1b5146103115780634a5db3b5146103265780634e71e0c814610366576101a8565b8063046f7da21461027857806305e455601461028f578063288cdc91146102d5575b604080518082018252600b81527f554e535550504f52544544000000000000000000000000000000000000000000602080830191825292517f08c379a00000000000000000000000000000000000000000000000000000000081526004810193845282516024820152825192939283926044909201919080838360005b8381101561023d578181015183820152602001610225565b50505050905090810190601f16801561026a5780820380516001836020036101000a031916815260200191505b509250505060405180910390fd5b34801561028457600080fd5b5061028d6108ef565b005b34801561029b57600080fd5b5061028d600480360360408110156102b257600080fd5b5073ffffffffffffffffffffffffffffffffffffffff8135169060200135610a43565b3480156102e157600080fd5b506102ff600480360360208110156102f857600080fd5b5035610c86565b60408051918252519081900360200190f35b34801561031d57600080fd5b5061028d610c98565b34801561033257600080fd5b5061028d6004803603602081101561034957600080fd5b503573ffffffffffffffffffffffffffffffffffffffff16610e19565b34801561037257600080fd5b5061028d61116b565b34801561038757600080fd5b50610390611289565b604080519115158252519081900360200190f35b3480156103b057600080fd5b5061028d600480360360208110156103c757600080fd5b8101906020810181356401000000008111156103e257600080fd5b8201836020820111156103f457600080fd5b8035906020019184602083028401116401000000008311171561041657600080fd5b509092509050611292565b34801561042d57600080fd5b506104366114bf565b6040805173ffffffffffffffffffffffffffffffffffffffff9092168252519081900360200190f35b34801561046b57600080fd5b5061028d6004803603606081101561048257600080fd5b5073ffffffffffffffffffffffffffffffffffffffff8135811691602081013590911690604001356114db565b3480156104bb57600080fd5b5061052c600480360360208110156104d257600080fd5b8101906020810181356401000000008111156104ed57600080fd5b8201836020820111156104ff57600080fd5b8035906020019184602083028401116401000000008311171561052157600080fd5b50909250905061173a565b60408051602080825283518183015283519192839290830191858101910280838360005b83811015610568578181015183820152602001610550565b505050509050019250505060405180910390f35b34801561058857600080fd5b506102ff6004803603606081101561059f57600080fd5b50803573ffffffffffffffffffffffffffffffffffffffff90811691602081013590911690604001356bffffffffffffffffffffffff19166119fb565b3480156105e857600080fd5b506102ff600480360360408110156105ff57600080fd5b50803573ffffffffffffffffffffffffffffffffffffffff1690602001356bffffffffffffffffffffffff1916611a1e565b34801561063d57600080fd5b5061028d6004803603606081101561065457600080fd5b5073ffffffffffffffffffffffffffffffffffffffff813516906bffffffffffffffffffffffff196020820135169060400135611a3b565b34801561069857600080fd5b50610390600480360360208110156106af57600080fd5b503573ffffffffffffffffffffffffffffffffffffffff16611caf565b3480156106d857600080fd5b5061028d600480360360408110156106ef57600080fd5b5073ffffffffffffffffffffffffffffffffffffffff8135169060200135611cd8565b34801561071e57600080fd5b506103906004803603604081101561073557600080fd5b5073ffffffffffffffffffffffffffffffffffffffff8135169060200135611e88565b34801561076457600080fd5b506102ff6004803603602081101561077b57600080fd5b503573ffffffffffffffffffffffffffffffffffffffff16611ea8565b3480156107a457600080fd5b50610436611eba565b3480156107b957600080fd5b5061028d611ed6565b3480156107ce57600080fd5b5061028d600480360360208110156107e557600080fd5b503573ffffffffffffffffffffffffffffffffffffffff1661202c565b34801561080e57600080fd5b5061028d6004803603608081101561082557600080fd5b5073ffffffffffffffffffffffffffffffffffffffff81358116916020810135909116906bffffffffffffffffffffffff1960408201351690606001356121a6565b34801561087357600080fd5b5061028d6004803603602081101561088a57600080fd5b503573ffffffffffffffffffffffffffffffffffffffff16612436565b3480156108b357600080fd5b506102ff600480360360408110156108ca57600080fd5b5073ffffffffffffffffffffffffffffffffffffffff81358116916020013516612790565b60065473ffffffffffffffffffffffffffffffffffffffff16331461097557604080517f08c379a000000000000000000000000000000000000000000000000000000000815260206004820152600960248201527f4e4f545f4f574e45520000000000000000000000000000000000000000000000604482015290519081900360640190fd5b600a5460408051808201909152600d81527f494e56414c49445f53544154450000000000000000000000000000000000000060208201529060ff161515610a18576040517f08c379a00000000000000000000000000000000000000000000000000000000081526004018080602001828103825283818151815260200191508051906020019080838360008381101561023d578181015183820152602001610225565b50600a80547fffffffffffffffffffffffffffffffffffffffffffffffffffffffffffffff00169055565b336000908152600960209081526040808320548151808301909252600c82527f554e415554484f52495a45440000000000000000000000000000000000000000928201929092529110610af2576040517f08c379a00000000000000000000000000000000000000000000000000000000081526004018080602001828103825283818151815260200191508051906020019080838360008381101561023d578181015183820152602001610225565b50600a5460408051808201909152600d81527f494e56414c49445f53544154450000000000000000000000000000000000000060208201529060ff1615610b95576040517f08c379a00000000000000000000000000000000000000000000000000000000081526004018080602001828103825283818151815260200191508051906020019080838360008381101561023d578181015183820152602001610225565b5073ffffffffffffffffffffffffffffffffffffffff8216600090815260026020908152604091829020548251808401909352600d83527f494e56414c49445f56414c554500000000000000000000000000000000000000918301919091528211610c5c576040517f08c379a00000000000000000000000000000000000000000000000000000000081526004018080602001828103825283818151815260200191508051906020019080838360008381101561023d578181015183820152602001610225565b5073ffffffffffffffffffffffffffffffffffffffff909116600090815260026020526040902055565b60006020819052908152604090205481565b60065473ffffffffffffffffffffffffffffffffffffffff163314610d1e57604080517f08c379a000000000000000000000000000000000000000000000000000000000815260206004820152600960248201527f4e4f545f4f574e45520000000000000000000000000000000000000000000000604482015290519081900360640190fd5b600a5460408051808201909152600d81527f494e56414c49445f53544154450000000000000000000000000000000000000060208201529060ff161515610dc1576040517f08c379a00000000000000000000000000000000000000000000000000000000081526004018080602001828103825283818151815260200191508051906020019080838360008381101561023d578181015183820152602001610225565b50600680547fffffffffffffffffffffffff000000000000000000000000000000000000000016905560405160009081907f8be0079c531659141344cd1fd0a4f28419497f9722a3daafe3b4186f6b6457e0908290a3565b60065473ffffffffffffffffffffffffffffffffffffffff163314610e9f57604080517f08c379a000000000000000000000000000000000000000000000000000000000815260206004820152600960248201527f4e4f545f4f574e45520000000000000000000000000000000000000000000000604482015290519081900360640190fd5b60408051808201909152600c81527f5a45524f5f414444524553530000000000000000000000000000000000000000602082015273ffffffffffffffffffffffffffffffffffffffff82161515610f52576040517f08c379a00000000000000000000000000000000000000000000000000000000081526004018080602001828103825283818151815260200191508051906020019080838360008381101561023d578181015183820152602001610225565b5073ffffffffffffffffffffffffffffffffffffffff8116600090815260096020908152604091829020548251808401909352600d83527f414c52454144595f4558495354000000000000000000000000000000000000009183019190915215611018576040517f08c379a00000000000000000000000000000000000000000000000000000000081526004018080602001828103825283818151815260200191508051906020019080838360008381101561023d578181015183820152602001610225565b50611022816127ad565b60408051808201909152600f81527f494e56414c49445f41444452455353000000000000000000000000000000000060208201529015156110bf576040517f08c379a00000000000000000000000000000000000000000000000000000000081526004018080602001828103825283818151815260200191508051906020019080838360008381101561023d578181015183820152602001610225565b50600880546001810182557ff3f7a9fe364faab93b216da50a3214154f22a0a2b415b23a84c8169e8b636ee30180547fffffffffffffffffffffffff00000000000000000000000000000000000000001673ffffffffffffffffffffffffffffffffffffffff841690811790915590546000828152600960205260408082209290925590517faa4a1856deca699ff17682b11b9090fe141669ccd7c1951ab8605ad8c9ab17759190a250565b60075473ffffffffffffffffffffffffffffffffffffffff1633146111f157604080517f08c379a000000000000000000000000000000000000000000000000000000000815260206004820152600c60248201527f554e415554484f52495a45440000000000000000000000000000000000000000604482015290519081900360640190fd5b60075460065460405173ffffffffffffffffffffffffffffffffffffffff92831692909116907f8be0079c531659141344cd1fd0a4f28419497f9722a3daafe3b4186f6b6457e090600090a360078054600680547fffffffffffffffffffffffff000000000000000000000000000000000000000090811673ffffffffffffffffffffffffffffffffffffffff841617909155169055565b600a5460ff1681565b336000908152600960209081526040808320548151808301909252600c82527f554e415554484f52495a45440000000000000000000000000000000000000000928201929092529110611341576040517f08c379a00000000000000000000000000000000000000000000000000000000081526004018080602001828103825283818151815260200191508051906020019080838360008381101561023d578181015183820152602001610225565b50600a5460408051808201909152600d81527f494e56414c49445f53544154450000000000000000000000000000000000000060208201529060ff16156113e4576040517f08c379a00000000000000000000000000000000000000000000000000000000081526004018080602001828103825283818151815260200191508051906020019080838360008381101561023d578181015183820152602001610225565b5060408051808201909152600c81527f494e56414c49445f53495a450000000000000000000000000000000000000000602082015281906001821615611486576040517f08c379a00000000000000000000000000000000000000000000000000000000081526004018080602001828103825283818151815260200191508051906020019080838360008381101561023d578181015183820152602001610225565b506044602082028101815b818110156114b75780356000908152602081815260409182902090830135905501611491565b505050505050565b60065473ffffffffffffffffffffffffffffffffffffffff1681565b336000908152600960209081526040808320548151808301909252600c82527f554e415554484f52495a4544000000000000000000000000000000000000000092820192909252911061158a576040517f08c379a00000000000000000000000000000000000000000000000000000000081526004018080602001828103825283818151815260200191508051906020019080838360008381101561023d578181015183820152602001610225565b50600a5460408051808201909152600d81527f494e56414c49445f53544154450000000000000000000000000000000000000060208201529060ff161561162d576040517f08c379a00000000000000000000000000000000000000000000000000000000081526004018080602001828103825283818151815260200191508051906020019080838360008381101561023d578181015183820152602001610225565b5073ffffffffffffffffffffffffffffffffffffffff8084166000908152600460209081526040808320938616835292815290829020548251808401909352600d83527f494e56414c49445f56414c554500000000000000000000000000000000000000918301919091528211611700576040517f08c379a00000000000000000000000000000000000000000000000000000000081526004018080602001828103825283818151815260200191508051906020019080838360008381101561023d578181015183820152602001610225565b5073ffffffffffffffffffffffffffffffffffffffff92831660009081526004602090815260408083209490951682529290925291902055565b60608160058160408051808201909152600c81527f494e56414c49445f53495a4500000000000000000000000000000000000000006020820152919006156117de576040517f08c379a00000000000000000000000000000000000000000000000000000000081526004018080602001828103825283818151815260200191508051906020019080838360008381101561023d578181015183820152602001610225565b506044602082028101600060058404604051908082528060200260200182016040528015611816578160200160208202803883390190505b509450825b828110156119f057803573ffffffffffffffffffffffffffffffffffffffff811660009081526001602090815260408083208186013580855290835292205490840135919060608501359060808601359060ff16158080156118bb575073ffffffffffffffffffffffffffffffffffffffff861660009081526003602090815260408083206bffffffffffffffffffffffff198616845290915290205483115b90508080156118ee575073ffffffffffffffffffffffffffffffffffffffff861660009081526002602052604090205483115b9050808015611945575073ffffffffffffffffffffffffffffffffffffffff808716600090815260056020908152604080832093891683529281528282206bffffffffffffffffffffffff19861683529052205483115b9050808015611985575073ffffffffffffffffffffffffffffffffffffffff80871660009081526004602090815260408083209389168352929052205483115b9050806119b2577fffffffffffffffffffffffffffffffffffffffffffffffffffffffffffffffff6119c2565b6000848152602081905260409020545b8c5160018a01998e9181106119d357fe5b6020908102909101015250505060a093909301925061181b915050565b505050505092915050565b600560209081526000938452604080852082529284528284209052825290205481565b600360209081526000928352604080842090915290825290205481565b336000908152600960209081526040808320548151808301909252600c82527f554e415554484f52495a45440000000000000000000000000000000000000000928201929092529110611aea576040517f08c379a00000000000000000000000000000000000000000000000000000000081526004018080602001828103825283818151815260200191508051906020019080838360008381101561023d578181015183820152602001610225565b50600a5460408051808201909152600d81527f494e56414c49445f53544154450000000000000000000000000000000000000060208201529060ff1615611b8d576040517f08c379a00000000000000000000000000000000000000000000000000000000081526004018080602001828103825283818151815260200191508051906020019080838360008381101561023d578181015183820152602001610225565b5073ffffffffffffffffffffffffffffffffffffffff831660009081526003602090815260408083206bffffffffffffffffffffffff1986168452825291829020548251808401909352600d83527f494e56414c49445f56414c554500000000000000000000000000000000000000918301919091528211611c6b576040517f08c379a00000000000000000000000000000000000000000000000000000000081526004018080602001828103825283818151815260200191508051906020019080838360008381101561023d578181015183820152602001610225565b5073ffffffffffffffffffffffffffffffffffffffff90921660009081526003602090815260408083206bffffffffffffffffffffffff1990941683529290522055565b73ffffffffffffffffffffffffffffffffffffffff166000908152600960205260408120541190565b336000908152600960209081526040808320548151808301909252600c82527f554e415554484f52495a45440000000000000000000000000000000000000000928201929092529110611d87576040517f08c379a00000000000000000000000000000000000000000000000000000000081526004018080602001828103825283818151815260200191508051906020019080838360008381101561023d578181015183820152602001610225565b50600a5460408051808201909152600d81527f494e56414c49445f53544154450000000000000000000000000000000000000060208201529060ff1615611e2a576040517f08c379a00000000000000000000000000000000000000000000000000000000081526004018080602001828103825283818151815260200191508051906020019080838360008381101561023d578181015183820152602001610225565b5073ffffffffffffffffffffffffffffffffffffffff909116600090815260016020818152604080842094845293905291902080547fffffffffffffffffffffffffffffffffffffffffffffffffffffffffffffff00169091179055565b600160209081526000928352604080842090915290825290205460ff1681565b60026020526000908152604090205481565b60075473ffffffffffffffffffffffffffffffffffffffff1681565b60065473ffffffffffffffffffffffffffffffffffffffff163314611f5c57604080517f08c379a000000000000000000000000000000000000000000000000000000000815260206004820152600960248201527f4e4f545f4f574e45520000000000000000000000000000000000000000000000604482015290519081900360640190fd5b600a5460408051808201909152600d81527f494e56414c49445f53544154450000000000000000000000000000000000000060208201529060ff1615611ffe576040517f08c379a00000000000000000000000000000000000000000000000000000000081526004018080602001828103825283818151815260200191508051906020019080838360008381101561023d578181015183820152602001610225565b50600a80547fffffffffffffffffffffffffffffffffffffffffffffffffffffffffffffff00166001179055565b60065473ffffffffffffffffffffffffffffffffffffffff1633146120b257604080517f08c379a000000000000000000000000000000000000000000000000000000000815260206004820152600960248201527f4e4f545f4f574e45520000000000000000000000000000000000000000000000604482015290519081900360640190fd5b73ffffffffffffffffffffffffffffffffffffffff8116158015906120f2575060065473ffffffffffffffffffffffffffffffffffffffff828116911614155b151561215f57604080517f08c379a000000000000000000000000000000000000000000000000000000000815260206004820152600f60248201527f494e56414c49445f414444524553530000000000000000000000000000000000604482015290519081900360640190fd5b600780547fffffffffffffffffffffffff00000000000000000000000000000000000000001673ffffffffffffffffffffffffffffffffffffffff92909216919091179055565b336000908152600960209081526040808320548151808301909252600c82527f554e415554484f52495a45440000000000000000000000000000000000000000928201929092529110612255576040517f08c379a00000000000000000000000000000000000000000000000000000000081526004018080602001828103825283818151815260200191508051906020019080838360008381101561023d578181015183820152602001610225565b50600a5460408051808201909152600d81527f494e56414c49445f53544154450000000000000000000000000000000000000060208201529060ff16156122f8576040517f08c379a00000000000000000000000000000000000000000000000000000000081526004018080602001828103825283818151815260200191508051906020019080838360008381101561023d578181015183820152602001610225565b5073ffffffffffffffffffffffffffffffffffffffff808516600090815260056020908152604080832093871683529281528282206bffffffffffffffffffffffff1986168352815290829020548251808401909352600d83527f494e56414c49445f56414c5545000000000000000000000000000000000000009183019190915282116123e2576040517f08c379a00000000000000000000000000000000000000000000000000000000081526004018080602001828103825283818151815260200191508051906020019080838360008381101561023d578181015183820152602001610225565b5073ffffffffffffffffffffffffffffffffffffffff93841660009081526005602090815260408083209590961682529384528481206bffffffffffffffffffffffff199093168152919092529190912055565b60065473ffffffffffffffffffffffffffffffffffffffff1633146124bc57604080517f08c379a000000000000000000000000000000000000000000000000000000000815260206004820152600960248201527f4e4f545f4f574e45520000000000000000000000000000000000000000000000604482015290519081900360640190fd5b60408051808201909152600c81527f5a45524f5f414444524553530000000000000000000000000000000000000000602082015273ffffffffffffffffffffffffffffffffffffffff8216151561256f576040517f08c379a00000000000000000000000000000000000000000000000000000000081526004018080602001828103825283818151815260200191508051906020019080838360008381101561023d578181015183820152602001610225565b5073ffffffffffffffffffffffffffffffffffffffff81166000908152600960208181526040928390205483518085019094529183527f4e4f545f464f554e4400000000000000000000000000000000000000000000009083015290811515612634576040517f08c379a00000000000000000000000000000000000000000000000000000000081526004018080602001828103825283818151815260200191508051906020019080838360008381101561023d578181015183820152602001610225565b5060085481811461270b57600060086001830381548110151561265357fe5b6000918252602090912001546008805473ffffffffffffffffffffffffffffffffffffffff909216925082917fffffffffffffffffffffffffffffffffffffffffffffffffffffffffffffffff86019081106126ab57fe5b600091825260208083209190910180547fffffffffffffffffffffffff00000000000000000000000000000000000000001673ffffffffffffffffffffffffffffffffffffffff9485161790559290911681526009909152604090208290555b600880547fffffffffffffffffffffffffffffffffffffffffffffffffffffffffffffffff019061273c90826127b5565b5073ffffffffffffffffffffffffffffffffffffffff8316600081815260096020526040808220829055517fff697c8ffb6d1c8456e82cc41dade65a5222e9914aa8c020f55b73b617ad50c09190a2505050565b600460209081526000928352604080842090915290825290205481565b6000903b1190565b8154818355818111156127d9576000838152602090206127d99181019083016127de565b505050565b6127fc91905b808211156127f857600081556001016127e4565b5090565b9056fea165627a7a72305820a11c328757267923381b18d5b349160c8e4ae1884ede81556d24e584d77b75c10029",
    "source": "/*\n\n  Copyright 2017 Loopring Project Ltd (Loopring Foundation).\n\n  Licensed under the Apache License, Version 2.0 (the \"License\");\n  you may not use this file except in compliance with the License.\n  You may obtain a copy of the License at\n\n  http://www.apache.org/licenses/LICENSE-2.0\n\n  Unless required by applicable law or agreed to in writing, software\n  distributed under the License is distributed on an \"AS IS\" BASIS,\n  WITHOUT WARRANTIES OR CONDITIONS OF ANY KIND, either express or implied.\n  See the License for the specific language governing permissions and\n  limitations under the License.\n*/\npragma solidity 0.5.2;\n\nimport \"../iface/ITradeHistory.sol\";\n\nimport \"../lib/Authorizable.sol\";\nimport \"../lib/MathUint.sol\";\nimport \"../lib/Killable.sol\";\nimport \"../lib/NoDefaultFunc.sol\";\n\n\n/// @title An Implementation of ITradeHistory.\n/// @author Brecht Devos - <brecht@loopring.org>.\ncontract TradeHistory is ITradeHistory, Authorizable, Killable, NoDefaultFunc {\n    using MathUint for uint;\n\n    function batchUpdateFilled(\n        bytes32[] calldata filledInfo\n        )\n        external\n        onlyAuthorized\n        notSuspended\n    {\n        uint length = filledInfo.length;\n        require(length % 2 == 0, INVALID_SIZE);\n\n        uint start = 68;\n        uint end = start + length * 32;\n        for (uint p = start; p < end; p += 64) {\n            bytes32 hash;\n            uint filledAmount;\n            assembly {\n                hash := calldataload(add(p,  0))\n                filledAmount := calldataload(add(p, 32))\n            }\n            filled[hash] = filledAmount;\n        }\n    }\n\n    function setCancelled(\n        address broker,\n        bytes32 orderHash\n        )\n        external\n        onlyAuthorized\n        notSuspended\n    {\n        cancelled[broker][orderHash] = true;\n    }\n\n    function setCutoffs(\n        address broker,\n        uint    cutoff\n        )\n        external\n        onlyAuthorized\n        notSuspended\n    {\n        require(cutoffs[broker] < cutoff, INVALID_VALUE);\n        cutoffs[broker] = cutoff;\n    }\n\n    function setTradingPairCutoffs(\n        address broker,\n        bytes20 tokenPair,\n        uint    cutoff\n        )\n        external\n        onlyAuthorized\n        notSuspended\n    {\n        require(tradingPairCutoffs[broker][tokenPair] < cutoff, INVALID_VALUE);\n        tradingPairCutoffs[broker][tokenPair] = cutoff;\n    }\n\n    function setCutoffsOfOwner(\n        address broker,\n        address owner,\n        uint    cutoff\n        )\n        external\n        onlyAuthorized\n        notSuspended\n    {\n        require(cutoffsOwner[broker][owner] < cutoff, INVALID_VALUE);\n        cutoffsOwner[broker][owner] = cutoff;\n    }\n\n    function setTradingPairCutoffsOfOwner(\n        address broker,\n        address owner,\n        bytes20 tokenPair,\n        uint    cutoff\n        )\n        external\n        onlyAuthorized\n        notSuspended\n    {\n        require(tradingPairCutoffsOwner[broker][owner][tokenPair] < cutoff, INVALID_VALUE);\n        tradingPairCutoffsOwner[broker][owner][tokenPair] = cutoff;\n    }\n\n    function batchGetFilledAndCheckCancelled(\n        bytes32[] calldata batch\n        )\n        external\n        view\n        returns (uint[] memory fills)\n    {\n        uint length = batch.length;\n        require(length % 5 == 0, INVALID_SIZE);\n\n        uint start = 68;\n        uint end = start + length * 32;\n        uint i = 0;\n        fills = new uint[](length / 5);\n        for (uint p = start; p < end; p += 160) {\n            address broker;\n            address owner;\n            bytes32 hash;\n            uint validSince;\n            bytes20 tradingPair;\n            assembly {\n                broker := calldataload(add(p,  0))\n                owner := calldataload(add(p, 32))\n                hash := calldataload(add(p, 64))\n                validSince := calldataload(add(p, 96))\n                tradingPair := calldataload(add(p, 128))\n            }\n            bool valid = !cancelled[broker][hash];\n            valid = valid && validSince > tradingPairCutoffs[broker][tradingPair];\n            valid = valid && validSince > cutoffs[broker];\n            valid = valid && validSince > tradingPairCutoffsOwner[broker][owner][tradingPair];\n            valid = valid && validSince > cutoffsOwner[broker][owner];\n\n            fills[i++] = valid ? filled[hash] : ~uint(0);\n        }\n    }\n}\n",
    "sourcePath": "/usr/local/klzhong/workspace/loopring/protocol2/contracts/impl/TradeHistory.sol",
    "compiler": {
        "name": "solc",
        "version": "0.5.2+commit.1df8f40c.Emscripten.clang"
    },
    "schemaVersion": "3.0.0",
    "updatedAt": "2019-03-19T09:16:27.501Z",
    "devdoc": {
        "author": "Brecht Devos - <brecht@loopring.org>.",
        "methods": {
            "claimOwnership()": {
                "details": "Allows the pendingOwner address to finalize the transfer."
            },
            "transferOwnership(address)": {
                "details": "Allows the current owner to set the pendingOwner address.",
                "params": {
                    "newOwner": "The address to transfer ownership to."
                }
            }
        },
        "title": "An Implementation of ITradeHistory."
    },
    "userdoc": {
        "methods": {
            "kill()": {
                "notice": "owner must suspend the delegate first before invoking the kill method."
            }
        }
    }
}