{
  "_format": "hh-sol-artifact-1",
  "contractName": "StatelessWallet",
  "sourceName": "contracts/iface2/StatelessWallet.sol",
  "abi": [
    {
      "inputs": [
        {
          "internalType": "bytes32",
          "name": "_hash",
          "type": "bytes32"
        },
        {
          "internalType": "bytes",
          "name": "_signature",
          "type": "bytes"
        }
      ],
      "name": "isValidSignature",
      "outputs": [
        {
          "internalType": "bytes4",
          "name": "magicValueB32",
          "type": "bytes4"
        }
      ],
      "stateMutability": "view",
      "type": "function"
    },
    {
      "inputs": [],
      "name": "ownerAndLock",
      "outputs": [
        {
          "internalType": "address",
          "name": "owner",
          "type": "address"
        },
        {
          "internalType": "bool",
          "name": "isLocked",
          "type": "bool"
        }
      ],
      "stateMutability": "view",
      "type": "function"
    },
    {
      "inputs": [],
      "name": "statehash",
      "outputs": [
        {
          "internalType": "bytes32",
          "name": "",
          "type": "bytes32"
        }
      ],
      "stateMutability": "view",
      "type": "function"
    },
    {
      "inputs": [
        {
          "internalType": "bytes",
          "name": "data",
          "type": "bytes"
        }
      ],
      "name": "transact",
      "outputs": [],
      "stateMutability": "nonpayable",
      "type": "function"
    }
  ],
  "bytecode": "0x608060405234801561001057600080fd5b506114ff806100206000396000f3fe608060405234801561001057600080fd5b506004361061004c5760003560e01c80631626ba7e14610051578063286849a8146100815780633a4648821461009f5780636d6f41cc146100be575b600080fd5b61006b60048036038101906100669190610d01565b6100da565b60405161007891906111e2565b60405180910390f35b61008961012f565b6040516100969190611152565b60405180910390f35b6100a7610135565b6040516100b5929190611129565b60405180910390f35b6100d860048036038101906100d39190610d55565b610171565b005b60008060006100e7610135565b91509150808061010957506101078285876104689092919063ffffffff16565b155b1561011c57600060e01b92505050610129565b631626ba7e60e01b925050505b92915050565b60015481565b600080600180600054901b901c91507f800000000000000000000000000000000000000000000000000000000000000080600054161490509091565b6101796109a5565b82828101906101889190610d9a565b9050600154816000015182606001516040516020016101a892919061106d565b60405160208183030381529060405280519060200120146101fe576040517f08c379a00000000000000000000000000000000000000000000000000000000081526004016101f5906111fd565b60405180910390fd5b600080610209610135565b9150915060006060846000015173ffffffffffffffffffffffffffffffffffffffff168560400151858588606001518960800151604051602001610251959493929190611095565b60405160208183030381529060405260405161026d91906110ec565b600060405180830381855af49150503d80600081146102a8576040519150601f19603f3d011682016040523d82523d6000602084013e6102ad565b606091505b5091509150816102f2576040517f08c379a00000000000000000000000000000000000000000000000000000000081526004016102e99061123d565b60405180910390fd5b6102fa610a0c565b8180602001905181019061030e9190610ddb565b90508473ffffffffffffffffffffffffffffffffffffffff16816000015173ffffffffffffffffffffffffffffffffffffffff1614158061035757508315158160200151151514155b156103d1578060200151156103ae577f8000000000000000000000000000000000000000000000000000000000000000816000015173ffffffffffffffffffffffffffffffffffffffff16176000819055506103d0565b806000015173ffffffffffffffffffffffffffffffffffffffff166000819055505b5b6000816040015182606001516040516020016103ee92919061106d565b6040516020818303038152906040528051906020012090508660200151811461044c576040517f08c379a00000000000000000000000000000000000000000000000000000000081526004016104439061125d565b60405180910390fd5b806001541461045d57806001819055505b505050505050505050565b60008073ffffffffffffffffffffffffffffffffffffffff168373ffffffffffffffffffffffffffffffffffffffff1614156104a757600090506104e9565b6104c68373ffffffffffffffffffffffffffffffffffffffff166104f0565b6104da576104d5848484610535565b6104e6565b6104e58484846106b3565b5b90505b9392505050565b600080823f90506000801b811415801561052d57507fc5d2460186f7233c927e7db2dcc703c0e500b653ca82273b7bfad8045d85a47060001b8114155b915050919050565b60008073ffffffffffffffffffffffffffffffffffffffff168373ffffffffffffffffffffffffffffffffffffffff16141561057457600090506106ac565b600061058b6001845161081c90919063ffffffff16565b905060006105a2828561086c90919063ffffffff16565b60ff1660048111156105b057fe5b9050818452600260048111156105c257fe5b8160048111156105ce57fe5b1415610613576105de8685610894565b73ffffffffffffffffffffffffffffffffffffffff168573ffffffffffffffffffffffffffffffffffffffff161492506106a3565b6003600481111561062057fe5b81600481111561062c57fe5b141561069d576000866040516020016106459190611103565b6040516020818303038152906040528051906020012090506106678186610894565b73ffffffffffffffffffffffffffffffffffffffff168673ffffffffffffffffffffffffffffffffffffffff16149350506106a2565b600092505b5b60018201845250505b9392505050565b60006060631626ba7e60e01b85846040516024016106d292919061116d565b604051602081830303815290604052907bffffffffffffffffffffffffffffffffffffffffffffffffffffffff19166020820180517bffffffffffffffffffffffffffffffffffffffffffffffffffffffff83818316178352505050509050600060608573ffffffffffffffffffffffffffffffffffffffff168360405161075a91906110ec565b600060405180830381855afa9150503d8060008114610795576040519150601f19603f3d011682016040523d82523d6000602084013e61079a565b606091505b50915091508180156107ad575060208151145b80156108105750631626ba7e60e01b7bffffffffffffffffffffffffffffffffffffffffffffffffffffffff19166107ef60008361097d90919063ffffffff16565b7bffffffffffffffffffffffffffffffffffffffffffffffffffffffff1916145b93505050509392505050565b600082821115610861576040517f08c379a00000000000000000000000000000000000000000000000000000000081526004016108589061121d565b60405180910390fd5b818303905092915050565b6000600182018351101561087f57600080fd5b60008260018501015190508091505092915050565b600060418251146108a85760009050610977565b6000806000602085015192506040850151915060ff60418601511690507f7fffffffffffffffffffffffffffffff5d576e7357a4501ddfe92f46681b20a08260001c11156108fc5760009350505050610977565b601b8160ff1614806109115750601c8160ff16145b1561096f5760018682858560405160008152602001604052604051610939949392919061119d565b6020604051602081039080840390855afa15801561095b573d6000803e3d6000fd5b505050602060405103519350505050610977565b600093505050505b92915050565b6000600482018351101561099057600080fd5b60008260208501015190508091505092915050565b6040518060a00160405280600073ffffffffffffffffffffffffffffffffffffffff1681526020016000801916815260200160007bffffffffffffffffffffffffffffffffffffffffffffffffffffffff1916815260200160608152602001606081525090565b6040518060800160405280600073ffffffffffffffffffffffffffffffffffffffff168152602001600015158152602001600073ffffffffffffffffffffffffffffffffffffffff168152602001606081525090565b600081359050610a718161146d565b92915050565b600081519050610a868161146d565b92915050565b600081519050610a9b81611484565b92915050565b600081359050610ab08161149b565b92915050565b600081359050610ac5816114b2565b92915050565b60008083601f840112610add57600080fd5b8235905067ffffffffffffffff811115610af657600080fd5b602083019150836001820283011115610b0e57600080fd5b9250929050565b600082601f830112610b2657600080fd5b8135610b39610b34826112ae565b61127d565b91508082526020830160208301858383011115610b5557600080fd5b610b608382846113a2565b50505092915050565b600082601f830112610b7a57600080fd5b8151610b8d610b88826112ae565b61127d565b91508082526020830160208301858383011115610ba957600080fd5b610bb48382846113b1565b50505092915050565b600060a08284031215610bcf57600080fd5b610bd960a061127d565b90506000610be984828501610a62565b6000830152506020610bfd84828501610aa1565b6020830152506040610c1184828501610ab6565b604083015250606082013567ffffffffffffffff811115610c3157600080fd5b610c3d84828501610b15565b606083015250608082013567ffffffffffffffff811115610c5d57600080fd5b610c6984828501610b15565b60808301525092915050565b600060808284031215610c8757600080fd5b610c91608061127d565b90506000610ca184828501610a77565b6000830152506020610cb584828501610a8c565b6020830152506040610cc984828501610a77565b604083015250606082015167ffffffffffffffff811115610ce957600080fd5b610cf584828501610b69565b60608301525092915050565b60008060408385031215610d1457600080fd5b6000610d2285828601610aa1565b925050602083013567ffffffffffffffff811115610d3f57600080fd5b610d4b85828601610b15565b9150509250929050565b60008060208385031215610d6857600080fd5b600083013567ffffffffffffffff811115610d8257600080fd5b610d8e85828601610acb565b92509250509250929050565b600060208284031215610dac57600080fd5b600082013567ffffffffffffffff811115610dc657600080fd5b610dd284828501610bbd565b91505092915050565b600060208284031215610ded57600080fd5b600082015167ffffffffffffffff811115610e0757600080fd5b610e1384828501610c75565b91505092915050565b610e2581611321565b82525050565b610e3c610e3782611321565b6113e4565b82525050565b610e4b81611333565b82525050565b610e62610e5d82611333565b6113f6565b82525050565b610e718161133f565b82525050565b610e88610e838261133f565b611408565b82525050565b610e9781611349565b82525050565b610eae610ea982611349565b611412565b82525050565b6000610ebf826112de565b610ec981856112e9565b9350610ed98185602086016113b1565b610ee281611442565b840191505092915050565b6000610ef8826112de565b610f0281856112fa565b9350610f128185602086016113b1565b80840191505092915050565b6000610f2b601c83611316565b91507f19457468657265756d205369676e6564204d6573736167653a0a3332000000006000830152601c82019050919050565b6000610f6b600d83611305565b91507f494e56414c49445f5354415445000000000000000000000000000000000000006000830152602082019050919050565b6000610fab600d83611305565b91507f5355425f554e444552464c4f57000000000000000000000000000000000000006000830152602082019050919050565b6000610feb600683611305565b91507f4641494c454400000000000000000000000000000000000000000000000000006000830152602082019050919050565b600061102b601183611305565b91507f494e56414c49445f4e45575f53544154450000000000000000000000000000006000830152602082019050919050565b61106781611395565b82525050565b60006110798285610e2b565b6014820191506110898284610eed565b91508190509392505050565b60006110a18288610e9d565b6004820191506110b18287610e2b565b6014820191506110c18286610e51565b6001820191506110d18285610eed565b91506110dd8284610eed565b91508190509695505050505050565b60006110f88284610eed565b915081905092915050565b600061110e82610f1e565b915061111a8284610e77565b60208201915081905092915050565b600060408201905061113e6000830185610e1c565b61114b6020830184610e42565b9392505050565b60006020820190506111676000830184610e68565b92915050565b60006040820190506111826000830185610e68565b81810360208301526111948184610eb4565b90509392505050565b60006080820190506111b26000830187610e68565b6111bf602083018661105e565b6111cc6040830185610e68565b6111d96060830184610e68565b95945050505050565b60006020820190506111f76000830184610e8e565b92915050565b6000602082019050818103600083015261121681610f5e565b9050919050565b6000602082019050818103600083015261123681610f9e565b9050919050565b6000602082019050818103600083015261125681610fde565b9050919050565b600060208201905081810360008301526112768161101e565b9050919050565b6000604051905081810181811067ffffffffffffffff821117156112a4576112a3611440565b5b8060405250919050565b600067ffffffffffffffff8211156112c9576112c8611440565b5b601f19601f8301169050602081019050919050565b600081519050919050565b600082825260208201905092915050565b600081905092915050565b600082825260208201905092915050565b600081905092915050565b600061132c82611375565b9050919050565b60008115159050919050565b6000819050919050565b60007fffffffff0000000000000000000000000000000000000000000000000000000082169050919050565b600073ffffffffffffffffffffffffffffffffffffffff82169050919050565b600060ff82169050919050565b82818337600083830152505050565b60005b838110156113cf5780820151818401526020810190506113b4565b838111156113de576000848401525b50505050565b60006113ef8261141c565b9050919050565b60006114018261142e565b9050919050565b6000819050919050565b6000819050919050565b600061142782611460565b9050919050565b600061143982611453565b9050919050565bfe5b6000601f19601f8301169050919050565b60008160f81b9050919050565b60008160601b9050919050565b61147681611321565b811461148157600080fd5b50565b61148d81611333565b811461149857600080fd5b50565b6114a48161133f565b81146114af57600080fd5b50565b6114bb81611349565b81146114c657600080fd5b5056fea2646970667358221220b92f1d8d67ac58e4fa19e4a4dfee74e30ed6f7c7008cb175bf82ec51ae68faac64736f6c63430007030033",
  "linkReferences": {},
  "deployedLinkReferences": {}
}