{
  "_format": "hh-sol-artifact-1",
  "contractName": "MigrationModule",
  "sourceName": "contracts/version2_0/modules/MigrationModule.sol",
  "abi": [
    {
      "anonymous": false,
      "inputs": [
        {
          "indexed": false,
          "internalType": "address",
          "name": "prevVersion",
          "type": "address"
        },
        {
          "indexed": false,
          "internalType": "address",
          "name": "newVersion",
          "type": "address"
        }
      ],
      "name": "VersionChanged",
      "type": "event"
    },
    {
      "inputs": [],
      "name": "TOUCH_GRACE_PERIOD",
      "outputs": [
        {
          "internalType": "uint256",
          "name": "",
          "type": "uint256"
        }
      ],
      "stateMutability": "view",
      "type": "function"
    },
    {
      "inputs": [],
      "name": "bindableMethods",
      "outputs": [
        {
          "internalType": "bytes4[]",
          "name": "methods",
          "type": "bytes4[]"
        }
      ],
      "stateMutability": "pure",
      "type": "function"
    },
    {
      "inputs": [
        {
          "internalType": "address",
          "name": "prevVersion",
          "type": "address"
        },
        {
          "internalType": "address",
          "name": "newVersion",
          "type": "address"
        }
      ],
      "name": "migrate",
      "outputs": [],
      "stateMutability": "nonpayable",
      "type": "function"
    },
    {
      "inputs": [
        {
          "internalType": "address",
          "name": "newVersion",
          "type": "address"
        }
      ],
      "name": "setVersion",
      "outputs": [],
      "stateMutability": "nonpayable",
      "type": "function"
    }
  ],
  "bytecode": "0x608060405234801561001057600080fd5b50610f59806100206000396000f3fe608060405234801561001057600080fd5b506004361061004c5760003560e01c80631068361f146100515780632a946df81461006d578063840fdc7814610089578063afa3363d146100a7575b600080fd5b61006b60048036038101906100669190610a54565b6100c5565b005b61008760048036038101906100829190610a02565b6101a6565b005b61009161068a565b60405161009e9190610e28565b60405180910390f35b6100af610691565b6040516100bc9190610d46565b60405180910390f35b3073ffffffffffffffffffffffffffffffffffffffff163373ffffffffffffffffffffffffffffffffffffffff1614610133576040517f08c379a000000000000000000000000000000000000000000000000000000000815260040161012a90610e08565b60405180910390fd5b8073ffffffffffffffffffffffffffffffffffffffff168273ffffffffffffffffffffffffffffffffffffffff1614156101a2576040517f08c379a000000000000000000000000000000000000000000000000000000000815260040161019990610da8565b60405180910390fd5b5050565b6000801b6101b26107a2565b146101f2576040517f08c379a00000000000000000000000000000000000000000000000000000000081526004016101e990610d68565b60405180910390fd5b60006101fc610859565b90503073ffffffffffffffffffffffffffffffffffffffff168173ffffffffffffffffffffffffffffffffffffffff1614806102f8575061023b61092b565b73ffffffffffffffffffffffffffffffffffffffff16638da5cb5b6040518163ffffffff1660e01b815260040160206040518083038186803b15801561028057600080fd5b505afa158015610294573d6000803e3d6000fd5b505050506040513d601f19601f820116820180604052508101906102b89190610a2b565b73ffffffffffffffffffffffffffffffffffffffff168173ffffffffffffffffffffffffffffffffffffffff161480156102f757506102f5610933565b155b5b610337576040517f08c379a000000000000000000000000000000000000000000000000000000000815260040161032e90610d88565b60405180910390fd5b61034e62278d00600061094490919063ffffffff16565b600061035861092b565b73ffffffffffffffffffffffffffffffffffffffff166354fd4d506040518163ffffffff1660e01b815260040160206040518083038186803b15801561039d57600080fd5b505afa1580156103b1573d6000803e3d6000fd5b505050506040513d601f19601f820116820180604052508101906103d59190610a2b565b90508073ffffffffffffffffffffffffffffffffffffffff168373ffffffffffffffffffffffffffffffffffffffff161415610446576040517f08c379a000000000000000000000000000000000000000000000000000000000815260040161043d90610de8565b60405180910390fd5b600061045061092b565b73ffffffffffffffffffffffffffffffffffffffff1663608935156040518163ffffffff1660e01b815260040160206040518083038186803b15801561049557600080fd5b505afa1580156104a9573d6000803e3d6000fd5b505050506040513d601f19601f820116820180604052508101906104cd9190610a2b565b905060008173ffffffffffffffffffffffffffffffffffffffff166338c6b575866040518263ffffffff1660e01b815260040161050a9190610d02565b60206040518083038186803b15801561052257600080fd5b505afa158015610536573d6000803e3d6000fd5b505050506040513d601f19601f8201168201806040525081019061055a9190610a90565b1161059a576040517f08c379a000000000000000000000000000000000000000000000000000000000815260040161059190610dc8565b60405180910390fd5b3073ffffffffffffffffffffffffffffffffffffffff16631068361f83866040518363ffffffff1660e01b81526004016105d5929190610d1d565b600060405180830381600087803b1580156105ef57600080fd5b505af1158015610603573d6000803e3d6000fd5b5050505083600060010160006101000a81548173ffffffffffffffffffffffffffffffffffffffff021916908373ffffffffffffffffffffffffffffffffffffffff1602179055507f716df4de7182d4621d096a14d6dd57f66c670afe2d4bac14fb34e0fdc4d29ea8828560405161067c929190610d1d565b60405180910390a150505050565b62278d0081565b6060600267ffffffffffffffff811180156106ab57600080fd5b506040519080825280602002602001820160405280156106da5781602001602082028036833780820191505090505b509050632a946df860e01b816000815181106106f257fe5b60200260200101907bffffffffffffffffffffffffffffffffffffffffffffffffffffffff191690817bffffffffffffffffffffffffffffffffffffffffffffffffffffffff191681525050631068361f60e01b8160018151811061075357fe5b60200260200101907bffffffffffffffffffffffffffffffffffffffffffffffffffffffff191690817bffffffffffffffffffffffffffffffffffffffffffffffffffffffff19168152505090565b60003073ffffffffffffffffffffffffffffffffffffffff163373ffffffffffffffffffffffffffffffffffffffff161480156107e457506038600036905010155b1561084f5761084860206000369050036000368080601f016020809104026020016040519081016040528093929190818152602001838380828437600081840152601f19601f8201169050808301925050505050505061094e90919063ffffffff16565b9050610856565b6000801b90505b90565b60003073ffffffffffffffffffffffffffffffffffffffff163373ffffffffffffffffffffffffffffffffffffffff1614801561089b57506038600036905010155b156109245761091d61090260346000369050036000368080601f016020809104026020016040519081016040528093929190818152602001838380828437600081840152601f19601f8201169050808301925050505050505061097690919063ffffffff16565b73ffffffffffffffffffffffffffffffffffffffff166109ad565b9050610928565b3390505b90565b600030905090565b600061093f60006109b7565b905090565b6000309050505050565b6000602082018351101561096157600080fd5b60008260208501015190508091505092915050565b6000601482018351101561098957600080fd5b60006c01000000000000000000000000836020860101510490508091505092915050565b6000819050919050565b60008030905050919050565b6000813590506109d281610ef5565b92915050565b6000815190506109e781610ef5565b92915050565b6000815190506109fc81610f0c565b92915050565b600060208284031215610a1457600080fd5b6000610a22848285016109c3565b91505092915050565b600060208284031215610a3d57600080fd5b6000610a4b848285016109d8565b91505092915050565b60008060408385031215610a6757600080fd5b6000610a75858286016109c3565b9250506020610a86858286016109c3565b9150509250929050565b600060208284031215610aa257600080fd5b6000610ab0848285016109ed565b91505092915050565b6000610ac58383610b3e565b60208301905092915050565b610ada81610e8d565b82525050565b6000610aeb82610e53565b610af58185610e6b565b9350610b0083610e43565b8060005b83811015610b31578151610b188882610ab9565b9750610b2383610e5e565b925050600181019050610b04565b5085935050505092915050565b610b4781610e9f565b82525050565b6000610b5a601583610e7c565b91507f494e56414c49445f54585f41574152455f4841534800000000000000000000006000830152602082019050919050565b6000610b9a602983610e7c565b91507f4e4f545f46524f4d5f57414c4c45545f4f525f4f574e45525f4f525f57414c4c60008301527f45545f4c4f434b454400000000000000000000000000000000000000000000006020830152604082019050919050565b6000610c00600a83610e7c565b91507f554e4558504543544544000000000000000000000000000000000000000000006000830152602082019050919050565b6000610c40601783610e7c565b91507f494e56414c49445f56455253494f4e5f414444524553530000000000000000006000830152602082019050919050565b6000610c80600c83610e7c565b91507f53414d455f56455253494f4e00000000000000000000000000000000000000006000830152602082019050919050565b6000610cc0600a83610e7c565b91507f50524f484f4249544544000000000000000000000000000000000000000000006000830152602082019050919050565b610cfc81610eeb565b82525050565b6000602082019050610d176000830184610ad1565b92915050565b6000604082019050610d326000830185610ad1565b610d3f6020830184610ad1565b9392505050565b60006020820190508181036000830152610d608184610ae0565b905092915050565b60006020820190508181036000830152610d8181610b4d565b9050919050565b60006020820190508181036000830152610da181610b8d565b9050919050565b60006020820190508181036000830152610dc181610bf3565b9050919050565b60006020820190508181036000830152610de181610c33565b9050919050565b60006020820190508181036000830152610e0181610c73565b9050919050565b60006020820190508181036000830152610e2181610cb3565b9050919050565b6000602082019050610e3d6000830184610cf3565b92915050565b6000819050602082019050919050565b600081519050919050565b6000602082019050919050565b600082825260208201905092915050565b600082825260208201905092915050565b6000610e9882610ecb565b9050919050565b60007fffffffff0000000000000000000000000000000000000000000000000000000082169050919050565b600073ffffffffffffffffffffffffffffffffffffffff82169050919050565b6000819050919050565b610efe81610e8d565b8114610f0957600080fd5b50565b610f1581610eeb565b8114610f2057600080fd5b5056fea2646970667358221220c14c0cb41e787ce648a01170d15f69d0dab17bed7fce6fd0248216908364a26b64736f6c63430007030033",
  "linkReferences": {},
  "deployedLinkReferences": {}
}