{
  "_format": "hh-sol-artifact-1",
  "contractName": "GuardianModule",
  "sourceName": "contracts/version2_0/modules/GuardianModule.sol",
  "abi": [
    {
      "anonymous": false,
      "inputs": [
        {
          "indexed": false,
          "internalType": "address",
          "name": "guardian",
          "type": "address"
        },
        {
          "indexed": false,
          "internalType": "uint256",
          "name": "effectiveTime",
          "type": "uint256"
        }
      ],
      "name": "GuardianAdded",
      "type": "event"
    },
    {
      "anonymous": false,
      "inputs": [
        {
          "indexed": false,
          "internalType": "address",
          "name": "guardian",
          "type": "address"
        },
        {
          "indexed": false,
          "internalType": "uint256",
          "name": "effectiveTime",
          "type": "uint256"
        }
      ],
      "name": "GuardianRemoved",
      "type": "event"
    },
    {
      "anonymous": false,
      "inputs": [
        {
          "indexed": false,
          "internalType": "address",
          "name": "newOwner",
          "type": "address"
        }
      ],
      "name": "Recovered",
      "type": "event"
    },
    {
      "inputs": [],
      "name": "ADD_GUARDIAN_TYPEHASH",
      "outputs": [
        {
          "internalType": "bytes32",
          "name": "",
          "type": "bytes32"
        }
      ],
      "stateMutability": "view",
      "type": "function"
    },
    {
      "inputs": [],
      "name": "GUARDIAN_PENDING_PERIOD",
      "outputs": [
        {
          "internalType": "uint256",
          "name": "",
          "type": "uint256"
        }
      ],
      "stateMutability": "view",
      "type": "function"
    },
    {
      "inputs": [],
      "name": "MAX_GUARDIANS",
      "outputs": [
        {
          "internalType": "uint256",
          "name": "",
          "type": "uint256"
        }
      ],
      "stateMutability": "view",
      "type": "function"
    },
    {
      "inputs": [],
      "name": "REMOVE_GUARDIAN_TYPEHASH",
      "outputs": [
        {
          "internalType": "bytes32",
          "name": "",
          "type": "bytes32"
        }
      ],
      "stateMutability": "view",
      "type": "function"
    },
    {
      "inputs": [],
      "name": "TOUCH_GRACE_PERIOD",
      "outputs": [
        {
          "internalType": "uint256",
          "name": "",
          "type": "uint256"
        }
      ],
      "stateMutability": "view",
      "type": "function"
    },
    {
      "inputs": [
        {
          "internalType": "address",
          "name": "guardian",
          "type": "address"
        }
      ],
      "name": "addGuardian",
      "outputs": [],
      "stateMutability": "nonpayable",
      "type": "function"
    },
    {
      "inputs": [
        {
          "components": [
            {
              "internalType": "address[]",
              "name": "signers",
              "type": "address[]"
            },
            {
              "internalType": "bytes[]",
              "name": "signatures",
              "type": "bytes[]"
            },
            {
              "internalType": "uint256",
              "name": "validUntil",
              "type": "uint256"
            }
          ],
          "internalType": "struct SignedRequest.Request",
          "name": "request",
          "type": "tuple"
        },
        {
          "internalType": "address",
          "name": "guardian",
          "type": "address"
        }
      ],
      "name": "addGuardianWA",
      "outputs": [],
      "stateMutability": "nonpayable",
      "type": "function"
    },
    {
      "inputs": [],
      "name": "bindableMethods",
      "outputs": [
        {
          "internalType": "bytes4[]",
          "name": "methods",
          "type": "bytes4[]"
        }
      ],
      "stateMutability": "pure",
      "type": "function"
    },
    {
      "inputs": [
        {
          "internalType": "address",
          "name": "guardian",
          "type": "address"
        }
      ],
      "name": "removeGuardian",
      "outputs": [],
      "stateMutability": "nonpayable",
      "type": "function"
    },
    {
      "inputs": [
        {
          "components": [
            {
              "internalType": "address[]",
              "name": "signers",
              "type": "address[]"
            },
            {
              "internalType": "bytes[]",
              "name": "signatures",
              "type": "bytes[]"
            },
            {
              "internalType": "uint256",
              "name": "validUntil",
              "type": "uint256"
            }
          ],
          "internalType": "struct SignedRequest.Request",
          "name": "request",
          "type": "tuple"
        },
        {
          "internalType": "address",
          "name": "guardian",
          "type": "address"
        }
      ],
      "name": "removeGuardianWA",
      "outputs": [],
      "stateMutability": "nonpayable",
      "type": "function"
    }
  ],
  "bytecode": "0x608060405234801561001057600080fd5b506117bb806100206000396000f3fe608060405234801561001057600080fd5b506004361061009e5760003560e01c8063a526d83b11610066578063a526d83b14610135578063afa3363d14610151578063d132d1db1461016f578063f26cfb661461018d578063f4c9bc23146101ab5761009e565b8063422c1d37146100a3578063680a51c7146100c157806371404156146100dd5780637abbb0d5146100f9578063840fdc7814610117575b600080fd5b6100ab6101c7565b6040516100b8919061142b565b60405180910390f35b6100db60048036038101906100d69190610eb6565b6101cc565b005b6100f760048036038101906100f29190610e3b565b610230565b005b6101016103eb565b60405161010e919061130a565b60405180910390f35b61011f61040f565b60405161012c919061142b565b60405180910390f35b61014f600480360381019061014a9190610e3b565b610416565b005b6101596106c6565b60405161016691906112e8565b60405180910390f35b610177610899565b604051610184919061130a565b60405180910390f35b6101956108bd565b6040516101a2919061142b565b60405180910390f35b6101c560048036038101906101c09190610eb6565b6108c4565b005b600a81565b61021f6002837f6b8d2016d37d3cfb467362dd9ce11bbdec86d95f1d8f491e4ab8856a8f7e766285604001358560405160200161020b93929190611325565b604051602081830303815290604052610a1d565b61022c8160006001610b21565b5050565b6000801b61023c610b67565b1461027c576040517f08c379a00000000000000000000000000000000000000000000000000000000081526004016102739061135c565b60405180910390fd5b6000610286610c1e565b90503073ffffffffffffffffffffffffffffffffffffffff168173ffffffffffffffffffffffffffffffffffffffff16148061038257506102c5610cf0565b73ffffffffffffffffffffffffffffffffffffffff16638da5cb5b6040518163ffffffff1660e01b815260040160206040518083038186803b15801561030a57600080fd5b505afa15801561031e573d6000803e3d6000fd5b505050506040513d601f19601f820116820180604052508101906103429190610e64565b73ffffffffffffffffffffffffffffffffffffffff168173ffffffffffffffffffffffffffffffffffffffff16148015610381575061037f610cf8565b155b5b6103c1576040517f08c379a00000000000000000000000000000000000000000000000000000000081526004016103b89061139c565b60405180910390fd5b6103d862278d006000610d0990919063ffffffff16565b6103e7826203f4806000610b21565b5050565b7f6b8d2016d37d3cfb467362dd9ce11bbdec86d95f1d8f491e4ab8856a8f7e766281565b62278d0081565b6000801b610422610b67565b14610462576040517f08c379a00000000000000000000000000000000000000000000000000000000081526004016104599061135c565b60405180910390fd5b600061046c610c1e565b90503073ffffffffffffffffffffffffffffffffffffffff168173ffffffffffffffffffffffffffffffffffffffff16148061056857506104ab610cf0565b73ffffffffffffffffffffffffffffffffffffffff16638da5cb5b6040518163ffffffff1660e01b815260040160206040518083038186803b1580156104f057600080fd5b505afa158015610504573d6000803e3d6000fd5b505050506040513d601f19601f820116820180604052508101906105289190610e64565b73ffffffffffffffffffffffffffffffffffffffff168173ffffffffffffffffffffffffffffffffffffffff161480156105675750610565610cf8565b155b5b6105a7576040517f08c379a000000000000000000000000000000000000000000000000000000000815260040161059e9061139c565b60405180910390fd5b6105be62278d006000610d0990919063ffffffff16565b816105c7610cf0565b73ffffffffffffffffffffffffffffffffffffffff16638da5cb5b6040518163ffffffff1660e01b815260040160206040518083038186803b15801561060c57600080fd5b505afa158015610620573d6000803e3d6000fd5b505050506040513d601f19601f820116820180604052508101906106449190610e64565b73ffffffffffffffffffffffffffffffffffffffff168173ffffffffffffffffffffffffffffffffffffffff1614156106b2576040517f08c379a00000000000000000000000000000000000000000000000000000000081526004016106a99061137c565b60405180910390fd5b6106c1836203f4806000610d13565b505050565b6060600467ffffffffffffffff811180156106e057600080fd5b5060405190808252806020026020018201604052801561070f5781602001602082028036833780820191505090505b50905063a526d83b60e01b8160008151811061072757fe5b60200260200101907bffffffffffffffffffffffffffffffffffffffffffffffffffffffff191690817bffffffffffffffffffffffffffffffffffffffffffffffffffffffff19168152505063f4c9bc2360e01b8160018151811061078857fe5b60200260200101907bffffffffffffffffffffffffffffffffffffffffffffffffffffffff191690817bffffffffffffffffffffffffffffffffffffffffffffffffffffffff191681525050637140415660e01b816002815181106107e957fe5b60200260200101907bffffffffffffffffffffffffffffffffffffffffffffffffffffffff191690817bffffffffffffffffffffffffffffffffffffffffffffffffffffffff19168152505063680a51c760e01b8160038151811061084a57fe5b60200260200101907bffffffffffffffffffffffffffffffffffffffffffffffffffffffff191690817bffffffffffffffffffffffffffffffffffffffffffffffffffffffff19168152505090565b7f3c058760a56d65f83a4d8b6e86acc9f5ae3a7d87dfdf574548dcf3ccb65a90ef81565b6203f48081565b806108cd610cf0565b73ffffffffffffffffffffffffffffffffffffffff16638da5cb5b6040518163ffffffff1660e01b815260040160206040518083038186803b15801561091257600080fd5b505afa158015610926573d6000803e3d6000fd5b505050506040513d601f19601f8201168201806040525081019061094a9190610e64565b73ffffffffffffffffffffffffffffffffffffffff168173ffffffffffffffffffffffffffffffffffffffff1614156109b8576040517f08c379a00000000000000000000000000000000000000000000000000000000081526004016109af9061137c565b60405180910390fd5b610a0b6002847f3c058760a56d65f83a4d8b6e86acc9f5ae3a7d87dfdf574548dcf3ccb65a90ef8660400135866040516020016109f793929190611325565b604051602081830303815290604052610a1d565b610a188260006001610d13565b505050565b600073__$937b6fee264ab6132cdeb8aa56d2145971$__63c236e73c9091610a43610cf0565b73ffffffffffffffffffffffffffffffffffffffff1663cb73ac566040518163ffffffff1660e01b815260040160206040518083038186803b158015610a8857600080fd5b505afa158015610a9c573d6000803e3d6000fd5b505050506040513d601f19601f82011682018060405250810190610ac09190610e8d565b610ac8610b67565b8787876040518763ffffffff1660e01b8152600401610aec969594939291906113bc565b60006040518083038186803b158015610b0457600080fd5b505af4158015610b18573d6000803e3d6000fd5b50505050505050565b600082420190507fbc92161fee7c8f66fcc67cb974d0c9b1439030462bd0d5201c21b01f89355b238482604051610b599291906112bf565b60405180910390a150505050565b60003073ffffffffffffffffffffffffffffffffffffffff163373ffffffffffffffffffffffffffffffffffffffff16148015610ba957506038600036905010155b15610c1457610c0d60206000369050036000368080601f016020809104026020016040519081016040528093929190818152602001838380828437600081840152601f19601f82011690508083019250505050505050610d5790919063ffffffff16565b9050610c1b565b6000801b90505b90565b60003073ffffffffffffffffffffffffffffffffffffffff163373ffffffffffffffffffffffffffffffffffffffff16148015610c6057506038600036905010155b15610ce957610ce2610cc760346000369050036000368080601f016020809104026020016040519081016040528093929190818152602001838380828437600081840152601f19601f82011690508083019250505050505050610d7f90919063ffffffff16565b73ffffffffffffffffffffffffffffffffffffffff16610db6565b9050610ced565b3390505b90565b600030905090565b6000610d046000610dc0565b905090565b6000309050505050565b60004290507f6276832b43b1ca1eab9c38b577dc5ba939a807f5ca7b7e5b6f1f09e80e487fad8482604051610d499291906112bf565b60405180910390a150505050565b60006020820183511015610d6a57600080fd5b60008260208501015190508091505092915050565b60006014820183511015610d9257600080fd5b60006c01000000000000000000000000836020860101510490508091505092915050565b6000819050919050565b60008030905050919050565b600081359050610ddb81611740565b92915050565b600081519050610df081611740565b92915050565b600081519050610e0581611757565b92915050565b600060608284031215610e1d57600080fd5b81905092915050565b600081359050610e358161176e565b92915050565b600060208284031215610e4d57600080fd5b6000610e5b84828501610dcc565b91505092915050565b600060208284031215610e7657600080fd5b6000610e8484828501610de1565b91505092915050565b600060208284031215610e9f57600080fd5b6000610ead84828501610df6565b91505092915050565b60008060408385031215610ec957600080fd5b600083013567ffffffffffffffff811115610ee357600080fd5b610eef85828601610e0b565b9250506020610f0085828601610dcc565b9150509250929050565b6000610f168383610f5f565b60208301905092915050565b6000610f2e83836110bd565b60208301905092915050565b6000610f478484846110cc565b90509392505050565b610f5981611640565b82525050565b610f6881611640565b82525050565b6000610f7a83856114a7565b9350610f8582611446565b8060005b85811015610fbe57610f9b828461150d565b610fa58882610f0a565b9750610fb083611480565b925050600181019050610f89565b5085925050509392505050565b6000610fd68261146a565b610fe081856114b8565b9350610feb83611450565b8060005b8381101561101c5781516110038882610f22565b975061100e8361148d565b925050600181019050610fef565b5085935050505092915050565b600061103583856114c9565b93508360208402850161104784611460565b8060005b8781101561108d57848403895261106282846115d2565b61106d868284610f3a565b95506110788461149a565b935060208b019a50505060018101905061104b565b50829750879450505050509392505050565b6110a881611652565b82525050565b6110b781611652565b82525050565b6110c68161165c565b82525050565b60006110d883856114eb565b93506110e58385846116d7565b6110ee8361171b565b840190509392505050565b600061110482611475565b61110e81856114da565b935061111e8185602086016116e6565b6111278161171b565b840191505092915050565b61113b816116c5565b82525050565b600061114e6015836114fc565b91507f494e56414c49445f54585f41574152455f4841534800000000000000000000006000830152602082019050919050565b600061118e6010836114fc565b91507f414444524553535f49535f4f574e4552000000000000000000000000000000006000830152602082019050919050565b60006111ce6029836114fc565b91507f4e4f545f46524f4d5f57414c4c45545f4f525f4f574e45525f4f525f57414c4c60008301527f45545f4c4f434b454400000000000000000000000000000000000000000000006020830152604082019050919050565b60006060830161123a6000840184611524565b858303600087015261124d838284610f6e565b9250505061125e602084018461157b565b8583036020870152611271838284611029565b925050506112826040840184611629565b61128f60408601826112b0565b508091505092915050565b8082525050565b6112aa816116bb565b82525050565b6112b9816116bb565b82525050565b60006040820190506112d46000830185610f50565b6112e160208301846112a1565b9392505050565b600060208201905081810360008301526113028184610fcb565b905092915050565b600060208201905061131f600083018461109f565b92915050565b600060608201905061133a600083018661109f565b61134760208301856112a1565b6113546040830184610f50565b949350505050565b6000602082019050818103600083015261137581611141565b9050919050565b6000602082019050818103600083015261139581611181565b9050919050565b600060208201905081810360008301526113b5816111c1565b9050919050565b600060c0820190506113d1600083018961129a565b6113de60208301886110ae565b6113eb60408301876110ae565b6113f86060830186611132565b818103608083015261140a8185611227565b905081810360a083015261141e81846110f9565b9050979650505050505050565b600060208201905061144060008301846112a1565b92915050565b6000819050919050565b6000819050602082019050919050565b6000819050919050565b600081519050919050565b600081519050919050565b6000602082019050919050565b6000602082019050919050565b6000602082019050919050565b600082825260208201905092915050565b600082825260208201905092915050565b600082825260208201905092915050565b600082825260208201905092915050565b600082825260208201905092915050565b600082825260208201905092915050565b600061151c6020840184610dcc565b905092915050565b6000808335600160200384360303811261153d57600080fd5b83810192508235915060208301925067ffffffffffffffff82111561156157600080fd5b60208202360384131561157357600080fd5b509250929050565b6000808335600160200384360303811261159457600080fd5b83810192508235915060208301925067ffffffffffffffff8211156115b857600080fd5b6020820236038413156115ca57600080fd5b509250929050565b600080833560016020038436030381126115eb57600080fd5b83810192508235915060208301925067ffffffffffffffff82111561160f57600080fd5b60018202360384131561162157600080fd5b509250929050565b60006116386020840184610e26565b905092915050565b600061164b8261169b565b9050919050565b6000819050919050565b60007fffffffff0000000000000000000000000000000000000000000000000000000082169050919050565b60008190506116968261172c565b919050565b600073ffffffffffffffffffffffffffffffffffffffff82169050919050565b6000819050919050565b60006116d082611688565b9050919050565b82818337600083830152505050565b60005b838110156117045780820151818401526020810190506116e9565b83811115611713576000848401525b50505050565bfe5b6000601f19601f8301169050919050565b6005811061173d5761173c611719565b5b50565b61174981611640565b811461175457600080fd5b50565b61176081611652565b811461176b57600080fd5b50565b611777816116bb565b811461178257600080fd5b5056fea26469706673582212200e87f4cd6bb06b993717d3abf64f3703fb3af0d6973b85c66d1a989ba577be2a64736f6c63430007030033",
  "linkReferences": {
    "contracts/version2_0/utils/SignedRequest.sol": {
      "SignedRequest": [
        {
          "length": 20,
          "start": 2625
        }
      ]
    }
  },
  "deployedLinkReferences": {
    "contracts/version2_0/utils/SignedRequest.sol": {
      "SignedRequest": [
        {
          "length": 20,
          "start": 2593
        }
      ]
    }
  }
}