{
  "contractName": "Authorizable",
  "abi": [
    {
      "constant": false,
      "inputs": [],
      "name": "claimOwnership",
      "outputs": [],
      "payable": false,
      "stateMutability": "nonpayable",
      "type": "function"
    },
    {
      "constant": true,
      "inputs": [],
      "name": "owner",
      "outputs": [
        {
          "name": "",
          "type": "address"
        }
      ],
      "payable": false,
      "stateMutability": "view",
      "type": "function"
    },
    {
      "constant": true,
      "inputs": [],
      "name": "pendingOwner",
      "outputs": [
        {
          "name": "",
          "type": "address"
        }
      ],
      "payable": false,
      "stateMutability": "view",
      "type": "function"
    },
    {
      "constant": false,
      "inputs": [
        {
          "name": "newOwner",
          "type": "address"
        }
      ],
      "name": "transferOwnership",
      "outputs": [],
      "payable": false,
      "stateMutability": "nonpayable",
      "type": "function"
    },
    {
      "anonymous": false,
      "inputs": [
        {
          "indexed": true,
          "name": "addr",
          "type": "address"
        }
      ],
      "name": "AddressAuthorized",
      "type": "event"
    },
    {
      "anonymous": false,
      "inputs": [
        {
          "indexed": true,
          "name": "addr",
          "type": "address"
        }
      ],
      "name": "AddressDeauthorized",
      "type": "event"
    },
    {
      "anonymous": false,
      "inputs": [
        {
          "indexed": true,
          "name": "previousOwner",
          "type": "address"
        },
        {
          "indexed": true,
          "name": "newOwner",
          "type": "address"
        }
      ],
      "name": "OwnershipTransferred",
      "type": "event"
    },
    {
      "constant": false,
      "inputs": [
        {
          "name": "addr",
          "type": "address"
        }
      ],
      "name": "authorizeAddress",
      "outputs": [],
      "payable": false,
      "stateMutability": "nonpayable",
      "type": "function"
    },
    {
      "constant": false,
      "inputs": [
        {
          "name": "addr",
          "type": "address"
        }
      ],
      "name": "deauthorizeAddress",
      "outputs": [],
      "payable": false,
      "stateMutability": "nonpayable",
      "type": "function"
    },
    {
      "constant": true,
      "inputs": [
        {
          "name": "addr",
          "type": "address"
        }
      ],
      "name": "isAddressAuthorized",
      "outputs": [
        {
          "name": "",
          "type": "bool"
        }
      ],
      "payable": false,
      "stateMutability": "view",
      "type": "function"
    }
  ],
  "bytecode": "0x608060405260008054600160a060020a03191633179055610c23806100256000396000f3fe608060405234801561001057600080fd5b506004361061009a576000357c010000000000000000000000000000000000000000000000000000000090048063ced3fb9c11610078578063ced3fb9c1461010d578063e30c397814610154578063f2fde38b1461015c578063f73857cc1461018f5761009a565b80634a5db3b51461009f5780634e71e0c8146100d45780638da5cb5b146100dc575b600080fd5b6100d2600480360360208110156100b557600080fd5b503573ffffffffffffffffffffffffffffffffffffffff166101c2565b005b6100d2610550565b6100e461066c565b6040805173ffffffffffffffffffffffffffffffffffffffff9092168252519081900360200190f35b6101406004803603602081101561012357600080fd5b503573ffffffffffffffffffffffffffffffffffffffff16610688565b604080519115158252519081900360200190f35b6100e46106b1565b6100d26004803603602081101561017257600080fd5b503573ffffffffffffffffffffffffffffffffffffffff166106cd565b6100d2600480360360208110156101a557600080fd5b503573ffffffffffffffffffffffffffffffffffffffff16610847565b60005473ffffffffffffffffffffffffffffffffffffffff16331461024857604080517f08c379a000000000000000000000000000000000000000000000000000000000815260206004820152600960248201527f4e4f545f4f574e45520000000000000000000000000000000000000000000000604482015290519081900360640190fd5b60408051808201909152600c81527f5a45524f5f414444524553530000000000000000000000000000000000000000602082015273ffffffffffffffffffffffffffffffffffffffff82161515610337576040517f08c379a00000000000000000000000000000000000000000000000000000000081526004018080602001828103825283818151815260200191508051906020019080838360005b838110156102fc5781810151838201526020016102e4565b50505050905090810190601f1680156103295780820380516001836020036101000a031916815260200191505b509250505060405180910390fd5b5073ffffffffffffffffffffffffffffffffffffffff8116600090815260036020908152604091829020548251808401909352600d83527f414c52454144595f45584953540000000000000000000000000000000000000091830191909152156103fd576040517f08c379a0000000000000000000000000000000000000000000000000000000008152600401808060200182810382528381815181526020019150805190602001908083836000838110156102fc5781810151838201526020016102e4565b5061040781610ba5565b60408051808201909152600f81527f494e56414c49445f41444452455353000000000000000000000000000000000060208201529015156104a4576040517f08c379a0000000000000000000000000000000000000000000000000000000008152600401808060200182810382528381815181526020019150805190602001908083836000838110156102fc5781810151838201526020016102e4565b50600280546001810182557f405787fa12a823e0f2b7631cc41b3ba8828b3321ca811111fa75cd3aa3bb5ace0180547fffffffffffffffffffffffff00000000000000000000000000000000000000001673ffffffffffffffffffffffffffffffffffffffff841690811790915590546000828152600360205260408082209290925590517faa4a1856deca699ff17682b11b9090fe141669ccd7c1951ab8605ad8c9ab17759190a250565b60015473ffffffffffffffffffffffffffffffffffffffff1633146105d657604080517f08c379a000000000000000000000000000000000000000000000000000000000815260206004820152600c60248201527f554e415554484f52495a45440000000000000000000000000000000000000000604482015290519081900360640190fd5b6001546000805460405173ffffffffffffffffffffffffffffffffffffffff93841693909116917f8be0079c531659141344cd1fd0a4f28419497f9722a3daafe3b4186f6b6457e091a360018054600080547fffffffffffffffffffffffff000000000000000000000000000000000000000090811673ffffffffffffffffffffffffffffffffffffffff841617909155169055565b60005473ffffffffffffffffffffffffffffffffffffffff1681565b73ffffffffffffffffffffffffffffffffffffffff166000908152600360205260408120541190565b60015473ffffffffffffffffffffffffffffffffffffffff1681565b60005473ffffffffffffffffffffffffffffffffffffffff16331461075357604080517f08c379a000000000000000000000000000000000000000000000000000000000815260206004820152600960248201527f4e4f545f4f574e45520000000000000000000000000000000000000000000000604482015290519081900360640190fd5b73ffffffffffffffffffffffffffffffffffffffff811615801590610793575060005473ffffffffffffffffffffffffffffffffffffffff828116911614155b151561080057604080517f08c379a000000000000000000000000000000000000000000000000000000000815260206004820152600f60248201527f494e56414c49445f414444524553530000000000000000000000000000000000604482015290519081900360640190fd5b600180547fffffffffffffffffffffffff00000000000000000000000000000000000000001673ffffffffffffffffffffffffffffffffffffffff92909216919091179055565b60005473ffffffffffffffffffffffffffffffffffffffff1633146108cd57604080517f08c379a000000000000000000000000000000000000000000000000000000000815260206004820152600960248201527f4e4f545f4f574e45520000000000000000000000000000000000000000000000604482015290519081900360640190fd5b60408051808201909152600c81527f5a45524f5f414444524553530000000000000000000000000000000000000000602082015273ffffffffffffffffffffffffffffffffffffffff82161515610980576040517f08c379a0000000000000000000000000000000000000000000000000000000008152600401808060200182810382528381815181526020019150805190602001908083836000838110156102fc5781810151838201526020016102e4565b5073ffffffffffffffffffffffffffffffffffffffff8116600090815260036020908152604091829020548251808401909352600983527f4e4f545f464f554e4400000000000000000000000000000000000000000000009183019190915290811515610a49576040517f08c379a0000000000000000000000000000000000000000000000000000000008152600401808060200182810382528381815181526020019150805190602001908083836000838110156102fc5781810151838201526020016102e4565b50600254818114610b20576000600260018303815481101515610a6857fe5b6000918252602090912001546002805473ffffffffffffffffffffffffffffffffffffffff909216925082917fffffffffffffffffffffffffffffffffffffffffffffffffffffffffffffffff8601908110610ac057fe5b600091825260208083209190910180547fffffffffffffffffffffffff00000000000000000000000000000000000000001673ffffffffffffffffffffffffffffffffffffffff9485161790559290911681526003909152604090208290555b600280547fffffffffffffffffffffffffffffffffffffffffffffffffffffffffffffffff0190610b519082610bad565b5073ffffffffffffffffffffffffffffffffffffffff8316600081815260036020526040808220829055517fff697c8ffb6d1c8456e82cc41dade65a5222e9914aa8c020f55b73b617ad50c09190a2505050565b6000903b1190565b815481835581811115610bd157600083815260209020610bd1918101908301610bd6565b505050565b610bf491905b80821115610bf05760008155600101610bdc565b5090565b9056fea165627a7a723058205d6fa14d628e96081039d8de065296993de2935349fb9fee979f33f02c2ee2ac0029",
  "source": "/*\n\n  Copyright 2017 Loopring Project Ltd (Loopring Foundation).\n\n  Licensed under the Apache License, Version 2.0 (the \"License\");\n  you may not use this file except in compliance with the License.\n  You may obtain a copy of the License at\n\n  http://www.apache.org/licenses/LICENSE-2.0\n\n  Unless required by applicable law or agreed to in writing, software\n  distributed under the License is distributed on an \"AS IS\" BASIS,\n  WITHOUT WARRANTIES OR CONDITIONS OF ANY KIND, either express or implied.\n  See the License for the specific language governing permissions and\n  limitations under the License.\n*/\npragma solidity 0.5.2;\n\nimport \"../iface/Errors.sol\";\n\nimport \"../lib/Claimable.sol\";\n\n\n/// @title Authorizable\n/// @dev The Authorizable contract allows a contract to be used by other contracts\n///      by authorizing it by the contract owner.\ncontract Authorizable is Claimable, Errors  {\n\n    event AddressAuthorized(\n        address indexed addr\n    );\n\n    event AddressDeauthorized(\n        address indexed addr\n    );\n\n    // The list of all authorized addresses\n    address[] authorizedAddresses;\n\n    mapping (address => uint) private positionMap;\n\n    struct AuthorizedAddress {\n        uint    pos;\n        address addr;\n    }\n\n    modifier onlyAuthorized()\n    {\n        require(positionMap[msg.sender] > 0, UNAUTHORIZED);\n        _;\n    }\n\n    function authorizeAddress(\n        address addr\n        )\n        external\n        onlyOwner\n    {\n        require(address(0x0) != addr, ZERO_ADDRESS);\n        require(0 == positionMap[addr], ALREADY_EXIST);\n        require(isContract(addr), INVALID_ADDRESS);\n\n        authorizedAddresses.push(addr);\n        positionMap[addr] = authorizedAddresses.length;\n        emit AddressAuthorized(addr);\n    }\n\n    function deauthorizeAddress(\n        address addr\n        )\n        external\n        onlyOwner\n    {\n        require(address(0x0) != addr, ZERO_ADDRESS);\n\n        uint pos = positionMap[addr];\n        require(pos != 0, NOT_FOUND);\n\n        uint size = authorizedAddresses.length;\n        if (pos != size) {\n            address lastOne = authorizedAddresses[size - 1];\n            authorizedAddresses[pos - 1] = lastOne;\n            positionMap[lastOne] = pos;\n        }\n\n        authorizedAddresses.length -= 1;\n        delete positionMap[addr];\n\n        emit AddressDeauthorized(addr);\n    }\n\n    function isAddressAuthorized(\n        address addr\n        )\n        public\n        view\n        returns (bool)\n    {\n        return positionMap[addr] > 0;\n    }\n\n    function isContract(\n        address addr\n        )\n        internal\n        view\n        returns (bool)\n    {\n        uint size;\n        assembly { size := extcodesize(addr) }\n        return size > 0;\n    }\n\n}\n",
  "sourcePath": "/usr/local/klzhong/workspace/loopring/protocol2/contracts/lib/Authorizable.sol",
  "compiler": {
    "name": "solc",
    "version": "0.5.2+commit.1df8f40c.Emscripten.clang"
  },
  "schemaVersion": "3.0.0",
  "updatedAt": "2019-03-19T09:16:27.503Z",
  "devdoc": {
    "details": "The Authorizable contract allows a contract to be used by other contracts      by authorizing it by the contract owner.",
    "methods": {
      "claimOwnership()": {
        "details": "Allows the pendingOwner address to finalize the transfer."
      },
      "transferOwnership(address)": {
        "details": "Allows the current owner to set the pendingOwner address.",
        "params": {
          "newOwner": "The address to transfer ownership to."
        }
      }
    },
    "title": "Authorizable"
  },
  "userdoc": {
    "methods": {}
  }
}