{
  "contractName": "DeserializerTest",
  "abi": [
    {
      "constant": true,
      "inputs": [],
      "name": "lrcTokenAddress",
      "outputs": [
        {
          "name": "",
          "type": "address"
        }
      ],
      "payable": false,
      "stateMutability": "view",
      "type": "function"
    },
    {
      "inputs": [
        {
          "name": "_lrcTokenAddress",
          "type": "address"
        }
      ],
      "payable": false,
      "stateMutability": "nonpayable",
      "type": "constructor"
    },
    {
      "constant": false,
      "inputs": [
        {
          "name": "data",
          "type": "bytes"
        }
      ],
      "name": "deserialize",
      "outputs": [],
      "payable": false,
      "stateMutability": "nonpayable",
      "type": "function"
    },
    {
      "constant": false,
      "inputs": [
        {
          "name": "uint16Data",
          "type": "uint16[]"
        },
        {
          "name": "uintData",
          "type": "uint256[]"
        },
        {
          "name": "addresses",
          "type": "address[]"
        },
        {
          "name": "ringSize",
          "type": "uint256"
        }
      ],
      "name": "submitByArrays",
      "outputs": [],
      "payable": false,
      "stateMutability": "nonpayable",
      "type": "function"
    }
  ],
  "bytecode": "0x608060405260008054600160a060020a031916905534801561002057600080fd5b506040516020806116908339810180604052602081101561004057600080fd5b5051600160a060020a038116151561005757600080fd5b60008054600160a060020a03909216600160a060020a0319909216919091179055611609806100876000396000f3fe608060405234801561001057600080fd5b506004361061005d577c0100000000000000000000000000000000000000000000000000000000600035046321ea889281146100625780632afcbdaa146101785780634c0a6532146101e8575b600080fd5b6101766004803603608081101561007857600080fd5b81019060208101813564010000000081111561009357600080fd5b8201836020820111156100a557600080fd5b803590602001918460208302840111640100000000831117156100c757600080fd5b9193909290916020810190356401000000008111156100e557600080fd5b8201836020820111156100f757600080fd5b8035906020019184602083028401116401000000008311171561011957600080fd5b91939092909160208101903564010000000081111561013757600080fd5b82018360208201111561014957600080fd5b8035906020019184602083028401116401000000008311171561016b57600080fd5b919350915035610219565b005b6101766004803603602081101561018e57600080fd5b8101906020810181356401000000008111156101a957600080fd5b8201836020820111156101bb57600080fd5b803590602001918460018302840111640100000000831117156101dd57600080fd5b50909250905061041d565b6101f0610493565b6040805173ffffffffffffffffffffffffffffffffffffffff9092168252519081900360200190f35b60608160405190808252806020026020018201604052801561025557816020015b610242611353565b81526020019060019003908161023a5790505b50905060608260405190808252806020026020018201604052801561029457816020015b6102816114d2565b8152602001906001900390816102795790505b50905060005b83811015610399576103408a8a8080602002602001604051908101604052809392919081815260200183836020028082843760009201919091525050604080516020808e0282810182019093528d82529093508d92508c91829185019084908082843760009201919091525050604080516020808d0282810182019093528c82529093508c92508b9182918501908490808284376000920191909152506104af92505050565b838281518110151561034e57fe5b6020908102909101015282516103799084908390811061036a57fe5b906020019060200201516108c2565b828281518110151561038757fe5b6020908102909101015260010161029a565b50604080516001808252818301909252606091816020015b6103b961152c565b8152602001906001900390816103b15750506040805160a081018252600281526020810185905260009181018290526060810182905260016080820152825192935091839190811061040757fe5b6020908102909101015250505050505050505050565b610425611561565b6060806104896000809054906101000a900473ffffffffffffffffffffffffffffffffffffffff1686868080601f01602080910402602001604051908101604052809392919081815260200183838082843760009201919091525061092192505050565b5050505050505050565b60005473ffffffffffffffffffffffffffffffffffffffff1681565b6104b7611353565b6104c060405190810160405280600081526020018360008151811015156104da57fe5b9060200190602002015173ffffffffffffffffffffffffffffffffffffffff16815260200183600081518110151561050e57fe5b9060200190602002015173ffffffffffffffffffffffffffffffffffffffff168152602001600073ffffffffffffffffffffffffffffffffffffffff16815260200184600081518110151561055f57fe5b90602001906020020151815260200184600081518110151561057d57fe5b90602001906020020151815260200184600081518110151561059b57fe5b9060200190602002015181526020016060604051908101604052806001151581526020016000815260200160008152508152602001606060405190810160405280600115158152602001600081526020016000815250815260200183600081518110151561060557fe5b9060200190602002015173ffffffffffffffffffffffffffffffffffffffff16815260200183600081518110151561063957fe5b9060200190602002015173ffffffffffffffffffffffffffffffffffffffff168152602001606060405190810160405280600115158152602001600081526020016000815250815260200160606040519081016040528060011515815260200160008152602001600081525081526020018360008151811015156106b957fe5b9060200190602002015173ffffffffffffffffffffffffffffffffffffffff1681526020018360008151811015156106ed57fe5b9060200190602002015173ffffffffffffffffffffffffffffffffffffffff16815260200184600081518110151561072157fe5b6020908102919091018101518252604080516000808252818401835284840191909152815181815292830182529083019190915260016060830152805473ffffffffffffffffffffffffffffffffffffffff166080830152855160a090920191869190811061078c57fe5b9060200190602002015181526020018560008151811015156107aa57fe5b9060200190602002015160010b81526020018560008151811015156107cb57fe5b9060200190602002015161ffff1681526020018560008151811015156107ed57fe5b9060200190602002015161ffff16815260200183600081518110151561080f57fe5b9060200190602002015173ffffffffffffffffffffffffffffffffffffffff16815260200185600081518110151561084357fe5b60209081029190910181015161ffff16825260008282018190526040808401829052606084018290526080840182905260a08401829052600160c085015260e084018290526101008401829052610120840182905261014084018290526101608401829052805191825291810190915261018090910152949350505050565b6108ca6114d2565b61014060405190810160405280838152602001600081526020016000815260200160008152602001600081526020016000815260200160008152602001600081526020016000815260200160008152509050919050565b610929611561565b606080610934611590565b61094585600063ffffffff610c4d16565b61ffff16815261095c85600263ffffffff610c4d16565b61ffff16602082015261097685600463ffffffff610c4d16565b61ffff16604082015261099085600663ffffffff610c4d16565b61ffff166060820152805115610a0757604080517f08c379a000000000000000000000000000000000000000000000000000000000815260206004820181905260248201527f556e737570706f727465642073657269616c697a6174696f6e20666f726d6174604482015290519081900360640190fd5b6020810151600010610a7a57604080517f08c379a000000000000000000000000000000000000000000000000000000000815260206004820152601860248201527f496e76616c6964206e756d626572206f66206f72646572730000000000000000604482015290519081900360640190fd5b6040810151600010610aed57604080517f08c379a000000000000000000000000000000000000000000000000000000000815260206004820152601760248201527f496e76616c6964206e756d626572206f662072696e6773000000000000000000604482015290519081900360640190fd5b6060810151600010610b6057604080517f08c379a000000000000000000000000000000000000000000000000000000000815260206004820152601c60248201527f496e76616c6964206e756d626572206f66207370656e6461626c657300000000604482015290519081900360640190fd5b60208101516040820151865187926008840192600e80860193603c909302860190810192600990920201602e81019190869003604e011115610c0357604080517f08c379a000000000000000000000000000000000000000000000000000000000815260206004820152601260248201527f496e76616c696420696e70757420646174610000000000000000000000000000604482015290519081900360640190fd5b610c108185600201610c66565b9850610c2a8184600201886020015189606001518f610cd1565b9750610c3e8260010187604001518a611192565b96505050505050509250925092565b6000610c5b838360026112d3565b61ffff169392505050565b610c6e611561565b604080516000808252602080830184523260148881019182528751600461ffff91821681028b018301518952928590526002890151811683028a019091015187840152888301948552968101519096169095029095019093019082015291905290565b60408051600081526020808201858152858202830184019093526060926104c0916001880102908490878015610d2157816020015b610d0e6115b9565b815260200190600190039081610d065790505b509050600060405195508860008701528884028301860160405260005b898110156111835780850284018701806020836001010289015261ffff60008d0151169250826000820152600461ffff60028e01511602925073ffffffffffffffffffffffffffffffffffffffff8360148f010151166020820152600461ffff60048e01511602925073ffffffffffffffffffffffffffffffffffffffff8360148f010151166040820152600461ffff60068e01511602925073ffffffffffffffffffffffffffffffffffffffff8360148f010151166060820152600461ffff60088e0151160292508260208e0101516080820152600461ffff600a8e0151160292508260208e01015160a0820152600461ffff600c8e01511602925063ffffffff8360048f0101511660c082015261ffff600e8d0151169250898310830292506020600184010284015160e082015261ffff60108d01511692508983108302925060206001840102840151610100820152600461ffff60128e01511602925073ffffffffffffffffffffffffffffffffffffffff8360148f01015116610120820152600461ffff60148e01511602925073ffffffffffffffffffffffffffffffffffffffff8360148f01015116610140820152600461ffff60168e01511602925073ffffffffffffffffffffffffffffffffffffffff8360148f010151166101a0820152600461ffff60188e01511602925073ffffffffffffffffffffffffffffffffffffffff8360148f010151166101c0820152600461ffff601a8e01511602925063ffffffff8360048f010151166101e08201528660208e0152600461ffff601c8e015116029250602083018d01610200820152600461ffff601e8e015116029250602083018d01610220820152600060208e015261ffff60208d0151169250600083116102408201528860148e0152600461ffff60228e01511602925073ffffffffffffffffffffffffffffffffffffffff8360148f01015116610260820152600060148e0152600461ffff60248e0151160292508260208e01015161028082015261ffff60268d0151169250826102a082015261ffff60288d0151169250826102c082015261ffff602a8d0151169250826102e0820152602081015160148e0152600461ffff602c8e01511602925073ffffffffffffffffffffffffffffffffffffffff8360148f01015116610300820152600060148e015261ffff602e8d01511692508261032082015261ffff60308d01511692508261040082015261ffff60328d01511692508261042082015261ffff60348d015116925082610440820152600461ffff60368e0151160292508260208e010151610460820152600461ffff60388e0151160292508260208e0101516104808201528660208e0152600461ffff603a8e015116029250602083018d016104a0820152600060208e015260006103408201526000610360820152600061038082015260006103a082015260006103c082015260016103e0820152603c8c019b5050600181019050610d3e565b50505050505095945050505050565b604080518381526001840160200260a080860282018301909352909161014060005b868110156112c85780830284018501806020600184010287015260ff89511660018a01995060088111156111e757600080fd5b604051816000820152602082600101028101828602810160405282600085015281602085015260006040850152600060608501526001608085015260005b838110156112b4578087028201806020600184010285015260ff8e51168c518110151561125157600080fd5b60018f019e50602060018201028d0151600083015260006020830152600060408301526000606083015260006080830152600060a0830152600060c0830152600060e0830152600061010083015260006101208301525050600181019050611225565b5050506008039890980197506001016111b4565b505050509392505050565b600081830184511015151561134957604080517f08c379a000000000000000000000000000000000000000000000000000000000815260206004820152600c60248201527f494e56414c49445f53495a450000000000000000000000000000000000000000604482015290519081900360640190fd5b5091909101015190565b6105c06040519081016040528060008152602001600073ffffffffffffffffffffffffffffffffffffffff168152602001600073ffffffffffffffffffffffffffffffffffffffff168152602001600073ffffffffffffffffffffffffffffffffffffffff1681526020016000815260200160008152602001600081526020016113db6115b9565b81526020016113e86115b9565b815260006020820181905260408201526060016114036115b9565b81526020016114106115b9565b81526000602082018190526040820181905260608083018290526080830181905260a083015260c0820181905260e08201819052610100820181905261012082018190526101408201819052610160820181905261018082018190526101a082018190526101c082018190526101e0820181905261020082018190526102208201819052610240820181905261026082018190526102809091019081526020016000815260200160008152600060208201819052604082015260609081015290565b6106e0604051908101604052806114e7611353565b81526020016000815260200160008152602001600081526020016000815260200160008152602001600081526020016000815260200160008152602001600081525090565b60a060405190810160405280600081526020016060815260200160008019168152602001600081526020016000151581525090565b6040805160a0810182526000808252602082018190526060928201839052918101829052608081019190915290565b608060405190810160405280600081526020016000815260200160008152602001600081525090565b6060604051908101604052806000151581526020016000815260200160008152509056fea165627a7a723058205c7d099504a081877c2afa9cd7d56af0fca72446bc23603b852bf86cba12f5960029",
  "source": "/*\n\n  Copyright 2017 Loopring Project Ltd (Loopring Foundation).\n\n  Licensed under the Apache License, Version 2.0 (the \"License\");\n  you may not use this file except in compliance with the License.\n  You may obtain a copy of the License at\n\n  http://www.apache.org/licenses/LICENSE-2.0\n\n  Unless required by applicable law or agreed to in writing, software\n  distributed under the License is distributed on an \"AS IS\" BASIS,\n  WITHOUT WARRANTIES OR CONDITIONS OF ANY KIND, either express or implied.\n  See the License for the specific language governing permissions and\n  limitations under the License.\n*/\npragma solidity 0.5.2;\n\nimport \"../impl/Data.sol\";\nimport \"../impl/ExchangeDeserializer.sol\";\n\n\n/* solium-disable */\ncontract DeserializerTest {\n\n    address public lrcTokenAddress = address(0x0);\n\n    constructor(address _lrcTokenAddress) public {\n        require(_lrcTokenAddress != address(0x0));\n        lrcTokenAddress = _lrcTokenAddress;\n    }\n\n    function deserialize(bytes calldata data)\n        external\n    /// we should not decorate this function as a view function because view function will not\n    /// return tx recipient info after calling in uint test.\n    // view\n    {\n        (\n            Data.Mining  memory mining,\n            Data.Order[] memory orders,\n            Data.Ring[]  memory rings\n        ) = ExchangeDeserializer.deserialize(lrcTokenAddress, data);\n        (mining, orders, rings); // To disable compilation warning\n    }\n\n    function submitByArrays(uint16[] calldata uint16Data,\n                            uint[] calldata uintData,\n                            address[] calldata addresses,\n                            uint ringSize)\n        external\n    // view\n    {\n        // Data.Mining  memory mining = Data.Mining(\n        //     addresses[0],\n        //     addresses[1],\n        //     new bytes(0),\n        //     bytes32(0x0),\n        //     0x0\n        // );\n\n        Data.Order[] memory orders = new Data.Order[](ringSize);\n        Data.Participation[] memory participations = new Data.Participation[](ringSize);\n        for (uint i = 0; i < ringSize; i++) {\n            orders[i] = assembleOrder(uint16Data, uintData, addresses);\n            participations[i] = assembleParicipation(orders[i]);\n        }\n\n        Data.Ring[] memory rings = new Data.Ring[](1);\n        rings[0] = Data.Ring(\n            2,\n            participations,\n            bytes32(0x0),\n            0,\n            true\n        );\n    }\n\n    function assembleOrder(uint16[] memory uint16Data,\n                           uint[] memory uintData,\n                           address[] memory addresses)\n        internal\n        view\n        returns (Data.Order memory order)\n    {\n        order = Data.Order(\n            0,\n            addresses[0], // owner\n            addresses[0], // tokenS\n            address(0x0),         // tokenB\n            uintData[0],    // amountS\n            uintData[0],    // amountB\n            uintData[0],    // validSince\n            Data.Spendable(true, 0, 0),\n            Data.Spendable(true, 0, 0),\n            addresses[0],\n            addresses[0],\n            Data.Spendable(true, 0, 0),\n            Data.Spendable(true, 0, 0),\n            addresses[0],\n            addresses[0],\n            uintData[0],\n            new bytes(0),\n            new bytes(0),\n            true,\n            lrcTokenAddress,\n            uintData[0],\n            int16(uint16Data[0]),\n            uint16Data[0],\n            uint16Data[0],\n            addresses[0],\n            uint16Data[0],\n            false,        // P2P\n            bytes32(0x0), // hash\n            address(0x0), // orderBrokerInterceptor\n            0,            // filledAmountS\n            0,            // initialFilledAmountS\n            true,         // valid\n            Data.TokenType.ERC20,\n            Data.TokenType.ERC20,\n            Data.TokenType.ERC20,\n            0x0,\n            0x0,\n            new bytes(0)\n        );\n\n    }\n\n    function assembleParicipation(Data.Order memory order)\n        internal\n        pure\n        returns (Data.Participation memory p)\n    {\n        p = Data.Participation(\n            order,\n            0,\n            0,\n            0,\n            0,\n            0,\n            0,\n            0,\n            0,\n            0\n        );\n    }\n}\n",
  "sourcePath": "/usr/local/klzhong/workspace/loopring/protocol2/contracts/test/DeserializerTest.sol",
  "compiler": {
    "name": "solc",
    "version": "0.5.2+commit.1df8f40c.Emscripten.clang"
  },
  "schemaVersion": "3.0.0",
  "updatedAt": "2019-03-19T09:16:27.515Z",
  "devdoc": {
    "methods": {}
  },
  "userdoc": {
    "methods": {}
  }
}