{
  "contractName": "ExchangeWrapper",
  "abi": [
    {
      "constant": true,
      "inputs": [],
      "name": "ringSubmitterAddress",
      "outputs": [
        {
          "name": "",
          "type": "address"
        }
      ],
      "payable": false,
      "stateMutability": "view",
      "type": "function"
    },
    {
      "constant": true,
      "inputs": [
        {
          "name": "",
          "type": "address"
        }
      ],
      "name": "whitelist",
      "outputs": [
        {
          "name": "",
          "type": "bool"
        }
      ],
      "payable": false,
      "stateMutability": "view",
      "type": "function"
    },
    {
      "inputs": [
        {
          "name": "_ringSubmitterAddress",
          "type": "address"
        }
      ],
      "payable": false,
      "stateMutability": "nonpayable",
      "type": "constructor"
    },
    {
      "constant": false,
      "inputs": [
        {
          "name": "data",
          "type": "bytes"
        }
      ],
      "name": "submitRings",
      "outputs": [],
      "payable": false,
      "stateMutability": "nonpayable",
      "type": "function"
    },
    {
      "constant": false,
      "inputs": [
        {
          "name": "owner",
          "type": "address"
        },
        {
          "name": "whitelisted",
          "type": "bool"
        }
      ],
      "name": "setWhitelisted",
      "outputs": [],
      "payable": false,
      "stateMutability": "nonpayable",
      "type": "function"
    }
  ],
  "bytecode": "0x608060405260008054600160a060020a031916905534801561002057600080fd5b50604051602080610f658339810180604052602081101561004057600080fd5b505160008054600160a060020a03909216600160a060020a0319909216919091179055610ef3806100726000396000f3fe608060405234801561001057600080fd5b5060043610610068577c0100000000000000000000000000000000000000000000000000000000600035046322b7c6aa811461006d5780639281aa0b1461009e5780639b19251a146100db578063cbaef59b14610122575b600080fd5b610075610192565b6040805173ffffffffffffffffffffffffffffffffffffffff9092168252519081900360200190f35b6100d9600480360360408110156100b457600080fd5b5073ffffffffffffffffffffffffffffffffffffffff813516906020013515156101ae565b005b61010e600480360360208110156100f157600080fd5b503573ffffffffffffffffffffffffffffffffffffffff16610204565b604080519115158252519081900360200190f35b6100d96004803603602081101561013857600080fd5b81019060208101813564010000000081111561015357600080fd5b82018360208201111561016557600080fd5b8035906020019184600183028401116401000000008311171561018757600080fd5b509092509050610219565b60005473ffffffffffffffffffffffffffffffffffffffff1681565b73ffffffffffffffffffffffffffffffffffffffff91909116600090815260016020526040902080547fffffffffffffffffffffffffffffffffffffffffffffffffffffffffffffff0016911515919091179055565b60016020526000908152604090205460ff1681565b606061025a83838080601f0160208091040260200160405190810160405280939291908181526020018383808284376000920191909152506103e392505050565b509150600090505b81518110156103285760016000838381518110151561027d57fe5b602090810290910181015181015173ffffffffffffffffffffffffffffffffffffffff1682528101919091526040016000205460ff16151561032057604080517f08c379a000000000000000000000000000000000000000000000000000000000815260206004820152601560248201527f4f574e45525f4e4f545f57484954454c49535445440000000000000000000000604482015290519081900360640190fd5b600101610262565b506000546040517fcbaef59b0000000000000000000000000000000000000000000000000000000081526020600482019081526024820185905273ffffffffffffffffffffffffffffffffffffffff9092169163cbaef59b91869186918190604401848480828437600081840152601f19601f8201169050808301925050509350505050600060405180830381600087803b1580156103c657600080fd5b505af11580156103da573d6000803e3d6000fd5b50505050505050565b6103eb610e4b565b60608061040c73ef68e7c694f40c8202821edf525de3782458639f85610419565b9196909550909350915050565b610421610e4b565b60608061042c610e7a565b61043d85600063ffffffff61074516565b61ffff16815261045485600263ffffffff61074516565b61ffff16602082015261046e85600463ffffffff61074516565b61ffff16604082015261048885600663ffffffff61074516565b61ffff1660608201528051156104ff57604080517f08c379a000000000000000000000000000000000000000000000000000000000815260206004820181905260248201527f556e737570706f727465642073657269616c697a6174696f6e20666f726d6174604482015290519081900360640190fd5b602081015160001061057257604080517f08c379a000000000000000000000000000000000000000000000000000000000815260206004820152601860248201527f496e76616c6964206e756d626572206f66206f72646572730000000000000000604482015290519081900360640190fd5b60408101516000106105e557604080517f08c379a000000000000000000000000000000000000000000000000000000000815260206004820152601760248201527f496e76616c6964206e756d626572206f662072696e6773000000000000000000604482015290519081900360640190fd5b606081015160001061065857604080517f08c379a000000000000000000000000000000000000000000000000000000000815260206004820152601c60248201527f496e76616c6964206e756d626572206f66207370656e6461626c657300000000604482015290519081900360640190fd5b60208101516040820151865187926008840192600e80860193603c909302860190810192600990920201602e81019190869003604e0111156106fb57604080517f08c379a000000000000000000000000000000000000000000000000000000000815260206004820152601260248201527f496e76616c696420696e70757420646174610000000000000000000000000000604482015290519081900360640190fd5b610708818560020161075e565b98506107228184600201886020015189606001518f6107c9565b97506107368260010187604001518a610c8a565b96505050505050509250925092565b600061075383836002610dcb565b61ffff169392505050565b610766610e4b565b604080516000808252602080830184523260148881019182528751600461ffff91821681028b018301518952928590526002890151811683028a019091015187840152888301948552968101519096169095029095019093019082015291905290565b60408051600081526020808201858152858202830184019093526060926104c091600188010290849087801561081957816020015b610806610ea3565b8152602001906001900390816107fe5790505b509050600060405195508860008701528884028301860160405260005b89811015610c7b5780850284018701806020836001010289015261ffff60008d0151169250826000820152600461ffff60028e01511602925073ffffffffffffffffffffffffffffffffffffffff8360148f010151166020820152600461ffff60048e01511602925073ffffffffffffffffffffffffffffffffffffffff8360148f010151166040820152600461ffff60068e01511602925073ffffffffffffffffffffffffffffffffffffffff8360148f010151166060820152600461ffff60088e0151160292508260208e0101516080820152600461ffff600a8e0151160292508260208e01015160a0820152600461ffff600c8e01511602925063ffffffff8360048f0101511660c082015261ffff600e8d0151169250898310830292506020600184010284015160e082015261ffff60108d01511692508983108302925060206001840102840151610100820152600461ffff60128e01511602925073ffffffffffffffffffffffffffffffffffffffff8360148f01015116610120820152600461ffff60148e01511602925073ffffffffffffffffffffffffffffffffffffffff8360148f01015116610140820152600461ffff60168e01511602925073ffffffffffffffffffffffffffffffffffffffff8360148f010151166101a0820152600461ffff60188e01511602925073ffffffffffffffffffffffffffffffffffffffff8360148f010151166101c0820152600461ffff601a8e01511602925063ffffffff8360048f010151166101e08201528660208e0152600461ffff601c8e015116029250602083018d01610200820152600461ffff601e8e015116029250602083018d01610220820152600060208e015261ffff60208d0151169250600083116102408201528860148e0152600461ffff60228e01511602925073ffffffffffffffffffffffffffffffffffffffff8360148f01015116610260820152600060148e0152600461ffff60248e0151160292508260208e01015161028082015261ffff60268d0151169250826102a082015261ffff60288d0151169250826102c082015261ffff602a8d0151169250826102e0820152602081015160148e0152600461ffff602c8e01511602925073ffffffffffffffffffffffffffffffffffffffff8360148f01015116610300820152600060148e015261ffff602e8d01511692508261032082015261ffff60308d01511692508261040082015261ffff60328d01511692508261042082015261ffff60348d015116925082610440820152600461ffff60368e0151160292508260208e010151610460820152600461ffff60388e0151160292508260208e0101516104808201528660208e0152600461ffff603a8e015116029250602083018d016104a0820152600060208e015260006103408201526000610360820152600061038082015260006103a082015260006103c082015260016103e0820152603c8c019b5050600181019050610836565b50505050505095945050505050565b604080518381526001840160200260a080860282018301909352909161014060005b86811015610dc05780830284018501806020600184010287015260ff89511660018a0199506008811115610cdf57600080fd5b604051816000820152602082600101028101828602810160405282600085015281602085015260006040850152600060608501526001608085015260005b83811015610dac578087028201806020600184010285015260ff8e51168c5181101515610d4957600080fd5b60018f019e50602060018201028d0151600083015260006020830152600060408301526000606083015260006080830152600060a0830152600060c0830152600060e0830152600061010083015260006101208301525050600181019050610d1d565b505050600803989098019750600101610cac565b505050509392505050565b6000818301845110151515610e4157604080517f08c379a000000000000000000000000000000000000000000000000000000000815260206004820152600c60248201527f494e56414c49445f53495a450000000000000000000000000000000000000000604482015290519081900360640190fd5b5091909101015190565b6040805160a0810182526000808252602082018190526060928201839052918101829052608081019190915290565b608060405190810160405280600081526020016000815260200160008152602001600081525090565b6060604051908101604052806000151581526020016000815260200160008152509056fea165627a7a723058200a99c69542996f606ec02f661cfda9aefdd5619f0e8ef1e8cf041944a845d3c70029",
  "source": "/*\n\n  Copyright 2017 Loopring Project Ltd (Loopring Foundation).\n\n  Licensed under the Apache License, Version 2.0 (the \"License\");\n  you may not use this file except in compliance with the License.\n  You may obtain a copy of the License at\n\n  http://www.apache.org/licenses/LICENSE-2.0\n\n  Unless required by applicable law or agreed to in writing, software\n  distributed under the License is distributed on an \"AS IS\" BASIS,\n  WITHOUT WARRANTIES OR CONDITIONS OF ANY KIND, either express or implied.\n  See the License for the specific language governing permissions and\n  limitations under the License.\n*/\npragma solidity 0.5.2;\n\nimport \"../iface/IRingSubmitter.sol\";\nimport \"../impl/PublicExchangeDeserializer.sol\";\n\n\n/// @author Brecht Devos - <brecht@loopring.org>\ncontract ExchangeWrapper {\n\n    address public ringSubmitterAddress = address(0x0);\n\n    // Map of owner allowed to trade\n    mapping (address => bool) public whitelist;\n\n    constructor(\n        address _ringSubmitterAddress\n        )\n        public\n    {\n        ringSubmitterAddress = _ringSubmitterAddress;\n    }\n\n    function submitRings(\n        bytes calldata data\n        )\n        external\n    {\n        (\n            ,\n            Data.Order[] memory orders,\n\n        ) = PublicExchangeDeserializer.deserialize(data);\n        for (uint i = 0; i < orders.length; i++) {\n            require(whitelist[orders[i].owner], \"OWNER_NOT_WHITELISTED\");\n        }\n        IRingSubmitter(ringSubmitterAddress).submitRings(data);\n    }\n\n    function setWhitelisted(\n        address owner,\n        bool whitelisted\n        )\n        external\n    {\n        whitelist[owner] = whitelisted;\n    }\n}\n",
  "sourcePath": "/usr/local/klzhong/workspace/loopring/protocol2/contracts/test/ExchangeWrapper.sol",
  "compiler": {
    "name": "solc",
    "version": "0.5.2+commit.1df8f40c.Emscripten.clang"
  },
  "schemaVersion": "3.0.0",
  "updatedAt": "2019-03-19T09:16:27.523Z",
  "devdoc": {
    "author": "Brecht Devos - <brecht@loopring.org>",
    "methods": {}
  },
  "userdoc": {
    "methods": {}
  }
}