{
  "_format": "hh-sol-artifact-1",
  "contractName": "MetaTxModule",
  "sourceName": "contracts/version2_0/modules/MetaTxModule.sol",
  "abi": [
    {
      "anonymous": false,
      "inputs": [
        {
          "indexed": false,
          "internalType": "address",
          "name": "token",
          "type": "address"
        },
        {
          "indexed": false,
          "internalType": "address",
          "name": "spender",
          "type": "address"
        },
        {
          "indexed": false,
          "internalType": "uint256",
          "name": "amount",
          "type": "uint256"
        }
      ],
      "name": "Approved",
      "type": "event"
    },
    {
      "anonymous": false,
      "inputs": [
        {
          "indexed": false,
          "internalType": "address",
          "name": "to",
          "type": "address"
        },
        {
          "indexed": false,
          "internalType": "uint256",
          "name": "value",
          "type": "uint256"
        },
        {
          "indexed": false,
          "internalType": "bytes",
          "name": "data",
          "type": "bytes"
        }
      ],
      "name": "ContractCalled",
      "type": "event"
    },
    {
      "anonymous": false,
      "inputs": [
        {
          "indexed": false,
          "internalType": "uint256",
          "name": "nonce",
          "type": "uint256"
        },
        {
          "indexed": false,
          "internalType": "bytes32",
          "name": "txAwareHash",
          "type": "bytes32"
        },
        {
          "indexed": false,
          "internalType": "bool",
          "name": "success",
          "type": "bool"
        },
        {
          "indexed": false,
          "internalType": "uint256",
          "name": "gasUsed",
          "type": "uint256"
        }
      ],
      "name": "MetaTxExecuted",
      "type": "event"
    },
    {
      "anonymous": false,
      "inputs": [
        {
          "indexed": false,
          "internalType": "address",
          "name": "token",
          "type": "address"
        },
        {
          "indexed": false,
          "internalType": "address",
          "name": "to",
          "type": "address"
        },
        {
          "indexed": false,
          "internalType": "uint256",
          "name": "amount",
          "type": "uint256"
        },
        {
          "indexed": false,
          "internalType": "bytes",
          "name": "logdata",
          "type": "bytes"
        }
      ],
      "name": "Transfered",
      "type": "event"
    },
    {
      "inputs": [],
      "name": "MAX_REIMBURSTMENT_OVERHEAD",
      "outputs": [
        {
          "internalType": "uint256",
          "name": "",
          "type": "uint256"
        }
      ],
      "stateMutability": "view",
      "type": "function"
    },
    {
      "inputs": [],
      "name": "META_TX_TYPEHASH",
      "outputs": [
        {
          "internalType": "bytes32",
          "name": "",
          "type": "bytes32"
        }
      ],
      "stateMutability": "view",
      "type": "function"
    },
    {
      "inputs": [],
      "name": "TOUCH_GRACE_PERIOD",
      "outputs": [
        {
          "internalType": "uint256",
          "name": "",
          "type": "uint256"
        }
      ],
      "stateMutability": "view",
      "type": "function"
    },
    {
      "inputs": [
        {
          "internalType": "address[]",
          "name": "to",
          "type": "address[]"
        },
        {
          "internalType": "bytes[]",
          "name": "data",
          "type": "bytes[]"
        }
      ],
      "name": "batchCall",
      "outputs": [],
      "stateMutability": "nonpayable",
      "type": "function"
    },
    {
      "inputs": [],
      "name": "bindableMethods",
      "outputs": [
        {
          "internalType": "bytes4[]",
          "name": "methods",
          "type": "bytes4[]"
        }
      ],
      "stateMutability": "pure",
      "type": "function"
    },
    {
      "inputs": [
        {
          "internalType": "uint256",
          "name": "nonce",
          "type": "uint256"
        },
        {
          "internalType": "bytes32",
          "name": "txAwareHash",
          "type": "bytes32"
        },
        {
          "internalType": "address",
          "name": "gasToken",
          "type": "address"
        },
        {
          "internalType": "uint256",
          "name": "gasPrice",
          "type": "uint256"
        },
        {
          "internalType": "uint256",
          "name": "gasLimit",
          "type": "uint256"
        },
        {
          "internalType": "bytes",
          "name": "data",
          "type": "bytes"
        },
        {
          "internalType": "bytes",
          "name": "signature",
          "type": "bytes"
        }
      ],
      "name": "executeMetaTx",
      "outputs": [
        {
          "internalType": "bool",
          "name": "success",
          "type": "bool"
        }
      ],
      "stateMutability": "nonpayable",
      "type": "function"
    },
    {
      "inputs": [
        {
          "internalType": "uint256",
          "name": "nonce",
          "type": "uint256"
        }
      ],
      "name": "isNonceValid",
      "outputs": [
        {
          "internalType": "bool",
          "name": "",
          "type": "bool"
        }
      ],
      "stateMutability": "view",
      "type": "function"
    },
    {
      "inputs": [],
      "name": "lastNonce",
      "outputs": [
        {
          "internalType": "uint256",
          "name": "",
          "type": "uint256"
        }
      ],
      "stateMutability": "view",
      "type": "function"
    },
    {
      "inputs": [
        {
          "internalType": "address",
          "name": "",
          "type": "address"
        }
      ],
      "name": "nonces",
      "outputs": [
        {
          "internalType": "uint256",
          "name": "",
          "type": "uint256"
        }
      ],
      "stateMutability": "view",
      "type": "function"
    },
    {
      "inputs": [
        {
          "internalType": "uint256",
          "name": "nonce",
          "type": "uint256"
        },
        {
          "internalType": "bytes32",
          "name": "txAwareHash",
          "type": "bytes32"
        },
        {
          "internalType": "address",
          "name": "gasToken",
          "type": "address"
        },
        {
          "internalType": "uint256",
          "name": "gasPrice",
          "type": "uint256"
        },
        {
          "internalType": "uint256",
          "name": "gasLimit",
          "type": "uint256"
        },
        {
          "internalType": "bytes",
          "name": "data",
          "type": "bytes"
        },
        {
          "internalType": "bytes",
          "name": "signature",
          "type": "bytes"
        }
      ],
      "name": "validateMetaTx",
      "outputs": [],
      "stateMutability": "view",
      "type": "function"
    }
  ],
  "bytecode": "0x608060405234801561001057600080fd5b50612d47806100206000396000f3fe608060405234801561001057600080fd5b506004361061009e5760003560e01c8063840fdc7811610066578063840fdc781461016d578063a017b3bf1461018b578063aec2bf59146101a9578063afa3363d146101c7578063ff08e07b146101e55761009e565b80633b889351146100a357806346cb3035146100d357806352631ab4146100ef57806360765f6b1461010d5780637ecebe001461013d575b600080fd5b6100bd60048036038101906100b89190611e64565b610201565b6040516100ca9190612701565b60405180910390f35b6100ed60048036038101906100e89190611f3a565b61056d565b005b6100f761088b565b60405161010491906129fb565b60405180910390f35b61012760048036038101906101229190611e3b565b610890565b6040516101349190612701565b60405180910390f35b61015760048036038101906101529190611d22565b610897565b60405161016491906129fb565b60405180910390f35b6101756108af565b60405161018291906129fb565b60405180910390f35b6101936108b6565b6040516101a0919061271c565b60405180910390f35b6101b16108da565b6040516101be91906129fb565b60405180910390f35b6101cf6108e0565b6040516101dc91906126df565b60405180910390f35b6101ff60048036038101906101fa9190611d74565b610b14565b005b6000805a9050603f61021d604089610ea490919063ffffffff16565b8161022457fe5b04811015610267576040517f08c379a000000000000000000000000000000000000000000000000000000000815260040161025e906128fb565b60405180910390fd5b61026f611b2a565b6040518060a001604052808d81526020018c81526020018b73ffffffffffffffffffffffffffffffffffffffff1681526020018a81526020018981525090506000816000015114610307576102c78160000151610890565b610306576040517f08c379a00000000000000000000000000000000000000000000000000000000081526004016102fd906128db565b60405180910390fd5b5b3073ffffffffffffffffffffffffffffffffffffffff168160800151600089893086602001516040516020016103409493929190612605565b60405160208183030381529060405260405161035c9190612640565b600060405180830381858888f193505050503d806000811461039a576040519150601f19603f3d011682016040523d82523d6000602084013e61039f565b606091505b505080935050610450816000015182602001518360400151846060015185608001518c8c8080601f016020809104026020016040519081016040528093929190818152602001838380828437600081840152601f19601f820116905080830192505050505050508b8b8080601f016020809104026020016040519081016040528093929190818152602001838380828437600081840152601f19601f8201169050808301925050505050505061056d565b60006159d86101bf601060e08b8b90508a8a90500101025a86030101019050600080836060015111801561049257506000801b836020015114806104915750845b5b90508015610517576108fc61f6188301019150600073ffffffffffffffffffffffffffffffffffffffff16836040015173ffffffffffffffffffffffffffffffffffffffff1614156104e657613a98820391505b600083608001518311156104fe578360800151610500565b825b90506105158460400151856060015183610f07565b505b7fd5e09064bd5e2b2048eefe4e8690a1d51cc4e74918897c77d9b0c8c3d7dfdf808360000151846020015187856040516105549493929190612a16565b60405180910390a1505050509998505050505050505050565b3073ffffffffffffffffffffffffffffffffffffffff163373ffffffffffffffffffffffffffffffffffffffff1614156105dc576040517f08c379a00000000000000000000000000000000000000000000000000000000081526004016105d39061295b565b60405180910390fd5b6000871480156105ef57506000801b8614155b8061060957506000871415801561060857506000801b86145b5b610648576040517f08c379a000000000000000000000000000000000000000000000000000000000815260040161063f906128db565b60405180910390fd5b60606000801b87146106705761066b6000600485610f509092919063ffffffff16565b610672565b825b905060607f741e11c17cd81610f038bf4f60fa89aaea0c08b10f27f60e93138dccb0115212898989898987805190602001206040516020016106ba9796959493929190612767565b60405160208183030381529060405290506106d56000610fdc565b15610715576040517f08c379a000000000000000000000000000000000000000000000000000000000815260040161070c9061297b565b60405180910390fd5b60006107a5610722610fe8565b73ffffffffffffffffffffffffffffffffffffffff1663cb73ac566040518163ffffffff1660e01b815260040160206040518083038186803b15801561076757600080fd5b505afa15801561077b573d6000803e3d6000fd5b505050506040513d601f19601f8201168201806040525081019061079f9190611e12565b83610ff0565b90506108406107b2610fe8565b73ffffffffffffffffffffffffffffffffffffffff16638da5cb5b6040518163ffffffff1660e01b815260040160206040518083038186803b1580156107f757600080fd5b505afa15801561080b573d6000803e3d6000fd5b505050506040513d601f19601f8201168201806040525081019061082f9190611d4b565b85836110619092919063ffffffff16565b61087f576040517f08c379a00000000000000000000000000000000000000000000000000000000081526004016108769061285b565b60405180910390fd5b50505050505050505050565b600090565b6000919050565b60056020528060005260406000206000915090505481565b62278d0081565b7f741e11c17cd81610f038bf4f60fa89aaea0c08b10f27f60e93138dccb011521281565b61f61881565b6060600567ffffffffffffffff811180156108fa57600080fd5b506040519080825280602002602001820160405280156109295781602001602082028036833780820191505090505b5090506352631ab460e01b8160008151811061094157fe5b60200260200101907bffffffffffffffffffffffffffffffffffffffffffffffffffffffff191690817bffffffffffffffffffffffffffffffffffffffffffffffffffffffff1916815250506360765f6b60e01b816001815181106109a257fe5b60200260200101907bffffffffffffffffffffffffffffffffffffffffffffffffffffffff191690817bffffffffffffffffffffffffffffffffffffffffffffffffffffffff1916815250506346cb303560e01b81600281518110610a0357fe5b60200260200101907bffffffffffffffffffffffffffffffffffffffffffffffffffffffff191690817bffffffffffffffffffffffffffffffffffffffffffffffffffffffff191681525050633b88935160e01b81600381518110610a6457fe5b60200260200101907bffffffffffffffffffffffffffffffffffffffffffffffffffffffff191690817bffffffffffffffffffffffffffffffffffffffffffffffffffffffff19168152505063ff08e07b60e01b81600481518110610ac557fe5b60200260200101907bffffffffffffffffffffffffffffffffffffffffffffffffffffffff191690817bffffffffffffffffffffffffffffffffffffffffffffffffffffffff19168152505090565b6000801b610b206110e9565b14610b60576040517f08c379a0000000000000000000000000000000000000000000000000000000008152600401610b579061281b565b60405180910390fd5b6000610b6a6111a0565b90503073ffffffffffffffffffffffffffffffffffffffff168173ffffffffffffffffffffffffffffffffffffffff161480610c665750610ba9610fe8565b73ffffffffffffffffffffffffffffffffffffffff16638da5cb5b6040518163ffffffff1660e01b815260040160206040518083038186803b158015610bee57600080fd5b505afa158015610c02573d6000803e3d6000fd5b505050506040513d601f19601f82011682018060405250810190610c269190611d4b565b73ffffffffffffffffffffffffffffffffffffffff168173ffffffffffffffffffffffffffffffffffffffff16148015610c655750610c63611272565b155b5b610ca5576040517f08c379a0000000000000000000000000000000000000000000000000000000008152600401610c9c906128bb565b60405180910390fd5b610cbc62278d00600061128390919063ffffffff16565b828290508585905014610d04576040517f08c379a0000000000000000000000000000000000000000000000000000000008152600401610cfb906129db565b60405180910390fd5b60005b85859050811015610e9c573073ffffffffffffffffffffffffffffffffffffffff16868683818110610d3557fe5b9050602002016020810190610d4a9190611d22565b73ffffffffffffffffffffffffffffffffffffffff161415610da1576040517f08c379a0000000000000000000000000000000000000000000000000000000008152600401610d989061291b565b60405180910390fd5b6000868683818110610daf57fe5b9050602002016020810190610dc49190611d22565b73ffffffffffffffffffffffffffffffffffffffff166000868685818110610de857fe5b9050602002810190610dfa9190612a5b565b604051610e089291906125ec565b60006040518083038185875af1925050503d8060008114610e45576040519150601f19603f3d011682016040523d82523d6000602084013e610e4a565b606091505b5050905080610e8e576040517f08c379a0000000000000000000000000000000000000000000000000000000008152600401610e859061289b565b60405180910390fd5b508080600101915050610d07565b505050505050565b600081830290506000831480610ec2575081838281610ebf57fe5b04145b610f01576040517f08c379a0000000000000000000000000000000000000000000000000000000008152600401610ef8906129bb565b60405180910390fd5b92915050565b6000610f1c8383610ea490919063ffffffff16565b9050610f3f8483610f2d600061128d565b6000611294909392919063ffffffff16565b610f4a84338361129a565b50505050565b606081830184511015610f6257600080fd5b6060821560008114610f7f57604051915060208201604052610fd0565b6040519150601f8416801560200281840101858101878315602002848b0101015b81831015610fbd5780518352602083019250602081019050610fa0565b50868552601f19601f8301166040525050505b50809150509392505050565b60008030905050919050565b600030905090565b60006040518060400160405280600281526020017f190100000000000000000000000000000000000000000000000000000000000081525083838051906020012060405160200161104393929190612657565b60405160208183030381529060405280519060200120905092915050565b60008073ffffffffffffffffffffffffffffffffffffffff168373ffffffffffffffffffffffffffffffffffffffff1614156110a057600090506110e2565b6110bf8373ffffffffffffffffffffffffffffffffffffffff166113f0565b6110d3576110ce848484611435565b6110df565b6110de8484846115b3565b5b90505b9392505050565b60003073ffffffffffffffffffffffffffffffffffffffff163373ffffffffffffffffffffffffffffffffffffffff1614801561112b57506038600036905010155b156111965761118f60206000369050036000368080601f016020809104026020016040519081016040528093929190818152602001838380828437600081840152601f19601f8201169050808301925050505050505061171c90919063ffffffff16565b905061119d565b6000801b90505b90565b60003073ffffffffffffffffffffffffffffffffffffffff163373ffffffffffffffffffffffffffffffffffffffff161480156111e257506038600036905010155b1561126b5761126461124960346000369050036000368080601f016020809104026020016040519081016040528093929190818152602001838380828437600081840152601f19601f8201169050808301925050505050505061174490919063ffffffff16565b73ffffffffffffffffffffffffffffffffffffffff1661177b565b905061126f565b3390505b90565b600061127e6000610fdc565b905090565b6000309050505050565b6000919050565b50505050565b600073ffffffffffffffffffffffffffffffffffffffff168373ffffffffffffffffffffffffffffffffffffffff1614156112f1576112eb6001838360405180602001604052806000815250611785565b506113eb565b606063a9059cbb60e01b838360405160240161130e9291906126b6565b604051602081830303815290604052907bffffffffffffffffffffffffffffffffffffffffffffffffffffffff19166020820180517bffffffffffffffffffffffffffffffffffffffffffffffffffffffff83818316178352505050509050606061137d600186600085611785565b90506000808251146113a2578180602001905181019061139d9190611de9565b6113a5565b60015b9050806113e7576040517f08c379a00000000000000000000000000000000000000000000000000000000081526004016113de9061293b565b60405180910390fd5b5050505b505050565b600080823f90506000801b811415801561142d57507fc5d2460186f7233c927e7db2dcc703c0e500b653ca82273b7bfad8045d85a47060001b8114155b915050919050565b60008073ffffffffffffffffffffffffffffffffffffffff168373ffffffffffffffffffffffffffffffffffffffff16141561147457600090506115ac565b600061148b600184516119a190919063ffffffff16565b905060006114a282856119f190919063ffffffff16565b60ff1660048111156114b057fe5b9050818452600260048111156114c257fe5b8160048111156114ce57fe5b1415611513576114de8685611a19565b73ffffffffffffffffffffffffffffffffffffffff168573ffffffffffffffffffffffffffffffffffffffff161492506115a3565b6003600481111561152057fe5b81600481111561152c57fe5b141561159d576000866040516020016115459190612690565b6040516020818303038152906040528051906020012090506115678186611a19565b73ffffffffffffffffffffffffffffffffffffffff168673ffffffffffffffffffffffffffffffffffffffff16149350506115a2565b600092505b5b60018201845250505b9392505050565b60006060631626ba7e60e01b85846040516024016115d2929190612737565b604051602081830303815290604052907bffffffffffffffffffffffffffffffffffffffffffffffffffffffff19166020820180517bffffffffffffffffffffffffffffffffffffffffffffffffffffffff83818316178352505050509050600060608573ffffffffffffffffffffffffffffffffffffffff168360405161165a9190612640565b600060405180830381855afa9150503d8060008114611695576040519150601f19603f3d011682016040523d82523d6000602084013e61169a565b606091505b50915091508180156116ad575060208151145b80156117105750631626ba7e60e01b7bffffffffffffffffffffffffffffffffffffffffffffffffffffffff19166116ef600083611b0290919063ffffffff16565b7bffffffffffffffffffffffffffffffffffffffffffffffffffffffff1916145b93505050509392505050565b6000602082018351101561172f57600080fd5b60008260208501015190508091505092915050565b6000601482018351101561175757600080fd5b60006c01000000000000000000000000836020860101510490508091505092915050565b6000819050919050565b6060600060018660ff16141561180b578473ffffffffffffffffffffffffffffffffffffffff1684846040516117bb9190612640565b60006040518083038185875af1925050503d80600081146117f8576040519150601f19603f3d011682016040523d82523d6000602084013e6117fd565b606091505b508093508192505050611989565b60028660ff16141561188a578473ffffffffffffffffffffffffffffffffffffffff168360405161183c9190612640565b600060405180830381855af49150503d8060008114611877576040519150601f19603f3d011682016040523d82523d6000602084013e61187c565b606091505b508093508192505050611988565b60038660ff16141561194c57600084146118d9576040517f08c379a00000000000000000000000000000000000000000000000000000000081526004016118d09061299b565b60405180910390fd5b8473ffffffffffffffffffffffffffffffffffffffff16836040516118fe9190612640565b600060405180830381855afa9150503d8060008114611939576040519150601f19603f3d011682016040523d82523d6000602084013e61193e565b606091505b508093508192505050611987565b6040517f08c379a000000000000000000000000000000000000000000000000000000000815260040161197e9061283b565b60405180910390fd5b5b5b80611998573d6000803e3d6000fd5b50949350505050565b6000828211156119e6576040517f08c379a00000000000000000000000000000000000000000000000000000000081526004016119dd9061287b565b60405180910390fd5b818303905092915050565b60006001820183511015611a0457600080fd5b60008260018501015190508091505092915050565b60006041825114611a2d5760009050611afc565b6000806000602085015192506040850151915060ff60418601511690507f7fffffffffffffffffffffffffffffff5d576e7357a4501ddfe92f46681b20a08260001c1115611a815760009350505050611afc565b601b8160ff161480611a965750601c8160ff16145b15611af45760018682858560405160008152602001604052604051611abe94939291906127d6565b6020604051602081039080840390855afa158015611ae0573d6000803e3d6000fd5b505050602060405103519350505050611afc565b600093505050505b92915050565b60006004820183511015611b1557600080fd5b60008260208501015190508091505092915050565b6040518060a001604052806000815260200160008019168152602001600073ffffffffffffffffffffffffffffffffffffffff16815260200160008152602001600081525090565b600081359050611b8181612cb5565b92915050565b600081519050611b9681612cb5565b92915050565b60008083601f840112611bae57600080fd5b8235905067ffffffffffffffff811115611bc757600080fd5b602083019150836020820283011115611bdf57600080fd5b9250929050565b60008083601f840112611bf857600080fd5b8235905067ffffffffffffffff811115611c1157600080fd5b602083019150836020820283011115611c2957600080fd5b9250929050565b600081519050611c3f81612ccc565b92915050565b600081359050611c5481612ce3565b92915050565b600081519050611c6981612ce3565b92915050565b60008083601f840112611c8157600080fd5b8235905067ffffffffffffffff811115611c9a57600080fd5b602083019150836001820283011115611cb257600080fd5b9250929050565b600082601f830112611cca57600080fd5b8135611cdd611cd882612ae3565b612ab2565b91508082526020830160208301858383011115611cf957600080fd5b611d04838284612c25565b50505092915050565b600081359050611d1c81612cfa565b92915050565b600060208284031215611d3457600080fd5b6000611d4284828501611b72565b91505092915050565b600060208284031215611d5d57600080fd5b6000611d6b84828501611b87565b91505092915050565b60008060008060408587031215611d8a57600080fd5b600085013567ffffffffffffffff811115611da457600080fd5b611db087828801611b9c565b9450945050602085013567ffffffffffffffff811115611dcf57600080fd5b611ddb87828801611be6565b925092505092959194509250565b600060208284031215611dfb57600080fd5b6000611e0984828501611c30565b91505092915050565b600060208284031215611e2457600080fd5b6000611e3284828501611c5a565b91505092915050565b600060208284031215611e4d57600080fd5b6000611e5b84828501611d0d565b91505092915050565b600080600080600080600080600060e08a8c031215611e8257600080fd5b6000611e908c828d01611d0d565b9950506020611ea18c828d01611c45565b9850506040611eb28c828d01611b72565b9750506060611ec38c828d01611d0d565b9650506080611ed48c828d01611d0d565b95505060a08a013567ffffffffffffffff811115611ef157600080fd5b611efd8c828d01611c6f565b945094505060c08a013567ffffffffffffffff811115611f1c57600080fd5b611f288c828d01611c6f565b92509250509295985092959850929598565b600080600080600080600060e0888a031215611f5557600080fd5b6000611f638a828b01611d0d565b9750506020611f748a828b01611c45565b9650506040611f858a828b01611b72565b9550506060611f968a828b01611d0d565b9450506080611fa78a828b01611d0d565b93505060a088013567ffffffffffffffff811115611fc457600080fd5b611fd08a828b01611cb9565b92505060c088013567ffffffffffffffff811115611fed57600080fd5b611ff98a828b01611cb9565b91505092959891949750929550565b600061201483836120d9565b60208301905092915050565b61202981612b9a565b82525050565b61204061203b82612b9a565b612c67565b82525050565b600061205182612b23565b61205b8185612b51565b935061206683612b13565b8060005b8381101561209757815161207e8882612008565b975061208983612b44565b92505060018101905061206a565b5085935050505092915050565b6120ad81612bac565b82525050565b6120bc81612bb8565b82525050565b6120d36120ce82612bb8565b612c79565b82525050565b6120e281612bc2565b82525050565b60006120f48385612b73565b9350612101838584612c25565b82840190509392505050565b600061211882612b2e565b6121228185612b62565b9350612132818560208601612c34565b61213b81612c97565b840191505092915050565b600061215182612b2e565b61215b8185612b73565b935061216b818560208601612c34565b80840191505092915050565b600061218282612b39565b61218c8185612b8f565b935061219c818560208601612c34565b80840191505092915050565b60006121b5601583612b7e565b91507f494e56414c49445f54585f41574152455f4841534800000000000000000000006000830152602082019050919050565b60006121f5601c83612b8f565b91507f19457468657265756d205369676e6564204d6573736167653a0a3332000000006000830152601c82019050919050565b6000612235601083612b7e565b91507f554e535550504f525445445f4d4f4445000000000000000000000000000000006000830152602082019050919050565b6000612275601183612b7e565b91507f494e56414c49445f5349474e41545552450000000000000000000000000000006000830152602082019050919050565b60006122b5600d83612b7e565b91507f5355425f554e444552464c4f57000000000000000000000000000000000000006000830152602082019050919050565b60006122f5601383612b7e565b91507f424154434845445f43414c4c5f4641494c4544000000000000000000000000006000830152602082019050919050565b6000612335602983612b7e565b91507f4e4f545f46524f4d5f57414c4c45545f4f525f4f574e45525f4f525f57414c4c60008301527f45545f4c4f434b454400000000000000000000000000000000000000000000006020830152604082019050919050565b600061239b600d83612b7e565b91507f494e56414c49445f4e4f4e4345000000000000000000000000000000000000006000830152602082019050919050565b60006123db601983612b7e565b91507f4f50455241544f525f494e53554646494349454e545f474153000000000000006000830152602082019050919050565b600061241b600e83612b7e565b91507f494e56414c49445f5441524745540000000000000000000000000000000000006000830152602082019050919050565b600061245b601583612b7e565b91507f45524332305f5452414e534645525f4641494c454400000000000000000000006000830152602082019050919050565b600061249b600a83612b7e565b91507f50524f48494249544544000000000000000000000000000000000000000000006000830152602082019050919050565b60006124db600d83612b7e565b91507f57414c4c45545f4c4f434b4544000000000000000000000000000000000000006000830152602082019050919050565b600061251b600d83612b7e565b91507f494e56414c49445f56414c5545000000000000000000000000000000000000006000830152602082019050919050565b600061255b600c83612b7e565b91507f4d554c5f4f564552464c4f5700000000000000000000000000000000000000006000830152602082019050919050565b600061259b600c83612b7e565b91507f494e56414c49445f4441544100000000000000000000000000000000000000006000830152602082019050919050565b6125d781612c0e565b82525050565b6125e681612c18565b82525050565b60006125f98284866120e8565b91508190509392505050565b60006126128286886120e8565b915061261e828561202f565b60148201915061262e82846120c2565b60208201915081905095945050505050565b600061264c8284612146565b915081905092915050565b60006126638286612177565b915061266f82856120c2565b60208201915061267f82846120c2565b602082019150819050949350505050565b600061269b826121e8565b91506126a782846120c2565b60208201915081905092915050565b60006040820190506126cb6000830185612020565b6126d860208301846125ce565b9392505050565b600060208201905081810360008301526126f98184612046565b905092915050565b600060208201905061271660008301846120a4565b92915050565b600060208201905061273160008301846120b3565b92915050565b600060408201905061274c60008301856120b3565b818103602083015261275e818461210d565b90509392505050565b600060e08201905061277c600083018a6120b3565b61278960208301896125ce565b61279660408301886120b3565b6127a36060830187612020565b6127b060808301866125ce565b6127bd60a08301856125ce565b6127ca60c08301846120b3565b98975050505050505050565b60006080820190506127eb60008301876120b3565b6127f860208301866125dd565b61280560408301856120b3565b61281260608301846120b3565b95945050505050565b60006020820190508181036000830152612834816121a8565b9050919050565b6000602082019050818103600083015261285481612228565b9050919050565b6000602082019050818103600083015261287481612268565b9050919050565b60006020820190508181036000830152612894816122a8565b9050919050565b600060208201905081810360008301526128b4816122e8565b9050919050565b600060208201905081810360008301526128d481612328565b9050919050565b600060208201905081810360008301526128f48161238e565b9050919050565b60006020820190508181036000830152612914816123ce565b9050919050565b600060208201905081810360008301526129348161240e565b9050919050565b600060208201905081810360008301526129548161244e565b9050919050565b600060208201905081810360008301526129748161248e565b9050919050565b60006020820190508181036000830152612994816124ce565b9050919050565b600060208201905081810360008301526129b48161250e565b9050919050565b600060208201905081810360008301526129d48161254e565b9050919050565b600060208201905081810360008301526129f48161258e565b9050919050565b6000602082019050612a1060008301846125ce565b92915050565b6000608082019050612a2b60008301876125ce565b612a3860208301866120b3565b612a4560408301856120a4565b612a5260608301846125ce565b95945050505050565b60008083356001602003843603038112612a7457600080fd5b80840192508235915067ffffffffffffffff821115612a9257600080fd5b602083019250600182023603831315612aaa57600080fd5b509250929050565b6000604051905081810181811067ffffffffffffffff82111715612ad957612ad8612c95565b5b8060405250919050565b600067ffffffffffffffff821115612afe57612afd612c95565b5b601f19601f8301169050602081019050919050565b6000819050602082019050919050565b600081519050919050565b600081519050919050565b600081519050919050565b6000602082019050919050565b600082825260208201905092915050565b600082825260208201905092915050565b600081905092915050565b600082825260208201905092915050565b600081905092915050565b6000612ba582612bee565b9050919050565b60008115159050919050565b6000819050919050565b60007fffffffff0000000000000000000000000000000000000000000000000000000082169050919050565b600073ffffffffffffffffffffffffffffffffffffffff82169050919050565b6000819050919050565b600060ff82169050919050565b82818337600083830152505050565b60005b83811015612c52578082015181840152602081019050612c37565b83811115612c61576000848401525b50505050565b6000612c7282612c83565b9050919050565b6000819050919050565b6000612c8e82612ca8565b9050919050565bfe5b6000601f19601f8301169050919050565b60008160601b9050919050565b612cbe81612b9a565b8114612cc957600080fd5b50565b612cd581612bac565b8114612ce057600080fd5b50565b612cec81612bb8565b8114612cf757600080fd5b50565b612d0381612c0e565b8114612d0e57600080fd5b5056fea26469706673582212205acec3ccfde63215383e94a66b200d5f7d63173b2a092b0b031518d57db123c164736f6c63430007030033",
  "linkReferences": {},
  "deployedLinkReferences": {}
}