{
  "_format": "hh-sol-artifact-1",
  "contractName": "LockModule",
  "sourceName": "contracts/version2_0/modules/LockModule.sol",
  "abi": [
    {
      "anonymous": false,
      "inputs": [
        {
          "indexed": false,
          "internalType": "address",
          "name": "by",
          "type": "address"
        },
        {
          "indexed": false,
          "internalType": "bool",
          "name": "locked",
          "type": "bool"
        }
      ],
      "name": "WalletLocked",
      "type": "event"
    },
    {
      "inputs": [],
      "name": "LOCK_TYPEHASH",
      "outputs": [
        {
          "internalType": "bytes32",
          "name": "",
          "type": "bytes32"
        }
      ],
      "stateMutability": "view",
      "type": "function"
    },
    {
      "inputs": [],
      "name": "TOUCH_GRACE_PERIOD",
      "outputs": [
        {
          "internalType": "uint256",
          "name": "",
          "type": "uint256"
        }
      ],
      "stateMutability": "view",
      "type": "function"
    },
    {
      "inputs": [],
      "name": "UNLOCK_TYPEHASH",
      "outputs": [
        {
          "internalType": "bytes32",
          "name": "",
          "type": "bytes32"
        }
      ],
      "stateMutability": "view",
      "type": "function"
    },
    {
      "inputs": [],
      "name": "bindableMethods",
      "outputs": [
        {
          "internalType": "bytes4[]",
          "name": "methods",
          "type": "bytes4[]"
        }
      ],
      "stateMutability": "pure",
      "type": "function"
    },
    {
      "inputs": [],
      "name": "isLocked",
      "outputs": [
        {
          "internalType": "bool",
          "name": "",
          "type": "bool"
        }
      ],
      "stateMutability": "view",
      "type": "function"
    },
    {
      "inputs": [],
      "name": "lock",
      "outputs": [],
      "stateMutability": "nonpayable",
      "type": "function"
    },
    {
      "inputs": [
        {
          "components": [
            {
              "internalType": "address[]",
              "name": "signers",
              "type": "address[]"
            },
            {
              "internalType": "bytes[]",
              "name": "signatures",
              "type": "bytes[]"
            },
            {
              "internalType": "uint256",
              "name": "validUntil",
              "type": "uint256"
            }
          ],
          "internalType": "struct SignedRequest.Request",
          "name": "request",
          "type": "tuple"
        }
      ],
      "name": "lockWA",
      "outputs": [],
      "stateMutability": "nonpayable",
      "type": "function"
    },
    {
      "inputs": [
        {
          "components": [
            {
              "internalType": "address[]",
              "name": "signers",
              "type": "address[]"
            },
            {
              "internalType": "bytes[]",
              "name": "signatures",
              "type": "bytes[]"
            },
            {
              "internalType": "uint256",
              "name": "validUntil",
              "type": "uint256"
            }
          ],
          "internalType": "struct SignedRequest.Request",
          "name": "request",
          "type": "tuple"
        }
      ],
      "name": "unlock",
      "outputs": [],
      "stateMutability": "nonpayable",
      "type": "function"
    }
  ],
  "bytecode": "0x608060405234801561001057600080fd5b506113ad806100206000396000f3fe608060405234801561001057600080fd5b50600436106100885760003560e01c8063b29246201161005b578063b292462014610105578063f55316e214610123578063f83d08ba1461013f578063fc9caccf1461014957610088565b8063840fdc781461008d5780638c8ca33c146100ab578063a4e2d634146100c9578063afa3363d146100e7575b600080fd5b610095610165565b6040516100a29190610fba565b60405180910390f35b6100b361016c565b6040516100c09190610ec7565b60405180910390f35b6100d1610190565b6040516100de9190610eac565b60405180910390f35b6100ef61019f565b6040516100fc9190610e8a565b60405180910390f35b61010d610372565b60405161011a9190610ec7565b60405180910390f35b61013d60048036038101906101389190610a9c565b610396565b005b6101476103f5565b005b610163600480360381019061015e9190610a9c565b6105a0565b005b62278d0081565b7f23bc67616a2a044eda092c2e061052264748650c13110f400d1f8b07ea07169781565b600061019a61062e565b905090565b6060600467ffffffffffffffff811180156101b957600080fd5b506040519080825280602002602001820160405280156101e85781602001602082028036833780820191505090505b50905063a4e2d63460e01b8160008151811061020057fe5b60200260200101907bffffffffffffffffffffffffffffffffffffffffffffffffffffffff191690817bffffffffffffffffffffffffffffffffffffffffffffffffffffffff19168152505063f83d08ba60e01b8160018151811061026157fe5b60200260200101907bffffffffffffffffffffffffffffffffffffffffffffffffffffffff191690817bffffffffffffffffffffffffffffffffffffffffffffffffffffffff19168152505063fc9caccf60e01b816002815181106102c257fe5b60200260200101907bffffffffffffffffffffffffffffffffffffffffffffffffffffffff191690817bffffffffffffffffffffffffffffffffffffffffffffffffffffffff19168152505063f55316e260e01b8160038151811061032357fe5b60200260200101907bffffffffffffffffffffffffffffffffffffffffffffffffffffffff191690817bffffffffffffffffffffffffffffffffffffffffffffffffffffffff19168152505090565b7feddf72c3924a29e4e241945dc4f894e0c6b3683315155981f7046b755800a31281565b6103e76002827f23bc67616a2a044eda092c2e061052264748650c13110f400d1f8b07ea07169784604001356040516020016103d3929190610ee2565b60405160208183030381529060405261063f565b6103f2306000610743565b50565b6000801b610401610794565b14610441576040517f08c379a000000000000000000000000000000000000000000000000000000000815260040161043890610f0b565b60405180910390fd5b600061044b61084b565b90503073ffffffffffffffffffffffffffffffffffffffff168173ffffffffffffffffffffffffffffffffffffffff161480610536575061048a61091d565b73ffffffffffffffffffffffffffffffffffffffff16638da5cb5b6040518163ffffffff1660e01b815260040160206040518083038186803b1580156104cf57600080fd5b505afa1580156104e3573d6000803e3d6000fd5b505050506040513d601f19601f820116820180604052508101906105079190610a4a565b73ffffffffffffffffffffffffffffffffffffffff168173ffffffffffffffffffffffffffffffffffffffff16145b806105535750610552816000806109259092919063ffffffff16565b5b610592576040517f08c379a000000000000000000000000000000000000000000000000000000000815260040161058990610f2b565b60405180910390fd5b61059d816001610743565b50565b6105f16003827feddf72c3924a29e4e241945dc4f894e0c6b3683315155981f7046b755800a31284604001356040516020016105dd929190610ee2565b60405160208183030381529060405261063f565b61062b8180600001906106049190610fd5565b600081811061060f57fe5b90506020020160208101906106249190610a21565b6001610743565b50565b600061063a6000610933565b905090565b600073__$937b6fee264ab6132cdeb8aa56d2145971$__63c236e73c909161066561091d565b73ffffffffffffffffffffffffffffffffffffffff1663cb73ac566040518163ffffffff1660e01b815260040160206040518083038186803b1580156106aa57600080fd5b505afa1580156106be573d6000803e3d6000fd5b505050506040513d601f19601f820116820180604052508101906106e29190610a73565b6106ea610794565b8787876040518763ffffffff1660e01b815260040161070e96959493929190610f4b565b60006040518083038186803b15801561072657600080fd5b505af415801561073a573d6000803e3d6000fd5b50505050505050565b61075781600061093f90919063ffffffff16565b7f52eb1c9a27e64a39bd5f27d11cbe4ad1fe1f1ed5c6f9e544d8894ccba33e916f8282604051610788929190610e61565b60405180910390a15050565b60003073ffffffffffffffffffffffffffffffffffffffff163373ffffffffffffffffffffffffffffffffffffffff161480156107d657506038600036905010155b156108415761083a60206000369050036000368080601f016020809104026020016040519081016040528093929190818152602001838380828437600081840152601f19601f8201169050808301925050505050505061094990919063ffffffff16565b9050610848565b6000801b90505b90565b60003073ffffffffffffffffffffffffffffffffffffffff163373ffffffffffffffffffffffffffffffffffffffff1614801561088d57506038600036905010155b156109165761090f6108f460346000369050036000368080601f016020809104026020016040519081016040528093929190818152602001838380828437600081840152601f19601f8201169050808301925050505050505061097190919063ffffffff16565b73ffffffffffffffffffffffffffffffffffffffff166109a8565b905061091a565b3390505b90565b600030905090565b600080309050509392505050565b60008030905050919050565b6000309050505050565b6000602082018351101561095c57600080fd5b60008260208501015190508091505092915050565b6000601482018351101561098457600080fd5b60006c01000000000000000000000000836020860101510490508091505092915050565b6000819050919050565b6000813590506109c181611332565b92915050565b6000815190506109d681611332565b92915050565b6000815190506109eb81611349565b92915050565b600060608284031215610a0357600080fd5b81905092915050565b600081359050610a1b81611360565b92915050565b600060208284031215610a3357600080fd5b6000610a41848285016109b2565b91505092915050565b600060208284031215610a5c57600080fd5b6000610a6a848285016109c7565b91505092915050565b600060208284031215610a8557600080fd5b6000610a93848285016109dc565b91505092915050565b600060208284031215610aae57600080fd5b600082013567ffffffffffffffff811115610ac857600080fd5b610ad4848285016109f1565b91505092915050565b6000610ae98383610b32565b60208301905092915050565b6000610b018383610c9f565b60208301905092915050565b6000610b1a848484610cae565b90509392505050565b610b2c81611226565b82525050565b610b3b81611226565b82525050565b6000610b4d838561108d565b9350610b588261102c565b8060005b85811015610b9157610b6e82846110f3565b610b788882610add565b9750610b8383611066565b925050600181019050610b5c565b5085925050509392505050565b6000610ba982611050565b610bb3818561109e565b9350610bbe83611036565b8060005b83811015610bef578151610bd68882610af5565b9750610be183611073565b925050600181019050610bc2565b5085935050505092915050565b6000610c0883856110af565b935083602084028501610c1a84611046565b8060005b87811015610c60578484038952610c3582846111b8565b610c40868284610b0d565b9550610c4b84611080565b935060208b019a505050600181019050610c1e565b50829750879450505050509392505050565b610c7b81611238565b82525050565b610c8a81611244565b82525050565b610c9981611244565b82525050565b610ca88161124e565b82525050565b6000610cba83856110d1565b9350610cc78385846112c9565b610cd08361130d565b840190509392505050565b6000610ce68261105b565b610cf081856110c0565b9350610d008185602086016112d8565b610d098161130d565b840191505092915050565b610d1d816112b7565b82525050565b6000610d306015836110e2565b91507f494e56414c49445f54585f41574152455f4841534800000000000000000000006000830152602082019050919050565b6000610d706024836110e2565b91507f4e4f545f46524f4d5f57414c4c45545f4f525f4f574e45525f4f525f4755415260008301527f4449414e000000000000000000000000000000000000000000000000000000006020830152604082019050919050565b600060608301610ddc600084018461110a565b8583036000870152610def838284610b41565b92505050610e006020840184611161565b8583036020870152610e13838284610bfc565b92505050610e24604084018461120f565b610e316040860182610e52565b508091505092915050565b8082525050565b610e4c816112ad565b82525050565b610e5b816112ad565b82525050565b6000604082019050610e766000830185610b23565b610e836020830184610c72565b9392505050565b60006020820190508181036000830152610ea48184610b9e565b905092915050565b6000602082019050610ec16000830184610c72565b92915050565b6000602082019050610edc6000830184610c81565b92915050565b6000604082019050610ef76000830185610c81565b610f046020830184610e43565b9392505050565b60006020820190508181036000830152610f2481610d23565b9050919050565b60006020820190508181036000830152610f4481610d63565b9050919050565b600060c082019050610f606000830189610e3c565b610f6d6020830188610c90565b610f7a6040830187610c90565b610f876060830186610d14565b8181036080830152610f998185610dc9565b905081810360a0830152610fad8184610cdb565b9050979650505050505050565b6000602082019050610fcf6000830184610e43565b92915050565b60008083356001602003843603038112610fee57600080fd5b80840192508235915067ffffffffffffffff82111561100c57600080fd5b60208301925060208202360383131561102457600080fd5b509250929050565b6000819050919050565b6000819050602082019050919050565b6000819050919050565b600081519050919050565b600081519050919050565b6000602082019050919050565b6000602082019050919050565b6000602082019050919050565b600082825260208201905092915050565b600082825260208201905092915050565b600082825260208201905092915050565b600082825260208201905092915050565b600082825260208201905092915050565b600082825260208201905092915050565b600061110260208401846109b2565b905092915050565b6000808335600160200384360303811261112357600080fd5b83810192508235915060208301925067ffffffffffffffff82111561114757600080fd5b60208202360384131561115957600080fd5b509250929050565b6000808335600160200384360303811261117a57600080fd5b83810192508235915060208301925067ffffffffffffffff82111561119e57600080fd5b6020820236038413156111b057600080fd5b509250929050565b600080833560016020038436030381126111d157600080fd5b83810192508235915060208301925067ffffffffffffffff8211156111f557600080fd5b60018202360384131561120757600080fd5b509250929050565b600061121e6020840184610a0c565b905092915050565b60006112318261128d565b9050919050565b60008115159050919050565b6000819050919050565b60007fffffffff0000000000000000000000000000000000000000000000000000000082169050919050565b60008190506112888261131e565b919050565b600073ffffffffffffffffffffffffffffffffffffffff82169050919050565b6000819050919050565b60006112c28261127a565b9050919050565b82818337600083830152505050565b60005b838110156112f65780820151818401526020810190506112db565b83811115611305576000848401525b50505050565bfe5b6000601f19601f8301169050919050565b6005811061132f5761132e61130b565b5b50565b61133b81611226565b811461134657600080fd5b50565b61135281611244565b811461135d57600080fd5b50565b611369816112ad565b811461137457600080fd5b5056fea2646970667358221220ee6c41185fbe8198749508eabf80c8e46576fdd47d6872e44fc5dc43f0888dfd64736f6c63430007030033",
  "linkReferences": {
    "contracts/version2_0/utils/SignedRequest.sol": {
      "SignedRequest": [
        {
          "length": 20,
          "start": 1635
        }
      ]
    }
  },
  "deployedLinkReferences": {
    "contracts/version2_0/utils/SignedRequest.sol": {
      "SignedRequest": [
        {
          "length": 20,
          "start": 1603
        }
      ]
    }
  }
}