{
  "_format": "hh-sol-artifact-1",
  "contractName": "BaseENSResolver",
  "sourceName": "contracts/thirdparty/ens/BaseENSResolver.sol",
  "abi": [
    {
      "anonymous": false,
      "inputs": [
        {
          "indexed": true,
          "internalType": "bytes32",
          "name": "_node",
          "type": "bytes32"
        },
        {
          "indexed": false,
          "internalType": "address",
          "name": "_addr",
          "type": "address"
        }
      ],
      "name": "AddrChanged",
      "type": "event"
    },
    {
      "anonymous": false,
      "inputs": [
        {
          "indexed": true,
          "internalType": "address",
          "name": "manager",
          "type": "address"
        }
      ],
      "name": "ManagerAdded",
      "type": "event"
    },
    {
      "anonymous": false,
      "inputs": [
        {
          "indexed": true,
          "internalType": "address",
          "name": "manager",
          "type": "address"
        }
      ],
      "name": "ManagerRemoved",
      "type": "event"
    },
    {
      "anonymous": false,
      "inputs": [
        {
          "indexed": true,
          "internalType": "bytes32",
          "name": "_node",
          "type": "bytes32"
        },
        {
          "indexed": false,
          "internalType": "string",
          "name": "_name",
          "type": "string"
        }
      ],
      "name": "NameChanged",
      "type": "event"
    },
    {
      "anonymous": false,
      "inputs": [
        {
          "indexed": true,
          "internalType": "address",
          "name": "previousOwner",
          "type": "address"
        },
        {
          "indexed": true,
          "internalType": "address",
          "name": "newOwner",
          "type": "address"
        }
      ],
      "name": "OwnershipTransferred",
      "type": "event"
    },
    {
      "inputs": [
        {
          "internalType": "address",
          "name": "manager",
          "type": "address"
        }
      ],
      "name": "addManager",
      "outputs": [],
      "stateMutability": "nonpayable",
      "type": "function"
    },
    {
      "inputs": [
        {
          "internalType": "bytes32",
          "name": "_node",
          "type": "bytes32"
        }
      ],
      "name": "addr",
      "outputs": [
        {
          "internalType": "address",
          "name": "",
          "type": "address"
        }
      ],
      "stateMutability": "view",
      "type": "function"
    },
    {
      "inputs": [],
      "name": "claimOwnership",
      "outputs": [],
      "stateMutability": "nonpayable",
      "type": "function"
    },
    {
      "inputs": [
        {
          "internalType": "address",
          "name": "addr",
          "type": "address"
        }
      ],
      "name": "isManager",
      "outputs": [
        {
          "internalType": "bool",
          "name": "",
          "type": "bool"
        }
      ],
      "stateMutability": "view",
      "type": "function"
    },
    {
      "inputs": [],
      "name": "managers",
      "outputs": [
        {
          "internalType": "address[]",
          "name": "",
          "type": "address[]"
        }
      ],
      "stateMutability": "view",
      "type": "function"
    },
    {
      "inputs": [
        {
          "internalType": "bytes32",
          "name": "_node",
          "type": "bytes32"
        }
      ],
      "name": "name",
      "outputs": [
        {
          "internalType": "string",
          "name": "",
          "type": "string"
        }
      ],
      "stateMutability": "view",
      "type": "function"
    },
    {
      "inputs": [],
      "name": "numManagers",
      "outputs": [
        {
          "internalType": "uint256",
          "name": "",
          "type": "uint256"
        }
      ],
      "stateMutability": "view",
      "type": "function"
    },
    {
      "inputs": [],
      "name": "owner",
      "outputs": [
        {
          "internalType": "address",
          "name": "",
          "type": "address"
        }
      ],
      "stateMutability": "view",
      "type": "function"
    },
    {
      "inputs": [],
      "name": "pendingOwner",
      "outputs": [
        {
          "internalType": "address",
          "name": "",
          "type": "address"
        }
      ],
      "stateMutability": "view",
      "type": "function"
    },
    {
      "inputs": [
        {
          "internalType": "address",
          "name": "manager",
          "type": "address"
        }
      ],
      "name": "removeManager",
      "outputs": [],
      "stateMutability": "nonpayable",
      "type": "function"
    },
    {
      "inputs": [],
      "name": "renounceOwnership",
      "outputs": [],
      "stateMutability": "nonpayable",
      "type": "function"
    },
    {
      "inputs": [
        {
          "internalType": "bytes32",
          "name": "_node",
          "type": "bytes32"
        },
        {
          "internalType": "address",
          "name": "_addr",
          "type": "address"
        }
      ],
      "name": "setAddr",
      "outputs": [],
      "stateMutability": "nonpayable",
      "type": "function"
    },
    {
      "inputs": [
        {
          "internalType": "bytes32",
          "name": "_node",
          "type": "bytes32"
        },
        {
          "internalType": "string",
          "name": "_name",
          "type": "string"
        }
      ],
      "name": "setName",
      "outputs": [],
      "stateMutability": "nonpayable",
      "type": "function"
    },
    {
      "inputs": [
        {
          "internalType": "bytes4",
          "name": "_interfaceID",
          "type": "bytes4"
        }
      ],
      "name": "supportsInterface",
      "outputs": [
        {
          "internalType": "bool",
          "name": "",
          "type": "bool"
        }
      ],
      "stateMutability": "pure",
      "type": "function"
    },
    {
      "inputs": [
        {
          "internalType": "address",
          "name": "newOwner",
          "type": "address"
        }
      ],
      "name": "transferOwnership",
      "outputs": [],
      "stateMutability": "nonpayable",
      "type": "function"
    }
  ],
  "bytecode": "0x608060405234801561001057600080fd5b50336000806101000a81548173ffffffffffffffffffffffffffffffffffffffff021916908373ffffffffffffffffffffffffffffffffffffffff160217905550611a80806100606000396000f3fe608060405234801561001057600080fd5b50600436106100f55760003560e01c80637737221311610097578063e30c397811610066578063e30c39781461049e578063e68777d7146104d2578063f2fde38b146104f0578063f3ae241514610534576100f5565b806377372213146103135780638da5cb5b146103d8578063ac18de431461040c578063d5fa2b0014610450576100f5565b80634e71e0c8116100d35780634e71e0c8146101f9578063691f343114610203578063715018a6146102aa57806372311705146102b4576100f5565b806301ffc9a7146100fa5780632d06177a1461015d5780633b3b57de146101a1575b600080fd5b6101456004803603602081101561011057600080fd5b8101908080357bffffffffffffffffffffffffffffffffffffffffffffffffffffffff1916906020019092919050505061058e565b60405180821515815260200191505060405180910390f35b61019f6004803603602081101561017357600080fd5b81019080803573ffffffffffffffffffffffffffffffffffffffff16906020019092919050505061067d565b005b6101cd600480360360208110156101b757600080fd5b810190808035906020019092919050505061074a565b604051808273ffffffffffffffffffffffffffffffffffffffff16815260200191505060405180910390f35b61020161078a565b005b61022f6004803603602081101561021957600080fd5b810190808035906020019092919050505061098f565b6040518080602001828103825283818151815260200191508051906020019080838360005b8381101561026f578082015181840152602081019050610254565b50505050905090810190601f16801561029c5780820380516001836020036101000a031916815260200191505b509250505060405180910390f35b6102b2610a47565b005b6102bc610bc6565b6040518080602001828103825283818151815260200191508051906020019060200280838360005b838110156102ff5780820151818401526020810190506102e4565b505050509050019250505060405180910390f35b6103d66004803603604081101561032957600080fd5b81019080803590602001909291908035906020019064010000000081111561035057600080fd5b82018360208201111561036257600080fd5b8035906020019184600183028401116401000000008311171561038457600080fd5b91908080601f016020809104026020016040519081016040528093929190818152602001838380828437600081840152601f19601f820116905080830192505050505050509192919290505050610bf6565b005b6103e0610d3d565b604051808273ffffffffffffffffffffffffffffffffffffffff16815260200191505060405180910390f35b61044e6004803603602081101561042257600080fd5b81019080803573ffffffffffffffffffffffffffffffffffffffff169060200190929190505050610d61565b005b61049c6004803603604081101561046657600080fd5b8101908080359060200190929190803573ffffffffffffffffffffffffffffffffffffffff169060200190929190505050610e92565b005b6104a6610fb4565b604051808273ffffffffffffffffffffffffffffffffffffffff16815260200191505060405180910390f35b6104da610fda565b6040518082815260200191505060405180910390f35b6105326004803603602081101561050657600080fd5b81019080803573ffffffffffffffffffffffffffffffffffffffff16906020019092919050505061100a565b005b6105766004803603602081101561054a57600080fd5b81019080803573ffffffffffffffffffffffffffffffffffffffff16906020019092919050505061120a565b60405180821515815260200191505060405180910390f35b60006301ffc9a760e01b7bffffffffffffffffffffffffffffffffffffffffffffffffffffffff1916827bffffffffffffffffffffffffffffffffffffffffffffffffffffffff191614806106275750633b3b57de60e01b7bffffffffffffffffffffffffffffffffffffffffffffffffffffffff1916827bffffffffffffffffffffffffffffffffffffffffffffffffffffffff1916145b80610676575063691f343160e01b7bffffffffffffffffffffffffffffffffffffffffffffffffffffffff1916827bffffffffffffffffffffffffffffffffffffffffffffffffffffffff1916145b9050919050565b60008054906101000a900473ffffffffffffffffffffffffffffffffffffffff1673ffffffffffffffffffffffffffffffffffffffff163373ffffffffffffffffffffffffffffffffffffffff161461073e576040517f08c379a000000000000000000000000000000000000000000000000000000000815260040180806020018281038252600c8152602001807f554e415554484f52495a4544000000000000000000000000000000000000000081525060200191505060405180910390fd5b6107478161123d565b50565b60006003600083815260200190815260200160002060000160009054906101000a900473ffffffffffffffffffffffffffffffffffffffff169050919050565b600160009054906101000a900473ffffffffffffffffffffffffffffffffffffffff1673ffffffffffffffffffffffffffffffffffffffff163373ffffffffffffffffffffffffffffffffffffffff161461084d576040517f08c379a000000000000000000000000000000000000000000000000000000000815260040180806020018281038252600c8152602001807f554e415554484f52495a4544000000000000000000000000000000000000000081525060200191505060405180910390fd5b600160009054906101000a900473ffffffffffffffffffffffffffffffffffffffff1673ffffffffffffffffffffffffffffffffffffffff1660008054906101000a900473ffffffffffffffffffffffffffffffffffffffff1673ffffffffffffffffffffffffffffffffffffffff167f8be0079c531659141344cd1fd0a4f28419497f9722a3daafe3b4186f6b6457e060405160405180910390a3600160009054906101000a900473ffffffffffffffffffffffffffffffffffffffff166000806101000a81548173ffffffffffffffffffffffffffffffffffffffff021916908373ffffffffffffffffffffffffffffffffffffffff1602179055506000600160006101000a81548173ffffffffffffffffffffffffffffffffffffffff021916908373ffffffffffffffffffffffffffffffffffffffff160217905550565b6060600360008381526020019081526020016000206001018054600181600116156101000203166002900480601f016020809104026020016040519081016040528092919081815260200182805460018160011615610100020316600290048015610a3b5780601f10610a1057610100808354040283529160200191610a3b565b820191906000526020600020905b815481529060010190602001808311610a1e57829003601f168201915b50505050509050919050565b60008054906101000a900473ffffffffffffffffffffffffffffffffffffffff1673ffffffffffffffffffffffffffffffffffffffff163373ffffffffffffffffffffffffffffffffffffffff1614610b08576040517f08c379a000000000000000000000000000000000000000000000000000000000815260040180806020018281038252600c8152602001807f554e415554484f52495a4544000000000000000000000000000000000000000081525060200191505060405180910390fd5b600073ffffffffffffffffffffffffffffffffffffffff1660008054906101000a900473ffffffffffffffffffffffffffffffffffffffff1673ffffffffffffffffffffffffffffffffffffffff167f8be0079c531659141344cd1fd0a4f28419497f9722a3daafe3b4186f6b6457e060405160405180910390a360008060006101000a81548173ffffffffffffffffffffffffffffffffffffffff021916908373ffffffffffffffffffffffffffffffffffffffff160217905550565b6060610bf17fae79206ff8d89355a31a27bc7df0c55f5fe15ce3ae94530629cd19b6712ea1f86112af565b905090565b610bff3361120a565b610c71576040517f08c379a000000000000000000000000000000000000000000000000000000000815260040180806020018281038252600b8152602001807f4e4f545f4d414e4147455200000000000000000000000000000000000000000081525060200191505060405180910390fd5b80600360008481526020019081526020016000206001019080519060200190610c9b9291906119ad565b50817fb7d29e911041e8d9b843369e890bcb72c9388692ba48b65ac54e7214c4c348f7826040518080602001828103825283818151815260200191508051906020019080838360005b83811015610cff578082015181840152602081019050610ce4565b50505050905090810190601f168015610d2c5780820380516001836020036101000a031916815260200191505b509250505060405180910390a25050565b60008054906101000a900473ffffffffffffffffffffffffffffffffffffffff1681565b60008054906101000a900473ffffffffffffffffffffffffffffffffffffffff1673ffffffffffffffffffffffffffffffffffffffff163373ffffffffffffffffffffffffffffffffffffffff1614610e22576040517f08c379a000000000000000000000000000000000000000000000000000000000815260040180806020018281038252600c8152602001807f554e415554484f52495a4544000000000000000000000000000000000000000081525060200191505060405180910390fd5b610e4c7fae79206ff8d89355a31a27bc7df0c55f5fe15ce3ae94530629cd19b6712ea1f8826113eb565b8073ffffffffffffffffffffffffffffffffffffffff167fef69f7d97228658c92417be1b16b19058315de71fecb435d07b7d23728b6bd3160405160405180910390a250565b610e9b3361120a565b610f0d576040517f08c379a000000000000000000000000000000000000000000000000000000000815260040180806020018281038252600b8152602001807f4e4f545f4d414e4147455200000000000000000000000000000000000000000081525060200191505060405180910390fd5b806003600084815260200190815260200160002060000160006101000a81548173ffffffffffffffffffffffffffffffffffffffff021916908373ffffffffffffffffffffffffffffffffffffffff160217905550817f52d7d861f09ab3d26239d492e8968629f95e9e318cf0b73bfddc441522a15fd282604051808273ffffffffffffffffffffffffffffffffffffffff16815260200191505060405180910390a25050565b600160009054906101000a900473ffffffffffffffffffffffffffffffffffffffff1681565b60006110057fae79206ff8d89355a31a27bc7df0c55f5fe15ce3ae94530629cd19b6712ea1f8611688565b905090565b60008054906101000a900473ffffffffffffffffffffffffffffffffffffffff1673ffffffffffffffffffffffffffffffffffffffff163373ffffffffffffffffffffffffffffffffffffffff16146110cb576040517f08c379a000000000000000000000000000000000000000000000000000000000815260040180806020018281038252600c8152602001807f554e415554484f52495a4544000000000000000000000000000000000000000081525060200191505060405180910390fd5b600073ffffffffffffffffffffffffffffffffffffffff168173ffffffffffffffffffffffffffffffffffffffff1614158015611154575060008054906101000a900473ffffffffffffffffffffffffffffffffffffffff1673ffffffffffffffffffffffffffffffffffffffff168173ffffffffffffffffffffffffffffffffffffffff1614155b6111c6576040517f08c379a000000000000000000000000000000000000000000000000000000000815260040180806020018281038252600f8152602001807f494e56414c49445f41444452455353000000000000000000000000000000000081525060200191505060405180910390fd5b80600160006101000a81548173ffffffffffffffffffffffffffffffffffffffff021916908373ffffffffffffffffffffffffffffffffffffffff16021790555050565b60006112367fae79206ff8d89355a31a27bc7df0c55f5fe15ce3ae94530629cd19b6712ea1f8836116ad565b9050919050565b6112697fae79206ff8d89355a31a27bc7df0c55f5fe15ce3ae94530629cd19b6712ea1f882600161170e565b8073ffffffffffffffffffffffffffffffffffffffff167f3b4a40cccf2058c593542587329dd385be4f0b588db5471fbd9598e56dd7093a60405160405180910390a250565b606060006002600084815260200190815260200160002090508060000180549050816002015414611348576040517f08c379a000000000000000000000000000000000000000000000000000000000815260040180806020018281038252600e8152602001807f4e4f545f4d41494e5441494e454400000000000000000000000000000000000081525060200191505060405180910390fd5b600260008481526020019081526020016000206000018054806020026020016040519081016040528092919081815260200182805480156113de57602002820191906000526020600020905b8160009054906101000a900473ffffffffffffffffffffffffffffffffffffffff1673ffffffffffffffffffffffffffffffffffffffff1681526020019060010190808311611394575b5050505050915050919050565b600060026000848152602001908152602001600020905060008160010160008473ffffffffffffffffffffffffffffffffffffffff1673ffffffffffffffffffffffffffffffffffffffff16815260200190815260200160002054905060008114156114bf576040517f08c379a000000000000000000000000000000000000000000000000000000000815260040180806020018281038252600a8152602001807f4e4f545f494e5f5345540000000000000000000000000000000000000000000081525060200191505060405180910390fd5b8160010160008473ffffffffffffffffffffffffffffffffffffffff1673ffffffffffffffffffffffffffffffffffffffff16815260200190815260200160002060009055600182600201600082825403925050819055506000826000018054905011156116825760008260000183600201548154811061153c57fe5b9060005260206000200160009054906101000a900473ffffffffffffffffffffffffffffffffffffffff1690508373ffffffffffffffffffffffffffffffffffffffff168173ffffffffffffffffffffffffffffffffffffffff161461163e57808360000160018403815481106115af57fe5b9060005260206000200160006101000a81548173ffffffffffffffffffffffffffffffffffffffff021916908373ffffffffffffffffffffffffffffffffffffffff160217905550818360010160008373ffffffffffffffffffffffffffffffffffffffff1673ffffffffffffffffffffffffffffffffffffffff168152602001908152602001600020819055505b8260000180548061164b57fe5b6001900381819060005260206000200160006101000a81549073ffffffffffffffffffffffffffffffffffffffff02191690559055505b50505050565b6000806002600084815260200190815260200160002090508060020154915050919050565b6000806002600085815260200190815260200160002060010160008473ffffffffffffffffffffffffffffffffffffffff1673ffffffffffffffffffffffffffffffffffffffff168152602001908152602001600020541415905092915050565b600060026000858152602001908152602001600020905060008160010160008573ffffffffffffffffffffffffffffffffffffffff1673ffffffffffffffffffffffffffffffffffffffff16815260200190815260200160002054146117dc576040517f08c379a000000000000000000000000000000000000000000000000000000000815260040180806020018281038252600e8152602001807f414c52454144595f494e5f53455400000000000000000000000000000000000081525060200191505060405180910390fd5b81156118cc578060020154816000018054905014611862576040517f08c379a00000000000000000000000000000000000000000000000000000000081526004018080602001828103825260198152602001807f50524556494f55534c595f4e4f545f4d41494e5441494c45440000000000000081525060200191505060405180910390fd5b80600001839080600181540180825580915050600190039060005260206000200160009091909190916101000a81548173ffffffffffffffffffffffffffffffffffffffff021916908373ffffffffffffffffffffffffffffffffffffffff16021790555061194a565b6000816000018054905014611949576040517f08c379a000000000000000000000000000000000000000000000000000000000815260040180806020018281038252600d8152602001807f4d5553545f4d41494e5441494e0000000000000000000000000000000000000081525060200191505060405180910390fd5b5b6001816002016000828254019250508190555080600201548160010160008573ffffffffffffffffffffffffffffffffffffffff1673ffffffffffffffffffffffffffffffffffffffff1681526020019081526020016000208190555050505050565b828054600181600116156101000203166002900490600052602060002090601f016020900481019282601f106119ee57805160ff1916838001178555611a1c565b82800160010185558215611a1c579182015b82811115611a1b578251825591602001919060010190611a00565b5b509050611a299190611a2d565b5090565b5b80821115611a46576000816000905550600101611a2e565b509056fea2646970667358221220c5cdf9f96ee547445a4a6e97e62b3ce5582020ec3e4cdccb9c9198f2d05e54a964736f6c63430007030033",
  "linkReferences": {},
  "deployedLinkReferences": {}
}