{
  "_format": "hh-sol-artifact-1",
  "contractName": "QuotaModule",
  "sourceName": "contracts/version2_0/modules/QuotaModule.sol",
  "abi": [
    {
      "inputs": [],
      "name": "CHANGE_DAILY_QUOTE_TYPEHASH",
      "outputs": [
        {
          "internalType": "bytes32",
          "name": "",
          "type": "bytes32"
        }
      ],
      "stateMutability": "view",
      "type": "function"
    },
    {
      "inputs": [],
      "name": "QUOTA_PENDING_PERIOD",
      "outputs": [
        {
          "internalType": "uint256",
          "name": "",
          "type": "uint256"
        }
      ],
      "stateMutability": "view",
      "type": "function"
    },
    {
      "inputs": [],
      "name": "TOUCH_GRACE_PERIOD",
      "outputs": [
        {
          "internalType": "uint256",
          "name": "",
          "type": "uint256"
        }
      ],
      "stateMutability": "view",
      "type": "function"
    },
    {
      "inputs": [],
      "name": "bindableMethods",
      "outputs": [
        {
          "internalType": "bytes4[]",
          "name": "methods",
          "type": "bytes4[]"
        }
      ],
      "stateMutability": "pure",
      "type": "function"
    },
    {
      "inputs": [
        {
          "internalType": "uint256",
          "name": "newQuota",
          "type": "uint256"
        }
      ],
      "name": "changeDailyQuota",
      "outputs": [],
      "stateMutability": "nonpayable",
      "type": "function"
    },
    {
      "inputs": [
        {
          "components": [
            {
              "internalType": "address[]",
              "name": "signers",
              "type": "address[]"
            },
            {
              "internalType": "bytes[]",
              "name": "signatures",
              "type": "bytes[]"
            },
            {
              "internalType": "uint256",
              "name": "validUntil",
              "type": "uint256"
            }
          ],
          "internalType": "struct SignedRequest.Request",
          "name": "request",
          "type": "tuple"
        },
        {
          "internalType": "uint256",
          "name": "newQuota",
          "type": "uint256"
        }
      ],
      "name": "changeDailyQuotaWA",
      "outputs": [],
      "stateMutability": "nonpayable",
      "type": "function"
    },
    {
      "inputs": [],
      "name": "getDailyQuota",
      "outputs": [
        {
          "internalType": "uint256",
          "name": "total",
          "type": "uint256"
        },
        {
          "internalType": "uint256",
          "name": "spent",
          "type": "uint256"
        },
        {
          "internalType": "uint256",
          "name": "available",
          "type": "uint256"
        }
      ],
      "stateMutability": "view",
      "type": "function"
    }
  ],
  "bytecode": "0x608060405234801561001057600080fd5b506111d2806100206000396000f3fe608060405234801561001057600080fd5b506004361061007d5760003560e01c80638bd79ddd1161005b5780638bd79ddd146100da578063afa3363d146100f8578063dd0041b714610116578063f1b43ae4146101365761007d565b80630e79687b146100825780632483a8541461009e578063840fdc78146100bc575b600080fd5b61009c60048036038101906100979190610905565b610152565b005b6100a66101b4565b6040516100b39190610d0a565b60405180910390f35b6100c46101d8565b6040516100d19190610e0b565b60405180910390f35b6100e26101df565b6040516100ef9190610e0b565b60405180910390f35b6101006101e6565b60405161010d9190610ce8565b60405180910390f35b61011e610358565b60405161012d93929190610e26565b60405180910390f35b610150600480360381019061014b9190610959565b610362565b005b6101a56002837ff6349fc1d62bad35ad935f050980052d0e232244a8298dbdc98a12389bd5886b85604001358560405160200161019193929190610d25565b60405160208183030381529060405261051b565b6101b081600061061f565b5050565b7ff6349fc1d62bad35ad935f050980052d0e232244a8298dbdc98a12389bd5886b81565b62278d0081565b6201518081565b6060600367ffffffffffffffff8111801561020057600080fd5b5060405190808252806020026020018201604052801561022f5781602001602082028036833780820191505090505b50905063dd0041b760e01b8160008151811061024757fe5b60200260200101907bffffffffffffffffffffffffffffffffffffffffffffffffffffffff191690817bffffffffffffffffffffffffffffffffffffffffffffffffffffffff19168152505063f1b43ae460e01b816001815181106102a857fe5b60200260200101907bffffffffffffffffffffffffffffffffffffffffffffffffffffffff191690817bffffffffffffffffffffffffffffffffffffffffffffffffffffffff191681525050630e79687b60e01b8160028151811061030957fe5b60200260200101907bffffffffffffffffffffffffffffffffffffffffffffffffffffffff191690817bffffffffffffffffffffffffffffffffffffffffffffffffffffffff19168152505090565b6000806000909192565b6000801b61036e610623565b146103ae576040517f08c379a00000000000000000000000000000000000000000000000000000000081526004016103a590610d5c565b60405180910390fd5b60006103b86106da565b90503073ffffffffffffffffffffffffffffffffffffffff168173ffffffffffffffffffffffffffffffffffffffff1614806104b457506103f76107ac565b73ffffffffffffffffffffffffffffffffffffffff16638da5cb5b6040518163ffffffff1660e01b815260040160206040518083038186803b15801561043c57600080fd5b505afa158015610450573d6000803e3d6000fd5b505050506040513d601f19601f8201168201806040525081019061047491906108b3565b73ffffffffffffffffffffffffffffffffffffffff168173ffffffffffffffffffffffffffffffffffffffff161480156104b357506104b16107b4565b155b5b6104f3576040517f08c379a00000000000000000000000000000000000000000000000000000000081526004016104ea90610d7c565b60405180910390fd5b61050a62278d0060006107c590919063ffffffff16565b610517826201518061061f565b5050565b600073__$937b6fee264ab6132cdeb8aa56d2145971$__63c236e73c90916105416107ac565b73ffffffffffffffffffffffffffffffffffffffff1663cb73ac566040518163ffffffff1660e01b815260040160206040518083038186803b15801561058657600080fd5b505afa15801561059a573d6000803e3d6000fd5b505050506040513d601f19601f820116820180604052508101906105be91906108dc565b6105c6610623565b8787876040518763ffffffff1660e01b81526004016105ea96959493929190610d9c565b60006040518083038186803b15801561060257600080fd5b505af4158015610616573d6000803e3d6000fd5b50505050505050565b5050565b60003073ffffffffffffffffffffffffffffffffffffffff163373ffffffffffffffffffffffffffffffffffffffff1614801561066557506038600036905010155b156106d0576106c960206000369050036000368080601f016020809104026020016040519081016040528093929190818152602001838380828437600081840152601f19601f820116905080830192505050505050506107cf90919063ffffffff16565b90506106d7565b6000801b90505b90565b60003073ffffffffffffffffffffffffffffffffffffffff163373ffffffffffffffffffffffffffffffffffffffff1614801561071c57506038600036905010155b156107a55761079e61078360346000369050036000368080601f016020809104026020016040519081016040528093929190818152602001838380828437600081840152601f19601f820116905080830192505050505050506107f790919063ffffffff16565b73ffffffffffffffffffffffffffffffffffffffff1661082e565b90506107a9565b3390505b90565b600030905090565b60006107c06000610838565b905090565b6000309050505050565b600060208201835110156107e257600080fd5b60008260208501015190508091505092915050565b6000601482018351101561080a57600080fd5b60006c01000000000000000000000000836020860101510490508091505092915050565b6000819050919050565b60008030905050919050565b60008135905061085381611157565b92915050565b60008151905061086881611157565b92915050565b60008151905061087d8161116e565b92915050565b60006060828403121561089557600080fd5b81905092915050565b6000813590506108ad81611185565b92915050565b6000602082840312156108c557600080fd5b60006108d384828501610859565b91505092915050565b6000602082840312156108ee57600080fd5b60006108fc8482850161086e565b91505092915050565b6000806040838503121561091857600080fd5b600083013567ffffffffffffffff81111561093257600080fd5b61093e85828601610883565b925050602061094f8582860161089e565b9150509250929050565b60006020828403121561096b57600080fd5b60006109798482850161089e565b91505092915050565b600061098e83836109c8565b60208301905092915050565b60006109a68383610b26565b60208301905092915050565b60006109bf848484610b35565b90509392505050565b6109d181611057565b82525050565b60006109e38385610ebe565b93506109ee82610e5d565b8060005b85811015610a2757610a048284610f24565b610a0e8882610982565b9750610a1983610e97565b9250506001810190506109f2565b5085925050509392505050565b6000610a3f82610e81565b610a498185610ecf565b9350610a5483610e67565b8060005b83811015610a85578151610a6c888261099a565b9750610a7783610ea4565b925050600181019050610a58565b5085935050505092915050565b6000610a9e8385610ee0565b935083602084028501610ab084610e77565b8060005b87811015610af6578484038952610acb8284610fe9565b610ad68682846109b2565b9550610ae184610eb1565b935060208b019a505050600181019050610ab4565b50829750879450505050509392505050565b610b1181611069565b82525050565b610b2081611069565b82525050565b610b2f81611073565b82525050565b6000610b418385610f02565b9350610b4e8385846110ee565b610b5783611132565b840190509392505050565b6000610b6d82610e8c565b610b778185610ef1565b9350610b878185602086016110fd565b610b9081611132565b840191505092915050565b610ba4816110dc565b82525050565b6000610bb7601583610f13565b91507f494e56414c49445f54585f41574152455f4841534800000000000000000000006000830152602082019050919050565b6000610bf7602983610f13565b91507f4e4f545f46524f4d5f57414c4c45545f4f525f4f574e45525f4f525f57414c4c60008301527f45545f4c4f434b454400000000000000000000000000000000000000000000006020830152604082019050919050565b600060608301610c636000840184610f3b565b8583036000870152610c768382846109d7565b92505050610c876020840184610f92565b8583036020870152610c9a838284610a92565b92505050610cab6040840184611040565b610cb86040860182610cd9565b508091505092915050565b8082525050565b610cd3816110d2565b82525050565b610ce2816110d2565b82525050565b60006020820190508181036000830152610d028184610a34565b905092915050565b6000602082019050610d1f6000830184610b08565b92915050565b6000606082019050610d3a6000830186610b08565b610d476020830185610cca565b610d546040830184610cca565b949350505050565b60006020820190508181036000830152610d7581610baa565b9050919050565b60006020820190508181036000830152610d9581610bea565b9050919050565b600060c082019050610db16000830189610cc3565b610dbe6020830188610b17565b610dcb6040830187610b17565b610dd86060830186610b9b565b8181036080830152610dea8185610c50565b905081810360a0830152610dfe8184610b62565b9050979650505050505050565b6000602082019050610e206000830184610cca565b92915050565b6000606082019050610e3b6000830186610cca565b610e486020830185610cca565b610e556040830184610cca565b949350505050565b6000819050919050565b6000819050602082019050919050565b6000819050919050565b600081519050919050565b600081519050919050565b6000602082019050919050565b6000602082019050919050565b6000602082019050919050565b600082825260208201905092915050565b600082825260208201905092915050565b600082825260208201905092915050565b600082825260208201905092915050565b600082825260208201905092915050565b600082825260208201905092915050565b6000610f336020840184610844565b905092915050565b60008083356001602003843603038112610f5457600080fd5b83810192508235915060208301925067ffffffffffffffff821115610f7857600080fd5b602082023603841315610f8a57600080fd5b509250929050565b60008083356001602003843603038112610fab57600080fd5b83810192508235915060208301925067ffffffffffffffff821115610fcf57600080fd5b602082023603841315610fe157600080fd5b509250929050565b6000808335600160200384360303811261100257600080fd5b83810192508235915060208301925067ffffffffffffffff82111561102657600080fd5b60018202360384131561103857600080fd5b509250929050565b600061104f602084018461089e565b905092915050565b6000611062826110b2565b9050919050565b6000819050919050565b60007fffffffff0000000000000000000000000000000000000000000000000000000082169050919050565b60008190506110ad82611143565b919050565b600073ffffffffffffffffffffffffffffffffffffffff82169050919050565b6000819050919050565b60006110e78261109f565b9050919050565b82818337600083830152505050565b60005b8381101561111b578082015181840152602081019050611100565b8381111561112a576000848401525b50505050565bfe5b6000601f19601f8301169050919050565b6005811061115457611153611130565b5b50565b61116081611057565b811461116b57600080fd5b50565b61117781611069565b811461118257600080fd5b50565b61118e816110d2565b811461119957600080fd5b5056fea26469706673582212202fa93d86e49fb6b692ce9580df6d1ec1df6cddc9b714b7f344b1c1af79f8de9c64736f6c63430007030033",
  "linkReferences": {
    "contracts/version2_0/utils/SignedRequest.sol": {
      "SignedRequest": [
        {
          "length": 20,
          "start": 1343
        }
      ]
    }
  },
  "deployedLinkReferences": {
    "contracts/version2_0/utils/SignedRequest.sol": {
      "SignedRequest": [
        {
          "length": 20,
          "start": 1311
        }
      ]
    }
  }
}