{
  "_format": "hh-sol-artifact-1",
  "contractName": "MockContract",
  "sourceName": "contracts/thirdparty/MockContract.sol",
  "abi": [
    {
      "inputs": [],
      "stateMutability": "nonpayable",
      "type": "constructor"
    },
    {
      "stateMutability": "payable",
      "type": "fallback"
    },
    {
      "inputs": [],
      "name": "MOCKS_LIST_END",
      "outputs": [
        {
          "internalType": "bytes",
          "name": "",
          "type": "bytes"
        }
      ],
      "stateMutability": "view",
      "type": "function"
    },
    {
      "inputs": [],
      "name": "MOCKS_LIST_END_HASH",
      "outputs": [
        {
          "internalType": "bytes32",
          "name": "",
          "type": "bytes32"
        }
      ],
      "stateMutability": "view",
      "type": "function"
    },
    {
      "inputs": [],
      "name": "MOCKS_LIST_START",
      "outputs": [
        {
          "internalType": "bytes32",
          "name": "",
          "type": "bytes32"
        }
      ],
      "stateMutability": "view",
      "type": "function"
    },
    {
      "inputs": [],
      "name": "SENTINEL_ANY_MOCKS",
      "outputs": [
        {
          "internalType": "bytes4",
          "name": "",
          "type": "bytes4"
        }
      ],
      "stateMutability": "view",
      "type": "function"
    },
    {
      "inputs": [
        {
          "internalType": "bytes",
          "name": "response",
          "type": "bytes"
        }
      ],
      "name": "givenAnyReturn",
      "outputs": [],
      "stateMutability": "nonpayable",
      "type": "function"
    },
    {
      "inputs": [
        {
          "internalType": "address",
          "name": "response",
          "type": "address"
        }
      ],
      "name": "givenAnyReturnAddress",
      "outputs": [],
      "stateMutability": "nonpayable",
      "type": "function"
    },
    {
      "inputs": [
        {
          "internalType": "bool",
          "name": "response",
          "type": "bool"
        }
      ],
      "name": "givenAnyReturnBool",
      "outputs": [],
      "stateMutability": "nonpayable",
      "type": "function"
    },
    {
      "inputs": [
        {
          "internalType": "uint256",
          "name": "response",
          "type": "uint256"
        }
      ],
      "name": "givenAnyReturnUint",
      "outputs": [],
      "stateMutability": "nonpayable",
      "type": "function"
    },
    {
      "inputs": [],
      "name": "givenAnyRevert",
      "outputs": [],
      "stateMutability": "nonpayable",
      "type": "function"
    },
    {
      "inputs": [
        {
          "internalType": "string",
          "name": "message",
          "type": "string"
        }
      ],
      "name": "givenAnyRevertWithMessage",
      "outputs": [],
      "stateMutability": "nonpayable",
      "type": "function"
    },
    {
      "inputs": [],
      "name": "givenAnyRunOutOfGas",
      "outputs": [],
      "stateMutability": "nonpayable",
      "type": "function"
    },
    {
      "inputs": [
        {
          "internalType": "bytes",
          "name": "call",
          "type": "bytes"
        },
        {
          "internalType": "bytes",
          "name": "response",
          "type": "bytes"
        }
      ],
      "name": "givenCalldataReturn",
      "outputs": [],
      "stateMutability": "nonpayable",
      "type": "function"
    },
    {
      "inputs": [
        {
          "internalType": "bytes",
          "name": "call",
          "type": "bytes"
        },
        {
          "internalType": "address",
          "name": "response",
          "type": "address"
        }
      ],
      "name": "givenCalldataReturnAddress",
      "outputs": [],
      "stateMutability": "nonpayable",
      "type": "function"
    },
    {
      "inputs": [
        {
          "internalType": "bytes",
          "name": "call",
          "type": "bytes"
        },
        {
          "internalType": "bool",
          "name": "response",
          "type": "bool"
        }
      ],
      "name": "givenCalldataReturnBool",
      "outputs": [],
      "stateMutability": "nonpayable",
      "type": "function"
    },
    {
      "inputs": [
        {
          "internalType": "bytes",
          "name": "call",
          "type": "bytes"
        },
        {
          "internalType": "uint256",
          "name": "response",
          "type": "uint256"
        }
      ],
      "name": "givenCalldataReturnUint",
      "outputs": [],
      "stateMutability": "nonpayable",
      "type": "function"
    },
    {
      "inputs": [
        {
          "internalType": "bytes",
          "name": "call",
          "type": "bytes"
        }
      ],
      "name": "givenCalldataRevert",
      "outputs": [],
      "stateMutability": "nonpayable",
      "type": "function"
    },
    {
      "inputs": [
        {
          "internalType": "bytes",
          "name": "call",
          "type": "bytes"
        },
        {
          "internalType": "string",
          "name": "message",
          "type": "string"
        }
      ],
      "name": "givenCalldataRevertWithMessage",
      "outputs": [],
      "stateMutability": "nonpayable",
      "type": "function"
    },
    {
      "inputs": [
        {
          "internalType": "bytes",
          "name": "call",
          "type": "bytes"
        }
      ],
      "name": "givenCalldataRunOutOfGas",
      "outputs": [],
      "stateMutability": "nonpayable",
      "type": "function"
    },
    {
      "inputs": [
        {
          "internalType": "bytes",
          "name": "call",
          "type": "bytes"
        },
        {
          "internalType": "bytes",
          "name": "response",
          "type": "bytes"
        }
      ],
      "name": "givenMethodReturn",
      "outputs": [],
      "stateMutability": "nonpayable",
      "type": "function"
    },
    {
      "inputs": [
        {
          "internalType": "bytes",
          "name": "call",
          "type": "bytes"
        },
        {
          "internalType": "address",
          "name": "response",
          "type": "address"
        }
      ],
      "name": "givenMethodReturnAddress",
      "outputs": [],
      "stateMutability": "nonpayable",
      "type": "function"
    },
    {
      "inputs": [
        {
          "internalType": "bytes",
          "name": "call",
          "type": "bytes"
        },
        {
          "internalType": "bool",
          "name": "response",
          "type": "bool"
        }
      ],
      "name": "givenMethodReturnBool",
      "outputs": [],
      "stateMutability": "nonpayable",
      "type": "function"
    },
    {
      "inputs": [
        {
          "internalType": "bytes",
          "name": "call",
          "type": "bytes"
        },
        {
          "internalType": "uint256",
          "name": "response",
          "type": "uint256"
        }
      ],
      "name": "givenMethodReturnUint",
      "outputs": [],
      "stateMutability": "nonpayable",
      "type": "function"
    },
    {
      "inputs": [
        {
          "internalType": "bytes",
          "name": "call",
          "type": "bytes"
        }
      ],
      "name": "givenMethodRevert",
      "outputs": [],
      "stateMutability": "nonpayable",
      "type": "function"
    },
    {
      "inputs": [
        {
          "internalType": "bytes",
          "name": "call",
          "type": "bytes"
        },
        {
          "internalType": "string",
          "name": "message",
          "type": "string"
        }
      ],
      "name": "givenMethodRevertWithMessage",
      "outputs": [],
      "stateMutability": "nonpayable",
      "type": "function"
    },
    {
      "inputs": [
        {
          "internalType": "bytes",
          "name": "call",
          "type": "bytes"
        }
      ],
      "name": "givenMethodRunOutOfGas",
      "outputs": [],
      "stateMutability": "nonpayable",
      "type": "function"
    },
    {
      "inputs": [],
      "name": "invocationCount",
      "outputs": [
        {
          "internalType": "uint256",
          "name": "",
          "type": "uint256"
        }
      ],
      "stateMutability": "view",
      "type": "function"
    },
    {
      "inputs": [
        {
          "internalType": "bytes",
          "name": "call",
          "type": "bytes"
        }
      ],
      "name": "invocationCountForCalldata",
      "outputs": [
        {
          "internalType": "uint256",
          "name": "",
          "type": "uint256"
        }
      ],
      "stateMutability": "view",
      "type": "function"
    },
    {
      "inputs": [
        {
          "internalType": "bytes",
          "name": "call",
          "type": "bytes"
        }
      ],
      "name": "invocationCountForMethod",
      "outputs": [
        {
          "internalType": "uint256",
          "name": "",
          "type": "uint256"
        }
      ],
      "stateMutability": "view",
      "type": "function"
    },
    {
      "inputs": [],
      "name": "reset",
      "outputs": [],
      "stateMutability": "nonpayable",
      "type": "function"
    },
    {
      "inputs": [
        {
          "internalType": "bytes4",
          "name": "methodId",
          "type": "bytes4"
        },
        {
          "internalType": "bytes",
          "name": "originalMsgData",
          "type": "bytes"
        }
      ],
      "name": "updateInvocationCount",
      "outputs": [],
      "stateMutability": "nonpayable",
      "type": "function"
    },
    {
      "stateMutability": "payable",
      "type": "receive"
    }
  ],
  "bytecode": "0x60806040523480156200001157600080fd5b506040518060400160405280600481526020017f30786666000000000000000000000000000000000000000000000000000000008152506000807f0100000000000000000000000000000000000000000000000000000000000000815260200190815260200160002090805190602001906200008f92919062000143565b507f0100000000000000000000000000000000000000000000000000000000000000600560007f01000000000000000000000000000000000000000000000000000000000000007bffffffffffffffffffffffffffffffffffffffffffffffffffffffff19167bffffffffffffffffffffffffffffffffffffffffffffffffffffffff1916815260200190815260200160002060006101000a81548163ffffffff021916908360e01c0217905550620001e9565b828054600181600116156101000203166002900490600052602060002090601f016020900481019282601f106200018657805160ff1916838001178555620001b7565b82800160010185558215620001b7579182015b82811115620001b657825182559160200191906001019062000199565b5b509050620001c69190620001ca565b5090565b5b80821115620001e5576000816000905550600101620001cb565b5090565b6138f580620001f96000396000f3fe6080604052600436106101d15760003560e01c806387abab65116100f7578063cf11ff5d11610095578063e211b8a511610064578063e211b8a514610f21578063eb861f6914610f38578063f07da22914610fbe578063f5afa9c114611008576101e0565b8063cf11ff5d14610d4e578063d6fe977814610df4578063d73ca0ac14610e7a578063d826f88f14610f0a576101e0565b8063aa788c55116100d1578063aa788c5514610b0c578063af21ac7814610b92578063b3901f2914610bcd578063c6ee167f14610c73576101e0565b806387abab65146108d05780639a1dc86b146109565780639eaeed7514610a31576101e0565b806358cbc0251161016f578063682b47971161013e578063682b4797146106d757806368ab6f2f146107285780636f400756146107ae5780637cd96ee414610840576101e0565b806358cbc0251461044e5780635a3855ab1461053f57806361936594146105d157806367aad04a146106ac576101e0565b806336ff0ee5116101ab57806336ff0ee5146102c65780633956dc6b146103035780634937c4f61461031a578063586984a4146103b4576101e0565b80630a20119f146101ea57806321fed4d6146102155780632ed238dc1461029b576101e0565b366101e0576101de611098565b005b6101e8611098565b005b3480156101f657600080fd5b506101ff61197e565b6040518082815260200191505060405180910390f35b34801561022157600080fd5b506102996004803603602081101561023857600080fd5b810190808035906020019064010000000081111561025557600080fd5b82018360208201111561026757600080fd5b8035906020019184600183028401116401000000008311171561028957600080fd5b9091929391929390505050611988565b005b3480156102a757600080fd5b506102b0611a22565b6040518082815260200191505060405180910390f35b3480156102d257600080fd5b50610301600480360360208110156102e957600080fd5b81019080803515159060200190929190505050611a62565b005b34801561030f57600080fd5b50610318611a8d565b005b34801561032657600080fd5b5061039e6004803603602081101561033d57600080fd5b810190808035906020019064010000000081111561035a57600080fd5b82018360208201111561036c57600080fd5b8035906020019184600183028401116401000000008311171561038e57600080fd5b9091929391929390505050611ab3565b6040518082815260200191505060405180910390f35b3480156103c057600080fd5b50610438600480360360208110156103d757600080fd5b81019080803590602001906401000000008111156103f457600080fd5b82018360208201111561040657600080fd5b8035906020019184600183028401116401000000008311171561042857600080fd5b9091929391929390505050611b71565b6040518082815260200191505060405180910390f35b34801561045a57600080fd5b5061053d6004803603604081101561047157600080fd5b8101908080357bffffffffffffffffffffffffffffffffffffffffffffffffffffffff19169060200190929190803590602001906401000000008111156104b757600080fd5b8201836020820111156104c957600080fd5b803590602001918460018302840111640100000000831117156104eb57600080fd5b91908080601f016020809104026020016040519081016040528093929190818152602001838380828437600081840152601f19601f820116905080830192505050505050509192919290505050611bc8565b005b34801561054b57600080fd5b506105cf6004803603604081101561056257600080fd5b810190808035906020019064010000000081111561057f57600080fd5b82018360208201111561059157600080fd5b803590602001918460018302840111640100000000831117156105b357600080fd5b9091929391929390803515159060200190929190505050611d6f565b005b3480156105dd57600080fd5b506106aa600480360360408110156105f457600080fd5b810190808035906020019064010000000081111561061157600080fd5b82018360208201111561062357600080fd5b8035906020019184600183028401116401000000008311171561064557600080fd5b90919293919293908035906020019064010000000081111561066657600080fd5b82018360208201111561067857600080fd5b8035906020019184600183028401116401000000008311171561069a57600080fd5b9091929391929390505050611de1565b005b3480156106b857600080fd5b506106c1611e79565b6040518082815260200191505060405180910390f35b3480156106e357600080fd5b50610726600480360360208110156106fa57600080fd5b81019080803573ffffffffffffffffffffffffffffffffffffffff169060200190929190505050611e9d565b005b34801561073457600080fd5b506107ac6004803603602081101561074b57600080fd5b810190808035906020019064010000000081111561076857600080fd5b82018360208201111561077a57600080fd5b8035906020019184600183028401116401000000008311171561079c57600080fd5b9091929391929390505050611ec7565b005b3480156107ba57600080fd5b5061083e600480360360408110156107d157600080fd5b81019080803590602001906401000000008111156107ee57600080fd5b82018360208201111561080057600080fd5b8035906020019184600183028401116401000000008311171561082257600080fd5b9091929391929390803515159060200190929190505050611f99565b005b34801561084c57600080fd5b5061085561200b565b6040518080602001828103825283818151815260200191508051906020019080838360005b8381101561089557808201518184015260208101905061087a565b50505050905090810190601f1680156108c25780820380516001836020036101000a031916815260200191505b509250505060405180910390f35b3480156108dc57600080fd5b50610954600480360360208110156108f357600080fd5b810190808035906020019064010000000081111561091057600080fd5b82018360208201111561092257600080fd5b8035906020019184600183028401116401000000008311171561094457600080fd5b9091929391929390505050612044565b005b34801561096257600080fd5b50610a2f6004803603604081101561097957600080fd5b810190808035906020019064010000000081111561099657600080fd5b8201836020820111156109a857600080fd5b803590602001918460018302840111640100000000831117156109ca57600080fd5b9091929391929390803590602001906401000000008111156109eb57600080fd5b8201836020820111156109fd57600080fd5b80359060200191846001830284011164010000000083111715610a1f57600080fd5b909192939192939050505061207e565b005b348015610a3d57600080fd5b50610b0a60048036036040811015610a5457600080fd5b8101908080359060200190640100000000811115610a7157600080fd5b820183602082011115610a8357600080fd5b80359060200191846001830284011164010000000083111715610aa557600080fd5b909192939192939080359060200190640100000000811115610ac657600080fd5b820183602082011115610ad857600080fd5b80359060200191846001830284011164010000000083111715610afa57600080fd5b90919293919293905050506121b3565b005b348015610b1857600080fd5b50610b9060048036036020811015610b2f57600080fd5b8101908080359060200190640100000000811115610b4c57600080fd5b820183602082011115610b5e57600080fd5b80359060200191846001830284011164010000000083111715610b8057600080fd5b9091929391929390505050612285565b005b348015610b9e57600080fd5b50610bcb60048036036020811015610bb557600080fd5b8101908080359060200190929190505050612357565b005b348015610bd957600080fd5b50610c7160048036036040811015610bf057600080fd5b8101908080359060200190640100000000811115610c0d57600080fd5b820183602082011115610c1f57600080fd5b80359060200191846001830284011164010000000083111715610c4157600080fd5b9091929391929390803573ffffffffffffffffffffffffffffffffffffffff16906020019092919050505061236b565b005b348015610c7f57600080fd5b50610d4c60048036036040811015610c9657600080fd5b8101908080359060200190640100000000811115610cb357600080fd5b820183602082011115610cc557600080fd5b80359060200191846001830284011164010000000083111715610ce757600080fd5b909192939192939080359060200190640100000000811115610d0857600080fd5b820183602082011115610d1a57600080fd5b80359060200191846001830284011164010000000083111715610d3c57600080fd5b90919293919293905050506123dc565b005b348015610d5a57600080fd5b50610df260048036036040811015610d7157600080fd5b8101908080359060200190640100000000811115610d8e57600080fd5b820183602082011115610da057600080fd5b80359060200191846001830284011164010000000083111715610dc257600080fd5b9091929391929390803573ffffffffffffffffffffffffffffffffffffffff169060200190929190505050612474565b005b348015610e0057600080fd5b50610e7860048036036020811015610e1757600080fd5b8101908080359060200190640100000000811115610e3457600080fd5b820183602082011115610e4657600080fd5b80359060200191846001830284011164010000000083111715610e6857600080fd5b90919293919293905050506124e5565b005b348015610e8657600080fd5b50610f0860048036036040811015610e9d57600080fd5b8101908080359060200190640100000000811115610eba57600080fd5b820183602082011115610ecc57600080fd5b80359060200191846001830284011164010000000083111715610eee57600080fd5b909192939192939080359060200190929190505050612536565b005b348015610f1657600080fd5b50610f1f612591565b005b348015610f2d57600080fd5b50610f36612dfb565b005b348015610f4457600080fd5b50610fbc60048036036020811015610f5b57600080fd5b8101908080359060200190640100000000811115610f7857600080fd5b820183602082011115610f8a57600080fd5b80359060200191846001830284011164010000000083111715610fac57600080fd5b9091929391929390505050612e47565b005b348015610fca57600080fd5b50610fd3612f2b565b60405180827bffffffffffffffffffffffffffffffffffffffffffffffffffffffff1916815260200191505060405180910390f35b34801561101457600080fd5b506110966004803603604081101561102b57600080fd5b810190808035906020019064010000000081111561104857600080fd5b82018360208201111561105a57600080fd5b8035906020019184600183028401116401000000008311171561107c57600080fd5b909192939192939080359060200190929190505050612f4f565b005b600080359050600160028111156110ab57fe5b6001600036604051808383808284378083019250505092505050908152602001604051809103902060009054906101000a900460ff1660028111156110ec57fe5b14156111d857600360003660405180838380828437808301925050509250505090815260200160405180910390206040517f08c379a000000000000000000000000000000000000000000000000000000000815260040180806020018281038252838181546001816001161561010002031660029004815260200191508054600181600116156101000203166002900480156111c95780601f1061119e576101008083540402835291602001916111c9565b820191906000526020600020905b8154815290600101906020018083116111ac57829003601f168201915b50509250505060405180910390fd5b6002808111156111e457fe5b6001600036604051808383808284378083019250505092505050908152602001604051809103902060009054906101000a900460ff16600281111561122557fe5b141561123457611233612faa565b5b6060600260003660405180838380828437808301925050509250505090815260200160405180910390208054600181600116156101000203166002900480601f0160208091040260200160405190810160405280929190818152602001828054600181600116156101000203166002900480156112f25780601f106112c7576101008083540402835291602001916112f2565b820191906000526020600020905b8154815290600101906020018083116112d557829003601f168201915b50505050509050600081511415611601576001600281111561131057fe5b60066000847bffffffffffffffffffffffffffffffffffffffffffffffffffffffff19167bffffffffffffffffffffffffffffffffffffffffffffffffffffffff1916815260200190815260200160002060009054906101000a900460ff16600281111561137a57fe5b141561148f5760086000837bffffffffffffffffffffffffffffffffffffffffffffffffffffffff19167bffffffffffffffffffffffffffffffffffffffffffffffffffffffff191681526020019081526020016000206040517f08c379a000000000000000000000000000000000000000000000000000000000815260040180806020018281038252838181546001816001161561010002031660029004815260200191508054600181600116156101000203166002900480156114805780601f1061145557610100808354040283529160200191611480565b820191906000526020600020905b81548152906001019060200180831161146357829003601f168201915b50509250505060405180910390fd5b60028081111561149b57fe5b60066000847bffffffffffffffffffffffffffffffffffffffffffffffffffffffff19167bffffffffffffffffffffffffffffffffffffffffffffffffffffffff1916815260200190815260200160002060009054906101000a900460ff16600281111561150557fe5b141561151457611513612faa565b5b60076000837bffffffffffffffffffffffffffffffffffffffffffffffffffffffff19167bffffffffffffffffffffffffffffffffffffffffffffffffffffffff191681526020019081526020016000208054600181600116156101000203166002900480601f0160208091040260200160405190810160405280929190818152602001828054600181600116156101000203166002900480156115f95780601f106115ce576101008083540402835291602001916115f9565b820191906000526020600020905b8154815290600101906020018083116115dc57829003601f168201915b505050505090505b6000815114156117cd576001600281111561161857fe5b600a60009054906101000a900460ff16600281111561163357fe5b14156116f957600c6040517f08c379a000000000000000000000000000000000000000000000000000000000815260040180806020018281038252838181546001816001161561010002031660029004815260200191508054600181600116156101000203166002900480156116ea5780601f106116bf576101008083540402835291602001916116ea565b820191906000526020600020905b8154815290600101906020018083116116cd57829003601f168201915b50509250505060405180910390fd5b60028081111561170557fe5b600a60009054906101000a900460ff16600281111561172057fe5b141561172f5761172e612faa565b5b600b8054600181600116156101000203166002900480601f0160208091040260200160405190810160405280929190818152602001828054600181600116156101000203166002900480156117c55780601f1061179a576101008083540402835291602001916117c5565b820191906000526020600020905b8154815290600101906020018083116117a857829003601f168201915b505050505090505b60603073ffffffffffffffffffffffffffffffffffffffff16620186a08460003660405160240180847bffffffffffffffffffffffffffffffffffffffffffffffffffffffff19168152602001806020018281038252848482818152602001925080828437600081840152601f19601f8201169050808301925050509450505050506040516020818303038152906040527f58cbc025000000000000000000000000000000000000000000000000000000007bffffffffffffffffffffffffffffffffffffffffffffffffffffffff19166020820180517bffffffffffffffffffffffffffffffffffffffffffffffffffffffff83818316178352505050506040518082805190602001908083835b602083106118ff57805182526020820191506020810190506020830392506118dc565b6001836020036101000a03801982511681845116808217855250505050505090500191505060006040518083038160008787f1925050503d8060008114611962576040519150601f19603f3d011682016040523d82523d6000602084013e611967565b606091505b50915050600081511461197657fe5b815182602001f35b6000600d54905090565b600260018383604051808383808284378083019250505092505050908152602001604051809103902060006101000a81548160ff021916908360028111156119cc57fe5b0217905550611a1e82828080601f016020809104026020016040519081016040528093929190818152602001838380828437600081840152601f19601f82011690508083019250505050505050612fcf565b5050565b6040518060400160405280600481526020017f30786666000000000000000000000000000000000000000000000000000000008152508051906020012081565b600081611a70576000611a73565b60015b60ff169050611a89611a84826130ba565b613115565b5050565b6002600a60006101000a81548160ff02191690836002811115611aac57fe5b0217905550565b600080611b0384848080601f016020809104026020016040519081016040528093929190818152602001838380828437600081840152601f19601f82011690508083019250505050505050613153565b905060096000600e548360405160200180838152602001827bffffffffffffffffffffffffffffffffffffffffffffffffffffffff19168152600401925050506040516020818303038152906040528051906020012081526020019081526020016000205491505092915050565b600060046000600e5485856040516020018084815260200183838082843780830192505050935050505060405160208183030381529060405280519060200120815260200190815260200160002054905092915050565b3073ffffffffffffffffffffffffffffffffffffffff163373ffffffffffffffffffffffffffffffffffffffff1614611c4c576040517f08c379a000000000000000000000000000000000000000000000000000000000815260040180806020018281038252602b815260200180613895602b913960400191505060405180910390fd5b6001600d60008282540192505081905550600160096000600e548560405160200180838152602001827bffffffffffffffffffffffffffffffffffffffffffffffffffffffff191681526004019250505060405160208183030381529060405280519060200120815260200190815260200160002060008282540192505081905550600160046000600e54846040516020018083815260200182805190602001908083835b60208310611d145780518252602082019150602081019050602083039250611cf1565b6001836020036101000a03801982511681845116808217855250505050505090500192505050604051602081830303815290604052805190602001208152602001908152602001600020600082825401925050819055505050565b600081611d7d576000611d80565b60015b60ff169050611ddb84848080601f016020809104026020016040519081016040528093929190818152602001838380828437600081840152601f19601f82011690508083019250505050505050611dd6836130ba565b6131e1565b50505050565b611e7384848080601f016020809104026020016040519081016040528093929190818152602001838380828437600081840152601f19601f8201169050808301925050505050505083838080601f016020809104026020016040519081016040528093929190818152602001838380828437600081840152601f19601f820116905080830192505050505050506131e1565b50505050565b7f010000000000000000000000000000000000000000000000000000000000000081565b611ec4611ebf8273ffffffffffffffffffffffffffffffffffffffff166130ba565b613115565b50565b6000611f1683838080601f016020809104026020016040519081016040528093929190818152602001838380828437600081840152601f19601f82011690508083019250505050505050613153565b9050600260066000837bffffffffffffffffffffffffffffffffffffffffffffffffffffffff19167bffffffffffffffffffffffffffffffffffffffffffffffffffffffff1916815260200190815260200160002060006101000a81548160ff02191690836002811115611f8657fe5b0217905550611f94816132f7565b505050565b600081611fa7576000611faa565b60015b60ff16905061200584848080601f016020809104026020016040519081016040528093929190818152602001838380828437600081840152601f19601f82011690508083019250505050505050612000836130ba565b6134fc565b50505050565b6040518060400160405280600481526020017f307866660000000000000000000000000000000000000000000000000000000081525081565b6001600a60006101000a81548160ff0219169083600281111561206357fe5b02179055508181600c91906120799291906135f0565b505050565b60006120cd85858080601f016020809104026020016040519081016040528093929190818152602001838380828437600081840152601f19601f82011690508083019250505050505050613153565b9050600160066000837bffffffffffffffffffffffffffffffffffffffffffffffffffffffff19167bffffffffffffffffffffffffffffffffffffffffffffffffffffffff1916815260200190815260200160002060006101000a81548160ff0219169083600281111561213d57fe5b0217905550828260086000847bffffffffffffffffffffffffffffffffffffffffffffffffffffffff19167bffffffffffffffffffffffffffffffffffffffffffffffffffffffff1916815260200190815260200160002091906121a29291906135f0565b506121ac816132f7565b5050505050565b6001808585604051808383808284378083019250505092505050908152602001604051809103902060006101000a81548160ff021916908360028111156121f657fe5b0217905550818160038686604051808383808284378083019250505092505050908152602001604051809103902091906122319291906135f0565b5061227f84848080601f016020809104026020016040519081016040528093929190818152602001838380828437600081840152601f19601f82011690508083019250505050505050612fcf565b50505050565b60006122d483838080601f016020809104026020016040519081016040528093929190818152602001838380828437600081840152601f19601f82011690508083019250505050505050613153565b9050600160066000837bffffffffffffffffffffffffffffffffffffffffffffffffffffffff19167bffffffffffffffffffffffffffffffffffffffffffffffffffffffff1916815260200190815260200160002060006101000a81548160ff0219169083600281111561234457fe5b0217905550612352816132f7565b505050565b612368612363826130ba565b613115565b50565b6123d783838080601f016020809104026020016040519081016040528093929190818152602001838380828437600081840152601f19601f820116905080830192505050505050506123d28373ffffffffffffffffffffffffffffffffffffffff166130ba565b6131e1565b505050565b61246e84848080601f016020809104026020016040519081016040528093929190818152602001838380828437600081840152601f19601f8201169050808301925050505050505083838080601f016020809104026020016040519081016040528093929190818152602001838380828437600081840152601f19601f820116905080830192505050505050506134fc565b50505050565b6124e083838080601f016020809104026020016040519081016040528093929190818152602001838380828437600081840152601f19601f820116905080830192505050505050506124db8373ffffffffffffffffffffffffffffffffffffffff166130ba565b6134fc565b505050565b61253282828080601f016020809104026020016040519081016040528093929190818152602001838380828437600081840152601f19601f82011690508083019250505050505050613115565b5050565b61258c83838080601f016020809104026020016040519081016040528093929190818152602001838380828437600081840152601f19601f82011690508083019250505050505050612587836130ba565b6131e1565b505050565b60606000807f010000000000000000000000000000000000000000000000000000000000000081526020019081526020016000208054600181600116156101000203166002900480601f0160208091040260200160405190810160405280929190818152602001828054600181600116156101000203166002900480156126595780601f1061262e57610100808354040283529160200191612659565b820191906000526020600020905b81548152906001019060200180831161263c57829003601f168201915b505050505090506000818051906020012090505b6040518060400160405280600481526020017f30786666000000000000000000000000000000000000000000000000000000008152508051906020012081146129475760006001836040518082805190602001908083835b602083106126e857805182526020820191506020810190506020830392506126c5565b6001836020036101000a038019825116818451168082178552505050505050905001915050908152602001604051809103902060006101000a81548160ff0219169083600281111561273657fe5b0217905550604051806020016040528060008152506002836040518082805190602001908083835b60208310612781578051825260208201915060208101905060208303925061275e565b6001836020036101000a038019825116818451168082178552505050505050905001915050908152602001604051809103902090805190602001906127c7929190613670565b50604051806020016040528060008152506003836040518082805190602001908083835b6020831061280e57805182526020820191506020810190506020830392506127eb565b6001836020036101000a038019825116818451168082178552505050505050905001915050908152602001604051809103902090805190602001906128549291906136f0565b506000808281526020019081526020016000208054600181600116156101000203166002900480601f0160208091040260200160405190810160405280929190818152602001828054600181600116156101000203166002900480156128fb5780601f106128d0576101008083540402835291602001916128fb565b820191906000526020600020905b8154815290600101906020018083116128de57829003601f168201915b50505050509150604051806020016040528060008152506000808381526020019081526020016000209080519060200190612937929190613670565b508180519060200120905061266d565b6040518060400160405280600481526020017f30786666000000000000000000000000000000000000000000000000000000008152506000807f0100000000000000000000000000000000000000000000000000000000000000815260200190815260200160002090805190602001906129c2929190613770565b506000600560007f01000000000000000000000000000000000000000000000000000000000000007bffffffffffffffffffffffffffffffffffffffffffffffffffffffff19167bffffffffffffffffffffffffffffffffffffffffffffffffffffffff1916815260200190815260200160002060009054906101000a900460e01b90505b7f01000000000000000000000000000000000000000000000000000000000000007bffffffffffffffffffffffffffffffffffffffffffffffffffffffff1916817bffffffffffffffffffffffffffffffffffffffffffffffffffffffff191614612ce6576000819050600060066000837bffffffffffffffffffffffffffffffffffffffffffffffffffffffff19167bffffffffffffffffffffffffffffffffffffffffffffffffffffffff1916815260200190815260200160002060006101000a81548160ff02191690836002811115612b1f57fe5b02179055506040518060200160405280600081525060076000837bffffffffffffffffffffffffffffffffffffffffffffffffffffffff19167bffffffffffffffffffffffffffffffffffffffffffffffffffffffff191681526020019081526020016000209080519060200190612b98929190613670565b506040518060200160405280600081525060086000837bffffffffffffffffffffffffffffffffffffffffffffffffffffffff19167bffffffffffffffffffffffffffffffffffffffffffffffffffffffff191681526020019081526020016000209080519060200190612c0d9291906136f0565b5060056000827bffffffffffffffffffffffffffffffffffffffffffffffffffffffff19167bffffffffffffffffffffffffffffffffffffffffffffffffffffffff1916815260200190815260200160002060009054906101000a900460e01b9150600060e01b60056000837bffffffffffffffffffffffffffffffffffffffffffffffffffffffff19167bffffffffffffffffffffffffffffffffffffffffffffffffffffffff1916815260200190815260200160002060006101000a81548163ffffffff021916908360e01c021790555050612a47565b7f0100000000000000000000000000000000000000000000000000000000000000600560007f01000000000000000000000000000000000000000000000000000000000000007bffffffffffffffffffffffffffffffffffffffffffffffffffffffff19167bffffffffffffffffffffffffffffffffffffffffffffffffffffffff1916815260200190815260200160002060006101000a81548163ffffffff021916908360e01c021790555060405180602001604052806000815250600b9080519060200190612db8929190613670565b506000600a60006101000a81548160ff02191690836002811115612dd857fe5b02179055506000600d819055506001600e60008282540192505081905550505050565b6001600a60006101000a81548160ff02191690836002811115612e1a57fe5b021790555060405180602001604052806000815250600c9080519060200190612e449291906136f0565b50565b6001808383604051808383808284378083019250505092505050908152602001604051809103902060006101000a81548160ff02191690836002811115612e8a57fe5b0217905550604051806020016040528060008152506003838360405180838380828437808301925050509250505090815260200160405180910390209080519060200190612ed99291906136f0565b50612f2782828080601f016020809104026020016040519081016040528093929190818152602001838380828437600081840152601f19601f82011690508083019250505050505050612fcf565b5050565b7f010000000000000000000000000000000000000000000000000000000000000081565b612fa583838080601f016020809104026020016040519081016040528093929190818152602001838380828437600081840152601f19601f82011690508083019250505050505050612fa0836130ba565b6134fc565b505050565b5b600115612fcd5760006060600060c060008060066107d05a03f1905050612fab565b565b600081805190602001209050600080600083815260200190815260200160002080546001816001161561010002031660029004905014156130b6576000807f01000000000000000000000000000000000000000000000000000000000000008152602001908152602001600020600080838152602001908152602001600020908054600181600116156101000203166002900461306d9291906137f0565b50816000807f0100000000000000000000000000000000000000000000000000000000000000815260200190815260200160002090805190602001906130b4929190613770565b505b5050565b6060602067ffffffffffffffff811180156130d457600080fd5b506040519080825280601f01601f1916602001820160405280156131075781602001600182028036833780820191505090505b509050816020820152919050565b6000600a60006101000a81548160ff0219169083600281111561313457fe5b021790555080600b908051906020019061314f929190613770565b5050565b60008060005b60048110156131d7576008810260ff60f81b85838151811061317757fe5b602001015160f81c60f81b167effffffffffffffffffffffffffffffffffffffffffffffffffffffffffffff19167bffffffffffffffffffffffffffffffffffffffffffffffffffffffff1916901c821791508080600101915050613159565b5080915050919050565b60006001836040518082805190602001908083835b6020831061321957805182526020820191506020810190506020830392506131f6565b6001836020036101000a038019825116818451168082178552505050505050905001915050908152602001604051809103902060006101000a81548160ff0219169083600281111561326757fe5b0217905550806002836040518082805190602001908083835b602083106132a35780518252602082019150602081019050602083039250613280565b6001836020036101000a038019825116818451168082178552505050505050905001915050908152602001604051809103902090805190602001906132e9929190613770565b506132f382612fcf565b5050565b600060e01b60056000837bffffffffffffffffffffffffffffffffffffffffffffffffffffffff19167bffffffffffffffffffffffffffffffffffffffffffffffffffffffff1916815260200190815260200160002060009054906101000a900460e01b7bffffffffffffffffffffffffffffffffffffffffffffffffffffffff191614156134f957600560007f01000000000000000000000000000000000000000000000000000000000000007bffffffffffffffffffffffffffffffffffffffffffffffffffffffff19167bffffffffffffffffffffffffffffffffffffffffffffffffffffffff1916815260200190815260200160002060009054906101000a900460e01b60056000837bffffffffffffffffffffffffffffffffffffffffffffffffffffffff19167bffffffffffffffffffffffffffffffffffffffffffffffffffffffff1916815260200190815260200160002060006101000a81548163ffffffff021916908360e01c021790555080600560007f01000000000000000000000000000000000000000000000000000000000000007bffffffffffffffffffffffffffffffffffffffffffffffffffffffff19167bffffffffffffffffffffffffffffffffffffffffffffffffffffffff1916815260200190815260200160002060006101000a81548163ffffffff021916908360e01c02179055505b50565b600061350783613153565b9050600060066000837bffffffffffffffffffffffffffffffffffffffffffffffffffffffff19167bffffffffffffffffffffffffffffffffffffffffffffffffffffffff1916815260200190815260200160002060006101000a81548160ff0219169083600281111561357757fe5b02179055508160076000837bffffffffffffffffffffffffffffffffffffffffffffffffffffffff19167bffffffffffffffffffffffffffffffffffffffffffffffffffffffff1916815260200190815260200160002090805190602001906135e1929190613770565b506135eb816132f7565b505050565b828054600181600116156101000203166002900490600052602060002090601f016020900481019282601f1061363157803560ff191683800117855561365f565b8280016001018555821561365f579182015b8281111561365e578235825591602001919060010190613643565b5b50905061366c9190613877565b5090565b828054600181600116156101000203166002900490600052602060002090601f016020900481019282601f106136b157805160ff19168380011785556136df565b828001600101855582156136df579182015b828111156136de5782518255916020019190600101906136c3565b5b5090506136ec9190613877565b5090565b828054600181600116156101000203166002900490600052602060002090601f016020900481019282601f1061373157805160ff191683800117855561375f565b8280016001018555821561375f579182015b8281111561375e578251825591602001919060010190613743565b5b50905061376c9190613877565b5090565b828054600181600116156101000203166002900490600052602060002090601f016020900481019282601f106137b157805160ff19168380011785556137df565b828001600101855582156137df579182015b828111156137de5782518255916020019190600101906137c3565b5b5090506137ec9190613877565b5090565b828054600181600116156101000203166002900490600052602060002090601f016020900481019282601f106138295780548555613866565b8280016001018555821561386657600052602060002091601f016020900482015b8281111561386557825482559160010191906001019061384a565b5b5090506138739190613877565b5090565b5b80821115613890576000816000905550600101613878565b509056fe43616e206f6e6c792062652063616c6c65642066726f6d2074686520636f6e747261637420697473656c66a2646970667358221220092f9d68e5a423b846a5c290c3dfef51f2cc52edf504a4e9a0a1e2e8d2ad032364736f6c63430007030033",
  "linkReferences": {},
  "deployedLinkReferences": {}
}