{
  "_format": "hh-sol-artifact-1",
  "contractName": "ApprovedTransferModule",
  "sourceName": "contracts/version2_0/modules/ApprovedTransferModule.sol",
  "abi": [
    {
      "anonymous": false,
      "inputs": [
        {
          "indexed": false,
          "internalType": "address",
          "name": "token",
          "type": "address"
        },
        {
          "indexed": false,
          "internalType": "address",
          "name": "spender",
          "type": "address"
        },
        {
          "indexed": false,
          "internalType": "uint256",
          "name": "amount",
          "type": "uint256"
        }
      ],
      "name": "Approved",
      "type": "event"
    },
    {
      "anonymous": false,
      "inputs": [
        {
          "indexed": false,
          "internalType": "address",
          "name": "to",
          "type": "address"
        },
        {
          "indexed": false,
          "internalType": "uint256",
          "name": "value",
          "type": "uint256"
        },
        {
          "indexed": false,
          "internalType": "bytes",
          "name": "data",
          "type": "bytes"
        }
      ],
      "name": "ContractCalled",
      "type": "event"
    },
    {
      "anonymous": false,
      "inputs": [
        {
          "indexed": false,
          "internalType": "address",
          "name": "token",
          "type": "address"
        },
        {
          "indexed": false,
          "internalType": "address",
          "name": "to",
          "type": "address"
        },
        {
          "indexed": false,
          "internalType": "uint256",
          "name": "amount",
          "type": "uint256"
        },
        {
          "indexed": false,
          "internalType": "bytes",
          "name": "logdata",
          "type": "bytes"
        }
      ],
      "name": "Transfered",
      "type": "event"
    },
    {
      "inputs": [],
      "name": "APPROVE_THEN_CALL_CONTRACT_TYPEHASH",
      "outputs": [
        {
          "internalType": "bytes32",
          "name": "",
          "type": "bytes32"
        }
      ],
      "stateMutability": "view",
      "type": "function"
    },
    {
      "inputs": [],
      "name": "APPROVE_TOKEN_TYPEHASH",
      "outputs": [
        {
          "internalType": "bytes32",
          "name": "",
          "type": "bytes32"
        }
      ],
      "stateMutability": "view",
      "type": "function"
    },
    {
      "inputs": [],
      "name": "CALL_CONTRACT_TYPEHASH",
      "outputs": [
        {
          "internalType": "bytes32",
          "name": "",
          "type": "bytes32"
        }
      ],
      "stateMutability": "view",
      "type": "function"
    },
    {
      "inputs": [],
      "name": "TOUCH_GRACE_PERIOD",
      "outputs": [
        {
          "internalType": "uint256",
          "name": "",
          "type": "uint256"
        }
      ],
      "stateMutability": "view",
      "type": "function"
    },
    {
      "inputs": [],
      "name": "TRANSFER_TOKEN_TYPEHASH",
      "outputs": [
        {
          "internalType": "bytes32",
          "name": "",
          "type": "bytes32"
        }
      ],
      "stateMutability": "view",
      "type": "function"
    },
    {
      "inputs": [
        {
          "components": [
            {
              "internalType": "address[]",
              "name": "signers",
              "type": "address[]"
            },
            {
              "internalType": "bytes[]",
              "name": "signatures",
              "type": "bytes[]"
            },
            {
              "internalType": "uint256",
              "name": "validUntil",
              "type": "uint256"
            }
          ],
          "internalType": "struct SignedRequest.Request",
          "name": "request",
          "type": "tuple"
        },
        {
          "internalType": "address",
          "name": "token",
          "type": "address"
        },
        {
          "internalType": "address",
          "name": "to",
          "type": "address"
        },
        {
          "internalType": "uint256",
          "name": "amount",
          "type": "uint256"
        },
        {
          "internalType": "uint256",
          "name": "value",
          "type": "uint256"
        },
        {
          "internalType": "bytes",
          "name": "data",
          "type": "bytes"
        }
      ],
      "name": "approveThenCallContractWA",
      "outputs": [
        {
          "internalType": "bytes",
          "name": "returnData",
          "type": "bytes"
        }
      ],
      "stateMutability": "nonpayable",
      "type": "function"
    },
    {
      "inputs": [
        {
          "components": [
            {
              "internalType": "address[]",
              "name": "signers",
              "type": "address[]"
            },
            {
              "internalType": "bytes[]",
              "name": "signatures",
              "type": "bytes[]"
            },
            {
              "internalType": "uint256",
              "name": "validUntil",
              "type": "uint256"
            }
          ],
          "internalType": "struct SignedRequest.Request",
          "name": "request",
          "type": "tuple"
        },
        {
          "internalType": "address",
          "name": "token",
          "type": "address"
        },
        {
          "internalType": "address",
          "name": "to",
          "type": "address"
        },
        {
          "internalType": "uint256",
          "name": "amount",
          "type": "uint256"
        }
      ],
      "name": "approveTokenWA",
      "outputs": [],
      "stateMutability": "nonpayable",
      "type": "function"
    },
    {
      "inputs": [],
      "name": "bindableMethods",
      "outputs": [
        {
          "internalType": "bytes4[]",
          "name": "methods",
          "type": "bytes4[]"
        }
      ],
      "stateMutability": "pure",
      "type": "function"
    },
    {
      "inputs": [
        {
          "components": [
            {
              "internalType": "address[]",
              "name": "signers",
              "type": "address[]"
            },
            {
              "internalType": "bytes[]",
              "name": "signatures",
              "type": "bytes[]"
            },
            {
              "internalType": "uint256",
              "name": "validUntil",
              "type": "uint256"
            }
          ],
          "internalType": "struct SignedRequest.Request",
          "name": "request",
          "type": "tuple"
        },
        {
          "internalType": "address",
          "name": "to",
          "type": "address"
        },
        {
          "internalType": "uint256",
          "name": "value",
          "type": "uint256"
        },
        {
          "internalType": "bytes",
          "name": "data",
          "type": "bytes"
        }
      ],
      "name": "callContractWA",
      "outputs": [
        {
          "internalType": "bytes",
          "name": "returnData",
          "type": "bytes"
        }
      ],
      "stateMutability": "nonpayable",
      "type": "function"
    },
    {
      "inputs": [
        {
          "components": [
            {
              "internalType": "address[]",
              "name": "signers",
              "type": "address[]"
            },
            {
              "internalType": "bytes[]",
              "name": "signatures",
              "type": "bytes[]"
            },
            {
              "internalType": "uint256",
              "name": "validUntil",
              "type": "uint256"
            }
          ],
          "internalType": "struct SignedRequest.Request",
          "name": "request",
          "type": "tuple"
        },
        {
          "internalType": "address",
          "name": "token",
          "type": "address"
        },
        {
          "internalType": "address",
          "name": "to",
          "type": "address"
        },
        {
          "internalType": "uint256",
          "name": "amount",
          "type": "uint256"
        },
        {
          "internalType": "bytes",
          "name": "logdata",
          "type": "bytes"
        }
      ],
      "name": "transferTokenWA",
      "outputs": [],
      "stateMutability": "nonpayable",
      "type": "function"
    }
  ],
  "bytecode": "0x608060405234801561001057600080fd5b506122d4806100206000396000f3fe608060405234801561001057600080fd5b506004361061009e5760003560e01c8063afa3363d11610066578063afa3363d14610137578063b345c8c114610155578063b6c1ae6e14610173578063cfea1639146101a3578063dd5a02ac146101d35761009e565b80630c37ef4c146100a357806344b5087b146100c1578063840fdc78146100df57806390cf3cf1146100fd5780639cdef1e514610119575b600080fd5b6100ab6101ef565b6040516100b89190611bd1565b60405180910390f35b6100c9610213565b6040516100d69190611bd1565b60405180910390f35b6100e7610237565b6040516100f49190611ef3565b60405180910390f35b61011760048036038101906101129190611200565b61023e565b005b6101216102a7565b60405161012e9190611bd1565b60405180910390f35b61013f6102cb565b60405161014c9190611baf565b60405180910390f35b61015d61049e565b60405161016a9190611bd1565b60405180910390f35b61018d600480360381019061018891906113e4565b6104c2565b60405161019a9190611d62565b60405180910390f35b6101bd60048036038101906101b89190611325565b610549565b6040516101ca9190611d62565b60405180910390f35b6101ed60048036038101906101e8919061127b565b6105e7565b005b7fea2afa4a60591c3738c8a7241f330b7bab903f514659a3d21941f5c8c208849481565b7f460cccd4c64eaea496cae933bcfb9402aa640c682fe63d59a5fbd43bdaa964e181565b62278d0081565b6102956002857fd7b3a1e7199e0948d64dcc8e9028685032a303d22a81d0f78508fa1069ba71a78760400135878787604051602001610281959493929190611bec565b60405160208183030381529060405261066c565b6102a0838383610770565b5050505050565b7f6194347cee00af7117f88596e3b37e4828460648b01af4447d565beb85d1886081565b6060600467ffffffffffffffff811180156102e557600080fd5b506040519080825280602002602001820160405280156103145781602001602082028036833780820191505090505b50905063dd5a02ac60e01b8160008151811061032c57fe5b60200260200101907bffffffffffffffffffffffffffffffffffffffffffffffffffffffff191690817bffffffffffffffffffffffffffffffffffffffffffffffffffffffff19168152505063b6c1ae6e60e01b8160018151811061038d57fe5b60200260200101907bffffffffffffffffffffffffffffffffffffffffffffffffffffffff191690817bffffffffffffffffffffffffffffffffffffffffffffffffffffffff1916815250506390cf3cf160e01b816002815181106103ee57fe5b60200260200101907bffffffffffffffffffffffffffffffffffffffffffffffffffffffff191690817bffffffffffffffffffffffffffffffffffffffffffffffffffffffff19168152505063cfea163960e01b8160038151811061044f57fe5b60200260200101907bffffffffffffffffffffffffffffffffffffffffffffffffffffffff191690817bffffffffffffffffffffffffffffffffffffffffffffffffffffffff19168152505090565b7fd7b3a1e7199e0948d64dcc8e9028685032a303d22a81d0f78508fa1069ba71a781565b60606105326002877f460cccd4c64eaea496cae933bcfb9402aa640c682fe63d59a5fbd43bdaa964e1896040013589898989604051610502929190611a3f565b604051809103902060405160200161051e959493929190611d0f565b60405160208183030381529060405261066c565b61053e8585858561088a565b905095945050505050565b6060807f6194347cee00af7117f88596e3b37e4828460648b01af4447d565beb85d188608960400135898989898989604051610586929190611a3f565b60405180910390206040516020016105a49796959493929190611ca0565b60405160208183030381529060405290506105c160028a8361066c565b6105cc888888610770565b506105d98786868661088a565b915050979650505050505050565b6106576002877fea2afa4a60591c3738c8a7241f330b7bab903f514659a3d21941f5c8c208849489604001358989898989604051610626929190611a3f565b604051809103902060405160200161064396959493929190611c3f565b60405160208183030381529060405261066c565b6106648585858585610a71565b505050505050565b600073__$937b6fee264ab6132cdeb8aa56d2145971$__63c236e73c9091610692610ac2565b73ffffffffffffffffffffffffffffffffffffffff1663cb73ac566040518163ffffffff1660e01b815260040160206040518083038186803b1580156106d757600080fd5b505afa1580156106eb573d6000803e3d6000fd5b505050506040513d601f19601f8201168201806040525081019061070f91906111d7565b610717610aca565b8787876040518763ffffffff1660e01b815260040161073b96959493929190611e84565b60006040518083038186803b15801561075357600080fd5b505af4158015610767573d6000803e3d6000fd5b50505050505050565b6000808473ffffffffffffffffffffffffffffffffffffffff1663dd62ed3e30866040518363ffffffff1660e01b81526004016107ae929190611a6f565b60206040518083038186803b1580156107c657600080fd5b505afa1580156107da573d6000803e3d6000fd5b505050506040513d601f19601f820116820180604052508101906107fe919061147c565b905080831461082957600081111561081d5761081c85856000610b81565b5b610828858585610b81565b5b80831115610847576108448184610cef90919063ffffffff16565b91505b7f80da462ebfbe41cfc9bc015e7a9a3c7a2a73dbccede72d8ceb583606c27f8f9085858560405161087a93929190611a98565b60405180910390a1509392505050565b60608473ffffffffffffffffffffffffffffffffffffffff163073ffffffffffffffffffffffffffffffffffffffff1614156108fb576040517f08c379a00000000000000000000000000000000000000000000000000000000081526004016108f290611de4565b60405180910390fd5b60006109076000610d3f565b73ffffffffffffffffffffffffffffffffffffffff1663f182178387670de0b6b3a76400006040518363ffffffff1660e01b8152600401610949929190611b1d565b60206040518083038186803b15801561096157600080fd5b505afa158015610975573d6000803e3d6000fd5b505050506040513d601f19601f82011682018060405250810190610999919061147c565b146109d9576040517f08c379a00000000000000000000000000000000000000000000000000000000081526004016109d090611e04565b60405180910390fd5b610a2a6001868686868080601f016020809104026020016040519081016040528093929190818152602001838380828437600081840152601f19601f82011690508083019250505050505050610d46565b90507f9c8b829578b661bfe74f6d7fa943ea59c34dc54ed4892cd2ceb1e24a2e3ce23e85858585604051610a619493929190611b6f565b60405180910390a1949350505050565b610a7c858585610f62565b7f724eb553335573f549c39aeb2a156ff44ed2f031dbec2ac472abcc8543b2f4568585858585604051610ab3959493929190611acf565b60405180910390a15050505050565b600030905090565b60003073ffffffffffffffffffffffffffffffffffffffff163373ffffffffffffffffffffffffffffffffffffffff16148015610b0c57506038600036905010155b15610b7757610b7060206000369050036000368080601f016020809104026020016040519081016040528093929190818152602001838380828437600081840152601f19601f820116905080830192505050505050506110b890919063ffffffff16565b9050610b7e565b6000801b90505b90565b600073ffffffffffffffffffffffffffffffffffffffff168373ffffffffffffffffffffffffffffffffffffffff161415610bf1576040517f08c379a0000000000000000000000000000000000000000000000000000000008152600401610be890611da4565b60405180910390fd5b606063095ea7b360e01b8383604051602401610c0e929190611b46565b604051602081830303815290604052907bffffffffffffffffffffffffffffffffffffffffffffffffffffffff19166020820180517bffffffffffffffffffffffffffffffffffffffffffffffffffffffff838183161783525050505090506060610c7d600186600085610d46565b9050600080825114610ca25781806020019051810190610c9d91906111ae565b610ca5565b60015b905080610ce7576040517f08c379a0000000000000000000000000000000000000000000000000000000008152600401610cde90611e44565b60405180910390fd5b505050505050565b600082821115610d34576040517f08c379a0000000000000000000000000000000000000000000000000000000008152600401610d2b90611dc4565b60405180910390fd5b818303905092915050565b6000919050565b6060600060018660ff161415610dcc578473ffffffffffffffffffffffffffffffffffffffff168484604051610d7c9190611a58565b60006040518083038185875af1925050503d8060008114610db9576040519150601f19603f3d011682016040523d82523d6000602084013e610dbe565b606091505b508093508192505050610f4a565b60028660ff161415610e4b578473ffffffffffffffffffffffffffffffffffffffff1683604051610dfd9190611a58565b600060405180830381855af49150503d8060008114610e38576040519150601f19603f3d011682016040523d82523d6000602084013e610e3d565b606091505b508093508192505050610f49565b60038660ff161415610f0d5760008414610e9a576040517f08c379a0000000000000000000000000000000000000000000000000000000008152600401610e9190611e64565b60405180910390fd5b8473ffffffffffffffffffffffffffffffffffffffff1683604051610ebf9190611a58565b600060405180830381855afa9150503d8060008114610efa576040519150601f19603f3d011682016040523d82523d6000602084013e610eff565b606091505b508093508192505050610f48565b6040517f08c379a0000000000000000000000000000000000000000000000000000000008152600401610f3f90611d84565b60405180910390fd5b5b5b80610f59573d6000803e3d6000fd5b50949350505050565b600073ffffffffffffffffffffffffffffffffffffffff168373ffffffffffffffffffffffffffffffffffffffff161415610fb957610fb36001838360405180602001604052806000815250610d46565b506110b3565b606063a9059cbb60e01b8383604051602401610fd6929190611b46565b604051602081830303815290604052907bffffffffffffffffffffffffffffffffffffffffffffffffffffffff19166020820180517bffffffffffffffffffffffffffffffffffffffffffffffffffffffff838183161783525050505090506060611045600186600085610d46565b905060008082511461106a578180602001905181019061106591906111ae565b61106d565b60015b9050806110af576040517f08c379a00000000000000000000000000000000000000000000000000000000081526004016110a690611e24565b60405180910390fd5b5050505b505050565b600060208201835110156110cb57600080fd5b60008260208501015190508091505092915050565b6000813590506110ef81612242565b92915050565b60008151905061110481612259565b92915050565b60008151905061111981612270565b92915050565b60008083601f84011261113157600080fd5b8235905067ffffffffffffffff81111561114a57600080fd5b60208301915083600182028301111561116257600080fd5b9250929050565b60006060828403121561117b57600080fd5b81905092915050565b60008135905061119381612287565b92915050565b6000815190506111a881612287565b92915050565b6000602082840312156111c057600080fd5b60006111ce848285016110f5565b91505092915050565b6000602082840312156111e957600080fd5b60006111f78482850161110a565b91505092915050565b6000806000806080858703121561121657600080fd5b600085013567ffffffffffffffff81111561123057600080fd5b61123c87828801611169565b945050602061124d878288016110e0565b935050604061125e878288016110e0565b925050606061126f87828801611184565b91505092959194509250565b60008060008060008060a0878903121561129457600080fd5b600087013567ffffffffffffffff8111156112ae57600080fd5b6112ba89828a01611169565b96505060206112cb89828a016110e0565b95505060406112dc89828a016110e0565b94505060606112ed89828a01611184565b935050608087013567ffffffffffffffff81111561130a57600080fd5b61131689828a0161111f565b92509250509295509295509295565b600080600080600080600060c0888a03121561134057600080fd5b600088013567ffffffffffffffff81111561135a57600080fd5b6113668a828b01611169565b97505060206113778a828b016110e0565b96505060406113888a828b016110e0565b95505060606113998a828b01611184565b94505060806113aa8a828b01611184565b93505060a088013567ffffffffffffffff8111156113c757600080fd5b6113d38a828b0161111f565b925092505092959891949750929550565b6000806000806000608086880312156113fc57600080fd5b600086013567ffffffffffffffff81111561141657600080fd5b61142288828901611169565b9550506020611433888289016110e0565b945050604061144488828901611184565b935050606086013567ffffffffffffffff81111561146157600080fd5b61146d8882890161111f565b92509250509295509295909350565b60006020828403121561148e57600080fd5b600061149c84828501611199565b91505092915050565b60006114b183836114fa565b60208301905092915050565b60006114c98383611658565b60208301905092915050565b60006114e2848484611694565b90509392505050565b6114f481612124565b82525050565b61150381612124565b82525050565b60006115158385611f6f565b935061152082611f0e565b8060005b85811015611559576115368284611ff1565b61154088826114a5565b975061154b83611f48565b925050600181019050611524565b5085925050509392505050565b600061157182611f32565b61157b8185611f80565b935061158683611f18565b8060005b838110156115b757815161159e88826114bd565b97506115a983611f55565b92505060018101905061158a565b5085935050505092915050565b60006115d08385611f91565b9350836020840285016115e284611f28565b8060005b878110156116285784840389526115fd82846120b6565b6116088682846114d5565b955061161384611f62565b935060208b019a5050506001810190506115e6565b50829750879450505050509392505050565b61164381612142565b82525050565b61165281612142565b82525050565b6116618161214c565b82525050565b60006116738385611fa2565b93506116808385846121d9565b6116898361221d565b840190509392505050565b60006116a08385611fc4565b93506116ad8385846121d9565b6116b68361221d565b840190509392505050565b60006116cd8385611fd5565b93506116da8385846121d9565b82840190509392505050565b60006116f182611f3d565b6116fb8185611fa2565b935061170b8185602086016121e8565b6117148161221d565b840191505092915050565b600061172a82611f3d565b6117348185611fb3565b93506117448185602086016121e8565b61174d8161221d565b840191505092915050565b600061176382611f3d565b61176d8185611fd5565b935061177d8185602086016121e8565b80840191505092915050565b611792816121b5565b82525050565b6117a1816121c7565b82525050565b60006117b4601083611fe0565b91507f554e535550504f525445445f4d4f4445000000000000000000000000000000006000830152602082019050919050565b60006117f4600d83611fe0565b91507f494e56414c49445f544f4b454e000000000000000000000000000000000000006000830152602082019050919050565b6000611834600d83611fe0565b91507f5355425f554e444552464c4f57000000000000000000000000000000000000006000830152602082019050919050565b6000611874600b83611fe0565b91507f4e4f545f414c4f4f5745440000000000000000000000000000000000000000006000830152602082019050919050565b60006118b4600a83611fe0565b91507f50524f484f4249544544000000000000000000000000000000000000000000006000830152602082019050919050565b60006118f4601583611fe0565b91507f45524332305f5452414e534645525f4641494c454400000000000000000000006000830152602082019050919050565b6000611934601483611fe0565b91507f45524332305f415050524f56455f4641494c45440000000000000000000000006000830152602082019050919050565b6000611974600d83611fe0565b91507f494e56414c49445f56414c5545000000000000000000000000000000000000006000830152602082019050919050565b6000606083016119ba6000840184612008565b85830360008701526119cd838284611509565b925050506119de602084018461205f565b85830360208701526119f18382846115c4565b92505050611a02604084018461210d565b611a0f6040860182611a30565b508091505092915050565b8082525050565b611a2a816121ab565b82525050565b611a39816121ab565b82525050565b6000611a4c8284866116c1565b91508190509392505050565b6000611a648284611758565b915081905092915050565b6000604082019050611a8460008301856114eb565b611a9160208301846114eb565b9392505050565b6000606082019050611aad60008301866114eb565b611aba60208301856114eb565b611ac76040830184611a21565b949350505050565b6000608082019050611ae460008301886114eb565b611af160208301876114eb565b611afe6040830186611a21565b8181036060830152611b11818486611667565b90509695505050505050565b6000604082019050611b3260008301856114eb565b611b3f6020830184611798565b9392505050565b6000604082019050611b5b60008301856114eb565b611b686020830184611a21565b9392505050565b6000606082019050611b8460008301876114eb565b611b916020830186611a21565b8181036040830152611ba4818486611667565b905095945050505050565b60006020820190508181036000830152611bc98184611566565b905092915050565b6000602082019050611be6600083018461163a565b92915050565b600060a082019050611c01600083018861163a565b611c0e6020830187611a21565b611c1b60408301866114eb565b611c2860608301856114eb565b611c356080830184611a21565b9695505050505050565b600060c082019050611c54600083018961163a565b611c616020830188611a21565b611c6e60408301876114eb565b611c7b60608301866114eb565b611c886080830185611a21565b611c9560a083018461163a565b979650505050505050565b600060e082019050611cb5600083018a61163a565b611cc26020830189611a21565b611ccf60408301886114eb565b611cdc60608301876114eb565b611ce96080830186611a21565b611cf660a0830185611a21565b611d0360c083018461163a565b98975050505050505050565b600060a082019050611d24600083018861163a565b611d316020830187611a21565b611d3e60408301866114eb565b611d4b6060830185611a21565b611d58608083018461163a565b9695505050505050565b60006020820190508181036000830152611d7c81846116e6565b905092915050565b60006020820190508181036000830152611d9d816117a7565b9050919050565b60006020820190508181036000830152611dbd816117e7565b9050919050565b60006020820190508181036000830152611ddd81611827565b9050919050565b60006020820190508181036000830152611dfd81611867565b9050919050565b60006020820190508181036000830152611e1d816118a7565b9050919050565b60006020820190508181036000830152611e3d816118e7565b9050919050565b60006020820190508181036000830152611e5d81611927565b9050919050565b60006020820190508181036000830152611e7d81611967565b9050919050565b600060c082019050611e996000830189611a1a565b611ea66020830188611649565b611eb36040830187611649565b611ec06060830186611789565b8181036080830152611ed281856119a7565b905081810360a0830152611ee6818461171f565b9050979650505050505050565b6000602082019050611f086000830184611a21565b92915050565b6000819050919050565b6000819050602082019050919050565b6000819050919050565b600081519050919050565b600081519050919050565b6000602082019050919050565b6000602082019050919050565b6000602082019050919050565b600082825260208201905092915050565b600082825260208201905092915050565b600082825260208201905092915050565b600082825260208201905092915050565b600082825260208201905092915050565b600082825260208201905092915050565b600081905092915050565b600082825260208201905092915050565b600061200060208401846110e0565b905092915050565b6000808335600160200384360303811261202157600080fd5b83810192508235915060208301925067ffffffffffffffff82111561204557600080fd5b60208202360384131561205757600080fd5b509250929050565b6000808335600160200384360303811261207857600080fd5b83810192508235915060208301925067ffffffffffffffff82111561209c57600080fd5b6020820236038413156120ae57600080fd5b509250929050565b600080833560016020038436030381126120cf57600080fd5b83810192508235915060208301925067ffffffffffffffff8211156120f357600080fd5b60018202360384131561210557600080fd5b509250929050565b600061211c6020840184611184565b905092915050565b600061212f8261218b565b9050919050565b60008115159050919050565b6000819050919050565b60007fffffffff0000000000000000000000000000000000000000000000000000000082169050919050565b60008190506121868261222e565b919050565b600073ffffffffffffffffffffffffffffffffffffffff82169050919050565b6000819050919050565b60006121c082612178565b9050919050565b60006121d2826121ab565b9050919050565b82818337600083830152505050565b60005b838110156122065780820151818401526020810190506121eb565b83811115612215576000848401525b50505050565bfe5b6000601f19601f8301169050919050565b6005811061223f5761223e61221b565b5b50565b61224b81612124565b811461225657600080fd5b50565b61226281612136565b811461226d57600080fd5b50565b61227981612142565b811461228457600080fd5b50565b612290816121ab565b811461229b57600080fd5b5056fea264697066735822122098ee8d7a274e084471c11aef6c8f60286183a6add2e75dbc8c56874a93f0352e64736f6c63430007030033",
  "linkReferences": {
    "contracts/version2_0/utils/SignedRequest.sol": {
      "SignedRequest": [
        {
          "length": 20,
          "start": 1680
        }
      ]
    }
  },
  "deployedLinkReferences": {
    "contracts/version2_0/utils/SignedRequest.sol": {
      "SignedRequest": [
        {
          "length": 20,
          "start": 1648
        }
      ]
    }
  }
}