{
  "_format": "hh-sol-artifact-1",
  "contractName": "InheritanceModule",
  "sourceName": "contracts/version2_0/modules/InheritanceModule.sol",
  "abi": [
    {
      "anonymous": false,
      "inputs": [
        {
          "indexed": false,
          "internalType": "address",
          "name": "inheritor",
          "type": "address"
        },
        {
          "indexed": false,
          "internalType": "address",
          "name": "newOwner",
          "type": "address"
        }
      ],
      "name": "Inherited",
      "type": "event"
    },
    {
      "anonymous": false,
      "inputs": [
        {
          "indexed": false,
          "internalType": "address",
          "name": "inheritor",
          "type": "address"
        },
        {
          "indexed": false,
          "internalType": "uint32",
          "name": "waitingPeriod",
          "type": "uint32"
        }
      ],
      "name": "InheritorChanged",
      "type": "event"
    },
    {
      "inputs": [],
      "name": "TOUCH_GRACE_PERIOD",
      "outputs": [
        {
          "internalType": "uint256",
          "name": "",
          "type": "uint256"
        }
      ],
      "stateMutability": "view",
      "type": "function"
    },
    {
      "inputs": [],
      "name": "bindableMethods",
      "outputs": [
        {
          "internalType": "bytes4[]",
          "name": "methods",
          "type": "bytes4[]"
        }
      ],
      "stateMutability": "pure",
      "type": "function"
    },
    {
      "inputs": [
        {
          "internalType": "address",
          "name": "newOwner",
          "type": "address"
        }
      ],
      "name": "inherit",
      "outputs": [],
      "stateMutability": "nonpayable",
      "type": "function"
    },
    {
      "inputs": [],
      "name": "inheritor",
      "outputs": [
        {
          "internalType": "address",
          "name": "_inheritor",
          "type": "address"
        },
        {
          "internalType": "uint256",
          "name": "_effectiveTimestamp",
          "type": "uint256"
        }
      ],
      "stateMutability": "view",
      "type": "function"
    },
    {
      "inputs": [
        {
          "internalType": "address",
          "name": "_inheritor",
          "type": "address"
        },
        {
          "internalType": "uint32",
          "name": "_waitingPeriod",
          "type": "uint32"
        }
      ],
      "name": "setInheritor",
      "outputs": [],
      "stateMutability": "nonpayable",
      "type": "function"
    }
  ],
  "bytecode": "0x608060405234801561001057600080fd5b5061125e806100206000396000f3fe608060405234801561001057600080fd5b50600436106100565760003560e01c8062cbe5631461005b57806336a52a1814610077578063840fdc7814610096578063afa3363d146100b4578063ba324ac6146100d2575b600080fd5b61007560048036038101906100709190610bf4565b6100ee565b005b61007f6104c5565b60405161008d929190610fa9565b60405180910390f35b61009e6104da565b6040516100ab919061111d565b60405180910390f35b6100bc6104e1565b6040516100c99190610ffb565b60405180910390f35b6100ec60048036038101906100e79190610c46565b610652565b005b6000801b6100fa610935565b1461013a576040517f08c379a00000000000000000000000000000000000000000000000000000000081526004016101319061101d565b60405180910390fd5b80600073ffffffffffffffffffffffffffffffffffffffff168173ffffffffffffffffffffffffffffffffffffffff161415801561019457506101928173ffffffffffffffffffffffffffffffffffffffff166109ec565b155b6101d3576040517f08c379a00000000000000000000000000000000000000000000000000000000081526004016101ca906110dd565b60405180910390fd5b816101dc610a31565b73ffffffffffffffffffffffffffffffffffffffff16638da5cb5b6040518163ffffffff1660e01b815260040160206040518083038186803b15801561022157600080fd5b505afa158015610235573d6000803e3d6000fd5b505050506040513d601f19601f820116820180604052508101906102599190610c1d565b73ffffffffffffffffffffffffffffffffffffffff168173ffffffffffffffffffffffffffffffffffffffff1614156102c7576040517f08c379a00000000000000000000000000000000000000000000000000000000081526004016102be9061109d565b60405180910390fd5b6000806102d46000610a39565b91509150600081141580156103165750600073ffffffffffffffffffffffffffffffffffffffff168273ffffffffffffffffffffffffffffffffffffffff1614155b610355576040517f08c379a000000000000000000000000000000000000000000000000000000000815260040161034c9061103d565b60405180910390fd5b42811115610398576040517f08c379a000000000000000000000000000000000000000000000000000000000815260040161038f9061107d565b60405180910390fd5b6103a0610a41565b73ffffffffffffffffffffffffffffffffffffffff168273ffffffffffffffffffffffffffffffffffffffff161461040d576040517f08c379a00000000000000000000000000000000000000000000000000000000081526004016104049061105d565b60405180910390fd5b6104176000610b13565b61042e6000806000610b169092919063ffffffff16565b610442600080610b1b90919063ffffffff16565b846000800160006101000a81548173ffffffffffffffffffffffffffffffffffffffff021916908373ffffffffffffffffffffffffffffffffffffffff1602179055507faa05d1eca773e430f48cf5f6c9ee51aafb42797153fcfd33c0fbaa6175c146de82866040516104b6929190610f80565b60405180910390a15050505050565b6000806104d26000610a39565b915091509091565b62278d0081565b6060600367ffffffffffffffff811180156104fb57600080fd5b5060405190808252806020026020018201604052801561052a5781602001602082028036833780820191505090505b5090506336a52a1860e01b8160008151811061054257fe5b60200260200101907bffffffffffffffffffffffffffffffffffffffffffffffffffffffff191690817bffffffffffffffffffffffffffffffffffffffffffffffffffffffff19168152505063ba324ac660e01b816001815181106105a357fe5b60200260200101907bffffffffffffffffffffffffffffffffffffffffffffffffffffffff191690817bffffffffffffffffffffffffffffffffffffffffffffffffffffffff19168152505062cbe56360e01b8160028151811061060357fe5b60200260200101907bffffffffffffffffffffffffffffffffffffffffffffffffffffffff191690817bffffffffffffffffffffffffffffffffffffffffffffffffffffffff19168152505090565b6000801b61065e610935565b1461069e576040517f08c379a00000000000000000000000000000000000000000000000000000000081526004016106959061101d565b60405180910390fd5b60006106a8610a41565b90503073ffffffffffffffffffffffffffffffffffffffff168173ffffffffffffffffffffffffffffffffffffffff1614806107a457506106e7610a31565b73ffffffffffffffffffffffffffffffffffffffff16638da5cb5b6040518163ffffffff1660e01b815260040160206040518083038186803b15801561072c57600080fd5b505afa158015610740573d6000803e3d6000fd5b505050506040513d601f19601f820116820180604052508101906107649190610c1d565b73ffffffffffffffffffffffffffffffffffffffff168173ffffffffffffffffffffffffffffffffffffffff161480156107a357506107a1610b25565b155b5b6107e3576040517f08c379a00000000000000000000000000000000000000000000000000000000081526004016107da906110bd565b60405180910390fd5b6107fa62278d006000610b3690919063ffffffff16565b600073ffffffffffffffffffffffffffffffffffffffff168373ffffffffffffffffffffffffffffffffffffffff1614801561083c575060008263ffffffff16145b806108a25750600073ffffffffffffffffffffffffffffffffffffffff168373ffffffffffffffffffffffffffffffffffffffff161415801561088b5750600262278d00028263ffffffff1610155b80156108a157506312cc03008263ffffffff1611155b5b6108e1576040517f08c379a00000000000000000000000000000000000000000000000000000000081526004016108d8906110fd565b60405180910390fd5b6108f783836000610b169092919063ffffffff16565b7fecb712a6fd1b581edea066fc63207ab07f1ae9510d05d9235e3bebe46d5126e48383604051610928929190610fd2565b60405180910390a1505050565b60003073ffffffffffffffffffffffffffffffffffffffff163373ffffffffffffffffffffffffffffffffffffffff1614801561097757506038600036905010155b156109e2576109db60206000369050036000368080601f016020809104026020016040519081016040528093929190818152602001838380828437600081840152601f19601f82011690508083019250505050505050610b4090919063ffffffff16565b90506109e9565b6000801b90505b90565b600080823f90506000801b8114158015610a2957507fc5d2460186f7233c927e7db2dcc703c0e500b653ca82273b7bfad8045d85a47060001b8114155b915050919050565b600030905090565b600080915091565b60003073ffffffffffffffffffffffffffffffffffffffff163373ffffffffffffffffffffffffffffffffffffffff16148015610a8357506038600036905010155b15610b0c57610b05610aea60346000369050036000368080601f016020809104026020016040519081016040528093929190818152602001838380828437600081840152601f19601f82011690508083019250505050505050610b6890919063ffffffff16565b73ffffffffffffffffffffffffffffffffffffffff16610b9f565b9050610b10565b3390505b90565b50565b505050565b6000309050505050565b6000610b316000610ba9565b905090565b6000309050505050565b60006020820183511015610b5357600080fd5b60008260208501015190508091505092915050565b60006014820183511015610b7b57600080fd5b60006c01000000000000000000000000836020860101510490508091505092915050565b6000819050919050565b60008030905050919050565b600081359050610bc4816111fa565b92915050565b600081519050610bd9816111fa565b92915050565b600081359050610bee81611211565b92915050565b600060208284031215610c0657600080fd5b6000610c1484828501610bb5565b91505092915050565b600060208284031215610c2f57600080fd5b6000610c3d84828501610bca565b91505092915050565b60008060408385031215610c5957600080fd5b6000610c6785828601610bb5565b9250506020610c7885828601610bdf565b9150509250929050565b6000610c8e8383610d07565b60208301905092915050565b610ca381611182565b82525050565b6000610cb482611148565b610cbe8185611160565b9350610cc983611138565b8060005b83811015610cfa578151610ce18882610c82565b9750610cec83611153565b925050600181019050610ccd565b5085935050505092915050565b610d1081611194565b82525050565b6000610d23601583611171565b91507f494e56414c49445f54585f41574152455f4841534800000000000000000000006000830152602082019050919050565b6000610d63600c83611171565b91507f4e4f5f494e48455249544f5200000000000000000000000000000000000000006000830152602082019050919050565b6000610da3600c83611171565b91507f554e415554484f52495a454400000000000000000000000000000000000000006000830152602082019050919050565b6000610de3600983611171565b91507f544f4f5f4541524c5900000000000000000000000000000000000000000000006000830152602082019050919050565b6000610e23601083611171565b91507f414444524553535f49535f4f574e4552000000000000000000000000000000006000830152602082019050919050565b6000610e63602983611171565b91507f4e4f545f46524f4d5f57414c4c45545f4f525f4f574e45525f4f525f57414c4c60008301527f45545f4c4f434b454400000000000000000000000000000000000000000000006020830152604082019050919050565b6000610ec9600d83611171565b91507f494e56414c49445f4f574e4552000000000000000000000000000000000000006000830152602082019050919050565b6000610f09602383611171565b91507f494e56414c49445f494e48455249544f525f4f525f57414954494e475f50455260008301527f494f4400000000000000000000000000000000000000000000000000000000006020830152604082019050919050565b610f6b816111e0565b82525050565b610f7a816111ea565b82525050565b6000604082019050610f956000830185610c9a565b610fa26020830184610c9a565b9392505050565b6000604082019050610fbe6000830185610c9a565b610fcb6020830184610f62565b9392505050565b6000604082019050610fe76000830185610c9a565b610ff46020830184610f71565b9392505050565b600060208201905081810360008301526110158184610ca9565b905092915050565b6000602082019050818103600083015261103681610d16565b9050919050565b6000602082019050818103600083015261105681610d56565b9050919050565b6000602082019050818103600083015261107681610d96565b9050919050565b6000602082019050818103600083015261109681610dd6565b9050919050565b600060208201905081810360008301526110b681610e16565b9050919050565b600060208201905081810360008301526110d681610e56565b9050919050565b600060208201905081810360008301526110f681610ebc565b9050919050565b6000602082019050818103600083015261111681610efc565b9050919050565b60006020820190506111326000830184610f62565b92915050565b6000819050602082019050919050565b600081519050919050565b6000602082019050919050565b600082825260208201905092915050565b600082825260208201905092915050565b600061118d826111c0565b9050919050565b60007fffffffff0000000000000000000000000000000000000000000000000000000082169050919050565b600073ffffffffffffffffffffffffffffffffffffffff82169050919050565b6000819050919050565b600063ffffffff82169050919050565b61120381611182565b811461120e57600080fd5b50565b61121a816111ea565b811461122557600080fd5b5056fea264697066735822122064e097c66f2d5da03b175b674e63e95dfe63d827dfe62c7112047be00c41572064736f6c63430007030033",
  "linkReferences": {},
  "deployedLinkReferences": {}
}