{
  "_format": "hh-sol-artifact-1",
  "contractName": "Impl",
  "sourceName": "contracts/iface2/Impl.sol",
  "abi": [
    {
      "inputs": [
        {
          "internalType": "address",
          "name": "owner",
          "type": "address"
        },
        {
          "internalType": "bool",
          "name": "locked",
          "type": "bool"
        },
        {
          "components": [
            {
              "internalType": "uint256",
              "name": "abc",
              "type": "uint256"
            }
          ],
          "internalType": "struct Impl.State1",
          "name": "state",
          "type": "tuple"
        },
        {
          "internalType": "uint256",
          "name": "param1",
          "type": "uint256"
        },
        {
          "internalType": "uint256",
          "name": "param2",
          "type": "uint256"
        }
      ],
      "name": "doSometing",
      "outputs": [],
      "stateMutability": "nonpayable",
      "type": "function"
    }
  ],
  "bytecode": "0x608060405234801561001057600080fd5b50610237806100206000396000f3fe608060405234801561001057600080fd5b506004361061002b5760003560e01c80639f0cefe214610030575b600080fd5b61004a600480360381019061004591906100ca565b61004c565b005b5050505050565b600081359050610062816101bc565b92915050565b600081359050610077816101d3565b92915050565b60006020828403121561008f57600080fd5b6100996020610141565b905060006100a9848285016100b5565b60008301525092915050565b6000813590506100c4816101ea565b92915050565b600080600080600060a086880312156100e257600080fd5b60006100f088828901610053565b955050602061010188828901610068565b94505060406101128882890161007d565b9350506060610123888289016100b5565b9250506080610134888289016100b5565b9150509295509295909350565b6000604051905081810181811067ffffffffffffffff82111715610168576101676101ba565b5b8060405250919050565b600061017d82610190565b9050919050565b60008115159050919050565b600073ffffffffffffffffffffffffffffffffffffffff82169050919050565b6000819050919050565bfe5b6101c581610172565b81146101d057600080fd5b50565b6101dc81610184565b81146101e757600080fd5b50565b6101f3816101b0565b81146101fe57600080fd5b5056fea2646970667358221220214048ca7aaa8ae3262e3e80e2c6f02d7aa449c11ecd923aebe2cd6ecab6908b64736f6c63430007030033",
  "linkReferences": {},
  "deployedLinkReferences": {}
}