{
  "_format": "hh-sol-artifact-1",
  "contractName": "SignatureUtilWrapper",
  "sourceName": "contracts/test/lib/SignatureUtilWrapper.sol",
  "abi": [
    {
      "inputs": [
        {
          "internalType": "bytes32",
          "name": "signHash",
          "type": "bytes32"
        },
        {
          "internalType": "bytes",
          "name": "signature",
          "type": "bytes"
        }
      ],
      "name": "recoverECDSASigner",
      "outputs": [
        {
          "internalType": "address",
          "name": "",
          "type": "address"
        }
      ],
      "stateMutability": "pure",
      "type": "function"
    },
    {
      "inputs": [
        {
          "internalType": "bytes32",
          "name": "signHash",
          "type": "bytes32"
        },
        {
          "internalType": "address",
          "name": "signer",
          "type": "address"
        },
        {
          "internalType": "bytes",
          "name": "signature",
          "type": "bytes"
        }
      ],
      "name": "verifySignature",
      "outputs": [
        {
          "internalType": "bool",
          "name": "",
          "type": "bool"
        }
      ],
      "stateMutability": "view",
      "type": "function"
    }
  ],
  "bytecode": "0x608060405234801561001057600080fd5b50610d0a806100206000396000f3fe608060405234801561001057600080fd5b50600436106100365760003560e01c806398a3410d1461003b578063ecd765e01461006b575b600080fd5b610055600480360381019061005091906108b7565b61009b565b6040516100629190610b10565b60405180910390f35b61008560048036038101906100809190610923565b6100f6565b6040516100929190610af5565b60405180910390f35b60006100ec858585858080601f016020809104026020016040519081016040528093929190818152602001838380828437600081840152601f19601f8201169050808301925050505050505061027a565b9050949350505050565b60008061011060018585905061030290919063ffffffff16565b9050600061016b8286868080601f016020809104026020016040519081016040528093929190818152602001838380828437600081840152601f19601f8201169050808301925050505050505061035290919063ffffffff16565b60ff16600481111561017957fe5b905060606101d760008488888080601f016020809104026020016040519081016040528093929190818152602001838380828437600081840152601f19601f8201169050808301925050505050505061037a9092919063ffffffff16565b9050600260048111156101e657fe5b8260048111156101f257fe5b141561020c576102028782610406565b9350505050610273565b6003600481111561021957fe5b82600481111561022557fe5b141561026b5760008760405160200161023e9190610acf565b6040516020818303038152906040528051906020012090506102608183610406565b945050505050610273565b600093505050505b9392505050565b60008073ffffffffffffffffffffffffffffffffffffffff168373ffffffffffffffffffffffffffffffffffffffff1614156102b957600090506102fb565b6102d88373ffffffffffffffffffffffffffffffffffffffff166104ef565b6102ec576102e7848484610534565b6102f8565b6102f78484846106b2565b5b90505b9392505050565b600082821115610347576040517f08c379a000000000000000000000000000000000000000000000000000000000815260040161033e90610ba0565b60405180910390fd5b818303905092915050565b6000600182018351101561036557600080fd5b60008260018501015190508091505092915050565b60608183018451101561038c57600080fd5b60608215600081146103a9576040519150602082016040526103fa565b6040519150601f8416801560200281840101858101878315602002848b0101015b818310156103e757805183526020830192506020810190506103ca565b50868552601f19601f8301166040525050505b50809150509392505050565b6000604182511461041a57600090506104e9565b6000806000602085015192506040850151915060ff60418601511690507f7fffffffffffffffffffffffffffffff5d576e7357a4501ddfe92f46681b20a08260001c111561046e57600093505050506104e9565b601b8160ff1614806104835750601c8160ff16145b156104e157600186828585604051600081526020016040526040516104ab9493929190610b5b565b6020604051602081039080840390855afa1580156104cd573d6000803e3d6000fd5b5050506020604051035193505050506104e9565b600093505050505b92915050565b600080823f90506000801b811415801561052c57507fc5d2460186f7233c927e7db2dcc703c0e500b653ca82273b7bfad8045d85a47060001b8114155b915050919050565b60008073ffffffffffffffffffffffffffffffffffffffff168373ffffffffffffffffffffffffffffffffffffffff16141561057357600090506106ab565b600061058a6001845161030290919063ffffffff16565b905060006105a1828561035290919063ffffffff16565b60ff1660048111156105af57fe5b9050818452600260048111156105c157fe5b8160048111156105cd57fe5b1415610612576105dd8685610406565b73ffffffffffffffffffffffffffffffffffffffff168573ffffffffffffffffffffffffffffffffffffffff161492506106a2565b6003600481111561061f57fe5b81600481111561062b57fe5b141561069c576000866040516020016106449190610acf565b6040516020818303038152906040528051906020012090506106668186610406565b73ffffffffffffffffffffffffffffffffffffffff168673ffffffffffffffffffffffffffffffffffffffff16149350506106a1565b600092505b5b60018201845250505b9392505050565b60006060631626ba7e60e01b85846040516024016106d1929190610b2b565b604051602081830303815290604052907bffffffffffffffffffffffffffffffffffffffffffffffffffffffff19166020820180517bffffffffffffffffffffffffffffffffffffffffffffffffffffffff83818316178352505050509050600060608573ffffffffffffffffffffffffffffffffffffffff16836040516107599190610ab8565b600060405180830381855afa9150503d8060008114610794576040519150601f19603f3d011682016040523d82523d6000602084013e610799565b606091505b50915091508180156107ac575060208151145b801561080f5750631626ba7e60e01b7bffffffffffffffffffffffffffffffffffffffffffffffffffffffff19166107ee60008361081b90919063ffffffff16565b7bffffffffffffffffffffffffffffffffffffffffffffffffffffffff1916145b93505050509392505050565b6000600482018351101561082e57600080fd5b60008260208501015190508091505092915050565b60008135905061085281610ca6565b92915050565b60008135905061086781610cbd565b92915050565b60008083601f84011261087f57600080fd5b8235905067ffffffffffffffff81111561089857600080fd5b6020830191508360018202830111156108b057600080fd5b9250929050565b600080600080606085870312156108cd57600080fd5b60006108db87828801610858565b94505060206108ec87828801610843565b935050604085013567ffffffffffffffff81111561090957600080fd5b6109158782880161086d565b925092505092959194509250565b60008060006040848603121561093857600080fd5b600061094686828701610858565b935050602084013567ffffffffffffffff81111561096357600080fd5b61096f8682870161086d565b92509250509250925092565b61098481610c03565b82525050565b61099381610c15565b82525050565b6109a281610c21565b82525050565b6109b96109b482610c21565b610c8b565b82525050565b60006109ca82610bc0565b6109d48185610bcb565b93506109e4818560208601610c58565b6109ed81610c95565b840191505092915050565b6000610a0382610bc0565b610a0d8185610bdc565b9350610a1d818560208601610c58565b80840191505092915050565b6000610a36601c83610bf8565b91507f19457468657265756d205369676e6564204d6573736167653a0a3332000000006000830152601c82019050919050565b6000610a76600d83610be7565b91507f5355425f554e444552464c4f57000000000000000000000000000000000000006000830152602082019050919050565b610ab281610c4b565b82525050565b6000610ac482846109f8565b915081905092915050565b6000610ada82610a29565b9150610ae682846109a8565b60208201915081905092915050565b6000602082019050610b0a600083018461097b565b92915050565b6000602082019050610b25600083018461098a565b92915050565b6000604082019050610b406000830185610999565b8181036020830152610b5281846109bf565b90509392505050565b6000608082019050610b706000830187610999565b610b7d6020830186610aa9565b610b8a6040830185610999565b610b976060830184610999565b95945050505050565b60006020820190508181036000830152610bb981610a69565b9050919050565b600081519050919050565b600082825260208201905092915050565b600081905092915050565b600082825260208201905092915050565b600081905092915050565b6000610c0e82610c2b565b9050919050565b60008115159050919050565b6000819050919050565b600073ffffffffffffffffffffffffffffffffffffffff82169050919050565b600060ff82169050919050565b60005b83811015610c76578082015181840152602081019050610c5b565b83811115610c85576000848401525b50505050565b6000819050919050565b6000601f19601f8301169050919050565b610caf81610c03565b8114610cba57600080fd5b50565b610cc681610c21565b8114610cd157600080fd5b5056fea26469706673582212206633267d0479015ff539c913e0cdeefa28f33d18397af2e90a67d27db5d7551464736f6c63430007030033",
  "linkReferences": {},
  "deployedLinkReferences": {}
}