{
  "_format": "hh-sol-artifact-1",
  "contractName": "TestTargetContract",
  "sourceName": "contracts/test/TestTargetContract.sol",
  "abi": [
    {
      "inputs": [
        {
          "internalType": "uint256",
          "name": "_value",
          "type": "uint256"
        }
      ],
      "name": "functionDefault",
      "outputs": [
        {
          "internalType": "uint256",
          "name": "",
          "type": "uint256"
        }
      ],
      "stateMutability": "nonpayable",
      "type": "function"
    },
    {
      "inputs": [
        {
          "internalType": "uint256",
          "name": "_value",
          "type": "uint256"
        }
      ],
      "name": "functionPayable",
      "outputs": [],
      "stateMutability": "payable",
      "type": "function"
    },
    {
      "inputs": [
        {
          "internalType": "uint256",
          "name": "_value",
          "type": "uint256"
        }
      ],
      "name": "functionRevert",
      "outputs": [],
      "stateMutability": "nonpayable",
      "type": "function"
    },
    {
      "inputs": [],
      "name": "value",
      "outputs": [
        {
          "internalType": "uint256",
          "name": "",
          "type": "uint256"
        }
      ],
      "stateMutability": "view",
      "type": "function"
    }
  ],
  "bytecode": "0x608060405261303960005534801561001657600080fd5b506101fc806100266000396000f3fe60806040526004361061003f5760003560e01c80633fa4f245146100445780635314de501461006f578063af5530b1146100aa578063e25fba69146100d8575b600080fd5b34801561005057600080fd5b50610059610127565b6040518082815260200191505060405180910390f35b34801561007b57600080fd5b506100a86004803603602081101561009257600080fd5b810190808035906020019092919050505061012d565b005b6100d6600480360360208110156100c057600080fd5b81019080803590602001909291905050506101ab565b005b3480156100e457600080fd5b50610111600480360360208110156100fb57600080fd5b81019080803590602001909291905050506101b5565b6040518082815260200191505060405180910390f35b60005481565b60006101a1576040517f08c379a00000000000000000000000000000000000000000000000000000000081526004018080602001828103825260108152602001807f494d4d4544494154455f5245564552540000000000000000000000000000000081525060200191505060405180910390fd5b8060008190555050565b8060008190555050565b60008160008190555081905091905056fea264697066735822122032165c2baf6d15a1950ee02bf1095f835a06fc90e6c45ae1482d72b649bcd71d64736f6c63430007030033",
  "linkReferences": {},
  "deployedLinkReferences": {}
}