{
  "_format": "hh-sol-artifact-1",
  "contractName": "CachedPriceOracle",
  "sourceName": "contracts/price/CachedPriceOracle.sol",
  "abi": [
    {
      "inputs": [
        {
          "internalType": "contract IPriceOracle",
          "name": "_oracle",
          "type": "address"
        }
      ],
      "stateMutability": "nonpayable",
      "type": "constructor"
    },
    {
      "anonymous": false,
      "inputs": [
        {
          "indexed": true,
          "internalType": "address",
          "name": "manager",
          "type": "address"
        }
      ],
      "name": "ManagerAdded",
      "type": "event"
    },
    {
      "anonymous": false,
      "inputs": [
        {
          "indexed": true,
          "internalType": "address",
          "name": "manager",
          "type": "address"
        }
      ],
      "name": "ManagerRemoved",
      "type": "event"
    },
    {
      "anonymous": false,
      "inputs": [
        {
          "indexed": true,
          "internalType": "address",
          "name": "previousOwner",
          "type": "address"
        },
        {
          "indexed": true,
          "internalType": "address",
          "name": "newOwner",
          "type": "address"
        }
      ],
      "name": "OwnershipTransferred",
      "type": "event"
    },
    {
      "anonymous": false,
      "inputs": [
        {
          "indexed": false,
          "internalType": "address",
          "name": "token",
          "type": "address"
        },
        {
          "indexed": false,
          "internalType": "uint256",
          "name": "amount",
          "type": "uint256"
        },
        {
          "indexed": false,
          "internalType": "uint256",
          "name": "value",
          "type": "uint256"
        },
        {
          "indexed": false,
          "internalType": "uint256",
          "name": "timestamp",
          "type": "uint256"
        }
      ],
      "name": "PriceCached",
      "type": "event"
    },
    {
      "inputs": [],
      "name": "EXPIRY_PERIOD",
      "outputs": [
        {
          "internalType": "uint256",
          "name": "",
          "type": "uint256"
        }
      ],
      "stateMutability": "view",
      "type": "function"
    },
    {
      "inputs": [
        {
          "internalType": "address",
          "name": "manager",
          "type": "address"
        }
      ],
      "name": "addManager",
      "outputs": [],
      "stateMutability": "nonpayable",
      "type": "function"
    },
    {
      "inputs": [],
      "name": "claimOwnership",
      "outputs": [],
      "stateMutability": "nonpayable",
      "type": "function"
    },
    {
      "inputs": [
        {
          "internalType": "address",
          "name": "addr",
          "type": "address"
        }
      ],
      "name": "isManager",
      "outputs": [
        {
          "internalType": "bool",
          "name": "",
          "type": "bool"
        }
      ],
      "stateMutability": "view",
      "type": "function"
    },
    {
      "inputs": [],
      "name": "managers",
      "outputs": [
        {
          "internalType": "address[]",
          "name": "",
          "type": "address[]"
        }
      ],
      "stateMutability": "view",
      "type": "function"
    },
    {
      "inputs": [],
      "name": "numManagers",
      "outputs": [
        {
          "internalType": "uint256",
          "name": "",
          "type": "uint256"
        }
      ],
      "stateMutability": "view",
      "type": "function"
    },
    {
      "inputs": [],
      "name": "oracle",
      "outputs": [
        {
          "internalType": "contract IPriceOracle",
          "name": "",
          "type": "address"
        }
      ],
      "stateMutability": "view",
      "type": "function"
    },
    {
      "inputs": [],
      "name": "owner",
      "outputs": [
        {
          "internalType": "address",
          "name": "",
          "type": "address"
        }
      ],
      "stateMutability": "view",
      "type": "function"
    },
    {
      "inputs": [],
      "name": "pendingOwner",
      "outputs": [
        {
          "internalType": "address",
          "name": "",
          "type": "address"
        }
      ],
      "stateMutability": "view",
      "type": "function"
    },
    {
      "inputs": [
        {
          "internalType": "address",
          "name": "manager",
          "type": "address"
        }
      ],
      "name": "removeManager",
      "outputs": [],
      "stateMutability": "nonpayable",
      "type": "function"
    },
    {
      "inputs": [],
      "name": "renounceOwnership",
      "outputs": [],
      "stateMutability": "nonpayable",
      "type": "function"
    },
    {
      "inputs": [
        {
          "internalType": "contract IPriceOracle",
          "name": "_oracle",
          "type": "address"
        }
      ],
      "name": "setOracle",
      "outputs": [],
      "stateMutability": "nonpayable",
      "type": "function"
    },
    {
      "inputs": [
        {
          "internalType": "address",
          "name": "token",
          "type": "address"
        },
        {
          "internalType": "uint256",
          "name": "amount",
          "type": "uint256"
        },
        {
          "internalType": "uint256",
          "name": "value",
          "type": "uint256"
        }
      ],
      "name": "setTokenPrice",
      "outputs": [],
      "stateMutability": "nonpayable",
      "type": "function"
    },
    {
      "inputs": [
        {
          "internalType": "address",
          "name": "token",
          "type": "address"
        },
        {
          "internalType": "uint256",
          "name": "amount",
          "type": "uint256"
        }
      ],
      "name": "tokenValue",
      "outputs": [
        {
          "internalType": "uint256",
          "name": "",
          "type": "uint256"
        }
      ],
      "stateMutability": "view",
      "type": "function"
    },
    {
      "inputs": [
        {
          "internalType": "address",
          "name": "newOwner",
          "type": "address"
        }
      ],
      "name": "transferOwnership",
      "outputs": [],
      "stateMutability": "nonpayable",
      "type": "function"
    },
    {
      "inputs": [
        {
          "internalType": "address",
          "name": "token",
          "type": "address"
        },
        {
          "internalType": "uint256",
          "name": "amount",
          "type": "uint256"
        }
      ],
      "name": "updateTokenPrice",
      "outputs": [
        {
          "internalType": "uint256",
          "name": "value",
          "type": "uint256"
        }
      ],
      "stateMutability": "nonpayable",
      "type": "function"
    }
  ],
  "bytecode": "0x608060405234801561001057600080fd5b50604051611e01380380611e018339818101604052602081101561003357600080fd5b8101908080519060200190929190505050336000806101000a81548173ffffffffffffffffffffffffffffffffffffffff021916908373ffffffffffffffffffffffffffffffffffffffff16021790555080600360006101000a81548173ffffffffffffffffffffffffffffffffffffffff021916908373ffffffffffffffffffffffffffffffffffffffff16021790555050611d2c806100d56000396000f3fe608060405234801561001057600080fd5b50600436106101005760003560e01c8063ac18de4311610097578063eb1c031611610066578063eb1c03161461037e578063f1821783146103d6578063f2fde38b14610438578063f3ae24151461047c57610100565b8063ac18de4314610286578063d4ee651b146102ca578063e30c39781461032c578063e68777d71461036057610100565b806372311705116100d3578063723117051461017b5780637adbf973146101da5780637dc0d1d01461021e5780638da5cb5b1461025257610100565b80632d06177a146101055780632d7a2e8f146101495780634e71e0c814610167578063715018a614610171575b600080fd5b6101476004803603602081101561011b57600080fd5b81019080803573ffffffffffffffffffffffffffffffffffffffff1690602001909291905050506104d6565b005b6101516105a3565b6040518082815260200191505060405180910390f35b61016f6105aa565b005b6101796107af565b005b61018361092e565b6040518080602001828103825283818151815260200191508051906020019060200280838360005b838110156101c65780820151818401526020810190506101ab565b505050509050019250505060405180910390f35b61021c600480360360208110156101f057600080fd5b81019080803573ffffffffffffffffffffffffffffffffffffffff16906020019092919050505061095e565b005b610226610a1d565b604051808273ffffffffffffffffffffffffffffffffffffffff16815260200191505060405180910390f35b61025a610a43565b604051808273ffffffffffffffffffffffffffffffffffffffff16815260200191505060405180910390f35b6102c86004803603602081101561029c57600080fd5b81019080803573ffffffffffffffffffffffffffffffffffffffff169060200190929190505050610a67565b005b610316600480360360408110156102e057600080fd5b81019080803573ffffffffffffffffffffffffffffffffffffffff16906020019092919080359060200190929190505050610b98565b6040518082815260200191505060405180910390f35b610334610c83565b604051808273ffffffffffffffffffffffffffffffffffffffff16815260200191505060405180910390f35b610368610ca9565b6040518082815260200191505060405180910390f35b6103d46004803603606081101561039457600080fd5b81019080803573ffffffffffffffffffffffffffffffffffffffff1690602001909291908035906020019092919080359060200190929190505050610cd9565b005b610422600480360360408110156103ec57600080fd5b81019080803573ffffffffffffffffffffffffffffffffffffffff16906020019092919080359060200190929190505050610d64565b6040518082815260200191505060405180910390f35b61047a6004803603602081101561044e57600080fd5b81019080803573ffffffffffffffffffffffffffffffffffffffff169060200190929190505050610eed565b005b6104be6004803603602081101561049257600080fd5b81019080803573ffffffffffffffffffffffffffffffffffffffff1690602001909291905050506110ed565b60405180821515815260200191505060405180910390f35b60008054906101000a900473ffffffffffffffffffffffffffffffffffffffff1673ffffffffffffffffffffffffffffffffffffffff163373ffffffffffffffffffffffffffffffffffffffff1614610597576040517f08c379a000000000000000000000000000000000000000000000000000000000815260040180806020018281038252600c8152602001807f554e415554484f52495a4544000000000000000000000000000000000000000081525060200191505060405180910390fd5b6105a081611120565b50565b62093a8081565b600160009054906101000a900473ffffffffffffffffffffffffffffffffffffffff1673ffffffffffffffffffffffffffffffffffffffff163373ffffffffffffffffffffffffffffffffffffffff161461066d576040517f08c379a000000000000000000000000000000000000000000000000000000000815260040180806020018281038252600c8152602001807f554e415554484f52495a4544000000000000000000000000000000000000000081525060200191505060405180910390fd5b600160009054906101000a900473ffffffffffffffffffffffffffffffffffffffff1673ffffffffffffffffffffffffffffffffffffffff1660008054906101000a900473ffffffffffffffffffffffffffffffffffffffff1673ffffffffffffffffffffffffffffffffffffffff167f8be0079c531659141344cd1fd0a4f28419497f9722a3daafe3b4186f6b6457e060405160405180910390a3600160009054906101000a900473ffffffffffffffffffffffffffffffffffffffff166000806101000a81548173ffffffffffffffffffffffffffffffffffffffff021916908373ffffffffffffffffffffffffffffffffffffffff1602179055506000600160006101000a81548173ffffffffffffffffffffffffffffffffffffffff021916908373ffffffffffffffffffffffffffffffffffffffff160217905550565b60008054906101000a900473ffffffffffffffffffffffffffffffffffffffff1673ffffffffffffffffffffffffffffffffffffffff163373ffffffffffffffffffffffffffffffffffffffff1614610870576040517f08c379a000000000000000000000000000000000000000000000000000000000815260040180806020018281038252600c8152602001807f554e415554484f52495a4544000000000000000000000000000000000000000081525060200191505060405180910390fd5b600073ffffffffffffffffffffffffffffffffffffffff1660008054906101000a900473ffffffffffffffffffffffffffffffffffffffff1673ffffffffffffffffffffffffffffffffffffffff167f8be0079c531659141344cd1fd0a4f28419497f9722a3daafe3b4186f6b6457e060405160405180910390a360008060006101000a81548173ffffffffffffffffffffffffffffffffffffffff021916908373ffffffffffffffffffffffffffffffffffffffff160217905550565b60606109597fae79206ff8d89355a31a27bc7df0c55f5fe15ce3ae94530629cd19b6712ea1f8611192565b905090565b610967336110ed565b6109d9576040517f08c379a000000000000000000000000000000000000000000000000000000000815260040180806020018281038252600b8152602001807f4e4f545f4d414e4147455200000000000000000000000000000000000000000081525060200191505060405180910390fd5b80600360006101000a81548173ffffffffffffffffffffffffffffffffffffffff021916908373ffffffffffffffffffffffffffffffffffffffff16021790555050565b600360009054906101000a900473ffffffffffffffffffffffffffffffffffffffff1681565b60008054906101000a900473ffffffffffffffffffffffffffffffffffffffff1681565b60008054906101000a900473ffffffffffffffffffffffffffffffffffffffff1673ffffffffffffffffffffffffffffffffffffffff163373ffffffffffffffffffffffffffffffffffffffff1614610b28576040517f08c379a000000000000000000000000000000000000000000000000000000000815260040180806020018281038252600c8152602001807f554e415554484f52495a4544000000000000000000000000000000000000000081525060200191505060405180910390fd5b610b527fae79206ff8d89355a31a27bc7df0c55f5fe15ce3ae94530629cd19b6712ea1f8826112ce565b8073ffffffffffffffffffffffffffffffffffffffff167fef69f7d97228658c92417be1b16b19058315de71fecb435d07b7d23728b6bd3160405160405180910390a250565b6000600360009054906101000a900473ffffffffffffffffffffffffffffffffffffffff1673ffffffffffffffffffffffffffffffffffffffff1663f182178384846040518363ffffffff1660e01b8152600401808373ffffffffffffffffffffffffffffffffffffffff1681526020018281526020019250505060206040518083038186803b158015610c2b57600080fd5b505afa158015610c3f573d6000803e3d6000fd5b505050506040513d6020811015610c5557600080fd5b810190808051906020019092919050505090506000811115610c7d57610c7c83838361156b565b5b92915050565b600160009054906101000a900473ffffffffffffffffffffffffffffffffffffffff1681565b6000610cd47fae79206ff8d89355a31a27bc7df0c55f5fe15ce3ae94530629cd19b6712ea1f8611738565b905090565b610ce2336110ed565b610d54576040517f08c379a000000000000000000000000000000000000000000000000000000000815260040180806020018281038252600b8152602001807f4e4f545f4d414e4147455200000000000000000000000000000000000000000081525060200191505060405180910390fd5b610d5f83838361156b565b505050565b6000610d6e611c3c565b600460008573ffffffffffffffffffffffffffffffffffffffff1673ffffffffffffffffffffffffffffffffffffffff1681526020019081526020016000206040518060600160405290816000820160009054906101000a90046fffffffffffffffffffffffffffffffff166fffffffffffffffffffffffffffffffff166fffffffffffffffffffffffffffffffff1681526020016000820160109054906101000a90046bffffffffffffffffffffffff166bffffffffffffffffffffffff166bffffffffffffffffffffffff16815260200160008201601c9054906101000a900463ffffffff1663ffffffff1663ffffffff168152505090506000816040015163ffffffff16118015610e90575062093a80816040015163ffffffff160142105b15610ee15780600001516fffffffffffffffffffffffffffffffff16610ed18483602001516bffffffffffffffffffffffff1661175d90919063ffffffff16565b81610ed857fe5b04915050610ee7565b60009150505b92915050565b60008054906101000a900473ffffffffffffffffffffffffffffffffffffffff1673ffffffffffffffffffffffffffffffffffffffff163373ffffffffffffffffffffffffffffffffffffffff1614610fae576040517f08c379a000000000000000000000000000000000000000000000000000000000815260040180806020018281038252600c8152602001807f554e415554484f52495a4544000000000000000000000000000000000000000081525060200191505060405180910390fd5b600073ffffffffffffffffffffffffffffffffffffffff168173ffffffffffffffffffffffffffffffffffffffff1614158015611037575060008054906101000a900473ffffffffffffffffffffffffffffffffffffffff1673ffffffffffffffffffffffffffffffffffffffff168173ffffffffffffffffffffffffffffffffffffffff1614155b6110a9576040517f08c379a000000000000000000000000000000000000000000000000000000000815260040180806020018281038252600f8152602001807f494e56414c49445f41444452455353000000000000000000000000000000000081525060200191505060405180910390fd5b80600160006101000a81548173ffffffffffffffffffffffffffffffffffffffff021916908373ffffffffffffffffffffffffffffffffffffffff16021790555050565b60006111197fae79206ff8d89355a31a27bc7df0c55f5fe15ce3ae94530629cd19b6712ea1f8836117f3565b9050919050565b61114c7fae79206ff8d89355a31a27bc7df0c55f5fe15ce3ae94530629cd19b6712ea1f8826001611854565b8073ffffffffffffffffffffffffffffffffffffffff167f3b4a40cccf2058c593542587329dd385be4f0b588db5471fbd9598e56dd7093a60405160405180910390a250565b60606000600260008481526020019081526020016000209050806000018054905081600201541461122b576040517f08c379a000000000000000000000000000000000000000000000000000000000815260040180806020018281038252600e8152602001807f4e4f545f4d41494e5441494e454400000000000000000000000000000000000081525060200191505060405180910390fd5b600260008481526020019081526020016000206000018054806020026020016040519081016040528092919081815260200182805480156112c157602002820191906000526020600020905b8160009054906101000a900473ffffffffffffffffffffffffffffffffffffffff1673ffffffffffffffffffffffffffffffffffffffff1681526020019060010190808311611277575b5050505050915050919050565b600060026000848152602001908152602001600020905060008160010160008473ffffffffffffffffffffffffffffffffffffffff1673ffffffffffffffffffffffffffffffffffffffff16815260200190815260200160002054905060008114156113a2576040517f08c379a000000000000000000000000000000000000000000000000000000000815260040180806020018281038252600a8152602001807f4e4f545f494e5f5345540000000000000000000000000000000000000000000081525060200191505060405180910390fd5b8160010160008473ffffffffffffffffffffffffffffffffffffffff1673ffffffffffffffffffffffffffffffffffffffff16815260200190815260200160002060009055600182600201600082825403925050819055506000826000018054905011156115655760008260000183600201548154811061141f57fe5b9060005260206000200160009054906101000a900473ffffffffffffffffffffffffffffffffffffffff1690508373ffffffffffffffffffffffffffffffffffffffff168173ffffffffffffffffffffffffffffffffffffffff1614611521578083600001600184038154811061149257fe5b9060005260206000200160006101000a81548173ffffffffffffffffffffffffffffffffffffffff021916908373ffffffffffffffffffffffffffffffffffffffff160217905550818360010160008373ffffffffffffffffffffffffffffffffffffffff1673ffffffffffffffffffffffffffffffffffffffff168152602001908152602001600020819055505b8260000180548061152e57fe5b6001900381819060005260206000200160006101000a81549073ffffffffffffffffffffffffffffffffffffffff02191690559055505b50505050565b61157482611af3565b600460008573ffffffffffffffffffffffffffffffffffffffff1673ffffffffffffffffffffffffffffffffffffffff16815260200190815260200160002060000160006101000a8154816fffffffffffffffffffffffffffffffff02191690836fffffffffffffffffffffffffffffffff1602179055506115f581611b66565b600460008573ffffffffffffffffffffffffffffffffffffffff1673ffffffffffffffffffffffffffffffffffffffff16815260200190815260200160002060000160106101000a8154816bffffffffffffffffffffffff02191690836bffffffffffffffffffffffff16021790555061166e42611bd5565b600460008573ffffffffffffffffffffffffffffffffffffffff1673ffffffffffffffffffffffffffffffffffffffff168152602001908152602001600020600001601c6101000a81548163ffffffff021916908363ffffffff1602179055507fbc2a40fff519547205970921aaa88508fbae67f937dc86fd78a335ee98306e8f83838342604051808573ffffffffffffffffffffffffffffffffffffffff16815260200184815260200183815260200182815260200194505050505060405180910390a1505050565b6000806002600084815260200190815260200160002090508060020154915050919050565b60008183029050600083148061177b57508183828161177857fe5b04145b6117ed576040517f08c379a000000000000000000000000000000000000000000000000000000000815260040180806020018281038252600c8152602001807f4d554c5f4f564552464c4f57000000000000000000000000000000000000000081525060200191505060405180910390fd5b92915050565b6000806002600085815260200190815260200160002060010160008473ffffffffffffffffffffffffffffffffffffffff1673ffffffffffffffffffffffffffffffffffffffff168152602001908152602001600020541415905092915050565b600060026000858152602001908152602001600020905060008160010160008573ffffffffffffffffffffffffffffffffffffffff1673ffffffffffffffffffffffffffffffffffffffff1681526020019081526020016000205414611922576040517f08c379a000000000000000000000000000000000000000000000000000000000815260040180806020018281038252600e8152602001807f414c52454144595f494e5f53455400000000000000000000000000000000000081525060200191505060405180910390fd5b8115611a125780600201548160000180549050146119a8576040517f08c379a00000000000000000000000000000000000000000000000000000000081526004018080602001828103825260198152602001807f50524556494f55534c595f4e4f545f4d41494e5441494c45440000000000000081525060200191505060405180910390fd5b80600001839080600181540180825580915050600190039060005260206000200160009091909190916101000a81548173ffffffffffffffffffffffffffffffffffffffff021916908373ffffffffffffffffffffffffffffffffffffffff160217905550611a90565b6000816000018054905014611a8f576040517f08c379a000000000000000000000000000000000000000000000000000000000815260040180806020018281038252600d8152602001807f4d5553545f4d41494e5441494e0000000000000000000000000000000000000081525060200191505060405180910390fd5b5b6001816002016000828254019250508190555080600201548160010160008573ffffffffffffffffffffffffffffffffffffffff1673ffffffffffffffffffffffffffffffffffffffff1681526020019081526020016000208190555050505050565b60007001000000000000000000000000000000008210611b5e576040517f08c379a0000000000000000000000000000000000000000000000000000000008152600401808060200182810382526027815260200180611caa6027913960400191505060405180910390fd5b819050919050565b60006c010000000000000000000000008210611bcd576040517f08c379a0000000000000000000000000000000000000000000000000000000008152600401808060200182810382526026815260200180611c846026913960400191505060405180910390fd5b819050919050565b60006401000000008210611c34576040517f08c379a0000000000000000000000000000000000000000000000000000000008152600401808060200182810382526026815260200180611cd16026913960400191505060405180910390fd5b819050919050565b604051806060016040528060006fffffffffffffffffffffffffffffffff16815260200160006bffffffffffffffffffffffff168152602001600063ffffffff168152509056fe53616665436173743a2076616c756520646f65736e27742066697420696e203936206269747353616665436173743a2076616c756520646f65736e27742066697420696e20313238206269747353616665436173743a2076616c756520646f65736e27742066697420696e2033322062697473a2646970667358221220b0c35bc5fa40e834d7327b976e26b2fcd338b88280b2ecbee12fbd4479ea813d64736f6c63430007030033",
  "linkReferences": {},
  "deployedLinkReferences": {}
}