{
  "_format": "hh-sol-artifact-1",
  "contractName": "TestPriceOracle",
  "sourceName": "contracts/test/TestPriceOracle.sol",
  "abi": [
    {
      "inputs": [
        {
          "internalType": "address",
          "name": "",
          "type": "address"
        },
        {
          "internalType": "uint256",
          "name": "amount",
          "type": "uint256"
        }
      ],
      "name": "tokenValue",
      "outputs": [
        {
          "internalType": "uint256",
          "name": "value",
          "type": "uint256"
        }
      ],
      "stateMutability": "pure",
      "type": "function"
    }
  ],
  "bytecode": "0x608060405234801561001057600080fd5b5060cd8061001f6000396000f3fe6080604052348015600f57600080fd5b506004361060285760003560e01c8063f182178314602d575b600080fd5b607660048036036040811015604157600080fd5b81019080803573ffffffffffffffffffffffffffffffffffffffff16906020019092919080359060200190929190505050608c565b6040518082815260200191505060405180910390f35b60008190509291505056fea264697066735822122099262e0f1b1013d701cfb59039a39dd71a9711b746e6aeec8046827f3fc2491864736f6c63430007030033",
  "linkReferences": {},
  "deployedLinkReferences": {}
}