{
  "_format": "hh-sol-artifact-1",
  "contractName": "TransferModule",
  "sourceName": "contracts/version2_0/modules/TransferModule.sol",
  "abi": [
    {
      "anonymous": false,
      "inputs": [
        {
          "indexed": false,
          "internalType": "address",
          "name": "token",
          "type": "address"
        },
        {
          "indexed": false,
          "internalType": "address",
          "name": "spender",
          "type": "address"
        },
        {
          "indexed": false,
          "internalType": "uint256",
          "name": "amount",
          "type": "uint256"
        }
      ],
      "name": "Approved",
      "type": "event"
    },
    {
      "anonymous": false,
      "inputs": [
        {
          "indexed": false,
          "internalType": "address",
          "name": "to",
          "type": "address"
        },
        {
          "indexed": false,
          "internalType": "uint256",
          "name": "value",
          "type": "uint256"
        },
        {
          "indexed": false,
          "internalType": "bytes",
          "name": "data",
          "type": "bytes"
        }
      ],
      "name": "ContractCalled",
      "type": "event"
    },
    {
      "anonymous": false,
      "inputs": [
        {
          "indexed": false,
          "internalType": "address",
          "name": "token",
          "type": "address"
        },
        {
          "indexed": false,
          "internalType": "address",
          "name": "to",
          "type": "address"
        },
        {
          "indexed": false,
          "internalType": "uint256",
          "name": "amount",
          "type": "uint256"
        },
        {
          "indexed": false,
          "internalType": "bytes",
          "name": "logdata",
          "type": "bytes"
        }
      ],
      "name": "Transfered",
      "type": "event"
    },
    {
      "inputs": [],
      "name": "TOUCH_GRACE_PERIOD",
      "outputs": [
        {
          "internalType": "uint256",
          "name": "",
          "type": "uint256"
        }
      ],
      "stateMutability": "view",
      "type": "function"
    },
    {
      "inputs": [
        {
          "internalType": "address",
          "name": "token",
          "type": "address"
        },
        {
          "internalType": "address",
          "name": "to",
          "type": "address"
        },
        {
          "internalType": "uint256",
          "name": "amount",
          "type": "uint256"
        },
        {
          "internalType": "uint256",
          "name": "value",
          "type": "uint256"
        },
        {
          "internalType": "bytes",
          "name": "data",
          "type": "bytes"
        },
        {
          "internalType": "bool",
          "name": "forceUseQuota",
          "type": "bool"
        }
      ],
      "name": "approveThenCallContract",
      "outputs": [
        {
          "internalType": "bytes",
          "name": "returnData",
          "type": "bytes"
        }
      ],
      "stateMutability": "nonpayable",
      "type": "function"
    },
    {
      "inputs": [
        {
          "internalType": "address",
          "name": "token",
          "type": "address"
        },
        {
          "internalType": "address",
          "name": "to",
          "type": "address"
        },
        {
          "internalType": "uint256",
          "name": "amount",
          "type": "uint256"
        },
        {
          "internalType": "bool",
          "name": "forceUseQuota",
          "type": "bool"
        }
      ],
      "name": "approveToken",
      "outputs": [],
      "stateMutability": "nonpayable",
      "type": "function"
    },
    {
      "inputs": [
        {
          "internalType": "address[]",
          "name": "token",
          "type": "address[]"
        },
        {
          "internalType": "address[]",
          "name": "to",
          "type": "address[]"
        },
        {
          "internalType": "uint256[]",
          "name": "amount",
          "type": "uint256[]"
        },
        {
          "internalType": "bool[]",
          "name": "forceUseQuota",
          "type": "bool[]"
        }
      ],
      "name": "approveTokens",
      "outputs": [],
      "stateMutability": "nonpayable",
      "type": "function"
    },
    {
      "inputs": [],
      "name": "bindableMethods",
      "outputs": [
        {
          "internalType": "bytes4[]",
          "name": "methods",
          "type": "bytes4[]"
        }
      ],
      "stateMutability": "pure",
      "type": "function"
    },
    {
      "inputs": [
        {
          "internalType": "address",
          "name": "to",
          "type": "address"
        },
        {
          "internalType": "uint256",
          "name": "value",
          "type": "uint256"
        },
        {
          "internalType": "bytes",
          "name": "data",
          "type": "bytes"
        },
        {
          "internalType": "bool",
          "name": "forceUseQuota",
          "type": "bool"
        }
      ],
      "name": "callContract",
      "outputs": [
        {
          "internalType": "bytes",
          "name": "returnData",
          "type": "bytes"
        }
      ],
      "stateMutability": "nonpayable",
      "type": "function"
    },
    {
      "inputs": [
        {
          "internalType": "address[]",
          "name": "to",
          "type": "address[]"
        },
        {
          "internalType": "uint256[]",
          "name": "value",
          "type": "uint256[]"
        },
        {
          "internalType": "bytes[]",
          "name": "data",
          "type": "bytes[]"
        },
        {
          "internalType": "bool[]",
          "name": "forceUseQuota",
          "type": "bool[]"
        }
      ],
      "name": "callContracts",
      "outputs": [],
      "stateMutability": "nonpayable",
      "type": "function"
    },
    {
      "inputs": [
        {
          "internalType": "address",
          "name": "token",
          "type": "address"
        },
        {
          "internalType": "address",
          "name": "to",
          "type": "address"
        },
        {
          "internalType": "uint256",
          "name": "amount",
          "type": "uint256"
        },
        {
          "internalType": "bytes",
          "name": "logdata",
          "type": "bytes"
        },
        {
          "internalType": "bool",
          "name": "forceUseQuota",
          "type": "bool"
        }
      ],
      "name": "transferToken",
      "outputs": [],
      "stateMutability": "nonpayable",
      "type": "function"
    },
    {
      "inputs": [
        {
          "internalType": "address[]",
          "name": "token",
          "type": "address[]"
        },
        {
          "internalType": "address[]",
          "name": "to",
          "type": "address[]"
        },
        {
          "internalType": "uint256[]",
          "name": "amount",
          "type": "uint256[]"
        },
        {
          "internalType": "bytes[]",
          "name": "logdata",
          "type": "bytes[]"
        },
        {
          "internalType": "bool[]",
          "name": "forceUseQuota",
          "type": "bool[]"
        }
      ],
      "name": "transferTokens",
      "outputs": [],
      "stateMutability": "nonpayable",
      "type": "function"
    }
  ],
  "bytecode": "0x608060405234801561001057600080fd5b506130f2806100206000396000f3fe608060405234801561001057600080fd5b50600436106100935760003560e01c80639678b5aa116100665780639678b5aa1461011e578063a1d7876f1461013a578063afa3363d1461016a578063b9806d9914610188578063ff06ff56146101a457610093565b80630d93933e146100985780632e9feb79146100b457806335c125f7146100e4578063840fdc7814610100575b600080fd5b6100b260048036038101906100ad9190612467565b6101c0565b005b6100ce60048036038101906100c991906123e7565b610474565b6040516100db9190612d39565b60405180910390f35b6100fe60048036038101906100f9919061253c565b610637565b005b610108610919565b6040516101159190612ebb565b60405180910390f35b61013860048036038101906101339190612641565b610920565b005b610154600480360381019061014f9190612340565b610bd2565b6040516101619190612d39565b60405180910390f35b610172610dde565b60405161017f9190612d17565b60405180910390f35b6101a2600480360381019061019d91906122ae565b6110d4565b005b6101be60048036038101906101b9919061224b565b611293565b005b6000801b6101cc61144e565b1461020c576040517f08c379a000000000000000000000000000000000000000000000000000000000815260040161020390612d5b565b60405180910390fd5b6000610216611505565b90503073ffffffffffffffffffffffffffffffffffffffff168173ffffffffffffffffffffffffffffffffffffffff16148061031257506102556115d7565b73ffffffffffffffffffffffffffffffffffffffff16638da5cb5b6040518163ffffffff1660e01b815260040160206040518083038186803b15801561029a57600080fd5b505afa1580156102ae573d6000803e3d6000fd5b505050506040513d601f19601f820116820180604052508101906102d29190612222565b73ffffffffffffffffffffffffffffffffffffffff168173ffffffffffffffffffffffffffffffffffffffff16148015610311575061030f6115df565b155b5b610351576040517f08c379a000000000000000000000000000000000000000000000000000000000815260040161034890612dfb565b60405180910390fd5b61036862278d0060006115f090919063ffffffff16565b6000898990509050878790508114801561038457508585905081145b801561039257508383905081145b6103d1576040517f08c379a00000000000000000000000000000000000000000000000000000000081526004016103c890612e5b565b60405180910390fd5b60005b818110156104675761045a8b8b838181106103eb57fe5b905060200201602081019061040091906121f9565b8a8a8481811061040c57fe5b905060200201602081019061042191906121f9565b89898581811061042d57fe5b9050602002013588888681811061044057fe5b90506020020160208101906104559190612716565b6115fa565b80806001019150506103d4565b5050505050505050505050565b60606000801b61048261144e565b146104c2576040517f08c379a00000000000000000000000000000000000000000000000000000000081526004016104b990612d5b565b60405180910390fd5b60006104cc611505565b90503073ffffffffffffffffffffffffffffffffffffffff168173ffffffffffffffffffffffffffffffffffffffff1614806105c8575061050b6115d7565b73ffffffffffffffffffffffffffffffffffffffff16638da5cb5b6040518163ffffffff1660e01b815260040160206040518083038186803b15801561055057600080fd5b505afa158015610564573d6000803e3d6000fd5b505050506040513d601f19601f820116820180604052508101906105889190612222565b73ffffffffffffffffffffffffffffffffffffffff168173ffffffffffffffffffffffffffffffffffffffff161480156105c757506105c56115df565b155b5b610607576040517f08c379a00000000000000000000000000000000000000000000000000000000081526004016105fe90612dfb565b60405180910390fd5b61061e62278d0060006115f090919063ffffffff16565b61062b878787878761163d565b91505095945050505050565b6000801b61064361144e565b14610683576040517f08c379a000000000000000000000000000000000000000000000000000000000815260040161067a90612d5b565b60405180910390fd5b600061068d611505565b90503073ffffffffffffffffffffffffffffffffffffffff168173ffffffffffffffffffffffffffffffffffffffff16148061078957506106cc6115d7565b73ffffffffffffffffffffffffffffffffffffffff16638da5cb5b6040518163ffffffff1660e01b815260040160206040518083038186803b15801561071157600080fd5b505afa158015610725573d6000803e3d6000fd5b505050506040513d601f19601f820116820180604052508101906107499190612222565b73ffffffffffffffffffffffffffffffffffffffff168173ffffffffffffffffffffffffffffffffffffffff1614801561078857506107866115df565b155b5b6107c8576040517f08c379a00000000000000000000000000000000000000000000000000000000081526004016107bf90612dfb565b60405180910390fd5b6107df62278d0060006115f090919063ffffffff16565b60008b8b9050905089899050811480156107fb57508787905081145b801561080957508585905081145b801561081757508383905081145b610856576040517f08c379a000000000000000000000000000000000000000000000000000000000815260040161084d90612e5b565b60405180910390fd5b60005b8181101561090a576108fd8d8d8381811061087057fe5b905060200201602081019061088591906121f9565b8c8c8481811061089157fe5b90506020020160208101906108a691906121f9565b8b8b858181106108b257fe5b905060200201358a8a868181106108c557fe5b90506020028101906108d79190612ed6565b8a8a888181106108e357fe5b90506020020160208101906108f89190612716565b611684565b8080600101915050610859565b50505050505050505050505050565b62278d0081565b6000801b61092c61144e565b1461096c576040517f08c379a000000000000000000000000000000000000000000000000000000000815260040161096390612d5b565b60405180910390fd5b6000610976611505565b90503073ffffffffffffffffffffffffffffffffffffffff168173ffffffffffffffffffffffffffffffffffffffff161480610a7257506109b56115d7565b73ffffffffffffffffffffffffffffffffffffffff16638da5cb5b6040518163ffffffff1660e01b815260040160206040518083038186803b1580156109fa57600080fd5b505afa158015610a0e573d6000803e3d6000fd5b505050506040513d601f19601f82011682018060405250810190610a329190612222565b73ffffffffffffffffffffffffffffffffffffffff168173ffffffffffffffffffffffffffffffffffffffff16148015610a715750610a6f6115df565b155b5b610ab1576040517f08c379a0000000000000000000000000000000000000000000000000000000008152600401610aa890612dfb565b60405180910390fd5b610ac862278d0060006115f090919063ffffffff16565b60008989905090508787905081148015610ae457508585905081145b8015610af257508383905081145b610b31576040517f08c379a0000000000000000000000000000000000000000000000000000000008152600401610b2890612e5b565b60405180910390fd5b60005b81811015610bc557610bb78b8b83818110610b4b57fe5b9050602002016020810190610b6091906121f9565b8a8a84818110610b6c57fe5b90506020020135898985818110610b7f57fe5b9050602002810190610b919190612ed6565b898987818110610b9d57fe5b9050602002016020810190610bb29190612716565b61163d565b508080600101915050610b34565b5050505050505050505050565b60606000801b610be061144e565b14610c20576040517f08c379a0000000000000000000000000000000000000000000000000000000008152600401610c1790612d5b565b60405180910390fd5b6000610c2a611505565b90503073ffffffffffffffffffffffffffffffffffffffff168173ffffffffffffffffffffffffffffffffffffffff161480610d265750610c696115d7565b73ffffffffffffffffffffffffffffffffffffffff16638da5cb5b6040518163ffffffff1660e01b815260040160206040518083038186803b158015610cae57600080fd5b505afa158015610cc2573d6000803e3d6000fd5b505050506040513d601f19601f82011682018060405250810190610ce69190612222565b73ffffffffffffffffffffffffffffffffffffffff168173ffffffffffffffffffffffffffffffffffffffff16148015610d255750610d236115df565b155b5b610d65576040517f08c379a0000000000000000000000000000000000000000000000000000000008152600401610d5c90612dfb565b60405180910390fd5b610d7c62278d0060006115f090919063ffffffff16565b6000610d898a8a8a6116c6565b90508380610da85750610da68960006117e090919063ffffffff16565b155b15610dc357610db78a826117e8565b610dc26000886117e8565b5b610dcf89888888611817565b92505050979650505050505050565b6060600767ffffffffffffffff81118015610df857600080fd5b50604051908082528060200260200182016040528015610e275781602001602082028036833780820191505090505b50905063b9806d9960e01b81600081518110610e3f57fe5b60200260200101907bffffffffffffffffffffffffffffffffffffffffffffffffffffffff191690817bffffffffffffffffffffffffffffffffffffffffffffffffffffffff1916815250506335c125f760e01b81600181518110610ea057fe5b60200260200101907bffffffffffffffffffffffffffffffffffffffffffffffffffffffff191690817bffffffffffffffffffffffffffffffffffffffffffffffffffffffff19168152505063ff06ff5660e01b81600281518110610f0157fe5b60200260200101907bffffffffffffffffffffffffffffffffffffffffffffffffffffffff191690817bffffffffffffffffffffffffffffffffffffffffffffffffffffffff191681525050630d93933e60e01b81600381518110610f6257fe5b60200260200101907bffffffffffffffffffffffffffffffffffffffffffffffffffffffff191690817bffffffffffffffffffffffffffffffffffffffffffffffffffffffff191681525050632e9feb7960e01b81600481518110610fc357fe5b60200260200101907bffffffffffffffffffffffffffffffffffffffffffffffffffffffff191690817bffffffffffffffffffffffffffffffffffffffffffffffffffffffff191681525050639678b5aa60e01b8160058151811061102457fe5b60200260200101907bffffffffffffffffffffffffffffffffffffffffffffffffffffffff191690817bffffffffffffffffffffffffffffffffffffffffffffffffffffffff19168152505063a1d7876f60e01b8160068151811061108557fe5b60200260200101907bffffffffffffffffffffffffffffffffffffffffffffffffffffffff191690817bffffffffffffffffffffffffffffffffffffffffffffffffffffffff19168152505090565b6000801b6110e061144e565b14611120576040517f08c379a000000000000000000000000000000000000000000000000000000000815260040161111790612d5b565b60405180910390fd5b600061112a611505565b90503073ffffffffffffffffffffffffffffffffffffffff168173ffffffffffffffffffffffffffffffffffffffff16148061122657506111696115d7565b73ffffffffffffffffffffffffffffffffffffffff16638da5cb5b6040518163ffffffff1660e01b815260040160206040518083038186803b1580156111ae57600080fd5b505afa1580156111c2573d6000803e3d6000fd5b505050506040513d601f19601f820116820180604052508101906111e69190612222565b73ffffffffffffffffffffffffffffffffffffffff168173ffffffffffffffffffffffffffffffffffffffff1614801561122557506112236115df565b155b5b611265576040517f08c379a000000000000000000000000000000000000000000000000000000000815260040161125c90612dfb565b60405180910390fd5b61127c62278d0060006115f090919063ffffffff16565b61128a878787878787611684565b50505050505050565b6000801b61129f61144e565b146112df576040517f08c379a00000000000000000000000000000000000000000000000000000000081526004016112d690612d5b565b60405180910390fd5b60006112e9611505565b90503073ffffffffffffffffffffffffffffffffffffffff168173ffffffffffffffffffffffffffffffffffffffff1614806113e557506113286115d7565b73ffffffffffffffffffffffffffffffffffffffff16638da5cb5b6040518163ffffffff1660e01b815260040160206040518083038186803b15801561136d57600080fd5b505afa158015611381573d6000803e3d6000fd5b505050506040513d601f19601f820116820180604052508101906113a59190612222565b73ffffffffffffffffffffffffffffffffffffffff168173ffffffffffffffffffffffffffffffffffffffff161480156113e457506113e26115df565b155b5b611424576040517f08c379a000000000000000000000000000000000000000000000000000000000815260040161141b90612dfb565b60405180910390fd5b61143b62278d0060006115f090919063ffffffff16565b611447858585856115fa565b5050505050565b60003073ffffffffffffffffffffffffffffffffffffffff163373ffffffffffffffffffffffffffffffffffffffff1614801561149057506038600036905010155b156114fb576114f460206000369050036000368080601f016020809104026020016040519081016040528093929190818152602001838380828437600081840152601f19601f820116905080830192505050505050506119fe90919063ffffffff16565b9050611502565b6000801b90505b90565b60003073ffffffffffffffffffffffffffffffffffffffff163373ffffffffffffffffffffffffffffffffffffffff1614801561154757506038600036905010155b156115d0576115c96115ae60346000369050036000368080601f016020809104026020016040519081016040528093929190818152602001838380828437600081840152601f19601f82011690508083019250505050505050611a2690919063ffffffff16565b73ffffffffffffffffffffffffffffffffffffffff16611a5d565b90506115d4565b3390505b90565b600030905090565b60006115eb6000611a67565b905090565b6000309050505050565b60006116078585856116c6565b9050818061162657506116248460006117e090919063ffffffff16565b155b156116365761163585826117e8565b5b5050505050565b6060818061165c575061165a8660006117e090919063ffffffff16565b155b1561166d5761166c6000866117e8565b5b61167986868686611817565b905095945050505050565b80806116a1575061169f856000611a7390919063ffffffff16565b155b156116b1576116b086856117e8565b5b6116be8686868686611a7b565b505050505050565b6000808473ffffffffffffffffffffffffffffffffffffffff1663dd62ed3e30866040518363ffffffff1660e01b8152600401611704929190612bd7565b60206040518083038186803b15801561171c57600080fd5b505afa158015611730573d6000803e3d6000fd5b505050506040513d601f19601f820116820180604052508101906117549190612768565b905080831461177f5760008111156117735761177285856000611acc565b5b61177e858585611acc565b5b8083111561179d5761179a8184611c3a90919063ffffffff16565b91505b7f80da462ebfbe41cfc9bc015e7a9a3c7a2a73dbccede72d8ceb583606c27f8f908585856040516117d093929190612c00565b60405180910390a1509392505050565b600092915050565b60008111156118135761181282826118006000611c8a565b6000611c91909392919063ffffffff16565b5b5050565b60608473ffffffffffffffffffffffffffffffffffffffff163073ffffffffffffffffffffffffffffffffffffffff161415611888576040517f08c379a000000000000000000000000000000000000000000000000000000000815260040161187f90612ddb565b60405180910390fd5b60006118946000611c8a565b73ffffffffffffffffffffffffffffffffffffffff1663f182178387670de0b6b3a76400006040518363ffffffff1660e01b81526004016118d6929190612c85565b60206040518083038186803b1580156118ee57600080fd5b505afa158015611902573d6000803e3d6000fd5b505050506040513d601f19601f820116820180604052508101906119269190612768565b14611966576040517f08c379a000000000000000000000000000000000000000000000000000000000815260040161195d90612e1b565b60405180910390fd5b6119b76001868686868080601f016020809104026020016040519081016040528093929190818152602001838380828437600081840152601f19601f82011690508083019250505050505050611c97565b90507f9c8b829578b661bfe74f6d7fa943ea59c34dc54ed4892cd2ceb1e24a2e3ce23e858585856040516119ee9493929190612cd7565b60405180910390a1949350505050565b60006020820183511015611a1157600080fd5b60008260208501015190508091505092915050565b60006014820183511015611a3957600080fd5b60006c01000000000000000000000000836020860101510490508091505092915050565b6000819050919050565b60008030905050919050565b600092915050565b611a86858585611eb3565b7f724eb553335573f549c39aeb2a156ff44ed2f031dbec2ac472abcc8543b2f4568585858585604051611abd959493929190612c37565b60405180910390a15050505050565b600073ffffffffffffffffffffffffffffffffffffffff168373ffffffffffffffffffffffffffffffffffffffff161415611b3c576040517f08c379a0000000000000000000000000000000000000000000000000000000008152600401611b3390612d9b565b60405180910390fd5b606063095ea7b360e01b8383604051602401611b59929190612cae565b604051602081830303815290604052907bffffffffffffffffffffffffffffffffffffffffffffffffffffffff19166020820180517bffffffffffffffffffffffffffffffffffffffffffffffffffffffff838183161783525050505090506060611bc8600186600085611c97565b9050600080825114611bed5781806020019051810190611be8919061273f565b611bf0565b60015b905080611c32576040517f08c379a0000000000000000000000000000000000000000000000000000000008152600401611c2990612e7b565b60405180910390fd5b505050505050565b600082821115611c7f576040517f08c379a0000000000000000000000000000000000000000000000000000000008152600401611c7690612dbb565b60405180910390fd5b818303905092915050565b6000919050565b50505050565b6060600060018660ff161415611d1d578473ffffffffffffffffffffffffffffffffffffffff168484604051611ccd9190612bc0565b60006040518083038185875af1925050503d8060008114611d0a576040519150601f19603f3d011682016040523d82523d6000602084013e611d0f565b606091505b508093508192505050611e9b565b60028660ff161415611d9c578473ffffffffffffffffffffffffffffffffffffffff1683604051611d4e9190612bc0565b600060405180830381855af49150503d8060008114611d89576040519150601f19603f3d011682016040523d82523d6000602084013e611d8e565b606091505b508093508192505050611e9a565b60038660ff161415611e5e5760008414611deb576040517f08c379a0000000000000000000000000000000000000000000000000000000008152600401611de290612e9b565b60405180910390fd5b8473ffffffffffffffffffffffffffffffffffffffff1683604051611e109190612bc0565b600060405180830381855afa9150503d8060008114611e4b576040519150601f19603f3d011682016040523d82523d6000602084013e611e50565b606091505b508093508192505050611e99565b6040517f08c379a0000000000000000000000000000000000000000000000000000000008152600401611e9090612d7b565b60405180910390fd5b5b5b80611eaa573d6000803e3d6000fd5b50949350505050565b600073ffffffffffffffffffffffffffffffffffffffff168373ffffffffffffffffffffffffffffffffffffffff161415611f0a57611f046001838360405180602001604052806000815250611c97565b50612004565b606063a9059cbb60e01b8383604051602401611f27929190612cae565b604051602081830303815290604052907bffffffffffffffffffffffffffffffffffffffffffffffffffffffff19166020820180517bffffffffffffffffffffffffffffffffffffffffffffffffffffffff838183161783525050505090506060611f96600186600085611c97565b9050600080825114611fbb5781806020019051810190611fb6919061273f565b611fbe565b60015b905080612000576040517f08c379a0000000000000000000000000000000000000000000000000000000008152600401611ff790612e3b565b60405180910390fd5b5050505b505050565b60008135905061201881613077565b92915050565b60008151905061202d81613077565b92915050565b60008083601f84011261204557600080fd5b8235905067ffffffffffffffff81111561205e57600080fd5b60208301915083602082028301111561207657600080fd5b9250929050565b60008083601f84011261208f57600080fd5b8235905067ffffffffffffffff8111156120a857600080fd5b6020830191508360208202830111156120c057600080fd5b9250929050565b60008083601f8401126120d957600080fd5b8235905067ffffffffffffffff8111156120f257600080fd5b60208301915083602082028301111561210a57600080fd5b9250929050565b60008083601f84011261212357600080fd5b8235905067ffffffffffffffff81111561213c57600080fd5b60208301915083602082028301111561215457600080fd5b9250929050565b60008135905061216a8161308e565b92915050565b60008151905061217f8161308e565b92915050565b60008083601f84011261219757600080fd5b8235905067ffffffffffffffff8111156121b057600080fd5b6020830191508360018202830111156121c857600080fd5b9250929050565b6000813590506121de816130a5565b92915050565b6000815190506121f3816130a5565b92915050565b60006020828403121561220b57600080fd5b600061221984828501612009565b91505092915050565b60006020828403121561223457600080fd5b60006122428482850161201e565b91505092915050565b6000806000806080858703121561226157600080fd5b600061226f87828801612009565b945050602061228087828801612009565b9350506040612291878288016121cf565b92505060606122a28782880161215b565b91505092959194509250565b60008060008060008060a087890312156122c757600080fd5b60006122d589828a01612009565b96505060206122e689828a01612009565b95505060406122f789828a016121cf565b945050606087013567ffffffffffffffff81111561231457600080fd5b61232089828a01612185565b9350935050608061233389828a0161215b565b9150509295509295509295565b600080600080600080600060c0888a03121561235b57600080fd5b60006123698a828b01612009565b975050602061237a8a828b01612009565b965050604061238b8a828b016121cf565b955050606061239c8a828b016121cf565b945050608088013567ffffffffffffffff8111156123b957600080fd5b6123c58a828b01612185565b935093505060a06123d88a828b0161215b565b91505092959891949750929550565b6000806000806000608086880312156123ff57600080fd5b600061240d88828901612009565b955050602061241e888289016121cf565b945050604086013567ffffffffffffffff81111561243b57600080fd5b61244788828901612185565b9350935050606061245a8882890161215b565b9150509295509295909350565b6000806000806000806000806080898b03121561248357600080fd5b600089013567ffffffffffffffff81111561249d57600080fd5b6124a98b828c01612033565b9850985050602089013567ffffffffffffffff8111156124c857600080fd5b6124d48b828c01612033565b9650965050604089013567ffffffffffffffff8111156124f357600080fd5b6124ff8b828c01612111565b9450945050606089013567ffffffffffffffff81111561251e57600080fd5b61252a8b828c0161207d565b92509250509295985092959890939650565b60008060008060008060008060008060a08b8d03121561255b57600080fd5b60008b013567ffffffffffffffff81111561257557600080fd5b6125818d828e01612033565b9a509a505060208b013567ffffffffffffffff8111156125a057600080fd5b6125ac8d828e01612033565b985098505060408b013567ffffffffffffffff8111156125cb57600080fd5b6125d78d828e01612111565b965096505060608b013567ffffffffffffffff8111156125f657600080fd5b6126028d828e016120c7565b945094505060808b013567ffffffffffffffff81111561262157600080fd5b61262d8d828e0161207d565b92509250509295989b9194979a5092959850565b6000806000806000806000806080898b03121561265d57600080fd5b600089013567ffffffffffffffff81111561267757600080fd5b6126838b828c01612033565b9850985050602089013567ffffffffffffffff8111156126a257600080fd5b6126ae8b828c01612111565b9650965050604089013567ffffffffffffffff8111156126cd57600080fd5b6126d98b828c016120c7565b9450945050606089013567ffffffffffffffff8111156126f857600080fd5b6127048b828c0161207d565b92509250509295985092959890939650565b60006020828403121561272857600080fd5b60006127368482850161215b565b91505092915050565b60006020828403121561275157600080fd5b600061275f84828501612170565b91505092915050565b60006020828403121561277a57600080fd5b6000612788848285016121e4565b91505092915050565b600061279d8383612816565b60208301905092915050565b6127b281612f9e565b82525050565b60006127c382612f3d565b6127cd8185612f60565b93506127d883612f2d565b8060005b838110156128095781516127f08882612791565b97506127fb83612f53565b9250506001810190506127dc565b5085935050505092915050565b61281f81612fbc565b82525050565b60006128318385612f71565b935061283e838584613024565b61284783613066565b840190509392505050565b600061285d82612f48565b6128678185612f71565b9350612877818560208601613033565b61288081613066565b840191505092915050565b600061289682612f48565b6128a08185612f82565b93506128b0818560208601613033565b80840191505092915050565b6128c581613012565b82525050565b60006128d8601583612f8d565b91507f494e56414c49445f54585f41574152455f4841534800000000000000000000006000830152602082019050919050565b6000612918601083612f8d565b91507f554e535550504f525445445f4d4f4445000000000000000000000000000000006000830152602082019050919050565b6000612958600d83612f8d565b91507f494e56414c49445f544f4b454e000000000000000000000000000000000000006000830152602082019050919050565b6000612998600d83612f8d565b91507f5355425f554e444552464c4f57000000000000000000000000000000000000006000830152602082019050919050565b60006129d8600b83612f8d565b91507f4e4f545f414c4f4f5745440000000000000000000000000000000000000000006000830152602082019050919050565b6000612a18602983612f8d565b91507f4e4f545f46524f4d5f57414c4c45545f4f525f4f574e45525f4f525f57414c4c60008301527f45545f4c4f434b454400000000000000000000000000000000000000000000006020830152604082019050919050565b6000612a7e600a83612f8d565b91507f50524f484f4249544544000000000000000000000000000000000000000000006000830152602082019050919050565b6000612abe601583612f8d565b91507f45524332305f5452414e534645525f4641494c454400000000000000000000006000830152602082019050919050565b6000612afe600d83612f8d565b91507f494e56414c49445f53495a4553000000000000000000000000000000000000006000830152602082019050919050565b6000612b3e601483612f8d565b91507f45524332305f415050524f56455f4641494c45440000000000000000000000006000830152602082019050919050565b6000612b7e600d83612f8d565b91507f494e56414c49445f56414c5545000000000000000000000000000000000000006000830152602082019050919050565b612bba81613008565b82525050565b6000612bcc828461288b565b915081905092915050565b6000604082019050612bec60008301856127a9565b612bf960208301846127a9565b9392505050565b6000606082019050612c1560008301866127a9565b612c2260208301856127a9565b612c2f6040830184612bb1565b949350505050565b6000608082019050612c4c60008301886127a9565b612c5960208301876127a9565b612c666040830186612bb1565b8181036060830152612c79818486612825565b90509695505050505050565b6000604082019050612c9a60008301856127a9565b612ca760208301846128bc565b9392505050565b6000604082019050612cc360008301856127a9565b612cd06020830184612bb1565b9392505050565b6000606082019050612cec60008301876127a9565b612cf96020830186612bb1565b8181036040830152612d0c818486612825565b905095945050505050565b60006020820190508181036000830152612d3181846127b8565b905092915050565b60006020820190508181036000830152612d538184612852565b905092915050565b60006020820190508181036000830152612d74816128cb565b9050919050565b60006020820190508181036000830152612d948161290b565b9050919050565b60006020820190508181036000830152612db48161294b565b9050919050565b60006020820190508181036000830152612dd48161298b565b9050919050565b60006020820190508181036000830152612df4816129cb565b9050919050565b60006020820190508181036000830152612e1481612a0b565b9050919050565b60006020820190508181036000830152612e3481612a71565b9050919050565b60006020820190508181036000830152612e5481612ab1565b9050919050565b60006020820190508181036000830152612e7481612af1565b9050919050565b60006020820190508181036000830152612e9481612b31565b9050919050565b60006020820190508181036000830152612eb481612b71565b9050919050565b6000602082019050612ed06000830184612bb1565b92915050565b60008083356001602003843603038112612eef57600080fd5b80840192508235915067ffffffffffffffff821115612f0d57600080fd5b602083019250600182023603831315612f2557600080fd5b509250929050565b6000819050602082019050919050565b600081519050919050565b600081519050919050565b6000602082019050919050565b600082825260208201905092915050565b600082825260208201905092915050565b600081905092915050565b600082825260208201905092915050565b6000612fa982612fe8565b9050919050565b60008115159050919050565b60007fffffffff0000000000000000000000000000000000000000000000000000000082169050919050565b600073ffffffffffffffffffffffffffffffffffffffff82169050919050565b6000819050919050565b600061301d82613008565b9050919050565b82818337600083830152505050565b60005b83811015613051578082015181840152602081019050613036565b83811115613060576000848401525b50505050565b6000601f19601f8301169050919050565b61308081612f9e565b811461308b57600080fd5b50565b61309781612fb0565b81146130a257600080fd5b50565b6130ae81613008565b81146130b957600080fd5b5056fea2646970667358221220ca6e965f7feafc9023a51cb3424f7f39782cf1551e66f19b2b1a4561f912bfd864736f6c63430007030033",
  "linkReferences": {},
  "deployedLinkReferences": {}
}