{
  "_format": "hh-sol-artifact-1",
  "contractName": "WhitelistModule",
  "sourceName": "contracts/version2_0/modules/WhitelistModule.sol",
  "abi": [
    {
      "inputs": [],
      "name": "ADD_TO_WHITELIST_TYPEHASH",
      "outputs": [
        {
          "internalType": "bytes32",
          "name": "",
          "type": "bytes32"
        }
      ],
      "stateMutability": "view",
      "type": "function"
    },
    {
      "inputs": [],
      "name": "REMOVE_FROM_WHITELIST_TYPEHASH",
      "outputs": [
        {
          "internalType": "bytes32",
          "name": "",
          "type": "bytes32"
        }
      ],
      "stateMutability": "view",
      "type": "function"
    },
    {
      "inputs": [],
      "name": "TOUCH_GRACE_PERIOD",
      "outputs": [
        {
          "internalType": "uint256",
          "name": "",
          "type": "uint256"
        }
      ],
      "stateMutability": "view",
      "type": "function"
    },
    {
      "inputs": [],
      "name": "WHITELIST_PENDING_PERIOD",
      "outputs": [
        {
          "internalType": "uint256",
          "name": "",
          "type": "uint256"
        }
      ],
      "stateMutability": "view",
      "type": "function"
    },
    {
      "inputs": [
        {
          "internalType": "address",
          "name": "addr",
          "type": "address"
        }
      ],
      "name": "addToWhitelist",
      "outputs": [],
      "stateMutability": "nonpayable",
      "type": "function"
    },
    {
      "inputs": [
        {
          "components": [
            {
              "internalType": "address[]",
              "name": "signers",
              "type": "address[]"
            },
            {
              "internalType": "bytes[]",
              "name": "signatures",
              "type": "bytes[]"
            },
            {
              "internalType": "uint256",
              "name": "validUntil",
              "type": "uint256"
            }
          ],
          "internalType": "struct SignedRequest.Request",
          "name": "request",
          "type": "tuple"
        },
        {
          "internalType": "address",
          "name": "addr",
          "type": "address"
        }
      ],
      "name": "addToWhitelistWA",
      "outputs": [],
      "stateMutability": "nonpayable",
      "type": "function"
    },
    {
      "inputs": [],
      "name": "bindableMethods",
      "outputs": [
        {
          "internalType": "bytes4[]",
          "name": "methods",
          "type": "bytes4[]"
        }
      ],
      "stateMutability": "pure",
      "type": "function"
    },
    {
      "inputs": [
        {
          "internalType": "address",
          "name": "addr",
          "type": "address"
        }
      ],
      "name": "isWhitelisted",
      "outputs": [
        {
          "internalType": "bool",
          "name": "isWhitelistedAndEffective",
          "type": "bool"
        },
        {
          "internalType": "uint256",
          "name": "effectiveTime",
          "type": "uint256"
        }
      ],
      "stateMutability": "view",
      "type": "function"
    },
    {
      "inputs": [
        {
          "internalType": "address",
          "name": "addr",
          "type": "address"
        }
      ],
      "name": "removeFromWhitelist",
      "outputs": [],
      "stateMutability": "nonpayable",
      "type": "function"
    },
    {
      "inputs": [
        {
          "components": [
            {
              "internalType": "address[]",
              "name": "signers",
              "type": "address[]"
            },
            {
              "internalType": "bytes[]",
              "name": "signatures",
              "type": "bytes[]"
            },
            {
              "internalType": "uint256",
              "name": "validUntil",
              "type": "uint256"
            }
          ],
          "internalType": "struct SignedRequest.Request",
          "name": "request",
          "type": "tuple"
        },
        {
          "internalType": "address",
          "name": "addr",
          "type": "address"
        }
      ],
      "name": "removeFromWhitelistWA",
      "outputs": [],
      "stateMutability": "nonpayable",
      "type": "function"
    },
    {
      "inputs": [],
      "name": "whitelist",
      "outputs": [
        {
          "internalType": "address[]",
          "name": "addresses",
          "type": "address[]"
        },
        {
          "internalType": "uint256[]",
          "name": "effectiveTimes",
          "type": "uint256[]"
        }
      ],
      "stateMutability": "view",
      "type": "function"
    }
  ],
  "bytecode": "0x608060405234801561001057600080fd5b506118ec806100206000396000f3fe608060405234801561001057600080fd5b50600436106100a95760003560e01c80638ab1d681116100715780638ab1d6811461015557806393e59dc1146101715780639ac8a88214610190578063afa3363d146101ac578063e43252d7146101ca578063f5d7faf7146101e6576100a9565b80630b27c803146100ae5780630b825749146100cc5780631427b9ba146100ea5780633af32abf14610106578063840fdc7814610137575b600080fd5b6100b6610204565b6040516100c391906113bd565b60405180910390f35b6100d4610228565b6040516100e191906114de565b60405180910390f35b61010460048036038101906100ff9190610e19565b61022f565b005b610120600480360381019061011b9190610d9e565b61029a565b60405161012e929190611394565b60405180910390f35b61013f6102ba565b60405161014c91906114de565b60405180910390f35b61016f600480360381019061016a9190610d9e565b6102c1565b005b610179610481565b60405161018792919061133b565b60405180910390f35b6101aa60048036038101906101a59190610e19565b610496565b005b6101b4610503565b6040516101c19190611372565b60405180910390f35b6101e460048036038101906101df9190610d9e565b610798565b005b6101ee61096f565b6040516101fb91906113bd565b60405180910390f35b7fb2761ade56f80fd0117a78d2a2f32b3ef07b4c526680d236004405c147021b1181565b6201518081565b6102826002837fc2da89b15913a9b56c9f259da4f89e82b981570453ff17d07a516d5ff0143a1f85604001358560405160200161026e939291906113d8565b604051602081830303815290604052610993565b610296816000610a9790919063ffffffff16565b5050565b6000806102b1836000610aa190919063ffffffff16565b91509150915091565b62278d0081565b6000801b6102cd610aab565b1461030d576040517f08c379a00000000000000000000000000000000000000000000000000000000081526004016103049061140f565b60405180910390fd5b6000610317610b62565b90503073ffffffffffffffffffffffffffffffffffffffff168173ffffffffffffffffffffffffffffffffffffffff1614806104135750610356610c34565b73ffffffffffffffffffffffffffffffffffffffff16638da5cb5b6040518163ffffffff1660e01b815260040160206040518083038186803b15801561039b57600080fd5b505afa1580156103af573d6000803e3d6000fd5b505050506040513d601f19601f820116820180604052508101906103d39190610dc7565b73ffffffffffffffffffffffffffffffffffffffff168173ffffffffffffffffffffffffffffffffffffffff161480156104125750610410610c3c565b155b5b610452576040517f08c379a00000000000000000000000000000000000000000000000000000000081526004016104499061142f565b60405180910390fd5b61046962278d006000610c4d90919063ffffffff16565b61047d826000610a9790919063ffffffff16565b5050565b60608061048e6000610c57565b915091509091565b6104e96002837fb2761ade56f80fd0117a78d2a2f32b3ef07b4c526680d236004405c147021b118560400135856040516020016104d5939291906113d8565b604051602081830303815290604052610993565b6104ff81426000610c5f9092919063ffffffff16565b5050565b6060600667ffffffffffffffff8111801561051d57600080fd5b5060405190808252806020026020018201604052801561054c5781602001602082028036833780820191505090505b5090506393e59dc160e01b8160008151811061056457fe5b60200260200101907bffffffffffffffffffffffffffffffffffffffffffffffffffffffff191690817bffffffffffffffffffffffffffffffffffffffffffffffffffffffff191681525050633af32abf60e01b816001815181106105c557fe5b60200260200101907bffffffffffffffffffffffffffffffffffffffffffffffffffffffff191690817bffffffffffffffffffffffffffffffffffffffffffffffffffffffff19168152505063e43252d760e01b8160028151811061062657fe5b60200260200101907bffffffffffffffffffffffffffffffffffffffffffffffffffffffff191690817bffffffffffffffffffffffffffffffffffffffffffffffffffffffff191681525050639ac8a88260e01b8160038151811061068757fe5b60200260200101907bffffffffffffffffffffffffffffffffffffffffffffffffffffffff191690817bffffffffffffffffffffffffffffffffffffffffffffffffffffffff191681525050638ab1d68160e01b816004815181106106e857fe5b60200260200101907bffffffffffffffffffffffffffffffffffffffffffffffffffffffff191690817bffffffffffffffffffffffffffffffffffffffffffffffffffffffff191681525050631427b9ba60e01b8160058151811061074957fe5b60200260200101907bffffffffffffffffffffffffffffffffffffffffffffffffffffffff191690817bffffffffffffffffffffffffffffffffffffffffffffffffffffffff19168152505090565b6000801b6107a4610aab565b146107e4576040517f08c379a00000000000000000000000000000000000000000000000000000000081526004016107db9061140f565b60405180910390fd5b60006107ee610b62565b90503073ffffffffffffffffffffffffffffffffffffffff168173ffffffffffffffffffffffffffffffffffffffff1614806108ea575061082d610c34565b73ffffffffffffffffffffffffffffffffffffffff16638da5cb5b6040518163ffffffff1660e01b815260040160206040518083038186803b15801561087257600080fd5b505afa158015610886573d6000803e3d6000fd5b505050506040513d601f19601f820116820180604052508101906108aa9190610dc7565b73ffffffffffffffffffffffffffffffffffffffff168173ffffffffffffffffffffffffffffffffffffffff161480156108e957506108e7610c3c565b155b5b610929576040517f08c379a00000000000000000000000000000000000000000000000000000000081526004016109209061142f565b60405180910390fd5b61094062278d006000610c4d90919063ffffffff16565b61096b8261095a6201518042610c6a90919063ffffffff16565b6000610c5f9092919063ffffffff16565b5050565b7fc2da89b15913a9b56c9f259da4f89e82b981570453ff17d07a516d5ff0143a1f81565b600073__$937b6fee264ab6132cdeb8aa56d2145971$__63c236e73c90916109b9610c34565b73ffffffffffffffffffffffffffffffffffffffff1663cb73ac566040518163ffffffff1660e01b815260040160206040518083038186803b1580156109fe57600080fd5b505afa158015610a12573d6000803e3d6000fd5b505050506040513d601f19601f82011682018060405250810190610a369190610df0565b610a3e610aab565b8787876040518763ffffffff1660e01b8152600401610a629695949392919061146f565b60006040518083038186803b158015610a7a57600080fd5b505af4158015610a8e573d6000803e3d6000fd5b50505050505050565b6000309050505050565b6000809250929050565b60003073ffffffffffffffffffffffffffffffffffffffff163373ffffffffffffffffffffffffffffffffffffffff16148015610aed57506038600036905010155b15610b5857610b5160206000369050036000368080601f016020809104026020016040519081016040528093929190818152602001838380828437600081840152601f19601f82011690508083019250505050505050610cba90919063ffffffff16565b9050610b5f565b6000801b90505b90565b60003073ffffffffffffffffffffffffffffffffffffffff163373ffffffffffffffffffffffffffffffffffffffff16148015610ba457506038600036905010155b15610c2d57610c26610c0b60346000369050036000368080601f016020809104026020016040519081016040528093929190818152602001838380828437600081840152601f19601f82011690508083019250505050505050610ce290919063ffffffff16565b73ffffffffffffffffffffffffffffffffffffffff16610d19565b9050610c31565b3390505b90565b600030905090565b6000610c486000610d23565b905090565b6000309050505050565b606080915091565b600030905050505050565b6000818301905082811015610cb4576040517f08c379a0000000000000000000000000000000000000000000000000000000008152600401610cab9061144f565b60405180910390fd5b92915050565b60006020820183511015610ccd57600080fd5b60008260208501015190508091505092915050565b60006014820183511015610cf557600080fd5b60006c01000000000000000000000000836020860101510490508091505092915050565b6000819050919050565b60008030905050919050565b600081359050610d3e81611871565b92915050565b600081519050610d5381611871565b92915050565b600081519050610d6881611888565b92915050565b600060608284031215610d8057600080fd5b81905092915050565b600081359050610d988161189f565b92915050565b600060208284031215610db057600080fd5b6000610dbe84828501610d2f565b91505092915050565b600060208284031215610dd957600080fd5b6000610de784828501610d44565b91505092915050565b600060208284031215610e0257600080fd5b6000610e1084828501610d59565b91505092915050565b60008060408385031215610e2c57600080fd5b600083013567ffffffffffffffff811115610e4657600080fd5b610e5285828601610d6e565b9250506020610e6385828601610d2f565b9150509250929050565b6000610e798383610ee3565b60208301905092915050565b6000610e918383610f01565b60208301905092915050565b6000610ea9838361112a565b60208301905092915050565b6000610ec2848484611139565b90509392505050565b6000610ed7838361130e565b60208301905092915050565b610eec81611765565b82525050565b610efb81611765565b82525050565b610f0a81611765565b82525050565b6000610f1c83856115bb565b9350610f27826114f9565b8060005b85811015610f6057610f3d8284611632565b610f478882610e85565b9750610f5283611569565b925050600181019050610f2b565b5085925050509392505050565b6000610f788261153d565b610f8281856115aa565b9350610f8d83611503565b8060005b83811015610fbe578151610fa58882610e6d565b9750610fb083611576565b925050600181019050610f91565b5085935050505092915050565b6000610fd682611548565b610fe081856115cc565b9350610feb83611513565b8060005b8381101561101c5781516110038882610e9d565b975061100e83611583565b925050600181019050610fef565b5085935050505092915050565b600061103583856115dd565b93508360208402850161104784611523565b8060005b8781101561108d57848403895261106282846116f7565b61106d868284610eb5565b955061107884611590565b935060208b019a50505060018101905061104b565b50829750879450505050509392505050565b60006110aa82611553565b6110b481856115ee565b93506110bf8361152d565b8060005b838110156110f05781516110d78882610ecb565b97506110e28361159d565b9250506001810190506110c3565b5085935050505092915050565b61110681611777565b82525050565b61111581611783565b82525050565b61112481611783565b82525050565b6111338161178d565b82525050565b60006111458385611610565b9350611152838584611808565b61115b8361184c565b840190509392505050565b60006111718261155e565b61117b81856115ff565b935061118b818560208601611817565b6111948161184c565b840191505092915050565b6111a8816117f6565b82525050565b60006111bb601583611621565b91507f494e56414c49445f54585f41574152455f4841534800000000000000000000006000830152602082019050919050565b60006111fb602983611621565b91507f4e4f545f46524f4d5f57414c4c45545f4f525f4f574e45525f4f525f57414c4c60008301527f45545f4c4f434b454400000000000000000000000000000000000000000000006020830152604082019050919050565b6000611261600c83611621565b91507f4144445f4f564552464c4f5700000000000000000000000000000000000000006000830152602082019050919050565b6000606083016112a76000840184611649565b85830360008701526112ba838284610f10565b925050506112cb60208401846116a0565b85830360208701526112de838284611029565b925050506112ef604084018461174e565b6112fc604086018261132c565b508091505092915050565b8082525050565b611317816117ec565b82525050565b611326816117ec565b82525050565b611335816117ec565b82525050565b600060408201905081810360008301526113558185610f6d565b90508181036020830152611369818461109f565b90509392505050565b6000602082019050818103600083015261138c8184610fcb565b905092915050565b60006040820190506113a960008301856110fd565b6113b6602083018461131d565b9392505050565b60006020820190506113d2600083018461110c565b92915050565b60006060820190506113ed600083018661110c565b6113fa602083018561131d565b6114076040830184610ef2565b949350505050565b60006020820190508181036000830152611428816111ae565b9050919050565b60006020820190508181036000830152611448816111ee565b9050919050565b6000602082019050818103600083015261146881611254565b9050919050565b600060c0820190506114846000830189611307565b611491602083018861111b565b61149e604083018761111b565b6114ab606083018661119f565b81810360808301526114bd8185611294565b905081810360a08301526114d18184611166565b9050979650505050505050565b60006020820190506114f3600083018461131d565b92915050565b6000819050919050565b6000819050602082019050919050565b6000819050602082019050919050565b6000819050919050565b6000819050602082019050919050565b600081519050919050565b600081519050919050565b600081519050919050565b600081519050919050565b6000602082019050919050565b6000602082019050919050565b6000602082019050919050565b6000602082019050919050565b6000602082019050919050565b600082825260208201905092915050565b600082825260208201905092915050565b600082825260208201905092915050565b600082825260208201905092915050565b600082825260208201905092915050565b600082825260208201905092915050565b600082825260208201905092915050565b600082825260208201905092915050565b60006116416020840184610d2f565b905092915050565b6000808335600160200384360303811261166257600080fd5b83810192508235915060208301925067ffffffffffffffff82111561168657600080fd5b60208202360384131561169857600080fd5b509250929050565b600080833560016020038436030381126116b957600080fd5b83810192508235915060208301925067ffffffffffffffff8211156116dd57600080fd5b6020820236038413156116ef57600080fd5b509250929050565b6000808335600160200384360303811261171057600080fd5b83810192508235915060208301925067ffffffffffffffff82111561173457600080fd5b60018202360384131561174657600080fd5b509250929050565b600061175d6020840184610d89565b905092915050565b6000611770826117cc565b9050919050565b60008115159050919050565b6000819050919050565b60007fffffffff0000000000000000000000000000000000000000000000000000000082169050919050565b60008190506117c78261185d565b919050565b600073ffffffffffffffffffffffffffffffffffffffff82169050919050565b6000819050919050565b6000611801826117b9565b9050919050565b82818337600083830152505050565b60005b8381101561183557808201518184015260208101905061181a565b83811115611844576000848401525b50505050565bfe5b6000601f19601f8301169050919050565b6005811061186e5761186d61184a565b5b50565b61187a81611765565b811461188557600080fd5b50565b61189181611783565b811461189c57600080fd5b50565b6118a8816117ec565b81146118b357600080fd5b5056fea2646970667358221220dd72b620b63946bd684854d6501628b888c456dcd5dda11554215bb986a65c5d64736f6c63430007030033",
  "linkReferences": {
    "contracts/version2_0/utils/SignedRequest.sol": {
      "SignedRequest": [
        {
          "length": 20,
          "start": 2487
        }
      ]
    }
  },
  "deployedLinkReferences": {
    "contracts/version2_0/utils/SignedRequest.sol": {
      "SignedRequest": [
        {
          "length": 20,
          "start": 2455
        }
      ]
    }
  }
}