{
  "contracts/iface2/StatelessWallet.sol": {
    "StatelessWallet": {
      "abi": [
        {
          "inputs": [
            {
              "internalType": "bytes32",
              "name": "_hash",
              "type": "bytes32"
            },
            {
              "internalType": "bytes",
              "name": "_signature",
              "type": "bytes"
            }
          ],
          "name": "isValidSignature",
          "outputs": [
            {
              "internalType": "bytes4",
              "name": "magicValueB32",
              "type": "bytes4"
            }
          ],
          "stateMutability": "view",
          "type": "function"
        },
        {
          "inputs": [],
          "name": "ownerAndLock",
          "outputs": [
            {
              "internalType": "address",
              "name": "owner",
              "type": "address"
            },
            {
              "internalType": "bool",
              "name": "isLocked",
              "type": "bool"
            }
          ],
          "stateMutability": "view",
          "type": "function"
        },
        {
          "inputs": [],
          "name": "statehash",
          "outputs": [
            {
              "internalType": "bytes32",
              "name": "",
              "type": "bytes32"
            }
          ],
          "stateMutability": "view",
          "type": "function"
        },
        {
          "inputs": [
            {
              "internalType": "bytes",
              "name": "data",
              "type": "bytes"
            }
          ],
          "name": "transact",
          "outputs": [],
          "stateMutability": "nonpayable",
          "type": "function"
        }
      ],
      "evm": {
        "bytecode": {
          "linkReferences": {},
          "object": "608060405234801561001057600080fd5b506114ff806100206000396000f3fe608060405234801561001057600080fd5b506004361061004c5760003560e01c80631626ba7e14610051578063286849a8146100815780633a4648821461009f5780636d6f41cc146100be575b600080fd5b61006b60048036038101906100669190610d01565b6100da565b60405161007891906111e2565b60405180910390f35b61008961012f565b6040516100969190611152565b60405180910390f35b6100a7610135565b6040516100b5929190611129565b60405180910390f35b6100d860048036038101906100d39190610d55565b610171565b005b60008060006100e7610135565b91509150808061010957506101078285876104689092919063ffffffff16565b155b1561011c57600060e01b92505050610129565b631626ba7e60e01b925050505b92915050565b60015481565b600080600180600054901b901c91507f800000000000000000000000000000000000000000000000000000000000000080600054161490509091565b6101796109a5565b82828101906101889190610d9a565b9050600154816000015182606001516040516020016101a892919061106d565b60405160208183030381529060405280519060200120146101fe576040517f08c379a00000000000000000000000000000000000000000000000000000000081526004016101f5906111fd565b60405180910390fd5b600080610209610135565b9150915060006060846000015173ffffffffffffffffffffffffffffffffffffffff168560400151858588606001518960800151604051602001610251959493929190611095565b60405160208183030381529060405260405161026d91906110ec565b600060405180830381855af49150503d80600081146102a8576040519150601f19603f3d011682016040523d82523d6000602084013e6102ad565b606091505b5091509150816102f2576040517f08c379a00000000000000000000000000000000000000000000000000000000081526004016102e99061123d565b60405180910390fd5b6102fa610a0c565b8180602001905181019061030e9190610ddb565b90508473ffffffffffffffffffffffffffffffffffffffff16816000015173ffffffffffffffffffffffffffffffffffffffff1614158061035757508315158160200151151514155b156103d1578060200151156103ae577f8000000000000000000000000000000000000000000000000000000000000000816000015173ffffffffffffffffffffffffffffffffffffffff16176000819055506103d0565b806000015173ffffffffffffffffffffffffffffffffffffffff166000819055505b5b6000816040015182606001516040516020016103ee92919061106d565b6040516020818303038152906040528051906020012090508660200151811461044c576040517f08c379a00000000000000000000000000000000000000000000000000000000081526004016104439061125d565b60405180910390fd5b806001541461045d57806001819055505b505050505050505050565b60008073ffffffffffffffffffffffffffffffffffffffff168373ffffffffffffffffffffffffffffffffffffffff1614156104a757600090506104e9565b6104c68373ffffffffffffffffffffffffffffffffffffffff166104f0565b6104da576104d5848484610535565b6104e6565b6104e58484846106b3565b5b90505b9392505050565b600080823f90506000801b811415801561052d57507fc5d2460186f7233c927e7db2dcc703c0e500b653ca82273b7bfad8045d85a47060001b8114155b915050919050565b60008073ffffffffffffffffffffffffffffffffffffffff168373ffffffffffffffffffffffffffffffffffffffff16141561057457600090506106ac565b600061058b6001845161081c90919063ffffffff16565b905060006105a2828561086c90919063ffffffff16565b60ff1660048111156105b057fe5b9050818452600260048111156105c257fe5b8160048111156105ce57fe5b1415610613576105de8685610894565b73ffffffffffffffffffffffffffffffffffffffff168573ffffffffffffffffffffffffffffffffffffffff161492506106a3565b6003600481111561062057fe5b81600481111561062c57fe5b141561069d576000866040516020016106459190611103565b6040516020818303038152906040528051906020012090506106678186610894565b73ffffffffffffffffffffffffffffffffffffffff168673ffffffffffffffffffffffffffffffffffffffff16149350506106a2565b600092505b5b60018201845250505b9392505050565b60006060631626ba7e60e01b85846040516024016106d292919061116d565b604051602081830303815290604052907bffffffffffffffffffffffffffffffffffffffffffffffffffffffff19166020820180517bffffffffffffffffffffffffffffffffffffffffffffffffffffffff83818316178352505050509050600060608573ffffffffffffffffffffffffffffffffffffffff168360405161075a91906110ec565b600060405180830381855afa9150503d8060008114610795576040519150601f19603f3d011682016040523d82523d6000602084013e61079a565b606091505b50915091508180156107ad575060208151145b80156108105750631626ba7e60e01b7bffffffffffffffffffffffffffffffffffffffffffffffffffffffff19166107ef60008361097d90919063ffffffff16565b7bffffffffffffffffffffffffffffffffffffffffffffffffffffffff1916145b93505050509392505050565b600082821115610861576040517f08c379a00000000000000000000000000000000000000000000000000000000081526004016108589061121d565b60405180910390fd5b818303905092915050565b6000600182018351101561087f57600080fd5b60008260018501015190508091505092915050565b600060418251146108a85760009050610977565b6000806000602085015192506040850151915060ff60418601511690507f7fffffffffffffffffffffffffffffff5d576e7357a4501ddfe92f46681b20a08260001c11156108fc5760009350505050610977565b601b8160ff1614806109115750601c8160ff16145b1561096f5760018682858560405160008152602001604052604051610939949392919061119d565b6020604051602081039080840390855afa15801561095b573d6000803e3d6000fd5b505050602060405103519350505050610977565b600093505050505b92915050565b6000600482018351101561099057600080fd5b60008260208501015190508091505092915050565b6040518060a00160405280600073ffffffffffffffffffffffffffffffffffffffff1681526020016000801916815260200160007bffffffffffffffffffffffffffffffffffffffffffffffffffffffff1916815260200160608152602001606081525090565b6040518060800160405280600073ffffffffffffffffffffffffffffffffffffffff168152602001600015158152602001600073ffffffffffffffffffffffffffffffffffffffff168152602001606081525090565b600081359050610a718161146d565b92915050565b600081519050610a868161146d565b92915050565b600081519050610a9b81611484565b92915050565b600081359050610ab08161149b565b92915050565b600081359050610ac5816114b2565b92915050565b60008083601f840112610add57600080fd5b8235905067ffffffffffffffff811115610af657600080fd5b602083019150836001820283011115610b0e57600080fd5b9250929050565b600082601f830112610b2657600080fd5b8135610b39610b34826112ae565b61127d565b91508082526020830160208301858383011115610b5557600080fd5b610b608382846113a2565b50505092915050565b600082601f830112610b7a57600080fd5b8151610b8d610b88826112ae565b61127d565b91508082526020830160208301858383011115610ba957600080fd5b610bb48382846113b1565b50505092915050565b600060a08284031215610bcf57600080fd5b610bd960a061127d565b90506000610be984828501610a62565b6000830152506020610bfd84828501610aa1565b6020830152506040610c1184828501610ab6565b604083015250606082013567ffffffffffffffff811115610c3157600080fd5b610c3d84828501610b15565b606083015250608082013567ffffffffffffffff811115610c5d57600080fd5b610c6984828501610b15565b60808301525092915050565b600060808284031215610c8757600080fd5b610c91608061127d565b90506000610ca184828501610a77565b6000830152506020610cb584828501610a8c565b6020830152506040610cc984828501610a77565b604083015250606082015167ffffffffffffffff811115610ce957600080fd5b610cf584828501610b69565b60608301525092915050565b60008060408385031215610d1457600080fd5b6000610d2285828601610aa1565b925050602083013567ffffffffffffffff811115610d3f57600080fd5b610d4b85828601610b15565b9150509250929050565b60008060208385031215610d6857600080fd5b600083013567ffffffffffffffff811115610d8257600080fd5b610d8e85828601610acb565b92509250509250929050565b600060208284031215610dac57600080fd5b600082013567ffffffffffffffff811115610dc657600080fd5b610dd284828501610bbd565b91505092915050565b600060208284031215610ded57600080fd5b600082015167ffffffffffffffff811115610e0757600080fd5b610e1384828501610c75565b91505092915050565b610e2581611321565b82525050565b610e3c610e3782611321565b6113e4565b82525050565b610e4b81611333565b82525050565b610e62610e5d82611333565b6113f6565b82525050565b610e718161133f565b82525050565b610e88610e838261133f565b611408565b82525050565b610e9781611349565b82525050565b610eae610ea982611349565b611412565b82525050565b6000610ebf826112de565b610ec981856112e9565b9350610ed98185602086016113b1565b610ee281611442565b840191505092915050565b6000610ef8826112de565b610f0281856112fa565b9350610f128185602086016113b1565b80840191505092915050565b6000610f2b601c83611316565b91507f19457468657265756d205369676e6564204d6573736167653a0a3332000000006000830152601c82019050919050565b6000610f6b600d83611305565b91507f494e56414c49445f5354415445000000000000000000000000000000000000006000830152602082019050919050565b6000610fab600d83611305565b91507f5355425f554e444552464c4f57000000000000000000000000000000000000006000830152602082019050919050565b6000610feb600683611305565b91507f4641494c454400000000000000000000000000000000000000000000000000006000830152602082019050919050565b600061102b601183611305565b91507f494e56414c49445f4e45575f53544154450000000000000000000000000000006000830152602082019050919050565b61106781611395565b82525050565b60006110798285610e2b565b6014820191506110898284610eed565b91508190509392505050565b60006110a18288610e9d565b6004820191506110b18287610e2b565b6014820191506110c18286610e51565b6001820191506110d18285610eed565b91506110dd8284610eed565b91508190509695505050505050565b60006110f88284610eed565b915081905092915050565b600061110e82610f1e565b915061111a8284610e77565b60208201915081905092915050565b600060408201905061113e6000830185610e1c565b61114b6020830184610e42565b9392505050565b60006020820190506111676000830184610e68565b92915050565b60006040820190506111826000830185610e68565b81810360208301526111948184610eb4565b90509392505050565b60006080820190506111b26000830187610e68565b6111bf602083018661105e565b6111cc6040830185610e68565b6111d96060830184610e68565b95945050505050565b60006020820190506111f76000830184610e8e565b92915050565b6000602082019050818103600083015261121681610f5e565b9050919050565b6000602082019050818103600083015261123681610f9e565b9050919050565b6000602082019050818103600083015261125681610fde565b9050919050565b600060208201905081810360008301526112768161101e565b9050919050565b6000604051905081810181811067ffffffffffffffff821117156112a4576112a3611440565b5b8060405250919050565b600067ffffffffffffffff8211156112c9576112c8611440565b5b601f19601f8301169050602081019050919050565b600081519050919050565b600082825260208201905092915050565b600081905092915050565b600082825260208201905092915050565b600081905092915050565b600061132c82611375565b9050919050565b60008115159050919050565b6000819050919050565b60007fffffffff0000000000000000000000000000000000000000000000000000000082169050919050565b600073ffffffffffffffffffffffffffffffffffffffff82169050919050565b600060ff82169050919050565b82818337600083830152505050565b60005b838110156113cf5780820151818401526020810190506113b4565b838111156113de576000848401525b50505050565b60006113ef8261141c565b9050919050565b60006114018261142e565b9050919050565b6000819050919050565b6000819050919050565b600061142782611460565b9050919050565b600061143982611453565b9050919050565bfe5b6000601f19601f8301169050919050565b60008160f81b9050919050565b60008160601b9050919050565b61147681611321565b811461148157600080fd5b50565b61148d81611333565b811461149857600080fd5b50565b6114a48161133f565b81146114af57600080fd5b50565b6114bb81611349565b81146114c657600080fd5b5056fea2646970667358221220b92f1d8d67ac58e4fa19e4a4dfee74e30ed6f7c7008cb175bf82ec51ae68faac64736f6c63430007030033",
          "opcodes": "PUSH1 0x80 PUSH1 0x40 MSTORE CALLVALUE DUP1 ISZERO PUSH2 0x10 JUMPI PUSH1 0x0 DUP1 REVERT JUMPDEST POP PUSH2 0x14FF DUP1 PUSH2 0x20 PUSH1 0x0 CODECOPY PUSH1 0x0 RETURN INVALID PUSH1 0x80 PUSH1 0x40 MSTORE CALLVALUE DUP1 ISZERO PUSH2 0x10 JUMPI PUSH1 0x0 DUP1 REVERT JUMPDEST POP PUSH1 0x4 CALLDATASIZE LT PUSH2 0x4C JUMPI PUSH1 0x0 CALLDATALOAD PUSH1 0xE0 SHR DUP1 PUSH4 0x1626BA7E EQ PUSH2 0x51 JUMPI DUP1 PUSH4 0x286849A8 EQ PUSH2 0x81 JUMPI DUP1 PUSH4 0x3A464882 EQ PUSH2 0x9F JUMPI DUP1 PUSH4 0x6D6F41CC EQ PUSH2 0xBE JUMPI JUMPDEST PUSH1 0x0 DUP1 REVERT JUMPDEST PUSH2 0x6B PUSH1 0x4 DUP1 CALLDATASIZE SUB DUP2 ADD SWAP1 PUSH2 0x66 SWAP2 SWAP1 PUSH2 0xD01 JUMP JUMPDEST PUSH2 0xDA JUMP JUMPDEST PUSH1 0x40 MLOAD PUSH2 0x78 SWAP2 SWAP1 PUSH2 0x11E2 JUMP JUMPDEST PUSH1 0x40 MLOAD DUP1 SWAP2 SUB SWAP1 RETURN JUMPDEST PUSH2 0x89 PUSH2 0x12F JUMP JUMPDEST PUSH1 0x40 MLOAD PUSH2 0x96 SWAP2 SWAP1 PUSH2 0x1152 JUMP JUMPDEST PUSH1 0x40 MLOAD DUP1 SWAP2 SUB SWAP1 RETURN JUMPDEST PUSH2 0xA7 PUSH2 0x135 JUMP JUMPDEST PUSH1 0x40 MLOAD PUSH2 0xB5 SWAP3 SWAP2 SWAP1 PUSH2 0x1129 JUMP JUMPDEST PUSH1 0x40 MLOAD DUP1 SWAP2 SUB SWAP1 RETURN JUMPDEST PUSH2 0xD8 PUSH1 0x4 DUP1 CALLDATASIZE SUB DUP2 ADD SWAP1 PUSH2 0xD3 SWAP2 SWAP1 PUSH2 0xD55 JUMP JUMPDEST PUSH2 0x171 JUMP JUMPDEST STOP JUMPDEST PUSH1 0x0 DUP1 PUSH1 0x0 PUSH2 0xE7 PUSH2 0x135 JUMP JUMPDEST SWAP2 POP SWAP2 POP DUP1 DUP1 PUSH2 0x109 JUMPI POP PUSH2 0x107 DUP3 DUP6 DUP8 PUSH2 0x468 SWAP1 SWAP3 SWAP2 SWAP1 PUSH4 0xFFFFFFFF AND JUMP JUMPDEST ISZERO JUMPDEST ISZERO PUSH2 0x11C JUMPI PUSH1 0x0 PUSH1 0xE0 SHL SWAP3 POP POP POP PUSH2 0x129 JUMP JUMPDEST PUSH4 0x1626BA7E PUSH1 0xE0 SHL SWAP3 POP POP POP JUMPDEST SWAP3 SWAP2 POP POP JUMP JUMPDEST PUSH1 0x1 SLOAD DUP2 JUMP JUMPDEST PUSH1 0x0 DUP1 PUSH1 0x1 DUP1 PUSH1 0x0 SLOAD SWAP1 SHL SWAP1 SHR SWAP2 POP PUSH32 0x8000000000000000000000000000000000000000000000000000000000000000 DUP1 PUSH1 0x0 SLOAD AND EQ SWAP1 POP SWAP1 SWAP2 JUMP JUMPDEST PUSH2 0x179 PUSH2 0x9A5 JUMP JUMPDEST DUP3 DUP3 DUP2 ADD SWAP1 PUSH2 0x188 SWAP2 SWAP1 PUSH2 0xD9A JUMP JUMPDEST SWAP1 POP PUSH1 0x1 SLOAD DUP2 PUSH1 0x0 ADD MLOAD DUP3 PUSH1 0x60 ADD MLOAD PUSH1 0x40 MLOAD PUSH1 0x20 ADD PUSH2 0x1A8 SWAP3 SWAP2 SWAP1 PUSH2 0x106D JUMP JUMPDEST PUSH1 0x40 MLOAD PUSH1 0x20 DUP2 DUP4 SUB SUB DUP2 MSTORE SWAP1 PUSH1 0x40 MSTORE DUP1 MLOAD SWAP1 PUSH1 0x20 ADD KECCAK256 EQ PUSH2 0x1FE JUMPI PUSH1 0x40 MLOAD PUSH32 0x8C379A000000000000000000000000000000000000000000000000000000000 DUP2 MSTORE PUSH1 0x4 ADD PUSH2 0x1F5 SWAP1 PUSH2 0x11FD JUMP JUMPDEST PUSH1 0x40 MLOAD DUP1 SWAP2 SUB SWAP1 REVERT JUMPDEST PUSH1 0x0 DUP1 PUSH2 0x209 PUSH2 0x135 JUMP JUMPDEST SWAP2 POP SWAP2 POP PUSH1 0x0 PUSH1 0x60 DUP5 PUSH1 0x0 ADD MLOAD PUSH20 0xFFFFFFFFFFFFFFFFFFFFFFFFFFFFFFFFFFFFFFFF AND DUP6 PUSH1 0x40 ADD MLOAD DUP6 DUP6 DUP9 PUSH1 0x60 ADD MLOAD DUP10 PUSH1 0x80 ADD MLOAD PUSH1 0x40 MLOAD PUSH1 0x20 ADD PUSH2 0x251 SWAP6 SWAP5 SWAP4 SWAP3 SWAP2 SWAP1 PUSH2 0x1095 JUMP JUMPDEST PUSH1 0x40 MLOAD PUSH1 0x20 DUP2 DUP4 SUB SUB DUP2 MSTORE SWAP1 PUSH1 0x40 MSTORE PUSH1 0x40 MLOAD PUSH2 0x26D SWAP2 SWAP1 PUSH2 0x10EC JUMP JUMPDEST PUSH1 0x0 PUSH1 0x40 MLOAD DUP1 DUP4 SUB DUP2 DUP6 GAS DELEGATECALL SWAP2 POP POP RETURNDATASIZE DUP1 PUSH1 0x0 DUP2 EQ PUSH2 0x2A8 JUMPI PUSH1 0x40 MLOAD SWAP2 POP PUSH1 0x1F NOT PUSH1 0x3F RETURNDATASIZE ADD AND DUP3 ADD PUSH1 0x40 MSTORE RETURNDATASIZE DUP3 MSTORE RETURNDATASIZE PUSH1 0x0 PUSH1 0x20 DUP5 ADD RETURNDATACOPY PUSH2 0x2AD JUMP JUMPDEST PUSH1 0x60 SWAP2 POP JUMPDEST POP SWAP2 POP SWAP2 POP DUP2 PUSH2 0x2F2 JUMPI PUSH1 0x40 MLOAD PUSH32 0x8C379A000000000000000000000000000000000000000000000000000000000 DUP2 MSTORE PUSH1 0x4 ADD PUSH2 0x2E9 SWAP1 PUSH2 0x123D JUMP JUMPDEST PUSH1 0x40 MLOAD DUP1 SWAP2 SUB SWAP1 REVERT JUMPDEST PUSH2 0x2FA PUSH2 0xA0C JUMP JUMPDEST DUP2 DUP1 PUSH1 0x20 ADD SWAP1 MLOAD DUP2 ADD SWAP1 PUSH2 0x30E SWAP2 SWAP1 PUSH2 0xDDB JUMP JUMPDEST SWAP1 POP DUP5 PUSH20 0xFFFFFFFFFFFFFFFFFFFFFFFFFFFFFFFFFFFFFFFF AND DUP2 PUSH1 0x0 ADD MLOAD PUSH20 0xFFFFFFFFFFFFFFFFFFFFFFFFFFFFFFFFFFFFFFFF AND EQ ISZERO DUP1 PUSH2 0x357 JUMPI POP DUP4 ISZERO ISZERO DUP2 PUSH1 0x20 ADD MLOAD ISZERO ISZERO EQ ISZERO JUMPDEST ISZERO PUSH2 0x3D1 JUMPI DUP1 PUSH1 0x20 ADD MLOAD ISZERO PUSH2 0x3AE JUMPI PUSH32 0x8000000000000000000000000000000000000000000000000000000000000000 DUP2 PUSH1 0x0 ADD MLOAD PUSH20 0xFFFFFFFFFFFFFFFFFFFFFFFFFFFFFFFFFFFFFFFF AND OR PUSH1 0x0 DUP2 SWAP1 SSTORE POP PUSH2 0x3D0 JUMP JUMPDEST DUP1 PUSH1 0x0 ADD MLOAD PUSH20 0xFFFFFFFFFFFFFFFFFFFFFFFFFFFFFFFFFFFFFFFF AND PUSH1 0x0 DUP2 SWAP1 SSTORE POP JUMPDEST JUMPDEST PUSH1 0x0 DUP2 PUSH1 0x40 ADD MLOAD DUP3 PUSH1 0x60 ADD MLOAD PUSH1 0x40 MLOAD PUSH1 0x20 ADD PUSH2 0x3EE SWAP3 SWAP2 SWAP1 PUSH2 0x106D JUMP JUMPDEST PUSH1 0x40 MLOAD PUSH1 0x20 DUP2 DUP4 SUB SUB DUP2 MSTORE SWAP1 PUSH1 0x40 MSTORE DUP1 MLOAD SWAP1 PUSH1 0x20 ADD KECCAK256 SWAP1 POP DUP7 PUSH1 0x20 ADD MLOAD DUP2 EQ PUSH2 0x44C JUMPI PUSH1 0x40 MLOAD PUSH32 0x8C379A000000000000000000000000000000000000000000000000000000000 DUP2 MSTORE PUSH1 0x4 ADD PUSH2 0x443 SWAP1 PUSH2 0x125D JUMP JUMPDEST PUSH1 0x40 MLOAD DUP1 SWAP2 SUB SWAP1 REVERT JUMPDEST DUP1 PUSH1 0x1 SLOAD EQ PUSH2 0x45D JUMPI DUP1 PUSH1 0x1 DUP2 SWAP1 SSTORE POP JUMPDEST POP POP POP POP POP POP POP POP POP JUMP JUMPDEST PUSH1 0x0 DUP1 PUSH20 0xFFFFFFFFFFFFFFFFFFFFFFFFFFFFFFFFFFFFFFFF AND DUP4 PUSH20 0xFFFFFFFFFFFFFFFFFFFFFFFFFFFFFFFFFFFFFFFF AND EQ ISZERO PUSH2 0x4A7 JUMPI PUSH1 0x0 SWAP1 POP PUSH2 0x4E9 JUMP JUMPDEST PUSH2 0x4C6 DUP4 PUSH20 0xFFFFFFFFFFFFFFFFFFFFFFFFFFFFFFFFFFFFFFFF AND PUSH2 0x4F0 JUMP JUMPDEST PUSH2 0x4DA JUMPI PUSH2 0x4D5 DUP5 DUP5 DUP5 PUSH2 0x535 JUMP JUMPDEST PUSH2 0x4E6 JUMP JUMPDEST PUSH2 0x4E5 DUP5 DUP5 DUP5 PUSH2 0x6B3 JUMP JUMPDEST JUMPDEST SWAP1 POP JUMPDEST SWAP4 SWAP3 POP POP POP JUMP JUMPDEST PUSH1 0x0 DUP1 DUP3 EXTCODEHASH SWAP1 POP PUSH1 0x0 DUP1 SHL DUP2 EQ ISZERO DUP1 ISZERO PUSH2 0x52D JUMPI POP PUSH32 0xC5D2460186F7233C927E7DB2DCC703C0E500B653CA82273B7BFAD8045D85A470 PUSH1 0x0 SHL DUP2 EQ ISZERO JUMPDEST SWAP2 POP POP SWAP2 SWAP1 POP JUMP JUMPDEST PUSH1 0x0 DUP1 PUSH20 0xFFFFFFFFFFFFFFFFFFFFFFFFFFFFFFFFFFFFFFFF AND DUP4 PUSH20 0xFFFFFFFFFFFFFFFFFFFFFFFFFFFFFFFFFFFFFFFF AND EQ ISZERO PUSH2 0x574 JUMPI PUSH1 0x0 SWAP1 POP PUSH2 0x6AC JUMP JUMPDEST PUSH1 0x0 PUSH2 0x58B PUSH1 0x1 DUP5 MLOAD PUSH2 0x81C SWAP1 SWAP2 SWAP1 PUSH4 0xFFFFFFFF AND JUMP JUMPDEST SWAP1 POP PUSH1 0x0 PUSH2 0x5A2 DUP3 DUP6 PUSH2 0x86C SWAP1 SWAP2 SWAP1 PUSH4 0xFFFFFFFF AND JUMP JUMPDEST PUSH1 0xFF AND PUSH1 0x4 DUP2 GT ISZERO PUSH2 0x5B0 JUMPI INVALID JUMPDEST SWAP1 POP DUP2 DUP5 MSTORE PUSH1 0x2 PUSH1 0x4 DUP2 GT ISZERO PUSH2 0x5C2 JUMPI INVALID JUMPDEST DUP2 PUSH1 0x4 DUP2 GT ISZERO PUSH2 0x5CE JUMPI INVALID JUMPDEST EQ ISZERO PUSH2 0x613 JUMPI PUSH2 0x5DE DUP7 DUP6 PUSH2 0x894 JUMP JUMPDEST PUSH20 0xFFFFFFFFFFFFFFFFFFFFFFFFFFFFFFFFFFFFFFFF AND DUP6 PUSH20 0xFFFFFFFFFFFFFFFFFFFFFFFFFFFFFFFFFFFFFFFF AND EQ SWAP3 POP PUSH2 0x6A3 JUMP JUMPDEST PUSH1 0x3 PUSH1 0x4 DUP2 GT ISZERO PUSH2 0x620 JUMPI INVALID JUMPDEST DUP2 PUSH1 0x4 DUP2 GT ISZERO PUSH2 0x62C JUMPI INVALID JUMPDEST EQ ISZERO PUSH2 0x69D JUMPI PUSH1 0x0 DUP7 PUSH1 0x40 MLOAD PUSH1 0x20 ADD PUSH2 0x645 SWAP2 SWAP1 PUSH2 0x1103 JUMP JUMPDEST PUSH1 0x40 MLOAD PUSH1 0x20 DUP2 DUP4 SUB SUB DUP2 MSTORE SWAP1 PUSH1 0x40 MSTORE DUP1 MLOAD SWAP1 PUSH1 0x20 ADD KECCAK256 SWAP1 POP PUSH2 0x667 DUP2 DUP7 PUSH2 0x894 JUMP JUMPDEST PUSH20 0xFFFFFFFFFFFFFFFFFFFFFFFFFFFFFFFFFFFFFFFF AND DUP7 PUSH20 0xFFFFFFFFFFFFFFFFFFFFFFFFFFFFFFFFFFFFFFFF AND EQ SWAP4 POP POP PUSH2 0x6A2 JUMP JUMPDEST PUSH1 0x0 SWAP3 POP JUMPDEST JUMPDEST PUSH1 0x1 DUP3 ADD DUP5 MSTORE POP POP JUMPDEST SWAP4 SWAP3 POP POP POP JUMP JUMPDEST PUSH1 0x0 PUSH1 0x60 PUSH4 0x1626BA7E PUSH1 0xE0 SHL DUP6 DUP5 PUSH1 0x40 MLOAD PUSH1 0x24 ADD PUSH2 0x6D2 SWAP3 SWAP2 SWAP1 PUSH2 0x116D JUMP JUMPDEST PUSH1 0x40 MLOAD PUSH1 0x20 DUP2 DUP4 SUB SUB DUP2 MSTORE SWAP1 PUSH1 0x40 MSTORE SWAP1 PUSH28 0xFFFFFFFFFFFFFFFFFFFFFFFFFFFFFFFFFFFFFFFFFFFFFFFFFFFFFFFF NOT AND PUSH1 0x20 DUP3 ADD DUP1 MLOAD PUSH28 0xFFFFFFFFFFFFFFFFFFFFFFFFFFFFFFFFFFFFFFFFFFFFFFFFFFFFFFFF DUP4 DUP2 DUP4 AND OR DUP4 MSTORE POP POP POP POP SWAP1 POP PUSH1 0x0 PUSH1 0x60 DUP6 PUSH20 0xFFFFFFFFFFFFFFFFFFFFFFFFFFFFFFFFFFFFFFFF AND DUP4 PUSH1 0x40 MLOAD PUSH2 0x75A SWAP2 SWAP1 PUSH2 0x10EC JUMP JUMPDEST PUSH1 0x0 PUSH1 0x40 MLOAD DUP1 DUP4 SUB DUP2 DUP6 GAS STATICCALL SWAP2 POP POP RETURNDATASIZE DUP1 PUSH1 0x0 DUP2 EQ PUSH2 0x795 JUMPI PUSH1 0x40 MLOAD SWAP2 POP PUSH1 0x1F NOT PUSH1 0x3F RETURNDATASIZE ADD AND DUP3 ADD PUSH1 0x40 MSTORE RETURNDATASIZE DUP3 MSTORE RETURNDATASIZE PUSH1 0x0 PUSH1 0x20 DUP5 ADD RETURNDATACOPY PUSH2 0x79A JUMP JUMPDEST PUSH1 0x60 SWAP2 POP JUMPDEST POP SWAP2 POP SWAP2 POP DUP2 DUP1 ISZERO PUSH2 0x7AD JUMPI POP PUSH1 0x20 DUP2 MLOAD EQ JUMPDEST DUP1 ISZERO PUSH2 0x810 JUMPI POP PUSH4 0x1626BA7E PUSH1 0xE0 SHL PUSH28 0xFFFFFFFFFFFFFFFFFFFFFFFFFFFFFFFFFFFFFFFFFFFFFFFFFFFFFFFF NOT AND PUSH2 0x7EF PUSH1 0x0 DUP4 PUSH2 0x97D SWAP1 SWAP2 SWAP1 PUSH4 0xFFFFFFFF AND JUMP JUMPDEST PUSH28 0xFFFFFFFFFFFFFFFFFFFFFFFFFFFFFFFFFFFFFFFFFFFFFFFFFFFFFFFF NOT AND EQ JUMPDEST SWAP4 POP POP POP POP SWAP4 SWAP3 POP POP POP JUMP JUMPDEST PUSH1 0x0 DUP3 DUP3 GT ISZERO PUSH2 0x861 JUMPI PUSH1 0x40 MLOAD PUSH32 0x8C379A000000000000000000000000000000000000000000000000000000000 DUP2 MSTORE PUSH1 0x4 ADD PUSH2 0x858 SWAP1 PUSH2 0x121D JUMP JUMPDEST PUSH1 0x40 MLOAD DUP1 SWAP2 SUB SWAP1 REVERT JUMPDEST DUP2 DUP4 SUB SWAP1 POP SWAP3 SWAP2 POP POP JUMP JUMPDEST PUSH1 0x0 PUSH1 0x1 DUP3 ADD DUP4 MLOAD LT ISZERO PUSH2 0x87F JUMPI PUSH1 0x0 DUP1 REVERT JUMPDEST PUSH1 0x0 DUP3 PUSH1 0x1 DUP6 ADD ADD MLOAD SWAP1 POP DUP1 SWAP2 POP POP SWAP3 SWAP2 POP POP JUMP JUMPDEST PUSH1 0x0 PUSH1 0x41 DUP3 MLOAD EQ PUSH2 0x8A8 JUMPI PUSH1 0x0 SWAP1 POP PUSH2 0x977 JUMP JUMPDEST PUSH1 0x0 DUP1 PUSH1 0x0 PUSH1 0x20 DUP6 ADD MLOAD SWAP3 POP PUSH1 0x40 DUP6 ADD MLOAD SWAP2 POP PUSH1 0xFF PUSH1 0x41 DUP7 ADD MLOAD AND SWAP1 POP PUSH32 0x7FFFFFFFFFFFFFFFFFFFFFFFFFFFFFFF5D576E7357A4501DDFE92F46681B20A0 DUP3 PUSH1 0x0 SHR GT ISZERO PUSH2 0x8FC JUMPI PUSH1 0x0 SWAP4 POP POP POP POP PUSH2 0x977 JUMP JUMPDEST PUSH1 0x1B DUP2 PUSH1 0xFF AND EQ DUP1 PUSH2 0x911 JUMPI POP PUSH1 0x1C DUP2 PUSH1 0xFF AND EQ JUMPDEST ISZERO PUSH2 0x96F JUMPI PUSH1 0x1 DUP7 DUP3 DUP6 DUP6 PUSH1 0x40 MLOAD PUSH1 0x0 DUP2 MSTORE PUSH1 0x20 ADD PUSH1 0x40 MSTORE PUSH1 0x40 MLOAD PUSH2 0x939 SWAP5 SWAP4 SWAP3 SWAP2 SWAP1 PUSH2 0x119D JUMP JUMPDEST PUSH1 0x20 PUSH1 0x40 MLOAD PUSH1 0x20 DUP2 SUB SWAP1 DUP1 DUP5 SUB SWAP1 DUP6 GAS STATICCALL ISZERO DUP1 ISZERO PUSH2 0x95B JUMPI RETURNDATASIZE PUSH1 0x0 DUP1 RETURNDATACOPY RETURNDATASIZE PUSH1 0x0 REVERT JUMPDEST POP POP POP PUSH1 0x20 PUSH1 0x40 MLOAD SUB MLOAD SWAP4 POP POP POP POP PUSH2 0x977 JUMP JUMPDEST PUSH1 0x0 SWAP4 POP POP POP POP JUMPDEST SWAP3 SWAP2 POP POP JUMP JUMPDEST PUSH1 0x0 PUSH1 0x4 DUP3 ADD DUP4 MLOAD LT ISZERO PUSH2 0x990 JUMPI PUSH1 0x0 DUP1 REVERT JUMPDEST PUSH1 0x0 DUP3 PUSH1 0x20 DUP6 ADD ADD MLOAD SWAP1 POP DUP1 SWAP2 POP POP SWAP3 SWAP2 POP POP JUMP JUMPDEST PUSH1 0x40 MLOAD DUP1 PUSH1 0xA0 ADD PUSH1 0x40 MSTORE DUP1 PUSH1 0x0 PUSH20 0xFFFFFFFFFFFFFFFFFFFFFFFFFFFFFFFFFFFFFFFF AND DUP2 MSTORE PUSH1 0x20 ADD PUSH1 0x0 DUP1 NOT AND DUP2 MSTORE PUSH1 0x20 ADD PUSH1 0x0 PUSH28 0xFFFFFFFFFFFFFFFFFFFFFFFFFFFFFFFFFFFFFFFFFFFFFFFFFFFFFFFF NOT AND DUP2 MSTORE PUSH1 0x20 ADD PUSH1 0x60 DUP2 MSTORE PUSH1 0x20 ADD PUSH1 0x60 DUP2 MSTORE POP SWAP1 JUMP JUMPDEST PUSH1 0x40 MLOAD DUP1 PUSH1 0x80 ADD PUSH1 0x40 MSTORE DUP1 PUSH1 0x0 PUSH20 0xFFFFFFFFFFFFFFFFFFFFFFFFFFFFFFFFFFFFFFFF AND DUP2 MSTORE PUSH1 0x20 ADD PUSH1 0x0 ISZERO ISZERO DUP2 MSTORE PUSH1 0x20 ADD PUSH1 0x0 PUSH20 0xFFFFFFFFFFFFFFFFFFFFFFFFFFFFFFFFFFFFFFFF AND DUP2 MSTORE PUSH1 0x20 ADD PUSH1 0x60 DUP2 MSTORE POP SWAP1 JUMP JUMPDEST PUSH1 0x0 DUP2 CALLDATALOAD SWAP1 POP PUSH2 0xA71 DUP2 PUSH2 0x146D JUMP JUMPDEST SWAP3 SWAP2 POP POP JUMP JUMPDEST PUSH1 0x0 DUP2 MLOAD SWAP1 POP PUSH2 0xA86 DUP2 PUSH2 0x146D JUMP JUMPDEST SWAP3 SWAP2 POP POP JUMP JUMPDEST PUSH1 0x0 DUP2 MLOAD SWAP1 POP PUSH2 0xA9B DUP2 PUSH2 0x1484 JUMP JUMPDEST SWAP3 SWAP2 POP POP JUMP JUMPDEST PUSH1 0x0 DUP2 CALLDATALOAD SWAP1 POP PUSH2 0xAB0 DUP2 PUSH2 0x149B JUMP JUMPDEST SWAP3 SWAP2 POP POP JUMP JUMPDEST PUSH1 0x0 DUP2 CALLDATALOAD SWAP1 POP PUSH2 0xAC5 DUP2 PUSH2 0x14B2 JUMP JUMPDEST SWAP3 SWAP2 POP POP JUMP JUMPDEST PUSH1 0x0 DUP1 DUP4 PUSH1 0x1F DUP5 ADD SLT PUSH2 0xADD JUMPI PUSH1 0x0 DUP1 REVERT JUMPDEST DUP3 CALLDATALOAD SWAP1 POP PUSH8 0xFFFFFFFFFFFFFFFF DUP2 GT ISZERO PUSH2 0xAF6 JUMPI PUSH1 0x0 DUP1 REVERT JUMPDEST PUSH1 0x20 DUP4 ADD SWAP2 POP DUP4 PUSH1 0x1 DUP3 MUL DUP4 ADD GT ISZERO PUSH2 0xB0E JUMPI PUSH1 0x0 DUP1 REVERT JUMPDEST SWAP3 POP SWAP3 SWAP1 POP JUMP JUMPDEST PUSH1 0x0 DUP3 PUSH1 0x1F DUP4 ADD SLT PUSH2 0xB26 JUMPI PUSH1 0x0 DUP1 REVERT JUMPDEST DUP2 CALLDATALOAD PUSH2 0xB39 PUSH2 0xB34 DUP3 PUSH2 0x12AE JUMP JUMPDEST PUSH2 0x127D JUMP JUMPDEST SWAP2 POP DUP1 DUP3 MSTORE PUSH1 0x20 DUP4 ADD PUSH1 0x20 DUP4 ADD DUP6 DUP4 DUP4 ADD GT ISZERO PUSH2 0xB55 JUMPI PUSH1 0x0 DUP1 REVERT JUMPDEST PUSH2 0xB60 DUP4 DUP3 DUP5 PUSH2 0x13A2 JUMP JUMPDEST POP POP POP SWAP3 SWAP2 POP POP JUMP JUMPDEST PUSH1 0x0 DUP3 PUSH1 0x1F DUP4 ADD SLT PUSH2 0xB7A JUMPI PUSH1 0x0 DUP1 REVERT JUMPDEST DUP2 MLOAD PUSH2 0xB8D PUSH2 0xB88 DUP3 PUSH2 0x12AE JUMP JUMPDEST PUSH2 0x127D JUMP JUMPDEST SWAP2 POP DUP1 DUP3 MSTORE PUSH1 0x20 DUP4 ADD PUSH1 0x20 DUP4 ADD DUP6 DUP4 DUP4 ADD GT ISZERO PUSH2 0xBA9 JUMPI PUSH1 0x0 DUP1 REVERT JUMPDEST PUSH2 0xBB4 DUP4 DUP3 DUP5 PUSH2 0x13B1 JUMP JUMPDEST POP POP POP SWAP3 SWAP2 POP POP JUMP JUMPDEST PUSH1 0x0 PUSH1 0xA0 DUP3 DUP5 SUB SLT ISZERO PUSH2 0xBCF JUMPI PUSH1 0x0 DUP1 REVERT JUMPDEST PUSH2 0xBD9 PUSH1 0xA0 PUSH2 0x127D JUMP JUMPDEST SWAP1 POP PUSH1 0x0 PUSH2 0xBE9 DUP5 DUP3 DUP6 ADD PUSH2 0xA62 JUMP JUMPDEST PUSH1 0x0 DUP4 ADD MSTORE POP PUSH1 0x20 PUSH2 0xBFD DUP5 DUP3 DUP6 ADD PUSH2 0xAA1 JUMP JUMPDEST PUSH1 0x20 DUP4 ADD MSTORE POP PUSH1 0x40 PUSH2 0xC11 DUP5 DUP3 DUP6 ADD PUSH2 0xAB6 JUMP JUMPDEST PUSH1 0x40 DUP4 ADD MSTORE POP PUSH1 0x60 DUP3 ADD CALLDATALOAD PUSH8 0xFFFFFFFFFFFFFFFF DUP2 GT ISZERO PUSH2 0xC31 JUMPI PUSH1 0x0 DUP1 REVERT JUMPDEST PUSH2 0xC3D DUP5 DUP3 DUP6 ADD PUSH2 0xB15 JUMP JUMPDEST PUSH1 0x60 DUP4 ADD MSTORE POP PUSH1 0x80 DUP3 ADD CALLDATALOAD PUSH8 0xFFFFFFFFFFFFFFFF DUP2 GT ISZERO PUSH2 0xC5D JUMPI PUSH1 0x0 DUP1 REVERT JUMPDEST PUSH2 0xC69 DUP5 DUP3 DUP6 ADD PUSH2 0xB15 JUMP JUMPDEST PUSH1 0x80 DUP4 ADD MSTORE POP SWAP3 SWAP2 POP POP JUMP JUMPDEST PUSH1 0x0 PUSH1 0x80 DUP3 DUP5 SUB SLT ISZERO PUSH2 0xC87 JUMPI PUSH1 0x0 DUP1 REVERT JUMPDEST PUSH2 0xC91 PUSH1 0x80 PUSH2 0x127D JUMP JUMPDEST SWAP1 POP PUSH1 0x0 PUSH2 0xCA1 DUP5 DUP3 DUP6 ADD PUSH2 0xA77 JUMP JUMPDEST PUSH1 0x0 DUP4 ADD MSTORE POP PUSH1 0x20 PUSH2 0xCB5 DUP5 DUP3 DUP6 ADD PUSH2 0xA8C JUMP JUMPDEST PUSH1 0x20 DUP4 ADD MSTORE POP PUSH1 0x40 PUSH2 0xCC9 DUP5 DUP3 DUP6 ADD PUSH2 0xA77 JUMP JUMPDEST PUSH1 0x40 DUP4 ADD MSTORE POP PUSH1 0x60 DUP3 ADD MLOAD PUSH8 0xFFFFFFFFFFFFFFFF DUP2 GT ISZERO PUSH2 0xCE9 JUMPI PUSH1 0x0 DUP1 REVERT JUMPDEST PUSH2 0xCF5 DUP5 DUP3 DUP6 ADD PUSH2 0xB69 JUMP JUMPDEST PUSH1 0x60 DUP4 ADD MSTORE POP SWAP3 SWAP2 POP POP JUMP JUMPDEST PUSH1 0x0 DUP1 PUSH1 0x40 DUP4 DUP6 SUB SLT ISZERO PUSH2 0xD14 JUMPI PUSH1 0x0 DUP1 REVERT JUMPDEST PUSH1 0x0 PUSH2 0xD22 DUP6 DUP3 DUP7 ADD PUSH2 0xAA1 JUMP JUMPDEST SWAP3 POP POP PUSH1 0x20 DUP4 ADD CALLDATALOAD PUSH8 0xFFFFFFFFFFFFFFFF DUP2 GT ISZERO PUSH2 0xD3F JUMPI PUSH1 0x0 DUP1 REVERT JUMPDEST PUSH2 0xD4B DUP6 DUP3 DUP7 ADD PUSH2 0xB15 JUMP JUMPDEST SWAP2 POP POP SWAP3 POP SWAP3 SWAP1 POP JUMP JUMPDEST PUSH1 0x0 DUP1 PUSH1 0x20 DUP4 DUP6 SUB SLT ISZERO PUSH2 0xD68 JUMPI PUSH1 0x0 DUP1 REVERT JUMPDEST PUSH1 0x0 DUP4 ADD CALLDATALOAD PUSH8 0xFFFFFFFFFFFFFFFF DUP2 GT ISZERO PUSH2 0xD82 JUMPI PUSH1 0x0 DUP1 REVERT JUMPDEST PUSH2 0xD8E DUP6 DUP3 DUP7 ADD PUSH2 0xACB JUMP JUMPDEST SWAP3 POP SWAP3 POP POP SWAP3 POP SWAP3 SWAP1 POP JUMP JUMPDEST PUSH1 0x0 PUSH1 0x20 DUP3 DUP5 SUB SLT ISZERO PUSH2 0xDAC JUMPI PUSH1 0x0 DUP1 REVERT JUMPDEST PUSH1 0x0 DUP3 ADD CALLDATALOAD PUSH8 0xFFFFFFFFFFFFFFFF DUP2 GT ISZERO PUSH2 0xDC6 JUMPI PUSH1 0x0 DUP1 REVERT JUMPDEST PUSH2 0xDD2 DUP5 DUP3 DUP6 ADD PUSH2 0xBBD JUMP JUMPDEST SWAP2 POP POP SWAP3 SWAP2 POP POP JUMP JUMPDEST PUSH1 0x0 PUSH1 0x20 DUP3 DUP5 SUB SLT ISZERO PUSH2 0xDED JUMPI PUSH1 0x0 DUP1 REVERT JUMPDEST PUSH1 0x0 DUP3 ADD MLOAD PUSH8 0xFFFFFFFFFFFFFFFF DUP2 GT ISZERO PUSH2 0xE07 JUMPI PUSH1 0x0 DUP1 REVERT JUMPDEST PUSH2 0xE13 DUP5 DUP3 DUP6 ADD PUSH2 0xC75 JUMP JUMPDEST SWAP2 POP POP SWAP3 SWAP2 POP POP JUMP JUMPDEST PUSH2 0xE25 DUP2 PUSH2 0x1321 JUMP JUMPDEST DUP3 MSTORE POP POP JUMP JUMPDEST PUSH2 0xE3C PUSH2 0xE37 DUP3 PUSH2 0x1321 JUMP JUMPDEST PUSH2 0x13E4 JUMP JUMPDEST DUP3 MSTORE POP POP JUMP JUMPDEST PUSH2 0xE4B DUP2 PUSH2 0x1333 JUMP JUMPDEST DUP3 MSTORE POP POP JUMP JUMPDEST PUSH2 0xE62 PUSH2 0xE5D DUP3 PUSH2 0x1333 JUMP JUMPDEST PUSH2 0x13F6 JUMP JUMPDEST DUP3 MSTORE POP POP JUMP JUMPDEST PUSH2 0xE71 DUP2 PUSH2 0x133F JUMP JUMPDEST DUP3 MSTORE POP POP JUMP JUMPDEST PUSH2 0xE88 PUSH2 0xE83 DUP3 PUSH2 0x133F JUMP JUMPDEST PUSH2 0x1408 JUMP JUMPDEST DUP3 MSTORE POP POP JUMP JUMPDEST PUSH2 0xE97 DUP2 PUSH2 0x1349 JUMP JUMPDEST DUP3 MSTORE POP POP JUMP JUMPDEST PUSH2 0xEAE PUSH2 0xEA9 DUP3 PUSH2 0x1349 JUMP JUMPDEST PUSH2 0x1412 JUMP JUMPDEST DUP3 MSTORE POP POP JUMP JUMPDEST PUSH1 0x0 PUSH2 0xEBF DUP3 PUSH2 0x12DE JUMP JUMPDEST PUSH2 0xEC9 DUP2 DUP6 PUSH2 0x12E9 JUMP JUMPDEST SWAP4 POP PUSH2 0xED9 DUP2 DUP6 PUSH1 0x20 DUP7 ADD PUSH2 0x13B1 JUMP JUMPDEST PUSH2 0xEE2 DUP2 PUSH2 0x1442 JUMP JUMPDEST DUP5 ADD SWAP2 POP POP SWAP3 SWAP2 POP POP JUMP JUMPDEST PUSH1 0x0 PUSH2 0xEF8 DUP3 PUSH2 0x12DE JUMP JUMPDEST PUSH2 0xF02 DUP2 DUP6 PUSH2 0x12FA JUMP JUMPDEST SWAP4 POP PUSH2 0xF12 DUP2 DUP6 PUSH1 0x20 DUP7 ADD PUSH2 0x13B1 JUMP JUMPDEST DUP1 DUP5 ADD SWAP2 POP POP SWAP3 SWAP2 POP POP JUMP JUMPDEST PUSH1 0x0 PUSH2 0xF2B PUSH1 0x1C DUP4 PUSH2 0x1316 JUMP JUMPDEST SWAP2 POP PUSH32 0x19457468657265756D205369676E6564204D6573736167653A0A333200000000 PUSH1 0x0 DUP4 ADD MSTORE PUSH1 0x1C DUP3 ADD SWAP1 POP SWAP2 SWAP1 POP JUMP JUMPDEST PUSH1 0x0 PUSH2 0xF6B PUSH1 0xD DUP4 PUSH2 0x1305 JUMP JUMPDEST SWAP2 POP PUSH32 0x494E56414C49445F535441544500000000000000000000000000000000000000 PUSH1 0x0 DUP4 ADD MSTORE PUSH1 0x20 DUP3 ADD SWAP1 POP SWAP2 SWAP1 POP JUMP JUMPDEST PUSH1 0x0 PUSH2 0xFAB PUSH1 0xD DUP4 PUSH2 0x1305 JUMP JUMPDEST SWAP2 POP PUSH32 0x5355425F554E444552464C4F5700000000000000000000000000000000000000 PUSH1 0x0 DUP4 ADD MSTORE PUSH1 0x20 DUP3 ADD SWAP1 POP SWAP2 SWAP1 POP JUMP JUMPDEST PUSH1 0x0 PUSH2 0xFEB PUSH1 0x6 DUP4 PUSH2 0x1305 JUMP JUMPDEST SWAP2 POP PUSH32 0x4641494C45440000000000000000000000000000000000000000000000000000 PUSH1 0x0 DUP4 ADD MSTORE PUSH1 0x20 DUP3 ADD SWAP1 POP SWAP2 SWAP1 POP JUMP JUMPDEST PUSH1 0x0 PUSH2 0x102B PUSH1 0x11 DUP4 PUSH2 0x1305 JUMP JUMPDEST SWAP2 POP PUSH32 0x494E56414C49445F4E45575F5354415445000000000000000000000000000000 PUSH1 0x0 DUP4 ADD MSTORE PUSH1 0x20 DUP3 ADD SWAP1 POP SWAP2 SWAP1 POP JUMP JUMPDEST PUSH2 0x1067 DUP2 PUSH2 0x1395 JUMP JUMPDEST DUP3 MSTORE POP POP JUMP JUMPDEST PUSH1 0x0 PUSH2 0x1079 DUP3 DUP6 PUSH2 0xE2B JUMP JUMPDEST PUSH1 0x14 DUP3 ADD SWAP2 POP PUSH2 0x1089 DUP3 DUP5 PUSH2 0xEED JUMP JUMPDEST SWAP2 POP DUP2 SWAP1 POP SWAP4 SWAP3 POP POP POP JUMP JUMPDEST PUSH1 0x0 PUSH2 0x10A1 DUP3 DUP9 PUSH2 0xE9D JUMP JUMPDEST PUSH1 0x4 DUP3 ADD SWAP2 POP PUSH2 0x10B1 DUP3 DUP8 PUSH2 0xE2B JUMP JUMPDEST PUSH1 0x14 DUP3 ADD SWAP2 POP PUSH2 0x10C1 DUP3 DUP7 PUSH2 0xE51 JUMP JUMPDEST PUSH1 0x1 DUP3 ADD SWAP2 POP PUSH2 0x10D1 DUP3 DUP6 PUSH2 0xEED JUMP JUMPDEST SWAP2 POP PUSH2 0x10DD DUP3 DUP5 PUSH2 0xEED JUMP JUMPDEST SWAP2 POP DUP2 SWAP1 POP SWAP7 SWAP6 POP POP POP POP POP POP JUMP JUMPDEST PUSH1 0x0 PUSH2 0x10F8 DUP3 DUP5 PUSH2 0xEED JUMP JUMPDEST SWAP2 POP DUP2 SWAP1 POP SWAP3 SWAP2 POP POP JUMP JUMPDEST PUSH1 0x0 PUSH2 0x110E DUP3 PUSH2 0xF1E JUMP JUMPDEST SWAP2 POP PUSH2 0x111A DUP3 DUP5 PUSH2 0xE77 JUMP JUMPDEST PUSH1 0x20 DUP3 ADD SWAP2 POP DUP2 SWAP1 POP SWAP3 SWAP2 POP POP JUMP JUMPDEST PUSH1 0x0 PUSH1 0x40 DUP3 ADD SWAP1 POP PUSH2 0x113E PUSH1 0x0 DUP4 ADD DUP6 PUSH2 0xE1C JUMP JUMPDEST PUSH2 0x114B PUSH1 0x20 DUP4 ADD DUP5 PUSH2 0xE42 JUMP JUMPDEST SWAP4 SWAP3 POP POP POP JUMP JUMPDEST PUSH1 0x0 PUSH1 0x20 DUP3 ADD SWAP1 POP PUSH2 0x1167 PUSH1 0x0 DUP4 ADD DUP5 PUSH2 0xE68 JUMP JUMPDEST SWAP3 SWAP2 POP POP JUMP JUMPDEST PUSH1 0x0 PUSH1 0x40 DUP3 ADD SWAP1 POP PUSH2 0x1182 PUSH1 0x0 DUP4 ADD DUP6 PUSH2 0xE68 JUMP JUMPDEST DUP2 DUP2 SUB PUSH1 0x20 DUP4 ADD MSTORE PUSH2 0x1194 DUP2 DUP5 PUSH2 0xEB4 JUMP JUMPDEST SWAP1 POP SWAP4 SWAP3 POP POP POP JUMP JUMPDEST PUSH1 0x0 PUSH1 0x80 DUP3 ADD SWAP1 POP PUSH2 0x11B2 PUSH1 0x0 DUP4 ADD DUP8 PUSH2 0xE68 JUMP JUMPDEST PUSH2 0x11BF PUSH1 0x20 DUP4 ADD DUP7 PUSH2 0x105E JUMP JUMPDEST PUSH2 0x11CC PUSH1 0x40 DUP4 ADD DUP6 PUSH2 0xE68 JUMP JUMPDEST PUSH2 0x11D9 PUSH1 0x60 DUP4 ADD DUP5 PUSH2 0xE68 JUMP JUMPDEST SWAP6 SWAP5 POP POP POP POP POP JUMP JUMPDEST PUSH1 0x0 PUSH1 0x20 DUP3 ADD SWAP1 POP PUSH2 0x11F7 PUSH1 0x0 DUP4 ADD DUP5 PUSH2 0xE8E JUMP JUMPDEST SWAP3 SWAP2 POP POP JUMP JUMPDEST PUSH1 0x0 PUSH1 0x20 DUP3 ADD SWAP1 POP DUP2 DUP2 SUB PUSH1 0x0 DUP4 ADD MSTORE PUSH2 0x1216 DUP2 PUSH2 0xF5E JUMP JUMPDEST SWAP1 POP SWAP2 SWAP1 POP JUMP JUMPDEST PUSH1 0x0 PUSH1 0x20 DUP3 ADD SWAP1 POP DUP2 DUP2 SUB PUSH1 0x0 DUP4 ADD MSTORE PUSH2 0x1236 DUP2 PUSH2 0xF9E JUMP JUMPDEST SWAP1 POP SWAP2 SWAP1 POP JUMP JUMPDEST PUSH1 0x0 PUSH1 0x20 DUP3 ADD SWAP1 POP DUP2 DUP2 SUB PUSH1 0x0 DUP4 ADD MSTORE PUSH2 0x1256 DUP2 PUSH2 0xFDE JUMP JUMPDEST SWAP1 POP SWAP2 SWAP1 POP JUMP JUMPDEST PUSH1 0x0 PUSH1 0x20 DUP3 ADD SWAP1 POP DUP2 DUP2 SUB PUSH1 0x0 DUP4 ADD MSTORE PUSH2 0x1276 DUP2 PUSH2 0x101E JUMP JUMPDEST SWAP1 POP SWAP2 SWAP1 POP JUMP JUMPDEST PUSH1 0x0 PUSH1 0x40 MLOAD SWAP1 POP DUP2 DUP2 ADD DUP2 DUP2 LT PUSH8 0xFFFFFFFFFFFFFFFF DUP3 GT OR ISZERO PUSH2 0x12A4 JUMPI PUSH2 0x12A3 PUSH2 0x1440 JUMP JUMPDEST JUMPDEST DUP1 PUSH1 0x40 MSTORE POP SWAP2 SWAP1 POP JUMP JUMPDEST PUSH1 0x0 PUSH8 0xFFFFFFFFFFFFFFFF DUP3 GT ISZERO PUSH2 0x12C9 JUMPI PUSH2 0x12C8 PUSH2 0x1440 JUMP JUMPDEST JUMPDEST PUSH1 0x1F NOT PUSH1 0x1F DUP4 ADD AND SWAP1 POP PUSH1 0x20 DUP2 ADD SWAP1 POP SWAP2 SWAP1 POP JUMP JUMPDEST PUSH1 0x0 DUP2 MLOAD SWAP1 POP SWAP2 SWAP1 POP JUMP JUMPDEST PUSH1 0x0 DUP3 DUP3 MSTORE PUSH1 0x20 DUP3 ADD SWAP1 POP SWAP3 SWAP2 POP POP JUMP JUMPDEST PUSH1 0x0 DUP2 SWAP1 POP SWAP3 SWAP2 POP POP JUMP JUMPDEST PUSH1 0x0 DUP3 DUP3 MSTORE PUSH1 0x20 DUP3 ADD SWAP1 POP SWAP3 SWAP2 POP POP JUMP JUMPDEST PUSH1 0x0 DUP2 SWAP1 POP SWAP3 SWAP2 POP POP JUMP JUMPDEST PUSH1 0x0 PUSH2 0x132C DUP3 PUSH2 0x1375 JUMP JUMPDEST SWAP1 POP SWAP2 SWAP1 POP JUMP JUMPDEST PUSH1 0x0 DUP2 ISZERO ISZERO SWAP1 POP SWAP2 SWAP1 POP JUMP JUMPDEST PUSH1 0x0 DUP2 SWAP1 POP SWAP2 SWAP1 POP JUMP JUMPDEST PUSH1 0x0 PUSH32 0xFFFFFFFF00000000000000000000000000000000000000000000000000000000 DUP3 AND SWAP1 POP SWAP2 SWAP1 POP JUMP JUMPDEST PUSH1 0x0 PUSH20 0xFFFFFFFFFFFFFFFFFFFFFFFFFFFFFFFFFFFFFFFF DUP3 AND SWAP1 POP SWAP2 SWAP1 POP JUMP JUMPDEST PUSH1 0x0 PUSH1 0xFF DUP3 AND SWAP1 POP SWAP2 SWAP1 POP JUMP JUMPDEST DUP3 DUP2 DUP4 CALLDATACOPY PUSH1 0x0 DUP4 DUP4 ADD MSTORE POP POP POP JUMP JUMPDEST PUSH1 0x0 JUMPDEST DUP4 DUP2 LT ISZERO PUSH2 0x13CF JUMPI DUP1 DUP3 ADD MLOAD DUP2 DUP5 ADD MSTORE PUSH1 0x20 DUP2 ADD SWAP1 POP PUSH2 0x13B4 JUMP JUMPDEST DUP4 DUP2 GT ISZERO PUSH2 0x13DE JUMPI PUSH1 0x0 DUP5 DUP5 ADD MSTORE JUMPDEST POP POP POP POP JUMP JUMPDEST PUSH1 0x0 PUSH2 0x13EF DUP3 PUSH2 0x141C JUMP JUMPDEST SWAP1 POP SWAP2 SWAP1 POP JUMP JUMPDEST PUSH1 0x0 PUSH2 0x1401 DUP3 PUSH2 0x142E JUMP JUMPDEST SWAP1 POP SWAP2 SWAP1 POP JUMP JUMPDEST PUSH1 0x0 DUP2 SWAP1 POP SWAP2 SWAP1 POP JUMP JUMPDEST PUSH1 0x0 DUP2 SWAP1 POP SWAP2 SWAP1 POP JUMP JUMPDEST PUSH1 0x0 PUSH2 0x1427 DUP3 PUSH2 0x1460 JUMP JUMPDEST SWAP1 POP SWAP2 SWAP1 POP JUMP JUMPDEST PUSH1 0x0 PUSH2 0x1439 DUP3 PUSH2 0x1453 JUMP JUMPDEST SWAP1 POP SWAP2 SWAP1 POP JUMP JUMPDEST INVALID JUMPDEST PUSH1 0x0 PUSH1 0x1F NOT PUSH1 0x1F DUP4 ADD AND SWAP1 POP SWAP2 SWAP1 POP JUMP JUMPDEST PUSH1 0x0 DUP2 PUSH1 0xF8 SHL SWAP1 POP SWAP2 SWAP1 POP JUMP JUMPDEST PUSH1 0x0 DUP2 PUSH1 0x60 SHL SWAP1 POP SWAP2 SWAP1 POP JUMP JUMPDEST PUSH2 0x1476 DUP2 PUSH2 0x1321 JUMP JUMPDEST DUP2 EQ PUSH2 0x1481 JUMPI PUSH1 0x0 DUP1 REVERT JUMPDEST POP JUMP JUMPDEST PUSH2 0x148D DUP2 PUSH2 0x1333 JUMP JUMPDEST DUP2 EQ PUSH2 0x1498 JUMPI PUSH1 0x0 DUP1 REVERT JUMPDEST POP JUMP JUMPDEST PUSH2 0x14A4 DUP2 PUSH2 0x133F JUMP JUMPDEST DUP2 EQ PUSH2 0x14AF JUMPI PUSH1 0x0 DUP1 REVERT JUMPDEST POP JUMP JUMPDEST PUSH2 0x14BB DUP2 PUSH2 0x1349 JUMP JUMPDEST DUP2 EQ PUSH2 0x14C6 JUMPI PUSH1 0x0 DUP1 REVERT JUMPDEST POP JUMP INVALID LOG2 PUSH5 0x6970667358 0x22 SLT KECCAK256 0xB9 0x2F SAR DUP14 PUSH8 0xAC58E4FA19E4A4DF 0xEE PUSH21 0xE30ED6F7C7008CB175BF82EC51AE68FAAC64736F6C PUSH4 0x43000703 STOP CALLER "
        },
        "methodIdentifiers": {
          "isValidSignature(bytes32,bytes)": "1626ba7e",
          "ownerAndLock()": "3a464882",
          "statehash()": "286849a8",
          "transact(bytes)": "6d6f41cc"
        }
      }
    }
  }
}