{
  "contracts/iface2/Impl.sol": {
    "Impl": {
      "abi": [
        {
          "inputs": [
            {
              "internalType": "address",
              "name": "owner",
              "type": "address"
            },
            {
              "internalType": "bool",
              "name": "locked",
              "type": "bool"
            },
            {
              "components": [
                {
                  "internalType": "uint256",
                  "name": "abc",
                  "type": "uint256"
                }
              ],
              "internalType": "struct Impl.State1",
              "name": "state",
              "type": "tuple"
            },
            {
              "internalType": "uint256",
              "name": "param1",
              "type": "uint256"
            },
            {
              "internalType": "uint256",
              "name": "param2",
              "type": "uint256"
            }
          ],
          "name": "doSometing",
          "outputs": [],
          "stateMutability": "nonpayable",
          "type": "function"
        }
      ],
      "evm": {
        "bytecode": {
          "linkReferences": {},
          "object": "608060405234801561001057600080fd5b50610237806100206000396000f3fe608060405234801561001057600080fd5b506004361061002b5760003560e01c80639f0cefe214610030575b600080fd5b61004a600480360381019061004591906100ca565b61004c565b005b5050505050565b600081359050610062816101bc565b92915050565b600081359050610077816101d3565b92915050565b60006020828403121561008f57600080fd5b6100996020610141565b905060006100a9848285016100b5565b60008301525092915050565b6000813590506100c4816101ea565b92915050565b600080600080600060a086880312156100e257600080fd5b60006100f088828901610053565b955050602061010188828901610068565b94505060406101128882890161007d565b9350506060610123888289016100b5565b9250506080610134888289016100b5565b9150509295509295909350565b6000604051905081810181811067ffffffffffffffff82111715610168576101676101ba565b5b8060405250919050565b600061017d82610190565b9050919050565b60008115159050919050565b600073ffffffffffffffffffffffffffffffffffffffff82169050919050565b6000819050919050565bfe5b6101c581610172565b81146101d057600080fd5b50565b6101dc81610184565b81146101e757600080fd5b50565b6101f3816101b0565b81146101fe57600080fd5b5056fea2646970667358221220214048ca7aaa8ae3262e3e80e2c6f02d7aa449c11ecd923aebe2cd6ecab6908b64736f6c63430007030033",
          "opcodes": "PUSH1 0x80 PUSH1 0x40 MSTORE CALLVALUE DUP1 ISZERO PUSH2 0x10 JUMPI PUSH1 0x0 DUP1 REVERT JUMPDEST POP PUSH2 0x237 DUP1 PUSH2 0x20 PUSH1 0x0 CODECOPY PUSH1 0x0 RETURN INVALID PUSH1 0x80 PUSH1 0x40 MSTORE CALLVALUE DUP1 ISZERO PUSH2 0x10 JUMPI PUSH1 0x0 DUP1 REVERT JUMPDEST POP PUSH1 0x4 CALLDATASIZE LT PUSH2 0x2B JUMPI PUSH1 0x0 CALLDATALOAD PUSH1 0xE0 SHR DUP1 PUSH4 0x9F0CEFE2 EQ PUSH2 0x30 JUMPI JUMPDEST PUSH1 0x0 DUP1 REVERT JUMPDEST PUSH2 0x4A PUSH1 0x4 DUP1 CALLDATASIZE SUB DUP2 ADD SWAP1 PUSH2 0x45 SWAP2 SWAP1 PUSH2 0xCA JUMP JUMPDEST PUSH2 0x4C JUMP JUMPDEST STOP JUMPDEST POP POP POP POP POP JUMP JUMPDEST PUSH1 0x0 DUP2 CALLDATALOAD SWAP1 POP PUSH2 0x62 DUP2 PUSH2 0x1BC JUMP JUMPDEST SWAP3 SWAP2 POP POP JUMP JUMPDEST PUSH1 0x0 DUP2 CALLDATALOAD SWAP1 POP PUSH2 0x77 DUP2 PUSH2 0x1D3 JUMP JUMPDEST SWAP3 SWAP2 POP POP JUMP JUMPDEST PUSH1 0x0 PUSH1 0x20 DUP3 DUP5 SUB SLT ISZERO PUSH2 0x8F JUMPI PUSH1 0x0 DUP1 REVERT JUMPDEST PUSH2 0x99 PUSH1 0x20 PUSH2 0x141 JUMP JUMPDEST SWAP1 POP PUSH1 0x0 PUSH2 0xA9 DUP5 DUP3 DUP6 ADD PUSH2 0xB5 JUMP JUMPDEST PUSH1 0x0 DUP4 ADD MSTORE POP SWAP3 SWAP2 POP POP JUMP JUMPDEST PUSH1 0x0 DUP2 CALLDATALOAD SWAP1 POP PUSH2 0xC4 DUP2 PUSH2 0x1EA JUMP JUMPDEST SWAP3 SWAP2 POP POP JUMP JUMPDEST PUSH1 0x0 DUP1 PUSH1 0x0 DUP1 PUSH1 0x0 PUSH1 0xA0 DUP7 DUP9 SUB SLT ISZERO PUSH2 0xE2 JUMPI PUSH1 0x0 DUP1 REVERT JUMPDEST PUSH1 0x0 PUSH2 0xF0 DUP9 DUP3 DUP10 ADD PUSH2 0x53 JUMP JUMPDEST SWAP6 POP POP PUSH1 0x20 PUSH2 0x101 DUP9 DUP3 DUP10 ADD PUSH2 0x68 JUMP JUMPDEST SWAP5 POP POP PUSH1 0x40 PUSH2 0x112 DUP9 DUP3 DUP10 ADD PUSH2 0x7D JUMP JUMPDEST SWAP4 POP POP PUSH1 0x60 PUSH2 0x123 DUP9 DUP3 DUP10 ADD PUSH2 0xB5 JUMP JUMPDEST SWAP3 POP POP PUSH1 0x80 PUSH2 0x134 DUP9 DUP3 DUP10 ADD PUSH2 0xB5 JUMP JUMPDEST SWAP2 POP POP SWAP3 SWAP6 POP SWAP3 SWAP6 SWAP1 SWAP4 POP JUMP JUMPDEST PUSH1 0x0 PUSH1 0x40 MLOAD SWAP1 POP DUP2 DUP2 ADD DUP2 DUP2 LT PUSH8 0xFFFFFFFFFFFFFFFF DUP3 GT OR ISZERO PUSH2 0x168 JUMPI PUSH2 0x167 PUSH2 0x1BA JUMP JUMPDEST JUMPDEST DUP1 PUSH1 0x40 MSTORE POP SWAP2 SWAP1 POP JUMP JUMPDEST PUSH1 0x0 PUSH2 0x17D DUP3 PUSH2 0x190 JUMP JUMPDEST SWAP1 POP SWAP2 SWAP1 POP JUMP JUMPDEST PUSH1 0x0 DUP2 ISZERO ISZERO SWAP1 POP SWAP2 SWAP1 POP JUMP JUMPDEST PUSH1 0x0 PUSH20 0xFFFFFFFFFFFFFFFFFFFFFFFFFFFFFFFFFFFFFFFF DUP3 AND SWAP1 POP SWAP2 SWAP1 POP JUMP JUMPDEST PUSH1 0x0 DUP2 SWAP1 POP SWAP2 SWAP1 POP JUMP JUMPDEST INVALID JUMPDEST PUSH2 0x1C5 DUP2 PUSH2 0x172 JUMP JUMPDEST DUP2 EQ PUSH2 0x1D0 JUMPI PUSH1 0x0 DUP1 REVERT JUMPDEST POP JUMP JUMPDEST PUSH2 0x1DC DUP2 PUSH2 0x184 JUMP JUMPDEST DUP2 EQ PUSH2 0x1E7 JUMPI PUSH1 0x0 DUP1 REVERT JUMPDEST POP JUMP JUMPDEST PUSH2 0x1F3 DUP2 PUSH2 0x1B0 JUMP JUMPDEST DUP2 EQ PUSH2 0x1FE JUMPI PUSH1 0x0 DUP1 REVERT JUMPDEST POP JUMP INVALID LOG2 PUSH5 0x6970667358 0x22 SLT KECCAK256 0x21 BLOCKHASH 0x48 0xCA PUSH27 0xAA8AE3262E3E80E2C6F02D7AA449C11ECD923AEBE2CD6ECAB6908B PUSH5 0x736F6C6343 STOP SMOD SUB STOP CALLER "
        },
        "methodIdentifiers": {
          "doSometing(address,bool,(uint256),uint256,uint256)": "9f0cefe2"
        }
      }
    }
  }
}