{
  "contractName": "BurnRateTable",
  "abi": [
    {
      "constant": true,
      "inputs": [],
      "name": "BURN_P2P_TIER2",
      "outputs": [
        {
          "name": "",
          "type": "uint16"
        }
      ],
      "payable": false,
      "stateMutability": "view",
      "type": "function"
    },
    {
      "constant": true,
      "inputs": [],
      "name": "TIER_2",
      "outputs": [
        {
          "name": "",
          "type": "uint8"
        }
      ],
      "payable": false,
      "stateMutability": "view",
      "type": "function"
    },
    {
      "constant": true,
      "inputs": [],
      "name": "BURN_MATCHING_TIER4",
      "outputs": [
        {
          "name": "",
          "type": "uint16"
        }
      ],
      "payable": false,
      "stateMutability": "view",
      "type": "function"
    },
    {
      "constant": true,
      "inputs": [],
      "name": "BURN_MATCHING_TIER3",
      "outputs": [
        {
          "name": "",
          "type": "uint16"
        }
      ],
      "payable": false,
      "stateMutability": "view",
      "type": "function"
    },
    {
      "constant": true,
      "inputs": [],
      "name": "lrcAddress",
      "outputs": [
        {
          "name": "",
          "type": "address"
        }
      ],
      "payable": false,
      "stateMutability": "view",
      "type": "function"
    },
    {
      "constant": true,
      "inputs": [],
      "name": "TIER_4",
      "outputs": [
        {
          "name": "",
          "type": "uint8"
        }
      ],
      "payable": false,
      "stateMutability": "view",
      "type": "function"
    },
    {
      "constant": true,
      "inputs": [],
      "name": "BURN_MATCHING_TIER1",
      "outputs": [
        {
          "name": "",
          "type": "uint16"
        }
      ],
      "payable": false,
      "stateMutability": "view",
      "type": "function"
    },
    {
      "constant": true,
      "inputs": [],
      "name": "BURN_P2P_TIER1",
      "outputs": [
        {
          "name": "",
          "type": "uint16"
        }
      ],
      "payable": false,
      "stateMutability": "view",
      "type": "function"
    },
    {
      "constant": true,
      "inputs": [],
      "name": "wethAddress",
      "outputs": [
        {
          "name": "",
          "type": "address"
        }
      ],
      "payable": false,
      "stateMutability": "view",
      "type": "function"
    },
    {
      "constant": true,
      "inputs": [],
      "name": "BURN_P2P_TIER4",
      "outputs": [
        {
          "name": "",
          "type": "uint16"
        }
      ],
      "payable": false,
      "stateMutability": "view",
      "type": "function"
    },
    {
      "constant": true,
      "inputs": [],
      "name": "BURN_P2P_TIER3",
      "outputs": [
        {
          "name": "",
          "type": "uint16"
        }
      ],
      "payable": false,
      "stateMutability": "view",
      "type": "function"
    },
    {
      "constant": true,
      "inputs": [],
      "name": "TIER_UPGRADE_COST_PERCENTAGE",
      "outputs": [
        {
          "name": "",
          "type": "uint16"
        }
      ],
      "payable": false,
      "stateMutability": "view",
      "type": "function"
    },
    {
      "constant": true,
      "inputs": [],
      "name": "TIER_1",
      "outputs": [
        {
          "name": "",
          "type": "uint8"
        }
      ],
      "payable": false,
      "stateMutability": "view",
      "type": "function"
    },
    {
      "constant": true,
      "inputs": [],
      "name": "TIER_3",
      "outputs": [
        {
          "name": "",
          "type": "uint8"
        }
      ],
      "payable": false,
      "stateMutability": "view",
      "type": "function"
    },
    {
      "constant": true,
      "inputs": [],
      "name": "YEAR_TO_SECONDS",
      "outputs": [
        {
          "name": "",
          "type": "uint256"
        }
      ],
      "payable": false,
      "stateMutability": "view",
      "type": "function"
    },
    {
      "constant": true,
      "inputs": [],
      "name": "BURN_MATCHING_TIER2",
      "outputs": [
        {
          "name": "",
          "type": "uint16"
        }
      ],
      "payable": false,
      "stateMutability": "view",
      "type": "function"
    },
    {
      "constant": true,
      "inputs": [
        {
          "name": "",
          "type": "address"
        }
      ],
      "name": "tokens",
      "outputs": [
        {
          "name": "tier",
          "type": "uint256"
        },
        {
          "name": "validUntil",
          "type": "uint256"
        }
      ],
      "payable": false,
      "stateMutability": "view",
      "type": "function"
    },
    {
      "constant": true,
      "inputs": [],
      "name": "BURN_BASE_PERCENTAGE",
      "outputs": [
        {
          "name": "",
          "type": "uint16"
        }
      ],
      "payable": false,
      "stateMutability": "view",
      "type": "function"
    },
    {
      "inputs": [
        {
          "name": "_lrcAddress",
          "type": "address"
        },
        {
          "name": "_wethAddress",
          "type": "address"
        }
      ],
      "payable": false,
      "stateMutability": "nonpayable",
      "type": "constructor"
    },
    {
      "payable": true,
      "stateMutability": "payable",
      "type": "fallback"
    },
    {
      "anonymous": false,
      "inputs": [
        {
          "indexed": true,
          "name": "addr",
          "type": "address"
        },
        {
          "indexed": false,
          "name": "tier",
          "type": "uint256"
        }
      ],
      "name": "TokenTierUpgraded",
      "type": "event"
    },
    {
      "constant": true,
      "inputs": [
        {
          "name": "token",
          "type": "address"
        }
      ],
      "name": "getBurnRate",
      "outputs": [
        {
          "name": "burnRate",
          "type": "uint32"
        }
      ],
      "payable": false,
      "stateMutability": "view",
      "type": "function"
    },
    {
      "constant": false,
      "inputs": [
        {
          "name": "token",
          "type": "address"
        }
      ],
      "name": "upgradeTokenTier",
      "outputs": [
        {
          "name": "",
          "type": "bool"
        }
      ],
      "payable": false,
      "stateMutability": "nonpayable",
      "type": "function"
    },
    {
      "constant": true,
      "inputs": [
        {
          "name": "token",
          "type": "address"
        }
      ],
      "name": "getTokenTier",
      "outputs": [
        {
          "name": "tier",
          "type": "uint256"
        }
      ],
      "payable": false,
      "stateMutability": "view",
      "type": "function"
    }
  ],
  "bytecode": "0x608060405260018054600160a060020a031990811690915560028054909116905534801561002c57600080fd5b5060405160408061111b8339810180604052604081101561004c57600080fd5b50805160209182015160408051808201909152600c81527f5a45524f5f414444524553530000000000000000000000000000000000000000938101939093529091600160a060020a038316151561013b576040517f08c379a00000000000000000000000000000000000000000000000000000000081526004018080602001828103825283818151815260200191508051906020019080838360005b838110156101005781810151838201526020016100e8565b50505050905090810190601f16801561012d5780820380516001836020036101000a031916815260200191505b509250505060405180910390fd5b5060408051808201909152600c81527f5a45524f5f4144445245535300000000000000000000000000000000000000006020820152600160a060020a03821615156101e2576040517f08c379a0000000000000000000000000000000000000000000000000000000008152600401808060200182810382528381815181526020019150805190602001908083836000838110156101005781810151838201526020016100e8565b5060018054600160a060020a03808516600160a060020a03199283161792839055600280548583169316929092179091556102289116600364010000000061024f810204565b60025461024890600160a060020a0316600164010000000061024f810204565b5050610273565b600160a060020a039091166000908152602081905260409020600019600182015555565b610e99806102826000396000f3fe608060405260043610610187576000357c01000000000000000000000000000000000000000000000000000000009004806350a0c26a116100e8578063adf23f3b1161009c578063e486033911610076578063e486033914610454578063f5098e6a146104ad578063fed4dd1e1461050157610187565b8063adf23f3b146103ed578063d895ed2114610414578063dd9d56fb1461025757610187565b806362de6139116100cd57806362de6139146103ae5780639dd58485146103c3578063a2f69a59146103d857610187565b806350a0c26a146102ae57806361da7aca146102c357610187565b80633eb50beb1161013f5780634a017b4c116101245780634a017b4c146103845780634baaca7f146103845780634f0e0ef31461039957610187565b80633eb50beb1461031657806342b5f3751461032b57610187565b806320cc64421161017057806320cc6442146102ae57806321a57870146102c35780633d6cf722146102d857610187565b806308786aac146102575780631d2a056114610283575b604080518082018252600b81527f554e535550504f52544544000000000000000000000000000000000000000000602080830191825292517f08c379a00000000000000000000000000000000000000000000000000000000081526004810193845282516024820152825192939283926044909201919080838360005b8381101561021c578181015183820152602001610204565b50505050905090810190601f1680156102495780820380516001836020036101000a031916815260200191505b509250505060405180910390fd5b34801561026357600080fd5b5061026c610516565b6040805161ffff9092168252519081900360200190f35b34801561028f57600080fd5b5061029861051b565b6040805160ff9092168252519081900360200190f35b3480156102ba57600080fd5b5061026c610520565b3480156102cf57600080fd5b5061026c610526565b3480156102e457600080fd5b506102ed61052c565b6040805173ffffffffffffffffffffffffffffffffffffffff9092168252519081900360200190f35b34801561032257600080fd5b50610298610548565b34801561033757600080fd5b5061036b6004803603602081101561034e57600080fd5b503573ffffffffffffffffffffffffffffffffffffffff1661054d565b6040805163ffffffff9092168252519081900360200190f35b34801561039057600080fd5b5061026c6105a6565b3480156103a557600080fd5b506102ed6105ab565b3480156103ba57600080fd5b5061026c6105c7565b3480156103cf57600080fd5b506102986105cc565b3480156103e457600080fd5b506102986105c7565b3480156103f957600080fd5b506104026105d1565b60408051918252519081900360200190f35b34801561042057600080fd5b506104026004803603602081101561043757600080fd5b503573ffffffffffffffffffffffffffffffffffffffff166105d9565b34801561046057600080fd5b506104946004803603602081101561047757600080fd5b503573ffffffffffffffffffffffffffffffffffffffff1661061a565b6040805192835260208301919091528051918290030190f35b3480156104b957600080fd5b506104ed600480360360208110156104d057600080fd5b503573ffffffffffffffffffffffffffffffffffffffff16610633565b604080519115158252519081900360200190f35b34801561050d57600080fd5b5061026c610bd1565b609681565b600281565b6101f481565b61012c81565b60015473ffffffffffffffffffffffffffffffffffffffff1681565b600081565b600080610559836105d9565b9050600381141561056f576219001991506105a0565b6002811415610583576296009691506105a0565b60018114156105985763012c012c91506105a0565b6301f401f491505b50919050565b601981565b60025473ffffffffffffffffffffffffffffffffffffffff1681565b600181565b600381565b6301e1855881565b73ffffffffffffffffffffffffffffffffffffffff8116600090815260208190526040812060018101544211610610578054610613565b60005b9392505050565b6000602081905290815260409020805460019091015482565b60408051808201909152600c81527f5a45524f5f414444524553530000000000000000000000000000000000000000602082015260009073ffffffffffffffffffffffffffffffffffffffff831615156106e9576040517f08c379a00000000000000000000000000000000000000000000000000000000081526004018080602001828103825283818151815260200191508051906020019080838360008381101561021c578181015183820152602001610204565b5060015460408051808201909152601081527f4255524e5f524154455f46524f5a454e0000000000000000000000000000000060208201529073ffffffffffffffffffffffffffffffffffffffff848116911614156107a4576040517f08c379a00000000000000000000000000000000000000000000000000000000081526004018080602001828103825283818151815260200191508051906020019080838360008381101561021c578181015183820152602001610204565b5060025460408051808201909152601081527f4255524e5f524154455f46524f5a454e0000000000000000000000000000000060208201529073ffffffffffffffffffffffffffffffffffffffff8481169116141561085f576040517f08c379a00000000000000000000000000000000000000000000000000000000081526004018080602001828103825283818151815260200191508051906020019080838360008381101561021c578181015183820152602001610204565b50600061086b836105d9565b60408051808201909152601381527f4255524e5f524154455f4d494e494d495a4544000000000000000000000000006020820152909150600382141561090d576040517f08c379a00000000000000000000000000000000000000000000000000000000081526004018080602001828103825283818151815260200191508051906020019080838360008381101561021c578181015183820152602001610204565b50600154604080517f70a08231000000000000000000000000000000000000000000000000000000008152600060048201819052915173ffffffffffffffffffffffffffffffffffffffff9093169283916370a08231916024808301926020929190829003018186803b15801561098357600080fd5b505afa158015610997573d6000803e3d6000fd5b505050506040513d60208110156109ad57600080fd5b5051604080517f18160ddd000000000000000000000000000000000000000000000000000000008152905173ffffffffffffffffffffffffffffffffffffffff8516916318160ddd916004808301926020929190829003018186803b158015610a1557600080fd5b505afa158015610a29573d6000803e3d6000fd5b505050506040513d6020811015610a3f57600080fd5b505103905060006103e8610a5a83600163ffffffff610bd716565b811515610a6357fe5b6001549190049150610a949073ffffffffffffffffffffffffffffffffffffffff163360008463ffffffff610c6416565b60408051808201909152600c81527f4255524e5f4641494c55524500000000000000000000000000000000000000006020820152901515610b31576040517f08c379a00000000000000000000000000000000000000000000000000000000081526004018080602001828103825283818151815260200191508051906020019080838360008381101561021c578181015183820152602001610204565b5073ffffffffffffffffffffffffffffffffffffffff86166000908152602081905260409020610b6b426301e1855863ffffffff610dc016565b6001808301919091558501808255604080519182525173ffffffffffffffffffffffffffffffffffffffff8916917f8ace79a33933d78b672e3515e9fdbc523ed792a5e50f8b9f74e9ef564dd3bfd8919081900360200190a25060019695505050505050565b6103e881565b818102821580610bf15750818382811515610bee57fe5b04145b1515610c5e57604080517f08c379a000000000000000000000000000000000000000000000000000000000815260206004820152600d60248201527f494e56414c49445f56414c554500000000000000000000000000000000000000604482015290519081900360640190fd5b92915050565b6040805173ffffffffffffffffffffffffffffffffffffffff80861660248301528085166044830152606480830185905283518084039091018152608490920183526020820180517bffffffffffffffffffffffffffffffffffffffffffffffffffffffff167f23b872dd0000000000000000000000000000000000000000000000000000000017815292518251600094928916928492918291908083835b60208310610d4057805182527fffffffffffffffffffffffffffffffffffffffffffffffffffffffffffffffe09092019160209182019101610d03565b6001836020036101000a0380198251168184511680821785525050505050509050019150506000604051808303816000865af19150503d8060008114610da2576040519150601f19603f3d011682016040523d82523d6000602084013e610da7565b606091505b505080925050610db682610e32565b9695505050505050565b81810182811015610c5e57604080517f08c379a000000000000000000000000000000000000000000000000000000000815260206004820152600d60248201527f494e56414c49445f56414c554500000000000000000000000000000000000000604482015290519081900360640190fd5b60008115610e69573d8015610e525760208114610e5b5760009250610e67565b60019250610e67565b60206000803e60005192505b505b509056fea165627a7a7230582041a7334ed3475bb5d5949f07d56facb10def6910978f5a692a9cb36d716229ed0029",
  "source": "/*\n\n  Copyright 2017 Loopring Project Ltd (Loopring Foundation).\n\n  Licensed under the Apache License, Version 2.0 (the \"License\");\n  you may not use this file except in compliance with the License.\n  You may obtain a copy of the License at\n\n  http://www.apache.org/licenses/LICENSE-2.0\n\n  Unless required by applicable law or agreed to in writing, software\n  distributed under the License is distributed on an \"AS IS\" BASIS,\n  WITHOUT WARRANTIES OR CONDITIONS OF ANY KIND, either express or implied.\n  See the License for the specific language governing permissions and\n  limitations under the License.\n*/\n\npragma solidity 0.5.2;\n\nimport \"../iface/IBurnRateTable.sol\";\nimport \"../lib/ERC20.sol\";\nimport \"../lib/ERC20SafeTransfer.sol\";\nimport \"../lib/MathUint.sol\";\nimport \"../lib/NoDefaultFunc.sol\";\n\n\n/// @author Brecht Devos - <brecht@loopring.org>\ncontract BurnRateTable is IBurnRateTable, NoDefaultFunc {\n    using MathUint for uint;\n    using ERC20SafeTransfer for address;\n\n    address public lrcAddress = address(0x0);\n    address public wethAddress = address(0x0);\n\n    constructor(\n        address _lrcAddress,\n        address _wethAddress\n        )\n        public\n    {\n        require(_lrcAddress != address(0x0), ZERO_ADDRESS);\n        require(_wethAddress != address(0x0), ZERO_ADDRESS);\n        lrcAddress = _lrcAddress;\n        wethAddress = _wethAddress;\n\n        // Set fixed LRC and WETH burn rates\n        setFixedTokenTier(lrcAddress, TIER_1);\n        setFixedTokenTier(wethAddress, TIER_3);\n    }\n\n    function setFixedTokenTier(\n        address token,\n        uint tier\n        )\n        internal\n    {\n        TokenData storage tokenData = tokens[token];\n        tokenData.validUntil = ~uint(0);\n        tokenData.tier = tier;\n    }\n\n    function getBurnRate(\n        address token\n        )\n        external\n        view\n        returns (uint32 burnRate)\n    {\n        uint tier = getTokenTier(token);\n        if (tier == TIER_1) {\n            burnRate = uint32(BURN_P2P_TIER1) * 0x10000 + BURN_MATCHING_TIER1;\n        } else if (tier == TIER_2) {\n            burnRate = uint32(BURN_P2P_TIER2) * 0x10000 + BURN_MATCHING_TIER2;\n        } else if (tier == TIER_3) {\n            burnRate = uint32(BURN_P2P_TIER3) * 0x10000 + BURN_MATCHING_TIER3;\n        } else {\n            burnRate = uint32(BURN_P2P_TIER4) * 0x10000 + BURN_MATCHING_TIER4;\n        }\n    }\n\n    function upgradeTokenTier(\n        address token\n        )\n        external\n        returns (bool)\n    {\n        require(token != address(0x0), ZERO_ADDRESS);\n        require(token != lrcAddress, BURN_RATE_FROZEN);\n        require(token != wethAddress, BURN_RATE_FROZEN);\n\n        uint currentTier = getTokenTier(token);\n\n        // Can't upgrade to a higher level than tier 1\n        require(currentTier != TIER_1, BURN_RATE_MINIMIZED);\n\n        // Burn TIER_UPGRADE_COST_PERCENTAGE of total LRC supply\n        ERC20 LRC = ERC20(lrcAddress);\n        uint totalSupply = LRC.totalSupply() - LRC.balanceOf(address(0x0));\n        uint amount = totalSupply.mul(TIER_UPGRADE_COST_PERCENTAGE) / BURN_BASE_PERCENTAGE;\n        require(\n            lrcAddress.safeTransferFrom(\n                msg.sender,\n                address(0x0),\n                amount\n            ),\n            BURN_FAILURE\n        );\n\n        // Upgrade tier\n        TokenData storage tokenData = tokens[token];\n        tokenData.validUntil = now.add(YEAR_TO_SECONDS);\n        tokenData.tier = currentTier + 1;\n\n        emit TokenTierUpgraded(token, tokenData.tier);\n\n        return true;\n    }\n\n    function getTokenTier(\n        address token\n        )\n        public\n        view\n        returns (uint tier)\n    {\n        TokenData storage tokenData = tokens[token];\n        // Fall back to lowest tier\n        tier = (now > tokenData.validUntil) ? TIER_4 : tokenData.tier;\n    }\n\n}\n",
  "sourcePath": "/usr/local/klzhong/workspace/loopring/protocol2/contracts/impl/BurnRateTable.sol",
  "compiler": {
    "name": "solc",
    "version": "0.5.2+commit.1df8f40c.Emscripten.clang"
  },
  "schemaVersion": "3.0.0",
  "updatedAt": "2019-03-19T09:16:27.475Z",
  "devdoc": {
    "author": "Brecht Devos - <brecht@loopring.org>",
    "methods": {}
  },
  "userdoc": {
    "methods": {}
  }
}