{
  "contractName": "BurnManager",
  "abi": [
    {
      "constant": true,
      "inputs": [],
      "name": "lrcAddress",
      "outputs": [
        {
          "name": "",
          "type": "address"
        }
      ],
      "payable": false,
      "stateMutability": "view",
      "type": "function"
    },
    {
      "constant": true,
      "inputs": [],
      "name": "feeHolderAddress",
      "outputs": [
        {
          "name": "",
          "type": "address"
        }
      ],
      "payable": false,
      "stateMutability": "view",
      "type": "function"
    },
    {
      "inputs": [
        {
          "name": "_feeHolderAddress",
          "type": "address"
        },
        {
          "name": "_lrcAddress",
          "type": "address"
        }
      ],
      "payable": false,
      "stateMutability": "nonpayable",
      "type": "constructor"
    },
    {
      "payable": true,
      "stateMutability": "payable",
      "type": "fallback"
    },
    {
      "constant": false,
      "inputs": [
        {
          "name": "token",
          "type": "address"
        }
      ],
      "name": "burn",
      "outputs": [
        {
          "name": "",
          "type": "bool"
        }
      ],
      "payable": false,
      "stateMutability": "nonpayable",
      "type": "function"
    }
  ],
  "bytecode": "0x608060405260008054600160a060020a031990811690915560018054909116905534801561002c57600080fd5b506040516040806109598339810180604052604081101561004c57600080fd5b50805160209182015160408051808201909152600c81527f5a45524f5f414444524553530000000000000000000000000000000000000000938101939093529091600160a060020a038316151561013b576040517f08c379a00000000000000000000000000000000000000000000000000000000081526004018080602001828103825283818151815260200191508051906020019080838360005b838110156101005781810151838201526020016100e8565b50505050905090810190601f16801561012d5780820380516001836020036101000a031916815260200191505b509250505060405180910390fd5b5060408051808201909152600c81527f5a45524f5f4144445245535300000000000000000000000000000000000000006020820152600160a060020a03821615156101e2576040517f08c379a0000000000000000000000000000000000000000000000000000000008152600401808060200182810382528381815181526020019150805190602001908083836000838110156101005781810151838201526020016100e8565b5060008054600160a060020a03938416600160a060020a0319918216179091556001805492909316911617905561073b8061021e6000396000f3fe608060405260043610610050577c010000000000000000000000000000000000000000000000000000000060003504633d6cf722811461012057806389afcb441461015e578063fece7826146101b2575b604080518082018252600b81527f554e535550504f52544544000000000000000000000000000000000000000000602080830191825292517f08c379a00000000000000000000000000000000000000000000000000000000081526004810193845282516024820152825192939283926044909201919080838360005b838110156100e55781810151838201526020016100cd565b50505050905090810190601f1680156101125780820380516001836020036101000a031916815260200191505b509250505060405180910390fd5b34801561012c57600080fd5b506101356101c7565b6040805173ffffffffffffffffffffffffffffffffffffffff9092168252519081900360200190f35b34801561016a57600080fd5b5061019e6004803603602081101561018157600080fd5b503573ffffffffffffffffffffffffffffffffffffffff166101e3565b604080519115158252519081900360200190f35b3480156101be57600080fd5b50610135610565565b60015473ffffffffffffffffffffffffffffffffffffffff1681565b60008054604080517f4566f48a00000000000000000000000000000000000000000000000000000000815273ffffffffffffffffffffffffffffffffffffffff8581166004830152909216602483018190529051909183918391634566f48a916044808301926020929190829003018186803b15801561026257600080fd5b505afa158015610276573d6000803e3d6000fd5b505050506040513d602081101561028c57600080fd5b5051604080517f787748a700000000000000000000000000000000000000000000000000000000815273ffffffffffffffffffffffffffffffffffffffff87811660048301526024820184905291519293506000929185169163787748a79160448082019260209290919082900301818787803b15801561030c57600080fd5b505af1158015610320573d6000803e3d6000fd5b505050506040513d602081101561033657600080fd5b505160408051808201909152601281527f5749544844524157414c5f4641494c555245000000000000000000000000000060208201529091508115156103d8576040517f08c379a0000000000000000000000000000000000000000000000000000000008152600401808060200182810382528381815181526020019150805190602001908083836000838110156100e55781810151838201526020016100cd565b5060015473ffffffffffffffffffffffffffffffffffffffff8681169116146104915760408051808201909152600d81527f554e494d504c454d454e5445440000000000000000000000000000000000000060208201526040517f08c379a0000000000000000000000000000000000000000000000000000000008152600401808060200182810382528381815181526020019150805190602001908083836000838110156100e55781810151838201526020016100cd565b6001546104bc9073ffffffffffffffffffffffffffffffffffffffff1660008463ffffffff61058116565b60408051808201909152600c81527f4255524e5f4641494c55524500000000000000000000000000000000000000006020820152901515610559576040517f08c379a0000000000000000000000000000000000000000000000000000000008152600401808060200182810382528381815181526020019150805190602001908083836000838110156100e55781810151838201526020016100cd565b50600195945050505050565b60005473ffffffffffffffffffffffffffffffffffffffff1681565b6040805173ffffffffffffffffffffffffffffffffffffffff8085166024830152604480830185905283518084039091018152606490920183526020820180517bffffffffffffffffffffffffffffffffffffffffffffffffffffffff167fa9059cbb0000000000000000000000000000000000000000000000000000000017815292518251600094928816928492918291908083835b6020831061065557805182527fffffffffffffffffffffffffffffffffffffffffffffffffffffffffffffffe09092019160209182019101610618565b6001836020036101000a0380198251168184511680821785525050505050509050019150506000604051808303816000865af19150503d80600081146106b7576040519150601f19603f3d011682016040523d82523d6000602084013e6106bc565b606091505b5050809250506106cb826106d4565b95945050505050565b6000811561070b573d80156106f457602081146106fd5760009250610709565b60019250610709565b60206000803e60005192505b505b509056fea165627a7a7230582053f10dcb69a0feace16569a79b0c68c8c090d09ed1c58416f9c77cff04d88bec0029",
  "source": "/*\n\n  Copyright 2017 Loopring Project Ltd (Loopring Foundation).\n\n  Licensed under the Apache License, Version 2.0 (the \"License\");\n  you may not use this file except in compliance with the License.\n  You may obtain a copy of the License at\n\n  http://www.apache.org/licenses/LICENSE-2.0\n\n  Unless required by applicable law or agreed to in writing, software\n  distributed under the License is distributed on an \"AS IS\" BASIS,\n  WITHOUT WARRANTIES OR CONDITIONS OF ANY KIND, either express or implied.\n  See the License for the specific language governing permissions and\n  limitations under the License.\n*/\n\npragma solidity 0.5.2;\n\nimport \"../iface/IFeeHolder.sol\";\nimport \"../lib/ERC20SafeTransfer.sol\";\nimport \"../lib/MathUint.sol\";\nimport \"../lib/NoDefaultFunc.sol\";\n\n\n/// @author Brecht Devos - <brecht@loopring.org>\ncontract BurnManager is NoDefaultFunc {\n    using MathUint for uint;\n    using ERC20SafeTransfer for address;\n\n    address public feeHolderAddress = address(0x0);\n    address public lrcAddress = address(0x0);\n\n    constructor(\n        address _feeHolderAddress,\n        address _lrcAddress\n        )\n        public\n    {\n        require(_feeHolderAddress != address(0x0), ZERO_ADDRESS);\n        require(_lrcAddress != address(0x0), ZERO_ADDRESS);\n        feeHolderAddress = _feeHolderAddress;\n        lrcAddress = _lrcAddress;\n    }\n\n    function burn(\n        address token\n        )\n        external\n        returns (bool)\n    {\n        IFeeHolder feeHolder = IFeeHolder(feeHolderAddress);\n\n        // Withdraw the complete token balance\n        uint balance = feeHolder.feeBalances(token, feeHolderAddress);\n        bool success = feeHolder.withdrawBurned(token, balance);\n        require(success, WITHDRAWAL_FAILURE);\n\n        // We currently only support burning LRC directly\n        if (token != lrcAddress) {\n            require(false, UNIMPLEMENTED);\n        }\n\n        // Burn the LRC\n        require(\n            lrcAddress.safeTransfer(\n                address(0x0),\n                balance\n            ),\n            BURN_FAILURE\n        );\n\n        return true;\n    }\n\n}\n",
  "sourcePath": "/usr/local/klzhong/workspace/loopring/protocol2/contracts/impl/BurnManager.sol",
  "compiler": {
    "name": "solc",
    "version": "0.5.2+commit.1df8f40c.Emscripten.clang"
  },
  "schemaVersion": "3.0.0",
  "updatedAt": "2019-03-19T09:16:27.474Z",
  "devdoc": {
    "author": "Brecht Devos - <brecht@loopring.org>",
    "methods": {}
  },
  "userdoc": {
    "methods": {}
  }
}