{
  "contractName": "BytesUtilWrapper",
  "abi": [
    {
      "constant": true,
      "inputs": [
        {
          "name": "b",
          "type": "bytes"
        },
        {
          "name": "offset",
          "type": "uint256"
        }
      ],
      "name": "bytesToBytes32",
      "outputs": [
        {
          "name": "",
          "type": "bytes32"
        }
      ],
      "payable": false,
      "stateMutability": "pure",
      "type": "function"
    },
    {
      "constant": true,
      "inputs": [
        {
          "name": "b",
          "type": "bytes"
        },
        {
          "name": "offset",
          "type": "uint256"
        }
      ],
      "name": "bytesToUint",
      "outputs": [
        {
          "name": "",
          "type": "uint256"
        }
      ],
      "payable": false,
      "stateMutability": "pure",
      "type": "function"
    },
    {
      "constant": true,
      "inputs": [
        {
          "name": "b",
          "type": "bytes"
        },
        {
          "name": "offset",
          "type": "uint256"
        }
      ],
      "name": "bytesToAddress",
      "outputs": [
        {
          "name": "",
          "type": "address"
        }
      ],
      "payable": false,
      "stateMutability": "pure",
      "type": "function"
    },
    {
      "constant": true,
      "inputs": [
        {
          "name": "b",
          "type": "bytes"
        },
        {
          "name": "offset",
          "type": "uint256"
        }
      ],
      "name": "bytesToUint16",
      "outputs": [
        {
          "name": "",
          "type": "uint16"
        }
      ],
      "payable": false,
      "stateMutability": "pure",
      "type": "function"
    }
  ],
  "bytecode": "0x608060405234801561001057600080fd5b506103fd806100206000396000f3fe608060405234801561001057600080fd5b5060043610610068577c010000000000000000000000000000000000000000000000000000000060003504630638c0f4811461006d578063484162be14610106578063535849391461018d57806388e9f4291461018d575b600080fd5b6100dd6004803603604081101561008357600080fd5b81019060208101813564010000000081111561009e57600080fd5b8201836020820111156100b057600080fd5b803590602001918460018302840111640100000000831117156100d257600080fd5b91935091503561020f565b6040805173ffffffffffffffffffffffffffffffffffffffff9092168252519081900360200190f35b6101766004803603604081101561011c57600080fd5b81019060208101813564010000000081111561013757600080fd5b82018360208201111561014957600080fd5b8035906020019184600183028401116401000000008311171561016b57600080fd5b919350915035610262565b6040805161ffff9092168252519081900360200190f35b6101fd600480360360408110156101a357600080fd5b8101906020810181356401000000008111156101be57600080fd5b8201836020820111156101d057600080fd5b803590602001918460018302840111640100000000831117156101f257600080fd5b9193509150356102ad565b60408051918252519081900360200190f35b600061025a8285858080601f016020809104026020016040519081016040528093929190818152602001838380828437600092019190915250929392505063ffffffff6102f8169050565b949350505050565b600061025a8285858080601f016020809104026020016040519081016040528093929190818152602001838380828437600092019190915250929392505063ffffffff610323169050565b600061025a8285858080601f016020809104026020016040519081016040528093929190818152602001838380828437600092019190915250929392505063ffffffff61033c169050565b600061030683836014610351565b73ffffffffffffffffffffffffffffffffffffffff169392505050565b600061033183836002610351565b61ffff169392505050565b600061034a83836020610351565b9392505050565b60008183018451101515156103c757604080517f08c379a000000000000000000000000000000000000000000000000000000000815260206004820152600c60248201527f494e56414c49445f53495a450000000000000000000000000000000000000000604482015290519081900360640190fd5b509190910101519056fea165627a7a723058206ff43a1636b37ef9ca549f6c4596e909cbe094aaa5b45f36e67d4bd059da53540029",
  "source": "/*\n\n  Copyright 2017 Loopring Project Ltd (Loopring Foundation).\n\n  Licensed under the Apache License, Version 2.0 (the \"License\");\n  you may not use this file except in compliance with the License.\n  You may obtain a copy of the License at\n\n  http://www.apache.org/licenses/LICENSE-2.0\n\n  Unless required by applicable law or agreed to in writing, software\n  distributed under the License is distributed on an \"AS IS\" BASIS,\n  WITHOUT WARRANTIES OR CONDITIONS OF ANY KIND, either express or implied.\n  See the License for the specific language governing permissions and\n  limitations under the License.\n*/\npragma solidity 0.5.2;\n\nimport \"../lib/BytesUtil.sol\";\n\n\n/// @author Brecht Devos - <brecht@loopring.org>\ncontract BytesUtilWrapper {\n    using BytesUtil for bytes;\n\n    function bytesToBytes32(\n        bytes calldata b,\n        uint offset\n        )\n        external\n        pure\n        returns (bytes32)\n    {\n        return b.bytesToBytes32(offset);\n    }\n\n    function bytesToUint(\n        bytes calldata b,\n        uint offset\n        )\n        external\n        pure\n        returns (uint)\n    {\n        return b.bytesToUint(offset);\n    }\n\n    function bytesToAddress(\n        bytes calldata b,\n        uint offset\n        )\n        external\n        pure\n        returns (address)\n    {\n        return b.bytesToAddress(offset);\n    }\n\n    function bytesToUint16(\n        bytes calldata b,\n        uint offset\n        )\n        external\n        pure\n        returns (uint16)\n    {\n        return b.bytesToUint16(offset);\n    }\n}\n",
  "sourcePath": "/usr/local/klzhong/workspace/loopring/protocol2/contracts/test/BytesUtilWrapper.sol",
  "compiler": {
    "name": "solc",
    "version": "0.5.2+commit.1df8f40c.Emscripten.clang"
  },
  "schemaVersion": "3.0.0",
  "updatedAt": "2019-03-19T09:16:27.514Z",
  "devdoc": {
    "author": "Brecht Devos - <brecht@loopring.org>",
    "methods": {}
  },
  "userdoc": {
    "methods": {}
  }
}