{
  "contractName": "ContractOrderOwner",
  "abi": [
    {
      "constant": true,
      "inputs": [],
      "name": "orderCancellerAddress",
      "outputs": [
        {
          "name": "",
          "type": "address"
        }
      ],
      "payable": false,
      "stateMutability": "view",
      "type": "function"
    },
    {
      "constant": true,
      "inputs": [],
      "name": "orderBookAddress",
      "outputs": [
        {
          "name": "",
          "type": "address"
        }
      ],
      "payable": false,
      "stateMutability": "view",
      "type": "function"
    },
    {
      "inputs": [
        {
          "name": "_orderBookAddress",
          "type": "address"
        },
        {
          "name": "_orderCancellerAddress",
          "type": "address"
        }
      ],
      "payable": false,
      "stateMutability": "nonpayable",
      "type": "constructor"
    },
    {
      "constant": false,
      "inputs": [
        {
          "name": "data",
          "type": "bytes"
        },
        {
          "name": "expectedOrderHash",
          "type": "bytes32"
        }
      ],
      "name": "sumbitOrderToOrderBook",
      "outputs": [],
      "payable": false,
      "stateMutability": "nonpayable",
      "type": "function"
    },
    {
      "constant": false,
      "inputs": [
        {
          "name": "orderHash",
          "type": "bytes32"
        }
      ],
      "name": "cancelOrder",
      "outputs": [],
      "payable": false,
      "stateMutability": "nonpayable",
      "type": "function"
    },
    {
      "constant": false,
      "inputs": [
        {
          "name": "token",
          "type": "address"
        },
        {
          "name": "spender",
          "type": "address"
        },
        {
          "name": "amount",
          "type": "uint256"
        }
      ],
      "name": "approve",
      "outputs": [],
      "payable": false,
      "stateMutability": "nonpayable",
      "type": "function"
    }
  ],
  "bytecode": "0x608060405260008054600160a060020a031990811690915560018054909116905534801561002c57600080fd5b506040516040806106208339810180604052604081101561004c57600080fd5b50805160209091015160008054600160a060020a03938416600160a060020a0319918216179091556001805493909216921691909117905561058d806100936000396000f3fe608060405234801561001057600080fd5b5060043610610084576000357c0100000000000000000000000000000000000000000000000000000000900480637489ec231161006d5780637489ec231461012c5780639409d87014610149578063e1f21c671461015157610084565b80632d0422191461008957806374381b2a146100ba575b600080fd5b610091610194565b6040805173ffffffffffffffffffffffffffffffffffffffff9092168252519081900360200190f35b61012a600480360360408110156100d057600080fd5b8101906020810181356401000000008111156100eb57600080fd5b8201836020820111156100fd57600080fd5b8035906020019184600183028401116401000000008311171561011f57600080fd5b9193509150356101b0565b005b61012a6004803603602081101561014257600080fd5b50356102f0565b610091610404565b61012a6004803603606081101561016757600080fd5b5073ffffffffffffffffffffffffffffffffffffffff813581169160208101359091169060400135610420565b60015473ffffffffffffffffffffffffffffffffffffffff1681565b600080546040517f5f1853290000000000000000000000000000000000000000000000000000000081526020600482019081526024820186905273ffffffffffffffffffffffffffffffffffffffff90921691635f18532991879187918190604401848480828437600081840152601f19601f8201169050808301925050509350505050602060405180830381600087803b15801561024e57600080fd5b505af1158015610262573d6000803e3d6000fd5b505050506040513d602081101561027857600080fd5b505190508181146102ea57604080517f08c379a000000000000000000000000000000000000000000000000000000000815260206004820152601260248201527f494e56414c49445f4f524445525f484153480000000000000000000000000000604482015290519081900360640190fd5b50505050565b60408051602080825281830190925260609160208201818038833950505060208181018481526001546040517fa383de3a0000000000000000000000000000000000000000000000000000000081526004810193845284516024820152845194955073ffffffffffffffffffffffffffffffffffffffff9091169363a383de3a938693909283926044909101919080838360005b8381101561039c578181015183820152602001610384565b50505050905090810190601f1680156103c95780820380516001836020036101000a031916815260200191505b5092505050600060405180830381600087803b1580156103e857600080fd5b505af11580156103fc573d6000803e3d6000fd5b505050505050565b60005473ffffffffffffffffffffffffffffffffffffffff1681565b8273ffffffffffffffffffffffffffffffffffffffff1663095ea7b383836040518363ffffffff167c0100000000000000000000000000000000000000000000000000000000028152600401808373ffffffffffffffffffffffffffffffffffffffff1673ffffffffffffffffffffffffffffffffffffffff16815260200182815260200192505050602060405180830381600087803b1580156104c357600080fd5b505af11580156104d7573d6000803e3d6000fd5b505050506040513d60208110156104ed57600080fd5b5051151561055c57604080517f08c379a000000000000000000000000000000000000000000000000000000000815260206004820152600e60248201527f415050524f56455f4641494c4544000000000000000000000000000000000000604482015290519081900360640190fd5b50505056fea165627a7a72305820da7d9904d50200aa813c4310cd9772c9f7be39afc78657284abac86e7b98bf170029",
  "source": "/*\n\n  Copyright 2017 Loopring Project Ltd (Loopring Foundation).\n\n  Licensed under the Apache License, Version 2.0 (the \"License\");\n  you may not use this file except in compliance with the License.\n  You may obtain a copy of the License at\n\n  http://www.apache.org/licenses/LICENSE-2.0\n\n  Unless required by applicable law or agreed to in writing, software\n  distributed under the License is distributed on an \"AS IS\" BASIS,\n  WITHOUT WARRANTIES OR CONDITIONS OF ANY KIND, either express or implied.\n  See the License for the specific language governing permissions and\n  limitations under the License.\n*/\npragma solidity 0.5.2;\n\nimport \"../iface/IOrderCanceller.sol\";\nimport \"../iface/IOrderBook.sol\";\nimport \"../iface/IOrderRegistry.sol\";\nimport \"../lib/ERC20.sol\";\n\n\n/// @author Brecht Devos - <brecht@loopring.org>\ncontract ContractOrderOwner {\n\n    address public orderBookAddress = address(0x0);\n    address public orderCancellerAddress = address(0x0);\n\n    constructor(\n        address _orderBookAddress,\n        address _orderCancellerAddress\n        )\n        public\n    {\n        orderBookAddress = _orderBookAddress;\n        orderCancellerAddress = _orderCancellerAddress;\n    }\n\n    function sumbitOrderToOrderBook(\n        bytes calldata data,\n        bytes32 expectedOrderHash\n        )\n        external\n    {\n        bytes32 orderHash = IOrderBook(orderBookAddress).submitOrder(data);\n        require(orderHash == expectedOrderHash, \"INVALID_ORDER_HASH\");\n    }\n\n    function cancelOrder(\n        bytes32 orderHash\n        )\n        external\n    {\n        bytes memory orderHashes = new bytes(32);\n        assembly {\n            mstore(add(orderHashes, 32), orderHash)\n        }\n        IOrderCanceller(orderCancellerAddress).cancelOrders(orderHashes);\n    }\n\n    function approve(\n        address token,\n        address spender,\n        uint amount\n        )\n        external\n    {\n        require(ERC20(token).approve(spender, amount), \"APPROVE_FAILED\");\n    }\n}\n",
  "sourcePath": "/usr/local/klzhong/workspace/loopring/protocol2/contracts/test/ContractOrderOwner.sol",
  "compiler": {
    "name": "solc",
    "version": "0.5.2+commit.1df8f40c.Emscripten.clang"
  },
  "schemaVersion": "3.0.0",
  "updatedAt": "2019-03-19T09:16:27.514Z",
  "devdoc": {
    "author": "Brecht Devos - <brecht@loopring.org>",
    "methods": {}
  },
  "userdoc": {
    "methods": {}
  }
}