{
  "contractName": "ERC20Token",
  "abi": [
    {
      "constant": true,
      "inputs": [],
      "name": "name",
      "outputs": [
        {
          "name": "",
          "type": "string"
        }
      ],
      "payable": false,
      "stateMutability": "view",
      "type": "function"
    },
    {
      "constant": true,
      "inputs": [],
      "name": "decimals",
      "outputs": [
        {
          "name": "",
          "type": "uint8"
        }
      ],
      "payable": false,
      "stateMutability": "view",
      "type": "function"
    },
    {
      "constant": true,
      "inputs": [],
      "name": "totalSupply_",
      "outputs": [
        {
          "name": "",
          "type": "uint256"
        }
      ],
      "payable": false,
      "stateMutability": "view",
      "type": "function"
    },
    {
      "constant": true,
      "inputs": [],
      "name": "symbol",
      "outputs": [
        {
          "name": "",
          "type": "string"
        }
      ],
      "payable": false,
      "stateMutability": "view",
      "type": "function"
    },
    {
      "inputs": [
        {
          "name": "_name",
          "type": "string"
        },
        {
          "name": "_symbol",
          "type": "string"
        },
        {
          "name": "_decimals",
          "type": "uint8"
        },
        {
          "name": "_totalSupply",
          "type": "uint256"
        },
        {
          "name": "_firstHolder",
          "type": "address"
        }
      ],
      "payable": false,
      "stateMutability": "nonpayable",
      "type": "constructor"
    },
    {
      "payable": true,
      "stateMutability": "payable",
      "type": "fallback"
    },
    {
      "anonymous": false,
      "inputs": [
        {
          "indexed": true,
          "name": "from",
          "type": "address"
        },
        {
          "indexed": true,
          "name": "to",
          "type": "address"
        },
        {
          "indexed": false,
          "name": "value",
          "type": "uint256"
        }
      ],
      "name": "Transfer",
      "type": "event"
    },
    {
      "anonymous": false,
      "inputs": [
        {
          "indexed": true,
          "name": "owner",
          "type": "address"
        },
        {
          "indexed": true,
          "name": "spender",
          "type": "address"
        },
        {
          "indexed": false,
          "name": "value",
          "type": "uint256"
        }
      ],
      "name": "Approval",
      "type": "event"
    },
    {
      "constant": true,
      "inputs": [],
      "name": "totalSupply",
      "outputs": [
        {
          "name": "",
          "type": "uint256"
        }
      ],
      "payable": false,
      "stateMutability": "view",
      "type": "function"
    },
    {
      "constant": false,
      "inputs": [
        {
          "name": "_to",
          "type": "address"
        },
        {
          "name": "_value",
          "type": "uint256"
        }
      ],
      "name": "transfer",
      "outputs": [
        {
          "name": "",
          "type": "bool"
        }
      ],
      "payable": false,
      "stateMutability": "nonpayable",
      "type": "function"
    },
    {
      "constant": true,
      "inputs": [
        {
          "name": "_owner",
          "type": "address"
        }
      ],
      "name": "balanceOf",
      "outputs": [
        {
          "name": "balance",
          "type": "uint256"
        }
      ],
      "payable": false,
      "stateMutability": "view",
      "type": "function"
    },
    {
      "constant": false,
      "inputs": [
        {
          "name": "_from",
          "type": "address"
        },
        {
          "name": "_to",
          "type": "address"
        },
        {
          "name": "_value",
          "type": "uint256"
        }
      ],
      "name": "transferFrom",
      "outputs": [
        {
          "name": "",
          "type": "bool"
        }
      ],
      "payable": false,
      "stateMutability": "nonpayable",
      "type": "function"
    },
    {
      "constant": false,
      "inputs": [
        {
          "name": "_spender",
          "type": "address"
        },
        {
          "name": "_value",
          "type": "uint256"
        }
      ],
      "name": "approve",
      "outputs": [
        {
          "name": "",
          "type": "bool"
        }
      ],
      "payable": false,
      "stateMutability": "nonpayable",
      "type": "function"
    },
    {
      "constant": true,
      "inputs": [
        {
          "name": "_owner",
          "type": "address"
        },
        {
          "name": "_spender",
          "type": "address"
        }
      ],
      "name": "allowance",
      "outputs": [
        {
          "name": "",
          "type": "uint256"
        }
      ],
      "payable": false,
      "stateMutability": "view",
      "type": "function"
    },
    {
      "constant": false,
      "inputs": [
        {
          "name": "_spender",
          "type": "address"
        },
        {
          "name": "_addedValue",
          "type": "uint256"
        }
      ],
      "name": "increaseApproval",
      "outputs": [
        {
          "name": "",
          "type": "bool"
        }
      ],
      "payable": false,
      "stateMutability": "nonpayable",
      "type": "function"
    },
    {
      "constant": false,
      "inputs": [
        {
          "name": "_spender",
          "type": "address"
        },
        {
          "name": "_subtractedValue",
          "type": "uint256"
        }
      ],
      "name": "decreaseApproval",
      "outputs": [
        {
          "name": "",
          "type": "bool"
        }
      ],
      "payable": false,
      "stateMutability": "nonpayable",
      "type": "function"
    }
  ],
  "bytecode": "0x60806040523480156200001157600080fd5b506040516200180938038062001809833981018060405260a08110156200003757600080fd5b8101908080516401000000008111156200005057600080fd5b820160208101848111156200006457600080fd5b81516401000000008111828201871017156200007f57600080fd5b505092919060200180516401000000008111156200009c57600080fd5b82016020810184811115620000b057600080fd5b8151640100000000811182820187101715620000cb57600080fd5b5050602082015160408301516060909301519194509250600082116200015257604080517f08c379a000000000000000000000000000000000000000000000000000000000815260206004820152600d60248201527f494e56414c49445f56414c554500000000000000000000000000000000000000604482015290519081900360640190fd5b600160a060020a0381161515620001ca57604080517f08c379a000000000000000000000000000000000000000000000000000000000815260206004820152600c60248201527f5a45524f5f414444524553530000000000000000000000000000000000000000604482015290519081900360640190fd5b620001df848664010000000062000248810204565b8451620001f4906000906020880190620008d5565b5083516200020a906001906020870190620008d5565b506002805460ff191660ff94909416939093179092556003819055600160a060020a03909116600090815260046020526040902055506200097a9050565b815182906003118015906200025f57506008815111155b1515620002cd57604080517f08c379a000000000000000000000000000000000000000000000000000000000815260206004820152600c60248201527f494e56414c49445f53495a450000000000000000000000000000000000000000604482015290519081900360640190fd5b60005b8151811015620006ab578181815181101515620002e957fe5b9060200101517f010000000000000000000000000000000000000000000000000000000000000090047f010000000000000000000000000000000000000000000000000000000000000002600160f860020a031916602e7f0100000000000000000000000000000000000000000000000000000000000000021480620003f4575081818151811015156200037957fe5b9060200101517f010000000000000000000000000000000000000000000000000000000000000090047f010000000000000000000000000000000000000000000000000000000000000002600160f860020a031916605f7f010000000000000000000000000000000000000000000000000000000000000002145b8062000514575081517f4100000000000000000000000000000000000000000000000000000000000000908390839081106200042c57fe5b9060200101517f010000000000000000000000000000000000000000000000000000000000000090047f010000000000000000000000000000000000000000000000000000000000000002600160f860020a0319161015801562000514575081517f5a0000000000000000000000000000000000000000000000000000000000000090839083908110620004bc57fe5b9060200101517f010000000000000000000000000000000000000000000000000000000000000090047f010000000000000000000000000000000000000000000000000000000000000002600160f860020a03191611155b8062000634575081517f6100000000000000000000000000000000000000000000000000000000000000908390839081106200054c57fe5b9060200101517f010000000000000000000000000000000000000000000000000000000000000090047f010000000000000000000000000000000000000000000000000000000000000002600160f860020a0319161015801562000634575081517f7a0000000000000000000000000000000000000000000000000000000000000090839083908110620005dc57fe5b9060200101517f010000000000000000000000000000000000000000000000000000000000000090047f010000000000000000000000000000000000000000000000000000000000000002600160f860020a03191611155b1515620006a257604080517f08c379a000000000000000000000000000000000000000000000000000000000815260206004820152600d60248201527f494e56414c49445f56414c554500000000000000000000000000000000000000604482015290519081900360640190fd5b600101620002d0565b5080518251839111801590620006c357506080815111155b15156200073157604080517f08c379a000000000000000000000000000000000000000000000000000000000815260206004820152600c60248201527f494e56414c49445f53495a450000000000000000000000000000000000000000604482015290519081900360640190fd5b60005b8151811015620008ce5781517f2000000000000000000000000000000000000000000000000000000000000000908390839081106200076f57fe5b9060200101517f010000000000000000000000000000000000000000000000000000000000000090047f010000000000000000000000000000000000000000000000000000000000000002600160f860020a0319161015801562000857575081517f7e0000000000000000000000000000000000000000000000000000000000000090839083908110620007ff57fe5b9060200101517f010000000000000000000000000000000000000000000000000000000000000090047f010000000000000000000000000000000000000000000000000000000000000002600160f860020a03191611155b1515620008c557604080517f08c379a000000000000000000000000000000000000000000000000000000000815260206004820152600d60248201527f494e56414c49445f56414c554500000000000000000000000000000000000000604482015290519081900360640190fd5b60010162000734565b5050505050565b828054600181600116156101000203166002900490600052602060002090601f016020900481019282601f106200091857805160ff191683800117855562000948565b8280016001018555821562000948579182015b82811115620009485782518255916020019190600101906200092b565b50620009569291506200095a565b5090565b6200097791905b8082111562000956576000815560010162000961565b90565b610e7f806200098a6000396000f3fe6080604052600436106100e4576000357c0100000000000000000000000000000000000000000000000000000000900480636618846311610091578063a9059cbb1161006b578063a9059cbb146103ea578063d73dd62314610430578063dd62ed3e14610476576100e4565b8063661884631461034f57806370a082311461039557806395d89b41146103d5576100e4565b806323b872dd116100c257806323b872dd146102bf578063313ce5671461030f578063324536eb1461033a576100e4565b806306fdde03146101b4578063095ea7b31461023e57806318160ddd14610298575b604080518082018252600b81527f554e535550504f52544544000000000000000000000000000000000000000000602080830191825292517f08c379a00000000000000000000000000000000000000000000000000000000081526004810193845282516024820152825192939283926044909201919080838360005b83811015610179578181015183820152602001610161565b50505050905090810190601f1680156101a65780820380516001836020036101000a031916815260200191505b509250505060405180910390fd5b3480156101c057600080fd5b506101c96104be565b6040805160208082528351818301528351919283929083019185019080838360005b838110156102035781810151838201526020016101eb565b50505050905090810190601f1680156102305780820380516001836020036101000a031916815260200191505b509250505060405180910390f35b34801561024a57600080fd5b506102846004803603604081101561026157600080fd5b5073ffffffffffffffffffffffffffffffffffffffff813516906020013561056a565b604080519115158252519081900360200190f35b3480156102a457600080fd5b506102ad6105de565b60408051918252519081900360200190f35b3480156102cb57600080fd5b50610284600480360360608110156102e257600080fd5b5073ffffffffffffffffffffffffffffffffffffffff8135811691602081013590911690604001356105e4565b34801561031b57600080fd5b506103246108de565b6040805160ff9092168252519081900360200190f35b34801561034657600080fd5b506102ad6108e7565b34801561035b57600080fd5b506102846004803603604081101561037257600080fd5b5073ffffffffffffffffffffffffffffffffffffffff81351690602001356108ed565b3480156103a157600080fd5b506102ad600480360360208110156103b857600080fd5b503573ffffffffffffffffffffffffffffffffffffffff16610a11565b3480156103e157600080fd5b506101c9610a39565b3480156103f657600080fd5b506102846004803603604081101561040d57600080fd5b5073ffffffffffffffffffffffffffffffffffffffff8135169060200135610ab1565b34801561043c57600080fd5b506102846004803603604081101561045357600080fd5b5073ffffffffffffffffffffffffffffffffffffffff8135169060200135610c7f565b34801561048257600080fd5b506102ad6004803603604081101561049957600080fd5b5073ffffffffffffffffffffffffffffffffffffffff81358116916020013516610d32565b6000805460408051602060026001851615610100027fffffffffffffffffffffffffffffffffffffffffffffffffffffffffffffffff0190941693909304601f810184900484028201840190925281815292918301828280156105625780601f1061053757610100808354040283529160200191610562565b820191906000526020600020905b81548152906001019060200180831161054557829003601f168201915b505050505081565b33600081815260056020908152604080832073ffffffffffffffffffffffffffffffffffffffff8716808552908352818420869055815186815291519394909390927f8c5be1e5ebec7d5bd14f71427d1e84f3dd0314c0f7b2291e5b200ac8c7c3b925928290030190a35060015b92915050565b60035490565b600073ffffffffffffffffffffffffffffffffffffffff8316151561066a57604080517f08c379a000000000000000000000000000000000000000000000000000000000815260206004820152600c60248201527f5a45524f5f414444524553530000000000000000000000000000000000000000604482015290519081900360640190fd5b73ffffffffffffffffffffffffffffffffffffffff84166000908152600460205260409020548211156106fe57604080517f08c379a000000000000000000000000000000000000000000000000000000000815260206004820152600d60248201527f494e56414c49445f56414c554500000000000000000000000000000000000000604482015290519081900360640190fd5b73ffffffffffffffffffffffffffffffffffffffff8416600090815260056020908152604080832033845290915290205482111561079d57604080517f08c379a000000000000000000000000000000000000000000000000000000000815260206004820152600d60248201527f494e56414c49445f56414c554500000000000000000000000000000000000000604482015290519081900360640190fd5b73ffffffffffffffffffffffffffffffffffffffff84166000908152600460205260409020546107d3908363ffffffff610d6a16565b73ffffffffffffffffffffffffffffffffffffffff8086166000908152600460205260408082209390935590851681522054610815908363ffffffff610de116565b73ffffffffffffffffffffffffffffffffffffffff8085166000908152600460209081526040808320949094559187168152600582528281203382529091522054610866908363ffffffff610d6a16565b73ffffffffffffffffffffffffffffffffffffffff808616600081815260056020908152604080832033845282529182902094909455805186815290519287169391927fddf252ad1be2c89b69c2b068fc378daa952ba7f163c4a11628f55a4df523b3ef929181900390910190a35060019392505050565b60025460ff1681565b60035481565b33600090815260056020908152604080832073ffffffffffffffffffffffffffffffffffffffff861684529091528120548083111561095c5733600090815260056020908152604080832073ffffffffffffffffffffffffffffffffffffffff8816845290915281205561099e565b61096c818463ffffffff610d6a16565b33600090815260056020908152604080832073ffffffffffffffffffffffffffffffffffffffff891684529091529020555b33600081815260056020908152604080832073ffffffffffffffffffffffffffffffffffffffff89168085529083529281902054815190815290519293927f8c5be1e5ebec7d5bd14f71427d1e84f3dd0314c0f7b2291e5b200ac8c7c3b925929181900390910190a35060019392505050565b73ffffffffffffffffffffffffffffffffffffffff1660009081526004602052604090205490565b60018054604080516020600284861615610100027fffffffffffffffffffffffffffffffffffffffffffffffffffffffffffffffff0190941693909304601f810184900484028201840190925281815292918301828280156105625780601f1061053757610100808354040283529160200191610562565b600073ffffffffffffffffffffffffffffffffffffffff83161515610b3757604080517f08c379a000000000000000000000000000000000000000000000000000000000815260206004820152600c60248201527f5a45524f5f414444524553530000000000000000000000000000000000000000604482015290519081900360640190fd5b33600090815260046020526040902054821115610bb557604080517f08c379a000000000000000000000000000000000000000000000000000000000815260206004820152600d60248201527f494e56414c49445f56414c554500000000000000000000000000000000000000604482015290519081900360640190fd5b33600090815260046020526040902054610bd5908363ffffffff610d6a16565b336000908152600460205260408082209290925573ffffffffffffffffffffffffffffffffffffffff851681522054610c14908363ffffffff610de116565b73ffffffffffffffffffffffffffffffffffffffff84166000818152600460209081526040918290209390935580518581529051919233927fddf252ad1be2c89b69c2b068fc378daa952ba7f163c4a11628f55a4df523b3ef9281900390910190a350600192915050565b33600090815260056020908152604080832073ffffffffffffffffffffffffffffffffffffffff86168452909152812054610cc0908363ffffffff610de116565b33600081815260056020908152604080832073ffffffffffffffffffffffffffffffffffffffff89168085529083529281902085905580519485525191937f8c5be1e5ebec7d5bd14f71427d1e84f3dd0314c0f7b2291e5b200ac8c7c3b925929081900390910190a350600192915050565b73ffffffffffffffffffffffffffffffffffffffff918216600090815260056020908152604080832093909416825291909152205490565b600082821115610ddb57604080517f08c379a000000000000000000000000000000000000000000000000000000000815260206004820152600d60248201527f494e56414c49445f56414c554500000000000000000000000000000000000000604482015290519081900360640190fd5b50900390565b818101828110156105d857604080517f08c379a000000000000000000000000000000000000000000000000000000000815260206004820152600d60248201527f494e56414c49445f56414c554500000000000000000000000000000000000000604482015290519081900360640190fdfea165627a7a72305820173cf96afdc1fe8460bfc281755aaa81af9df1632afffadf692a234ff382f71e0029",
  "source": "/*\n\n    Copyright 2017 Loopring Project Ltd (Loopring Foundation).\n\n    Licensed under the Apache License, Version 2.0 (the \"License\");\n    you may not use this file except in compliance with the License.\n    You may obtain a copy of the License at\n\n    http://www.apache.org/licenses/LICENSE-2.0\n\n    Unless required by applicable law or agreed to in writing, software\n    distributed under the License is distributed on an \"AS IS\" BASIS,\n    WITHOUT WARRANTIES OR CONDITIONS OF ANY KIND, either express or implied.\n    See the License for the specific language governing permissions and\n    limitations under the License.\n*/\npragma solidity 0.5.2;\n\nimport \"../iface/Errors.sol\";\nimport \"./ERC20.sol\";\nimport \"./MathUint.sol\";\n\n\n/// @title ERC20 Token Implementation\n/// @dev see https://github.com/ethereum/EIPs/issues/20\n/// @author Daniel Wang - <daniel@loopring.org>\ncontract ERC20Token is ERC20, Errors{\n    using MathUint for uint;\n\n    string  public name;\n    string  public symbol;\n    uint8   public decimals;\n    uint    public totalSupply_;\n\n    mapping (address => uint256) balances;\n    mapping (address => mapping (address => uint256)) internal allowed;\n\n    event Transfer(\n        address indexed from,\n        address indexed to,\n        uint256 value\n    );\n\n    event Approval(\n        address indexed owner,\n        address indexed spender,\n        uint256 value\n    );\n\n    constructor(\n        string memory _name,\n        string memory _symbol,\n        uint8         _decimals,\n        uint          _totalSupply,\n        address       _firstHolder\n        )\n        public\n    {\n        require(_totalSupply > 0, \"INVALID_VALUE\");\n        require(_firstHolder != address(0x0), \"ZERO_ADDRESS\");\n        checkSymbolAndName(_symbol,_name);\n\n        name = _name;\n        symbol = _symbol;\n        decimals = _decimals;\n        totalSupply_ = _totalSupply;\n\n        balances[_firstHolder] = totalSupply_;\n    }\n\n    function ()\n        external\n        payable\n    {\n        revert(UNSUPPORTED);\n    }\n\n    /**\n    * @dev total number of tokens in existence\n    */\n    function totalSupply()\n        public\n        view\n        returns (uint256)\n    {\n        return totalSupply_;\n    }\n\n    /**\n    * @dev transfer token for a specified address\n    * @param _to The address to transfer to.\n    * @param _value The amount to be transferred.\n    */\n    function transfer(\n        address _to,\n        uint256 _value\n        )\n        public\n        returns (bool)\n    {\n        require(_to != address(0), \"ZERO_ADDRESS\");\n        require(_value <= balances[msg.sender], \"INVALID_VALUE\");\n\n        // SafeMath.sub will throw if there is not enough balance.\n        balances[msg.sender] = balances[msg.sender].sub(_value);\n        balances[_to] = balances[_to].add(_value);\n        emit Transfer(msg.sender, _to, _value);\n        return true;\n    }\n\n    /**\n    * @dev Gets the balance of the specified address.\n    * @param _owner The address to query the the balance of.\n    * @return An uint256 representing the amount owned by the passed address.\n    */\n    function balanceOf(\n        address _owner\n        )\n        public\n        view\n        returns (uint256 balance)\n    {\n        return balances[_owner];\n    }\n\n    /**\n     * @dev Transfer tokens from one address to another\n     * @param _from address The address which you want to send tokens from\n     * @param _to address The address which you want to transfer to\n     * @param _value uint256 the amount of tokens to be transferred\n     */\n    function transferFrom(\n        address _from,\n        address _to,\n        uint256 _value\n        )\n        public\n        returns (bool)\n    {\n        require(_to != address(0), \"ZERO_ADDRESS\");\n        require(_value <= balances[_from], \"INVALID_VALUE\");\n        require(_value <= allowed[_from][msg.sender], \"INVALID_VALUE\");\n\n        balances[_from] = balances[_from].sub(_value);\n        balances[_to] = balances[_to].add(_value);\n        allowed[_from][msg.sender] = allowed[_from][msg.sender].sub(_value);\n        emit Transfer(_from, _to, _value);\n        return true;\n    }\n\n    /**\n     * @dev Approve the passed address to spend the specified amount of tokens on behalf of msg.sender.\n     *\n     * Beware that changing an allowance with this method brings the risk that someone may use both the old\n     * and the new allowance by unfortunate transaction ordering. One possible solution to mitigate this\n     * race condition is to first reduce the spender's allowance to 0 and set the desired value afterwards:\n     * https://github.com/ethereum/EIPs/issues/20#issuecomment-263524729\n     * @param _spender The address which will spend the funds.\n     * @param _value The amount of tokens to be spent.\n     */\n    function approve(\n        address _spender,\n        uint256 _value\n        )\n        public\n        returns (bool)\n    {\n        allowed[msg.sender][_spender] = _value;\n        emit Approval(msg.sender, _spender, _value);\n        return true;\n    }\n\n    /**\n     * @dev Function to check the amount of tokens that an owner allowed to a spender.\n     * @param _owner address The address which owns the funds.\n     * @param _spender address The address which will spend the funds.\n     * @return A uint256 specifying the amount of tokens still available for the spender.\n     */\n    function allowance(\n        address _owner,\n        address _spender\n        )\n        public\n        view\n        returns (uint256)\n    {\n        return allowed[_owner][_spender];\n    }\n\n    /**\n     * @dev Increase the amount of tokens that an owner allowed to a spender.\n     *\n     * approve should be called when allowed[_spender] == 0. To increment\n     * allowed value is better to use this function to avoid 2 calls (and wait until\n     * the first transaction is mined)\n     * From MonolithDAO Token.sol\n     * @param _spender The address which will spend the funds.\n     * @param _addedValue The amount of tokens to increase the allowance by.\n     */\n    function increaseApproval(\n        address _spender,\n        uint _addedValue\n        )\n        public\n        returns (bool)\n    {\n        allowed[msg.sender][_spender] = allowed[msg.sender][_spender].add(_addedValue);\n        emit Approval(msg.sender, _spender, allowed[msg.sender][_spender]);\n        return true;\n    }\n\n    /**\n     * @dev Decrease the amount of tokens that an owner allowed to a spender.\n     *\n     * approve should be called when allowed[_spender] == 0. To decrement\n     * allowed value is better to use this function to avoid 2 calls (and wait until\n     * the first transaction is mined)\n     * From MonolithDAO Token.sol\n     * @param _spender The address which will spend the funds.\n     * @param _subtractedValue The amount of tokens to decrease the allowance by.\n     */\n    function decreaseApproval(\n        address _spender,\n        uint _subtractedValue\n        )\n        public\n        returns (bool)\n    {\n        uint oldValue = allowed[msg.sender][_spender];\n        if (_subtractedValue > oldValue) {\n            allowed[msg.sender][_spender] = 0;\n        } else {\n            allowed[msg.sender][_spender] = oldValue.sub(_subtractedValue);\n        }\n        emit Approval(msg.sender, _spender, allowed[msg.sender][_spender]);\n        return true;\n    }\n\n    // Make sure symbol has 3-8 chars in [A-Za-z._] and name has up to 128 chars.\n    function checkSymbolAndName(\n        string memory _symbol,\n        string memory _name\n        )\n        internal\n        pure\n    {\n        bytes memory s = bytes(_symbol);\n        require(s.length >= 3 && s.length <= 8, \"INVALID_SIZE\");\n        for (uint i = 0; i < s.length; i++) {\n            // make sure symbol contains only [A-Za-z._]\n            require(\n                s[i] == 0x2E || (\n                s[i] == 0x5F) || (\n                s[i] >= 0x41 && s[i] <= 0x5A) || (\n                s[i] >= 0x61 && s[i] <= 0x7A), \"INVALID_VALUE\");\n        }\n        bytes memory n = bytes(_name);\n        require(n.length >= s.length && n.length <= 128, \"INVALID_SIZE\");\n        for (uint i = 0; i < n.length; i++) {\n            require(n[i] >= 0x20 && n[i] <= 0x7E, \"INVALID_VALUE\");\n        }\n    }\n}\n",
  "sourcePath": "/usr/local/klzhong/workspace/loopring/protocol2/contracts/lib/ERC20Token.sol",
  "compiler": {
    "name": "solc",
    "version": "0.5.2+commit.1df8f40c.Emscripten.clang"
  },
  "schemaVersion": "3.0.0",
  "updatedAt": "2019-03-19T09:16:27.508Z",
  "devdoc": {
    "author": "Daniel Wang - <daniel@loopring.org>",
    "details": "see https://github.com/ethereum/EIPs/issues/20",
    "methods": {
      "allowance(address,address)": {
        "details": "Function to check the amount of tokens that an owner allowed to a spender.",
        "params": {
          "_owner": "address The address which owns the funds.",
          "_spender": "address The address which will spend the funds."
        },
        "return": "A uint256 specifying the amount of tokens still available for the spender."
      },
      "approve(address,uint256)": {
        "details": "Approve the passed address to spend the specified amount of tokens on behalf of msg.sender.     * Beware that changing an allowance with this method brings the risk that someone may use both the old and the new allowance by unfortunate transaction ordering. One possible solution to mitigate this race condition is to first reduce the spender's allowance to 0 and set the desired value afterwards: https://github.com/ethereum/EIPs/issues/20#issuecomment-263524729",
        "params": {
          "_spender": "The address which will spend the funds.",
          "_value": "The amount of tokens to be spent."
        }
      },
      "balanceOf(address)": {
        "details": "Gets the balance of the specified address.",
        "params": {
          "_owner": "The address to query the the balance of."
        },
        "return": "An uint256 representing the amount owned by the passed address."
      },
      "decreaseApproval(address,uint256)": {
        "details": "Decrease the amount of tokens that an owner allowed to a spender.     * approve should be called when allowed[_spender] == 0. To decrement allowed value is better to use this function to avoid 2 calls (and wait until the first transaction is mined) From MonolithDAO Token.sol",
        "params": {
          "_spender": "The address which will spend the funds.",
          "_subtractedValue": "The amount of tokens to decrease the allowance by."
        }
      },
      "increaseApproval(address,uint256)": {
        "details": "Increase the amount of tokens that an owner allowed to a spender.     * approve should be called when allowed[_spender] == 0. To increment allowed value is better to use this function to avoid 2 calls (and wait until the first transaction is mined) From MonolithDAO Token.sol",
        "params": {
          "_addedValue": "The amount of tokens to increase the allowance by.",
          "_spender": "The address which will spend the funds."
        }
      },
      "totalSupply()": {
        "details": "total number of tokens in existence"
      },
      "transfer(address,uint256)": {
        "details": "transfer token for a specified address",
        "params": {
          "_to": "The address to transfer to.",
          "_value": "The amount to be transferred."
        }
      },
      "transferFrom(address,address,uint256)": {
        "details": "Transfer tokens from one address to another",
        "params": {
          "_from": "address The address which you want to send tokens from",
          "_to": "address The address which you want to transfer to",
          "_value": "uint256 the amount of tokens to be transferred"
        }
      }
    },
    "title": "ERC20 Token Implementation"
  },
  "userdoc": {
    "methods": {}
  }
}