{
  "contractName": "FeeHolder",
  "abi": [
    {
      "constant": true,
      "inputs": [
        {
          "name": "",
          "type": "address"
        },
        {
          "name": "",
          "type": "address"
        }
      ],
      "name": "feeBalances",
      "outputs": [
        {
          "name": "",
          "type": "uint256"
        }
      ],
      "payable": false,
      "stateMutability": "view",
      "type": "function"
    },
    {
      "constant": true,
      "inputs": [],
      "name": "delegateAddress",
      "outputs": [
        {
          "name": "",
          "type": "address"
        }
      ],
      "payable": false,
      "stateMutability": "view",
      "type": "function"
    },
    {
      "inputs": [
        {
          "name": "_delegateAddress",
          "type": "address"
        }
      ],
      "payable": false,
      "stateMutability": "nonpayable",
      "type": "constructor"
    },
    {
      "payable": true,
      "stateMutability": "payable",
      "type": "fallback"
    },
    {
      "anonymous": false,
      "inputs": [
        {
          "indexed": false,
          "name": "owner",
          "type": "address"
        },
        {
          "indexed": false,
          "name": "token",
          "type": "address"
        },
        {
          "indexed": false,
          "name": "value",
          "type": "uint256"
        }
      ],
      "name": "TokenWithdrawn",
      "type": "event"
    },
    {
      "constant": false,
      "inputs": [
        {
          "name": "batch",
          "type": "bytes32[]"
        }
      ],
      "name": "batchAddFeeBalances",
      "outputs": [],
      "payable": false,
      "stateMutability": "nonpayable",
      "type": "function"
    },
    {
      "constant": false,
      "inputs": [
        {
          "name": "token",
          "type": "address"
        },
        {
          "name": "value",
          "type": "uint256"
        }
      ],
      "name": "withdrawBurned",
      "outputs": [
        {
          "name": "",
          "type": "bool"
        }
      ],
      "payable": false,
      "stateMutability": "nonpayable",
      "type": "function"
    },
    {
      "constant": false,
      "inputs": [
        {
          "name": "token",
          "type": "address"
        },
        {
          "name": "value",
          "type": "uint256"
        }
      ],
      "name": "withdrawToken",
      "outputs": [
        {
          "name": "",
          "type": "bool"
        }
      ],
      "payable": false,
      "stateMutability": "nonpayable",
      "type": "function"
    }
  ],
  "bytecode": "0x608060405260018054600160a060020a031916905534801561002057600080fd5b50604051602080610d788339810180604052602081101561004057600080fd5b505160408051808201909152600c81527f5a45524f5f4144445245535300000000000000000000000000000000000000006020820152600160a060020a0382161515610124576040517f08c379a00000000000000000000000000000000000000000000000000000000081526004018080602001828103825283818151815260200191508051906020019080838360005b838110156100e95781810151838201526020016100d1565b50505050905090810190601f1680156101165780820380516001836020036101000a031916815260200191505b509250505060405180910390fd5b5060018054600160a060020a031916600160a060020a0392909216919091179055610c24806101546000396000f3fe608060405260043610610077576000357c0100000000000000000000000000000000000000000000000000000000900480636d96a2aa116100605780636d96a2aa14610220578063787748a71461025e5780639e281a98146102b857610077565b80634566f48a146101475780634a874dd9146101a1575b604080518082018252600b81527f554e535550504f52544544000000000000000000000000000000000000000000602080830191825292517f08c379a00000000000000000000000000000000000000000000000000000000081526004810193845282516024820152825192939283926044909201919080838360005b8381101561010c5781810151838201526020016100f4565b50505050905090810190601f1680156101395780820380516001836020036101000a031916815260200191505b509250505060405180910390fd5b34801561015357600080fd5b5061018f6004803603604081101561016a57600080fd5b5073ffffffffffffffffffffffffffffffffffffffff813581169160200135166102fe565b60408051918252519081900360200190f35b3480156101ad57600080fd5b5061021e600480360360208110156101c457600080fd5b8101906020810181356401000000008111156101df57600080fd5b8201836020820111156101f157600080fd5b8035906020019184602083028401116401000000008311171561021357600080fd5b509092509050610318565b005b34801561022c57600080fd5b506102356105a8565b6040805173ffffffffffffffffffffffffffffffffffffffff9092168252519081900360200190f35b34801561026a57600080fd5b506102a46004803603604081101561028157600080fd5b5073ffffffffffffffffffffffffffffffffffffffff81351690602001356105c4565b604080519115158252519081900360200190f35b3480156102c457600080fd5b506102a4600480360360408110156102db57600080fd5b5073ffffffffffffffffffffffffffffffffffffffff813516906020013561071b565b600060208181529281526040808220909352908152205481565b600154604080517fced3fb9c000000000000000000000000000000000000000000000000000000008152336004820152905173ffffffffffffffffffffffffffffffffffffffff90921691600091839163ced3fb9c91602480820192602092909190829003018186803b15801561038e57600080fd5b505afa1580156103a2573d6000803e3d6000fd5b505050506040513d60208110156103b857600080fd5b505160408051808201909152600c81527f554e415554484f52495a45440000000000000000000000000000000000000000602082015290915081151561045a576040517f08c379a00000000000000000000000000000000000000000000000000000000081526004018080602001828103825283818151815260200191508051906020019080838360008381101561010c5781810151838201526020016100f4565b5060408051808201909152600c81527f494e56414c49445f53495a4500000000000000000000000000000000000000006020820152839060038206156104fc576040517f08c379a00000000000000000000000000000000000000000000000000000000081526004018080602001828103825283818151815260200191508051906020019080838360008381101561010c5781810151838201526020016100f4565b50600080806044602085028101815b8181101561059b57803573ffffffffffffffffffffffffffffffffffffffff818116600090815260208181526040808320828701359485168452909152908190205492985090965082013594506105629085610732565b73ffffffffffffffffffffffffffffffffffffffff808816600090815260208181526040808320938a168352929052205560600161050b565b5050505050505050505050565b60015473ffffffffffffffffffffffffffffffffffffffff1681565b600154604080517fced3fb9c000000000000000000000000000000000000000000000000000000008152336004820152905160009273ffffffffffffffffffffffffffffffffffffffff16918391839163ced3fb9c916024808301926020929190829003018186803b15801561063957600080fd5b505afa15801561064d573d6000803e3d6000fd5b505050506040513d602081101561066357600080fd5b505160408051808201909152600c81527f554e415554484f52495a454400000000000000000000000000000000000000006020820152909150811515610705576040517f08c379a00000000000000000000000000000000000000000000000000000000081526004018080602001828103825283818151815260200191508051906020019080838360008381101561010c5781810151838201526020016100f4565b50610712853033876107a4565b95945050505050565b6000610729833333856107a4565b90505b92915050565b8181018281101561072c57604080517f08c379a000000000000000000000000000000000000000000000000000000000815260206004820152600d60248201527f494e56414c49445f56414c554500000000000000000000000000000000000000604482015290519081900360640190fd5b73ffffffffffffffffffffffffffffffffffffffff8085166000908152602081815260408083209387168352928152828220548351808501909452600d84527f494e56414c49445f56414c55450000000000000000000000000000000000000091840191909152909190831115610877576040517f08c379a00000000000000000000000000000000000000000000000000000000081526004018080602001828103825283818151815260200191508051906020019080838360008381101561010c5781810151838201526020016100f4565b5073ffffffffffffffffffffffffffffffffffffffff808616600090815260208181526040808320938816835292905220546108b9908363ffffffff610a0116565b73ffffffffffffffffffffffffffffffffffffffff808716600081815260208181526040808320948a168352939052919091209190915561090190848463ffffffff610a7816565b60408051808201909152601081527f5452414e534645525f4641494c5552450000000000000000000000000000000060208201529091508115156109a1576040517f08c379a00000000000000000000000000000000000000000000000000000000081526004018080602001828103825283818151815260200191508051906020019080838360008381101561010c5781810151838201526020016100f4565b506040805173ffffffffffffffffffffffffffffffffffffffff80871682528716602082015280820184905290517f8210728e7c071f615b840ee026032693858fbcd5e5359e67e438c890f59e56209181900360600190a1949350505050565b600082821115610a7257604080517f08c379a000000000000000000000000000000000000000000000000000000000815260206004820152600d60248201527f494e56414c49445f56414c554500000000000000000000000000000000000000604482015290519081900360640190fd5b50900390565b6040805173ffffffffffffffffffffffffffffffffffffffff8085166024830152604480830185905283518084039091018152606490920183526020820180517bffffffffffffffffffffffffffffffffffffffffffffffffffffffff167fa9059cbb0000000000000000000000000000000000000000000000000000000017815292518251600094928816928492918291908083835b60208310610b4c57805182527fffffffffffffffffffffffffffffffffffffffffffffffffffffffffffffffe09092019160209182019101610b0f565b6001836020036101000a0380198251168184511680821785525050505050509050019150506000604051808303816000865af19150503d8060008114610bae576040519150601f19603f3d011682016040523d82523d6000602084013e610bb3565b606091505b5050809250506107128260008115610bf4573d8015610bdd5760208114610be65760009250610bf2565b60019250610bf2565b60206000803e60005192505b505b509056fea165627a7a72305820237e01b93df81c01809802c9e359d8720a4a52cf103306e7d52a99898d4656550029",
  "source": "/*\n\n  Copyright 2017 Loopring Project Ltd (Loopring Foundation).\n\n  Licensed under the Apache License, Version 2.0 (the \"License\");\n  you may not use this file except in compliance with the License.\n  You may obtain a copy of the License at\n\n  http://www.apache.org/licenses/LICENSE-2.0\n\n  Unless required by applicable law or agreed to in writing, software\n  distributed under the License is distributed on an \"AS IS\" BASIS,\n  WITHOUT WARRANTIES OR CONDITIONS OF ANY KIND, either express or implied.\n  See the License for the specific language governing permissions and\n  limitations under the License.\n*/\n\npragma solidity 0.5.2;\n\nimport \"../iface/IFeeHolder.sol\";\nimport \"../iface/ITradeDelegate.sol\";\nimport \"../lib/Claimable.sol\";\nimport \"../lib/ERC20SafeTransfer.sol\";\nimport \"../lib/MathUint.sol\";\nimport \"../lib/NoDefaultFunc.sol\";\n\n\n/// @author Kongliang Zhong - <kongliang@loopring.org>\ncontract FeeHolder is IFeeHolder, NoDefaultFunc {\n    using MathUint for uint;\n    using ERC20SafeTransfer for address;\n\n    address public delegateAddress = address(0x0);\n\n    constructor(address _delegateAddress) public {\n        require(_delegateAddress != address(0x0), ZERO_ADDRESS);\n        delegateAddress = _delegateAddress;\n    }\n\n    modifier onlyAuthorized() {\n        ITradeDelegate delegate = ITradeDelegate(delegateAddress);\n        bool isAuthorized = delegate.isAddressAuthorized(msg.sender);\n        require(isAuthorized, UNAUTHORIZED);\n        _;\n    }\n\n    function batchAddFeeBalances(bytes32[] calldata batch)\n        external\n        onlyAuthorized\n    {\n        uint length = batch.length;\n        require(length % 3 == 0, INVALID_SIZE);\n\n        address token;\n        address owner;\n        uint value;\n        uint start = 68;\n        uint end = start + length * 32;\n        for (uint p = start; p < end; p += 96) {\n            assembly {\n                token := calldataload(add(p,  0))\n                owner := calldataload(add(p, 32))\n                value := calldataload(add(p, 64))\n            }\n            feeBalances[token][owner] = feeBalances[token][owner].add(value);\n        }\n    }\n\n    function withdrawBurned(address token, uint value)\n        external\n        onlyAuthorized\n        returns (bool)\n    {\n        return withdraw(token, address(this), msg.sender, value);\n    }\n\n    function withdrawToken(address token, uint value)\n        external\n        returns (bool)\n    {\n        return withdraw(token, msg.sender, msg.sender, value);\n    }\n\n    function withdraw(address token, address from, address to, uint value)\n        internal\n        returns (bool success)\n    {\n        require(feeBalances[token][from] >= value, INVALID_VALUE);\n        feeBalances[token][from] = feeBalances[token][from].sub(value);\n        // Token transfer needs to be done after the state changes to prevent a reentrancy attack\n        success = token.safeTransfer(to, value);\n        require(success, TRANSFER_FAILURE);\n        emit TokenWithdrawn(from, token, value);\n    }\n\n}\n",
  "sourcePath": "/usr/local/klzhong/workspace/loopring/protocol2/contracts/impl/FeeHolder.sol",
  "compiler": {
    "name": "solc",
    "version": "0.5.2+commit.1df8f40c.Emscripten.clang"
  },
  "schemaVersion": "3.0.0",
  "updatedAt": "2019-03-19T09:16:27.483Z",
  "devdoc": {
    "author": "Kongliang Zhong - <kongliang@loopring.org>",
    "methods": {}
  },
  "userdoc": {
    "methods": {}
  }
}