{
  "contractName": "GTO",
  "abi": [
    {
      "constant": true,
      "inputs": [],
      "name": "name",
      "outputs": [
        {
          "name": "",
          "type": "string"
        }
      ],
      "payable": false,
      "stateMutability": "view",
      "type": "function"
    },
    {
      "constant": false,
      "inputs": [
        {
          "name": "_spender",
          "type": "address"
        },
        {
          "name": "_value",
          "type": "uint256"
        }
      ],
      "name": "approve",
      "outputs": [
        {
          "name": "",
          "type": "bool"
        }
      ],
      "payable": false,
      "stateMutability": "nonpayable",
      "type": "function"
    },
    {
      "constant": true,
      "inputs": [],
      "name": "totalSupply",
      "outputs": [
        {
          "name": "",
          "type": "uint256"
        }
      ],
      "payable": false,
      "stateMutability": "view",
      "type": "function"
    },
    {
      "constant": false,
      "inputs": [
        {
          "name": "_target",
          "type": "address"
        },
        {
          "name": "_value",
          "type": "uint256"
        }
      ],
      "name": "addBalance",
      "outputs": [],
      "payable": false,
      "stateMutability": "nonpayable",
      "type": "function"
    },
    {
      "constant": false,
      "inputs": [
        {
          "name": "_from",
          "type": "address"
        },
        {
          "name": "_to",
          "type": "address"
        },
        {
          "name": "_value",
          "type": "uint256"
        }
      ],
      "name": "transferFrom",
      "outputs": [
        {
          "name": "",
          "type": "bool"
        }
      ],
      "payable": false,
      "stateMutability": "nonpayable",
      "type": "function"
    },
    {
      "constant": true,
      "inputs": [],
      "name": "decimals",
      "outputs": [
        {
          "name": "",
          "type": "uint8"
        }
      ],
      "payable": false,
      "stateMutability": "view",
      "type": "function"
    },
    {
      "constant": false,
      "inputs": [
        {
          "name": "_value",
          "type": "uint256"
        }
      ],
      "name": "burn",
      "outputs": [
        {
          "name": "",
          "type": "bool"
        }
      ],
      "payable": false,
      "stateMutability": "nonpayable",
      "type": "function"
    },
    {
      "constant": false,
      "inputs": [
        {
          "name": "_spender",
          "type": "address"
        },
        {
          "name": "_subtractedValue",
          "type": "uint256"
        }
      ],
      "name": "decreaseApproval",
      "outputs": [
        {
          "name": "",
          "type": "bool"
        }
      ],
      "payable": false,
      "stateMutability": "nonpayable",
      "type": "function"
    },
    {
      "constant": true,
      "inputs": [
        {
          "name": "_owner",
          "type": "address"
        }
      ],
      "name": "balanceOf",
      "outputs": [
        {
          "name": "",
          "type": "uint256"
        }
      ],
      "payable": false,
      "stateMutability": "view",
      "type": "function"
    },
    {
      "constant": false,
      "inputs": [
        {
          "name": "_owner",
          "type": "address"
        },
        {
          "name": "_value",
          "type": "uint256"
        }
      ],
      "name": "burnFrom",
      "outputs": [
        {
          "name": "",
          "type": "bool"
        }
      ],
      "payable": false,
      "stateMutability": "nonpayable",
      "type": "function"
    },
    {
      "constant": true,
      "inputs": [],
      "name": "symbol",
      "outputs": [
        {
          "name": "",
          "type": "string"
        }
      ],
      "payable": false,
      "stateMutability": "view",
      "type": "function"
    },
    {
      "constant": false,
      "inputs": [
        {
          "name": "_to",
          "type": "address"
        },
        {
          "name": "_value",
          "type": "uint256"
        }
      ],
      "name": "transfer",
      "outputs": [
        {
          "name": "",
          "type": "bool"
        }
      ],
      "payable": false,
      "stateMutability": "nonpayable",
      "type": "function"
    },
    {
      "constant": false,
      "inputs": [
        {
          "name": "_spender",
          "type": "address"
        },
        {
          "name": "_addedValue",
          "type": "uint256"
        }
      ],
      "name": "increaseApproval",
      "outputs": [
        {
          "name": "",
          "type": "bool"
        }
      ],
      "payable": false,
      "stateMutability": "nonpayable",
      "type": "function"
    },
    {
      "constant": true,
      "inputs": [
        {
          "name": "_owner",
          "type": "address"
        },
        {
          "name": "_spender",
          "type": "address"
        }
      ],
      "name": "allowance",
      "outputs": [
        {
          "name": "",
          "type": "uint256"
        }
      ],
      "payable": false,
      "stateMutability": "view",
      "type": "function"
    },
    {
      "constant": false,
      "inputs": [
        {
          "name": "_target",
          "type": "address"
        },
        {
          "name": "_value",
          "type": "uint256"
        }
      ],
      "name": "setBalance",
      "outputs": [],
      "payable": false,
      "stateMutability": "nonpayable",
      "type": "function"
    },
    {
      "inputs": [],
      "payable": false,
      "stateMutability": "nonpayable",
      "type": "constructor"
    },
    {
      "payable": true,
      "stateMutability": "payable",
      "type": "fallback"
    },
    {
      "anonymous": false,
      "inputs": [
        {
          "indexed": true,
          "name": "burner",
          "type": "address"
        },
        {
          "indexed": false,
          "name": "value",
          "type": "uint256"
        }
      ],
      "name": "Burn",
      "type": "event"
    },
    {
      "anonymous": false,
      "inputs": [
        {
          "indexed": true,
          "name": "owner",
          "type": "address"
        },
        {
          "indexed": true,
          "name": "spender",
          "type": "address"
        },
        {
          "indexed": false,
          "name": "value",
          "type": "uint256"
        }
      ],
      "name": "Approval",
      "type": "event"
    },
    {
      "anonymous": false,
      "inputs": [
        {
          "indexed": true,
          "name": "from",
          "type": "address"
        },
        {
          "indexed": true,
          "name": "to",
          "type": "address"
        },
        {
          "indexed": false,
          "name": "value",
          "type": "uint256"
        }
      ],
      "name": "Transfer",
      "type": "event"
    }
  ],
  "bytecode": "0x60c0604052601e60808190527f4e6577204c6f6f7072696e6720746f6b656e206f6e20657468657265756d000060a09081526200004091600391906200089e565b506040805180820190915260038082527f4c52430000000000000000000000000000000000000000000000000000000000602090920191825262000087916004916200089e565b506005805460ff19166012179055348015620000a257600080fd5b50604080518082018252600881527f47544f5f544553540000000000000000000000000000000000000000000000006020808301919091528251808401909352600383527f47544f0000000000000000000000000000000000000000000000000000000000908301529060126b033b2e3c9fd0803ce800000083838383338015156200018f57604080517f08c379a000000000000000000000000000000000000000000000000000000000815260206004820152600c60248201527f5a45524f5f414444524553530000000000000000000000000000000000000000604482015290519081900360640190fd5b620001a4848664010000000062000211810204565b8451620001b99060039060208801906200089e565b508351620001cf9060049060208701906200089e565b506005805460ff191660ff94909416939093179092556001819055600160a060020a039091166000908152602081905260409020555062000943945050505050565b815182906003118015906200022857506008815111155b15156200029657604080517f08c379a000000000000000000000000000000000000000000000000000000000815260206004820152600c60248201527f494e56414c49445f53495a450000000000000000000000000000000000000000604482015290519081900360640190fd5b60005b815181101562000674578181815181101515620002b257fe5b9060200101517f010000000000000000000000000000000000000000000000000000000000000090047f010000000000000000000000000000000000000000000000000000000000000002600160f860020a031916602e7f0100000000000000000000000000000000000000000000000000000000000000021480620003bd575081818151811015156200034257fe5b9060200101517f010000000000000000000000000000000000000000000000000000000000000090047f010000000000000000000000000000000000000000000000000000000000000002600160f860020a031916605f7f010000000000000000000000000000000000000000000000000000000000000002145b80620004dd575081517f410000000000000000000000000000000000000000000000000000000000000090839083908110620003f557fe5b9060200101517f010000000000000000000000000000000000000000000000000000000000000090047f010000000000000000000000000000000000000000000000000000000000000002600160f860020a03191610158015620004dd575081517f5a00000000000000000000000000000000000000000000000000000000000000908390839081106200048557fe5b9060200101517f010000000000000000000000000000000000000000000000000000000000000090047f010000000000000000000000000000000000000000000000000000000000000002600160f860020a03191611155b80620005fd575081517f6100000000000000000000000000000000000000000000000000000000000000908390839081106200051557fe5b9060200101517f010000000000000000000000000000000000000000000000000000000000000090047f010000000000000000000000000000000000000000000000000000000000000002600160f860020a03191610158015620005fd575081517f7a0000000000000000000000000000000000000000000000000000000000000090839083908110620005a557fe5b9060200101517f010000000000000000000000000000000000000000000000000000000000000090047f010000000000000000000000000000000000000000000000000000000000000002600160f860020a03191611155b15156200066b57604080517f08c379a000000000000000000000000000000000000000000000000000000000815260206004820152600d60248201527f494e56414c49445f56414c554500000000000000000000000000000000000000604482015290519081900360640190fd5b60010162000299565b50805182518391118015906200068c57506080815111155b1515620006fa57604080517f08c379a000000000000000000000000000000000000000000000000000000000815260206004820152600c60248201527f494e56414c49445f53495a450000000000000000000000000000000000000000604482015290519081900360640190fd5b60005b8151811015620008975781517f2000000000000000000000000000000000000000000000000000000000000000908390839081106200073857fe5b9060200101517f010000000000000000000000000000000000000000000000000000000000000090047f010000000000000000000000000000000000000000000000000000000000000002600160f860020a0319161015801562000820575081517f7e0000000000000000000000000000000000000000000000000000000000000090839083908110620007c857fe5b9060200101517f010000000000000000000000000000000000000000000000000000000000000090047f010000000000000000000000000000000000000000000000000000000000000002600160f860020a03191611155b15156200088e57604080517f08c379a000000000000000000000000000000000000000000000000000000000815260206004820152600d60248201527f494e56414c49445f56414c554500000000000000000000000000000000000000604482015290519081900360640190fd5b600101620006fd565b5050505050565b828054600181600116156101000203166002900490600052602060002090601f016020900481019282601f10620008e157805160ff191683800117855562000911565b8280016001018555821562000911579182015b8281111562000911578251825591602001919060010190620008f4565b506200091f92915062000923565b5090565b6200094091905b808211156200091f57600081556001016200092a565b90565b6113b180620009536000396000f3fe608060405260043610610105576000357c01000000000000000000000000000000000000000000000000000000009004806366188463116100a7578063a9059cbb11610076578063a9059cbb146104ae578063d73dd623146104f4578063dd62ed3e1461053a578063e30443bc1461058257610105565b806366188463146103cd57806370a082311461041357806379cc67901461045357806395d89b411461049957610105565b806321e5383a116100e357806321e5383a146102e057806323b872dd14610328578063313ce5671461037857806342966c68146103a357610105565b806306fdde03146101d5578063095ea7b31461025f57806318160ddd146102b9575b604080518082018252600b81527f554e535550504f52544544000000000000000000000000000000000000000000602080830191825292517f08c379a00000000000000000000000000000000000000000000000000000000081526004810193845282516024820152825192939283926044909201919080838360005b8381101561019a578181015183820152602001610182565b50505050905090810190601f1680156101c75780820380516001836020036101000a031916815260200191505b509250505060405180910390fd5b3480156101e157600080fd5b506101ea6105c8565b6040805160208082528351818301528351919283929083019185019080838360005b8381101561022457818101518382015260200161020c565b50505050905090810190601f1680156102515780820380516001836020036101000a031916815260200191505b509250505060405180910390f35b34801561026b57600080fd5b506102a56004803603604081101561028257600080fd5b5073ffffffffffffffffffffffffffffffffffffffff8135169060200135610674565b604080519115158252519081900360200190f35b3480156102c557600080fd5b506102ce6106e7565b60408051918252519081900360200190f35b3480156102ec57600080fd5b506103266004803603604081101561030357600080fd5b5073ffffffffffffffffffffffffffffffffffffffff81351690602001356106ed565b005b34801561033457600080fd5b506102a56004803603606081101561034b57600080fd5b5073ffffffffffffffffffffffffffffffffffffffff8135811691602081013590911690604001356107bf565b34801561038457600080fd5b5061038d610a31565b6040805160ff9092168252519081900360200190f35b3480156103af57600080fd5b506102a5600480360360208110156103c657600080fd5b5035610a3a565b3480156103d957600080fd5b506102a5600480360360408110156103f057600080fd5b5073ffffffffffffffffffffffffffffffffffffffff8135169060200135610bb7565b34801561041f57600080fd5b506102ce6004803603602081101561043657600080fd5b503573ffffffffffffffffffffffffffffffffffffffff16610cdb565b34801561045f57600080fd5b506102a56004803603604081101561047657600080fd5b5073ffffffffffffffffffffffffffffffffffffffff8135169060200135610d03565b3480156104a557600080fd5b506101ea611024565b3480156104ba57600080fd5b506102a5600480360360408110156104d157600080fd5b5073ffffffffffffffffffffffffffffffffffffffff813516906020013561109d565b34801561050057600080fd5b506102a56004803603604081101561051757600080fd5b5073ffffffffffffffffffffffffffffffffffffffff81351690602001356111e3565b34801561054657600080fd5b506102ce6004803603604081101561055d57600080fd5b5073ffffffffffffffffffffffffffffffffffffffff81358116916020013516611296565b34801561058e57600080fd5b50610326600480360360408110156105a557600080fd5b5073ffffffffffffffffffffffffffffffffffffffff81351690602001356112ce565b6003805460408051602060026001851615610100027fffffffffffffffffffffffffffffffffffffffffffffffffffffffffffffffff0190941693909304601f8101849004840282018401909252818152929183018282801561066c5780601f106106415761010080835404028352916020019161066c565b820191906000526020600020905b81548152906001019060200180831161064f57829003601f168201915b505050505081565b33600081815260026020908152604080832073ffffffffffffffffffffffffffffffffffffffff8716808552908352818420869055815186815291519394909390927f8c5be1e5ebec7d5bd14f71427d1e84f3dd0314c0f7b2291e5b200ac8c7c3b925928290030190a350600192915050565b60015490565b60006106f883610cdb565b905081810181111561076b57604080517f08c379a000000000000000000000000000000000000000000000000000000000815260206004820152600d60248201527f494e56414c49445f56414c554500000000000000000000000000000000000000604482015290519081900360640190fd5b60015461077e908363ffffffff61135d16565b600155610791818363ffffffff61135d16565b73ffffffffffffffffffffffffffffffffffffffff9093166000908152602081905260409020929092555050565b73ffffffffffffffffffffffffffffffffffffffff831660009081526020819052604081205482111561085357604080517f08c379a000000000000000000000000000000000000000000000000000000000815260206004820152600d60248201527f494e56414c49445f56414c554500000000000000000000000000000000000000604482015290519081900360640190fd5b73ffffffffffffffffffffffffffffffffffffffff841660009081526002602090815260408083203384529091529020548211156108f257604080517f08c379a000000000000000000000000000000000000000000000000000000000815260206004820152600d60248201527f494e56414c49445f56414c554500000000000000000000000000000000000000604482015290519081900360640190fd5b73ffffffffffffffffffffffffffffffffffffffff8416600090815260208190526040902054610928908363ffffffff61137316565b73ffffffffffffffffffffffffffffffffffffffff808616600090815260208190526040808220939093559085168152205461096a908363ffffffff61135d16565b73ffffffffffffffffffffffffffffffffffffffff8085166000908152602081815260408083209490945591871681526002825282812033825290915220546109b9908363ffffffff61137316565b73ffffffffffffffffffffffffffffffffffffffff808616600081815260026020908152604080832033845282529182902094909455805186815290519287169391927fddf252ad1be2c89b69c2b068fc378daa952ba7f163c4a11628f55a4df523b3ef929181900390910190a35060019392505050565b60055460ff1681565b33600090815260208190526040812054821115610ab857604080517f08c379a000000000000000000000000000000000000000000000000000000000815260206004820152600d60248201527f494e56414c49445f56414c554500000000000000000000000000000000000000604482015290519081900360640190fd5b33600081815260208190526040902054610ad8908463ffffffff61137316565b73ffffffffffffffffffffffffffffffffffffffff8216600090815260208190526040902055600154610b11908463ffffffff61137316565b60015560408051848152905173ffffffffffffffffffffffffffffffffffffffff8316917fcc16f5dbb4873280815c1ee09dbd06736cffcc184412cf7a71a0fdb75d397ca5919081900360200190a260408051848152905160009173ffffffffffffffffffffffffffffffffffffffff8416917fddf252ad1be2c89b69c2b068fc378daa952ba7f163c4a11628f55a4df523b3ef9181900360200190a350600192915050565b33600090815260026020908152604080832073ffffffffffffffffffffffffffffffffffffffff8616845290915281205480831115610c265733600090815260026020908152604080832073ffffffffffffffffffffffffffffffffffffffff88168452909152812055610c68565b610c36818463ffffffff61137316565b33600090815260026020908152604080832073ffffffffffffffffffffffffffffffffffffffff891684529091529020555b33600081815260026020908152604080832073ffffffffffffffffffffffffffffffffffffffff89168085529083529281902054815190815290519293927f8c5be1e5ebec7d5bd14f71427d1e84f3dd0314c0f7b2291e5b200ac8c7c3b925929181900390910190a35060019392505050565b73ffffffffffffffffffffffffffffffffffffffff1660009081526020819052604090205490565b600073ffffffffffffffffffffffffffffffffffffffff83161515610d8957604080517f08c379a000000000000000000000000000000000000000000000000000000000815260206004820152600c60248201527f5a45524f5f414444524553530000000000000000000000000000000000000000604482015290519081900360640190fd5b73ffffffffffffffffffffffffffffffffffffffff8316600090815260208190526040902054821115610e1d57604080517f08c379a000000000000000000000000000000000000000000000000000000000815260206004820152600d60248201527f494e56414c49445f56414c554500000000000000000000000000000000000000604482015290519081900360640190fd5b73ffffffffffffffffffffffffffffffffffffffff83166000908152600260209081526040808320338452909152902054821115610ebc57604080517f08c379a000000000000000000000000000000000000000000000000000000000815260206004820152600d60248201527f494e56414c49445f56414c554500000000000000000000000000000000000000604482015290519081900360640190fd5b73ffffffffffffffffffffffffffffffffffffffff8316600090815260208190526040902054610ef2908363ffffffff61137316565b73ffffffffffffffffffffffffffffffffffffffff8416600090815260208181526040808320939093556002815282822033835290522054610f3a908363ffffffff61137316565b73ffffffffffffffffffffffffffffffffffffffff84166000908152600260209081526040808320338452909152902055600154610f7e908363ffffffff61137316565b60015560408051838152905173ffffffffffffffffffffffffffffffffffffffff8516917fcc16f5dbb4873280815c1ee09dbd06736cffcc184412cf7a71a0fdb75d397ca5919081900360200190a260408051838152905160009173ffffffffffffffffffffffffffffffffffffffff8616917fddf252ad1be2c89b69c2b068fc378daa952ba7f163c4a11628f55a4df523b3ef9181900360200190a350600192915050565b6004805460408051602060026001851615610100027fffffffffffffffffffffffffffffffffffffffffffffffffffffffffffffffff0190941693909304601f8101849004840282018401909252818152929183018282801561066c5780601f106106415761010080835404028352916020019161066c565b3360009081526020819052604081205482111561111b57604080517f08c379a000000000000000000000000000000000000000000000000000000000815260206004820152600d60248201527f494e56414c49445f56414c554500000000000000000000000000000000000000604482015290519081900360640190fd5b3360009081526020819052604090205461113b908363ffffffff61137316565b336000908152602081905260408082209290925573ffffffffffffffffffffffffffffffffffffffff85168152205461117a908363ffffffff61135d16565b73ffffffffffffffffffffffffffffffffffffffff8416600081815260208181526040918290209390935580518581529051919233927fddf252ad1be2c89b69c2b068fc378daa952ba7f163c4a11628f55a4df523b3ef9281900390910190a350600192915050565b33600090815260026020908152604080832073ffffffffffffffffffffffffffffffffffffffff86168452909152812054611224908363ffffffff61135d16565b33600081815260026020908152604080832073ffffffffffffffffffffffffffffffffffffffff89168085529083529281902085905580519485525191937f8c5be1e5ebec7d5bd14f71427d1e84f3dd0314c0f7b2291e5b200ac8c7c3b925929081900390910190a350600192915050565b73ffffffffffffffffffffffffffffffffffffffff918216600090815260026020908152604080832093909416825291909152205490565b60006112d983610cdb565b90508082101561130d576113056112f6828463ffffffff61137316565b6001549063ffffffff61137316565b600155611333565b61132f611320838363ffffffff61137316565b6001549063ffffffff61135d16565b6001555b5073ffffffffffffffffffffffffffffffffffffffff909116600090815260208190526040902055565b60008282018381101561136c57fe5b9392505050565b60008282111561137f57fe5b5090039056fea165627a7a72305820e1fc71513e84ca131e028472a255003d66598bd3499a96d8d6bf2783abbde5cf0029",
  "source": "/*\n\n  Copyright 2017 Loopring Project Ltd (Loopring Foundation).\n\n  Licensed under the Apache License, Version 2.0 (the \"License\");\n  you may not use this file except in compliance with the License.\n  You may obtain a copy of the License at\n\n  http://www.apache.org/licenses/LICENSE-2.0\n\n  Unless required by applicable law or agreed to in writing, software\n  distributed under the License is distributed on an \"AS IS\" BASIS,\n  WITHOUT WARRANTIES OR CONDITIONS OF ANY KIND, either express or implied.\n  See the License for the specific language governing permissions and\n  limitations under the License.\n*/\npragma solidity 0.5.2;\n\nimport \"../DummyToken.sol\";\n\ncontract GTO is DummyToken {\n\n    constructor() DummyToken(\n        \"GTO_TEST\",\n        \"GTO\",\n        18,\n        10 ** 27\n    ) public\n    {\n    }\n\n}\n",
  "sourcePath": "/usr/local/klzhong/workspace/loopring/protocol2/contracts/test/tokens/GTO.sol",
  "compiler": {
    "name": "solc",
    "version": "0.5.2+commit.1df8f40c.Emscripten.clang"
  },
  "schemaVersion": "3.0.0",
  "updatedAt": "2019-03-19T09:16:27.548Z",
  "devdoc": {
    "methods": {
      "allowance(address,address)": {
        "details": "Function to check the amount of tokens that an owner allowed to a spender.",
        "params": {
          "_owner": "address The address which owns the funds.",
          "_spender": "address The address which will spend the funds."
        },
        "return": "A uint256 specifying the amount of tokens still available for the spender."
      },
      "approve(address,uint256)": {
        "details": "Approve the passed address to spend the specified amount of tokens on behalf of msg.sender.     * Beware that changing an allowance with this method brings the risk that someone may use both the old and the new allowance by unfortunate transaction ordering. One possible solution to mitigate this race condition is to first reduce the spender's allowance to 0 and set the desired value afterwards: https://github.com/ethereum/EIPs/issues/20#issuecomment-263524729",
        "params": {
          "_spender": "The address which will spend the funds.",
          "_value": "The amount of tokens to be spent."
        }
      },
      "balanceOf(address)": {
        "details": "Gets the balance of the specified address.",
        "params": {
          "_owner": "The address to query the the balance of."
        },
        "return": "An uint256 representing the amount owned by the passed address."
      },
      "decreaseApproval(address,uint256)": {
        "details": "Decrease the amount of tokens that an owner allowed to a spender.     * approve should be called when allowed[_spender] == 0. To decrement allowed value is better to use this function to avoid 2 calls (and wait until the first transaction is mined) From MonolithDAO Token.sol",
        "params": {
          "_spender": "The address which will spend the funds.",
          "_subtractedValue": "The amount of tokens to decrease the allowance by."
        }
      },
      "increaseApproval(address,uint256)": {
        "details": "Increase the amount of tokens that an owner allowed to a spender.     * approve should be called when allowed[_spender] == 0. To increment allowed value is better to use this function to avoid 2 calls (and wait until the first transaction is mined) From MonolithDAO Token.sol",
        "params": {
          "_addedValue": "The amount of tokens to increase the allowance by.",
          "_spender": "The address which will spend the funds."
        }
      },
      "totalSupply()": {
        "details": "total number of tokens in existence"
      },
      "transfer(address,uint256)": {
        "details": "transfer token for a specified address",
        "params": {
          "_to": "The address to transfer to.",
          "_value": "The amount to be transferred."
        }
      },
      "transferFrom(address,address,uint256)": {
        "details": "Transfer tokens from one address to another",
        "params": {
          "_from": "address The address which you want to send tokens from",
          "_to": "address The address which you want to transfer to",
          "_value": "uint256 the amount of tokens to be transferred"
        }
      }
    }
  },
  "userdoc": {
    "methods": {}
  }
}