{
  "contractName": "Killable",
  "abi": [
    {
      "constant": false,
      "inputs": [],
      "name": "claimOwnership",
      "outputs": [],
      "payable": false,
      "stateMutability": "nonpayable",
      "type": "function"
    },
    {
      "constant": true,
      "inputs": [],
      "name": "suspended",
      "outputs": [
        {
          "name": "",
          "type": "bool"
        }
      ],
      "payable": false,
      "stateMutability": "view",
      "type": "function"
    },
    {
      "constant": true,
      "inputs": [],
      "name": "owner",
      "outputs": [
        {
          "name": "",
          "type": "address"
        }
      ],
      "payable": false,
      "stateMutability": "view",
      "type": "function"
    },
    {
      "constant": true,
      "inputs": [],
      "name": "pendingOwner",
      "outputs": [
        {
          "name": "",
          "type": "address"
        }
      ],
      "payable": false,
      "stateMutability": "view",
      "type": "function"
    },
    {
      "constant": false,
      "inputs": [
        {
          "name": "newOwner",
          "type": "address"
        }
      ],
      "name": "transferOwnership",
      "outputs": [],
      "payable": false,
      "stateMutability": "nonpayable",
      "type": "function"
    },
    {
      "anonymous": false,
      "inputs": [
        {
          "indexed": true,
          "name": "previousOwner",
          "type": "address"
        },
        {
          "indexed": true,
          "name": "newOwner",
          "type": "address"
        }
      ],
      "name": "OwnershipTransferred",
      "type": "event"
    },
    {
      "constant": false,
      "inputs": [],
      "name": "suspend",
      "outputs": [],
      "payable": false,
      "stateMutability": "nonpayable",
      "type": "function"
    },
    {
      "constant": false,
      "inputs": [],
      "name": "resume",
      "outputs": [],
      "payable": false,
      "stateMutability": "nonpayable",
      "type": "function"
    },
    {
      "constant": false,
      "inputs": [],
      "name": "kill",
      "outputs": [],
      "payable": false,
      "stateMutability": "nonpayable",
      "type": "function"
    }
  ],
  "bytecode": "0x60806040526001805460a060020a60ff021916905560008054600160a060020a0319163317905561092f806100356000396000f3fe608060405234801561001057600080fd5b50600436106100a5576000357c0100000000000000000000000000000000000000000000000000000000900480638da5cb5b116100785780638da5cb5b146100e0578063e30c397814610111578063e6400bbe14610119578063f2fde38b14610121576100a5565b8063046f7da2146100aa57806341c0e1b5146100b45780634e71e0c8146100bc578063702efdf3146100c4575b600080fd5b6100b2610154565b005b6100b26102fc565b6100b2610492565b6100cc6105ae565b604080519115158252519081900360200190f35b6100e86105cf565b6040805173ffffffffffffffffffffffffffffffffffffffff9092168252519081900360200190f35b6100e86105eb565b6100b2610607565b6100b26004803603602081101561013757600080fd5b503573ffffffffffffffffffffffffffffffffffffffff16610789565b60005473ffffffffffffffffffffffffffffffffffffffff1633146101da57604080517f08c379a000000000000000000000000000000000000000000000000000000000815260206004820152600960248201527f4e4f545f4f574e45520000000000000000000000000000000000000000000000604482015290519081900360640190fd5b60015460408051808201909152600d81527f494e56414c49445f53544154450000000000000000000000000000000000000060208201529074010000000000000000000000000000000000000000900460ff1615156102d1576040517f08c379a00000000000000000000000000000000000000000000000000000000081526004018080602001828103825283818151815260200191508051906020019080838360005b8381101561029657818101518382015260200161027e565b50505050905090810190601f1680156102c35780820380516001836020036101000a031916815260200191505b509250505060405180910390fd5b50600180547fffffffffffffffffffffff00ffffffffffffffffffffffffffffffffffffffff169055565b60005473ffffffffffffffffffffffffffffffffffffffff16331461038257604080517f08c379a000000000000000000000000000000000000000000000000000000000815260206004820152600960248201527f4e4f545f4f574e45520000000000000000000000000000000000000000000000604482015290519081900360640190fd5b60015460408051808201909152600d81527f494e56414c49445f53544154450000000000000000000000000000000000000060208201529074010000000000000000000000000000000000000000900460ff16151561043d576040517f08c379a00000000000000000000000000000000000000000000000000000000081526004018080602001828103825283818151815260200191508051906020019080838360008381101561029657818101518382015260200161027e565b50600080547fffffffffffffffffffffffff000000000000000000000000000000000000000016815560405181907f8be0079c531659141344cd1fd0a4f28419497f9722a3daafe3b4186f6b6457e0908290a3565b60015473ffffffffffffffffffffffffffffffffffffffff16331461051857604080517f08c379a000000000000000000000000000000000000000000000000000000000815260206004820152600c60248201527f554e415554484f52495a45440000000000000000000000000000000000000000604482015290519081900360640190fd5b6001546000805460405173ffffffffffffffffffffffffffffffffffffffff93841693909116917f8be0079c531659141344cd1fd0a4f28419497f9722a3daafe3b4186f6b6457e091a360018054600080547fffffffffffffffffffffffff000000000000000000000000000000000000000090811673ffffffffffffffffffffffffffffffffffffffff841617909155169055565b60015474010000000000000000000000000000000000000000900460ff1681565b60005473ffffffffffffffffffffffffffffffffffffffff1681565b60015473ffffffffffffffffffffffffffffffffffffffff1681565b60005473ffffffffffffffffffffffffffffffffffffffff16331461068d57604080517f08c379a000000000000000000000000000000000000000000000000000000000815260206004820152600960248201527f4e4f545f4f574e45520000000000000000000000000000000000000000000000604482015290519081900360640190fd5b60015460408051808201909152600d81527f494e56414c49445f53544154450000000000000000000000000000000000000060208201529074010000000000000000000000000000000000000000900460ff1615610747576040517f08c379a00000000000000000000000000000000000000000000000000000000081526004018080602001828103825283818151815260200191508051906020019080838360008381101561029657818101518382015260200161027e565b50600180547fffffffffffffffffffffff00ffffffffffffffffffffffffffffffffffffffff1674010000000000000000000000000000000000000000179055565b60005473ffffffffffffffffffffffffffffffffffffffff16331461080f57604080517f08c379a000000000000000000000000000000000000000000000000000000000815260206004820152600960248201527f4e4f545f4f574e45520000000000000000000000000000000000000000000000604482015290519081900360640190fd5b73ffffffffffffffffffffffffffffffffffffffff81161580159061084f575060005473ffffffffffffffffffffffffffffffffffffffff828116911614155b15156108bc57604080517f08c379a000000000000000000000000000000000000000000000000000000000815260206004820152600f60248201527f494e56414c49445f414444524553530000000000000000000000000000000000604482015290519081900360640190fd5b600180547fffffffffffffffffffffffff00000000000000000000000000000000000000001673ffffffffffffffffffffffffffffffffffffffff9290921691909117905556fea165627a7a723058203638fb52765c2670e4d3bb9195f560f3aa27b432891b3f3040629fd8bbe61bf80029",
  "source": "/*\n\n  Copyright 2017 Loopring Project Ltd (Loopring Foundation).\n\n  Licensed under the Apache License, Version 2.0 (the \"License\");\n  you may not use this file except in compliance with the License.\n  You may obtain a copy of the License at\n\n  http://www.apache.org/licenses/LICENSE-2.0\n\n  Unless required by applicable law or agreed to in writing, software\n  distributed under the License is distributed on an \"AS IS\" BASIS,\n  WITHOUT WARRANTIES OR CONDITIONS OF ANY KIND, either express or implied.\n  See the License for the specific language governing permissions and\n  limitations under the License.\n*/\npragma solidity 0.5.2;\n\nimport \"../iface/Errors.sol\";\n\nimport \"../lib/Claimable.sol\";\n\n\n/// @title Killable\n/// @dev The Killable contract allows the contract owner to suspend, resume or kill the contract\ncontract Killable is Claimable, Errors  {\n\n    bool public suspended = false;\n\n    modifier notSuspended()\n    {\n        require(!suspended, INVALID_STATE);\n        _;\n    }\n\n    modifier isSuspended()\n    {\n        require(suspended, INVALID_STATE);\n        _;\n    }\n\n    function suspend()\n        external\n        onlyOwner\n        notSuspended\n    {\n        suspended = true;\n    }\n\n    function resume()\n        external\n        onlyOwner\n        isSuspended\n    {\n        suspended = false;\n    }\n\n    /// owner must suspend the delegate first before invoking the kill method.\n    function kill()\n        external\n        onlyOwner\n        isSuspended\n    {\n        owner = address(0x0);\n        emit OwnershipTransferred(owner, address(0x0));\n    }\n}\n",
  "sourcePath": "/usr/local/klzhong/workspace/loopring/protocol2/contracts/lib/Killable.sol",
  "compiler": {
    "name": "solc",
    "version": "0.5.2+commit.1df8f40c.Emscripten.clang"
  },
  "schemaVersion": "3.0.0",
  "updatedAt": "2019-03-19T09:16:27.511Z",
  "devdoc": {
    "details": "The Killable contract allows the contract owner to suspend, resume or kill the contract",
    "methods": {
      "claimOwnership()": {
        "details": "Allows the pendingOwner address to finalize the transfer."
      },
      "transferOwnership(address)": {
        "details": "Allows the current owner to set the pendingOwner address.",
        "params": {
          "newOwner": "The address to transfer ownership to."
        }
      }
    },
    "title": "Killable"
  },
  "userdoc": {
    "methods": {
      "kill()": {
        "notice": "owner must suspend the delegate first before invoking the kill method."
      }
    }
  }
}