{
  "contractName": "MultihashUtil",
  "abi": [
    {
      "constant": true,
      "inputs": [],
      "name": "SIG_PREFIX",
      "outputs": [
        {
          "name": "",
          "type": "string"
        }
      ],
      "payable": false,
      "stateMutability": "view",
      "type": "function"
    }
  ],
  "bytecode": "0x610136610030600b82828239805160001a6073146000811461002057610022565bfe5b5030600052607381538281f3fe7300000000000000000000000000000000000000003014608060405260043610610051577c010000000000000000000000000000000000000000000000000000000060003504636612aaf68114610056575b600080fd5b61005e6100d3565b6040805160208082528351818301528351919283929083019185019080838360005b83811015610098578181015183820152602001610080565b50505050905090810190601f1680156100c55780820380516001836020036101000a031916815260200191505b509250505060405180910390f35b60408051808201909152601c81527f19457468657265756d205369676e6564204d6573736167653a0a33320000000060208201528156fea165627a7a72305820683216775a700ab1576dd7e0a89e892b9ccaaa506fd415ed2d6e13cf54c51c010029",
  "source": "/*\n\n  Copyright 2017 Loopring Project Ltd (Loopring Foundation).\n\n  Licensed under the Apache License, Version 2.0 (the \"License\");\n  you may not use this file except in compliance with the License.\n  You may obtain a copy of the License at\n\n  http://www.apache.org/licenses/LICENSE-2.0\n\n  Unless required by applicable law or agreed to in writing, software\n  distributed under the License is distributed on an \"AS IS\" BASIS,\n  WITHOUT WARRANTIES OR CONDITIONS OF ANY KIND, either express or implied.\n  See the License for the specific language governing permissions and\n  limitations under the License.\n*/\npragma solidity 0.5.2;\n\nimport \"./BytesUtil.sol\";\n\n\n/// @title Utility Functions for Multihash signature verificaiton\n/// @author Daniel Wang - <daniel@loopring.org>\n/// For more information:\n///   - https://github.com/saurfang/ipfs-multihash-on-solidity\n///   - https://github.com/multiformats/multihash\n///   - https://github.com/multiformats/js-multihash\nlibrary MultihashUtil {\n\n    enum HashAlgorithm { Ethereum, EIP712 }\n\n    string public constant SIG_PREFIX = \"\\x19Ethereum Signed Message:\\n32\";\n\n    function verifySignature(\n        address signer,\n        bytes32 plaintext,\n        bytes memory multihash\n        )\n        internal\n        pure\n        returns (bool)\n    {\n        uint length = multihash.length;\n        require(length >= 2, \"invalid multihash format\");\n        uint8 algorithm;\n        uint8 size;\n        assembly {\n            algorithm := mload(add(multihash, 1))\n            size := mload(add(multihash, 2))\n        }\n        require(length == (2 + size), \"bad multihash size\");\n\n        if (algorithm == uint8(HashAlgorithm.Ethereum)) {\n            require(signer != address(0x0), \"invalid signer address\");\n            require(size == 65, \"bad Ethereum multihash size\");\n            bytes32 hash;\n            uint8 v;\n            bytes32 r;\n            bytes32 s;\n            assembly {\n                let data := mload(0x40)\n                mstore(data, 0x19457468657265756d205369676e6564204d6573736167653a0a333200000000) // SIG_PREFIX\n                mstore(add(data, 28), plaintext)                                                 // plaintext\n                hash := keccak256(data, 60)                                                      // 28 + 32\n                // Extract v, r and s from the multihash data\n                v := mload(add(multihash, 3))\n                r := mload(add(multihash, 35))\n                s := mload(add(multihash, 67))\n            }\n            return signer == ecrecover(\n                hash,\n                v,\n                r,\n                s\n            );\n        } else if (algorithm == uint8(HashAlgorithm.EIP712)) {\n            require(signer != address(0x0), \"invalid signer address\");\n            require(size == 65, \"bad EIP712 multihash size\");\n            uint8 v;\n            bytes32 r;\n            bytes32 s;\n            assembly {\n                // Extract v, r and s from the multihash data\n                v := mload(add(multihash, 3))\n                r := mload(add(multihash, 35))\n                s := mload(add(multihash, 67))\n            }\n            return signer == ecrecover(\n                plaintext,\n                v,\n                r,\n                s\n            );\n        } else {\n            return false;\n        }\n    }\n}\n\n",
  "sourcePath": "/usr/local/klzhong/workspace/loopring/protocol2/contracts/lib/MultihashUtil.sol",
  "compiler": {
    "name": "solc",
    "version": "0.5.2+commit.1df8f40c.Emscripten.clang"
  },
  "schemaVersion": "3.0.0",
  "updatedAt": "2019-03-19T09:16:27.511Z",
  "devdoc": {
    "author": "Daniel Wang - <daniel@loopring.org> For more information:   - https://github.com/saurfang/ipfs-multihash-on-solidity   - https://github.com/multiformats/multihash   - https://github.com/multiformats/js-multihash",
    "methods": {},
    "title": "Utility Functions for Multihash signature verificaiton"
  },
  "userdoc": {
    "methods": {}
  }
}