{
  "contractName": "MultihashUtilProxy",
  "abi": [
    {
      "inputs": [],
      "payable": false,
      "stateMutability": "nonpayable",
      "type": "constructor"
    },
    {
      "constant": true,
      "inputs": [
        {
          "name": "signer",
          "type": "address"
        },
        {
          "name": "plaintext",
          "type": "bytes32"
        },
        {
          "name": "multihash",
          "type": "bytes"
        }
      ],
      "name": "verifySignature",
      "outputs": [
        {
          "name": "",
          "type": "bool"
        }
      ],
      "payable": false,
      "stateMutability": "pure",
      "type": "function"
    }
  ],
  "bytecode": "0x608060405234801561001057600080fd5b50610637806100206000396000f3fe608060405234801561001057600080fd5b5060043610610047577c0100000000000000000000000000000000000000000000000000000000600035046301751998811461004c575b600080fd5b6101146004803603606081101561006257600080fd5b73ffffffffffffffffffffffffffffffffffffffff8235169160208101359181019060608101604082013564010000000081111561009f57600080fd5b8201836020820111156100b157600080fd5b803590602001918460018302840111640100000000831117156100d357600080fd5b91908080601f016020809104026020016040519081016040528093929190818152602001838380828437600092019190915250929550610128945050505050565b604080519115158252519081900360200190f35b600061013584848461013f565b90505b9392505050565b805160009060028110156101b457604080517f08c379a000000000000000000000000000000000000000000000000000000000815260206004820152601860248201527f696e76616c6964206d756c74696861736820666f726d61740000000000000000604482015290519081900360640190fd5b600183015160028085015190810160ff16831461023257604080517f08c379a000000000000000000000000000000000000000000000000000000000815260206004820152601260248201527f626164206d756c7469686173682073697a650000000000000000000000000000604482015290519081900360640190fd5b60ff821615156104345773ffffffffffffffffffffffffffffffffffffffff871615156102c057604080517f08c379a000000000000000000000000000000000000000000000000000000000815260206004820152601660248201527f696e76616c6964207369676e6572206164647265737300000000000000000000604482015290519081900360640190fd5b604160ff82161461033257604080517f08c379a000000000000000000000000000000000000000000000000000000000815260206004820152601b60248201527f62616420457468657265756d206d756c7469686173682073697a650000000000604482015290519081900360640190fd5b604080517f19457468657265756d205369676e6564204d6573736167653a0a3332000000008152601c8101889052603c9020600387015160238801516043890151845160008152602081810180885286905260ff85168288015260608201849052608082018390529551949593949293919260019260a08084019391927fffffffffffffffffffffffffffffffffffffffffffffffffffffffffffffffe081019281900390910190855afa1580156103ee573d6000803e3d6000fd5b5050506020604051035173ffffffffffffffffffffffffffffffffffffffff168b73ffffffffffffffffffffffffffffffffffffffff1614975050505050505050610138565b60ff8216600114156105ff5773ffffffffffffffffffffffffffffffffffffffff871615156104c457604080517f08c379a000000000000000000000000000000000000000000000000000000000815260206004820152601660248201527f696e76616c6964207369676e6572206164647265737300000000000000000000604482015290519081900360640190fd5b604160ff82161461053657604080517f08c379a000000000000000000000000000000000000000000000000000000000815260206004820152601960248201527f62616420454950373132206d756c7469686173682073697a6500000000000000604482015290519081900360640190fd5b600385015160238601516043870151604080516000815260208082018084528c905260ff8616828401526060820185905260808201849052915160019260a08084019391927fffffffffffffffffffffffffffffffffffffffffffffffffffffffffffffffe081019281900390910190855afa1580156105ba573d6000803e3d6000fd5b5050506020604051035173ffffffffffffffffffffffffffffffffffffffff168a73ffffffffffffffffffffffffffffffffffffffff16149650505050505050610138565b6000935050505061013856fea165627a7a72305820f9d9d4f9e76ba2835511bda49a17191bb6868bdc95f3408aa5f0d166669130140029",
  "source": "/*\n\n  Copyright 2017 Loopring Project Ltd (Loopring Foundation).\n\n  Licensed under the Apache License, Version 2.0 (the \"License\");\n  you may not use this file except in compliance with the License.\n  You may obtain a copy of the License at\n\n  http://www.apache.org/licenses/LICENSE-2.0\n\n  Unless required by applicable law or agreed to in writing, software\n  distributed under the License is distributed on an \"AS IS\" BASIS,\n  WITHOUT WARRANTIES OR CONDITIONS OF ANY KIND, either express or implied.\n  See the License for the specific language governing permissions and\n  limitations under the License.\n*/\npragma solidity 0.5.2;\n\nimport \"../lib/MultihashUtil.sol\";\n\n\n/// @author Brecht Devos - <brecht@loopring.org>\ncontract MultihashUtilProxy {\n\n    constructor()\n        public\n    {\n    }\n\n    function verifySignature(\n        address signer,\n        bytes32 plaintext,\n        bytes memory multihash\n        )\n        public\n        pure\n        returns (bool)\n    {\n        return MultihashUtil.verifySignature(\n            signer,\n            plaintext,\n            multihash\n        );\n    }\n}\n",
  "sourcePath": "/usr/local/klzhong/workspace/loopring/protocol2/contracts/test/MultihashUtilProxy.sol",
  "compiler": {
    "name": "solc",
    "version": "0.5.2+commit.1df8f40c.Emscripten.clang"
  },
  "schemaVersion": "3.0.0",
  "updatedAt": "2019-03-19T09:16:27.548Z",
  "devdoc": {
    "author": "Brecht Devos - <brecht@loopring.org>",
    "methods": {}
  },
  "userdoc": {
    "methods": {}
  }
}