{
  "contractName": "OrderCanceller",
  "abi": [
    {
      "constant": true,
      "inputs": [],
      "name": "tradeHistoryAddress",
      "outputs": [
        {
          "name": "",
          "type": "address"
        }
      ],
      "payable": false,
      "stateMutability": "view",
      "type": "function"
    },
    {
      "inputs": [
        {
          "name": "_tradeHistoryAddress",
          "type": "address"
        }
      ],
      "payable": false,
      "stateMutability": "nonpayable",
      "type": "constructor"
    },
    {
      "payable": true,
      "stateMutability": "payable",
      "type": "fallback"
    },
    {
      "anonymous": false,
      "inputs": [
        {
          "indexed": true,
          "name": "_broker",
          "type": "address"
        },
        {
          "indexed": false,
          "name": "_orderHashes",
          "type": "bytes32[]"
        }
      ],
      "name": "OrdersCancelled",
      "type": "event"
    },
    {
      "anonymous": false,
      "inputs": [
        {
          "indexed": true,
          "name": "_broker",
          "type": "address"
        },
        {
          "indexed": false,
          "name": "_token1",
          "type": "address"
        },
        {
          "indexed": false,
          "name": "_token2",
          "type": "address"
        },
        {
          "indexed": false,
          "name": "_cutoff",
          "type": "uint256"
        }
      ],
      "name": "AllOrdersCancelledForTradingPair",
      "type": "event"
    },
    {
      "anonymous": false,
      "inputs": [
        {
          "indexed": true,
          "name": "_broker",
          "type": "address"
        },
        {
          "indexed": false,
          "name": "_cutoff",
          "type": "uint256"
        }
      ],
      "name": "AllOrdersCancelled",
      "type": "event"
    },
    {
      "anonymous": false,
      "inputs": [
        {
          "indexed": true,
          "name": "_broker",
          "type": "address"
        },
        {
          "indexed": true,
          "name": "_owner",
          "type": "address"
        },
        {
          "indexed": false,
          "name": "_token1",
          "type": "address"
        },
        {
          "indexed": false,
          "name": "_token2",
          "type": "address"
        },
        {
          "indexed": false,
          "name": "_cutoff",
          "type": "uint256"
        }
      ],
      "name": "AllOrdersCancelledForTradingPairByBroker",
      "type": "event"
    },
    {
      "anonymous": false,
      "inputs": [
        {
          "indexed": true,
          "name": "_broker",
          "type": "address"
        },
        {
          "indexed": true,
          "name": "_owner",
          "type": "address"
        },
        {
          "indexed": false,
          "name": "_cutoff",
          "type": "uint256"
        }
      ],
      "name": "AllOrdersCancelledByBroker",
      "type": "event"
    },
    {
      "constant": false,
      "inputs": [
        {
          "name": "orderHashes",
          "type": "bytes"
        }
      ],
      "name": "cancelOrders",
      "outputs": [],
      "payable": false,
      "stateMutability": "nonpayable",
      "type": "function"
    },
    {
      "constant": false,
      "inputs": [
        {
          "name": "token1",
          "type": "address"
        },
        {
          "name": "token2",
          "type": "address"
        },
        {
          "name": "cutoff",
          "type": "uint256"
        }
      ],
      "name": "cancelAllOrdersForTradingPair",
      "outputs": [],
      "payable": false,
      "stateMutability": "nonpayable",
      "type": "function"
    },
    {
      "constant": false,
      "inputs": [
        {
          "name": "cutoff",
          "type": "uint256"
        }
      ],
      "name": "cancelAllOrders",
      "outputs": [],
      "payable": false,
      "stateMutability": "nonpayable",
      "type": "function"
    },
    {
      "constant": false,
      "inputs": [
        {
          "name": "owner",
          "type": "address"
        },
        {
          "name": "token1",
          "type": "address"
        },
        {
          "name": "token2",
          "type": "address"
        },
        {
          "name": "cutoff",
          "type": "uint256"
        }
      ],
      "name": "cancelAllOrdersForTradingPairOfOwner",
      "outputs": [],
      "payable": false,
      "stateMutability": "nonpayable",
      "type": "function"
    },
    {
      "constant": false,
      "inputs": [
        {
          "name": "owner",
          "type": "address"
        },
        {
          "name": "cutoff",
          "type": "uint256"
        }
      ],
      "name": "cancelAllOrdersOfOwner",
      "outputs": [],
      "payable": false,
      "stateMutability": "nonpayable",
      "type": "function"
    }
  ],
  "bytecode": "0x608060405260008054600160a060020a031916905534801561002057600080fd5b50604051602080610c8a8339810180604052602081101561004057600080fd5b505160408051808201909152600c81527f5a45524f5f4144445245535300000000000000000000000000000000000000006020820152600160a060020a0382161515610124576040517f08c379a00000000000000000000000000000000000000000000000000000000081526004018080602001828103825283818151815260200191508051906020019080838360005b838110156100e95781810151838201526020016100d1565b50505050905090810190601f1680156101165780820380516001836020036101000a031916815260200191505b509250505060405180910390fd5b5060008054600160a060020a03909216600160a060020a0319909216919091179055610b35806101556000396000f3fe608060405260043610610082576000357c010000000000000000000000000000000000000000000000000000000090048063a383de3a11610060578063a383de3a1461022e578063bd545f53146102ab578063eac5c190146102d557610082565b806312f510f21461015257806322baa82614610190578063543b5fa4146101e8575b604080518082018252600b81527f554e535550504f52544544000000000000000000000000000000000000000000602080830191825292517f08c379a00000000000000000000000000000000000000000000000000000000081526004810193845282516024820152825192939283926044909201919080838360005b838110156101175781810151838201526020016100ff565b50505050905090810190601f1680156101445780820380516001836020036101000a031916815260200191505b509250505060405180910390fd5b34801561015e57600080fd5b50610167610325565b6040805173ffffffffffffffffffffffffffffffffffffffff9092168252519081900360200190f35b34801561019c57600080fd5b506101e6600480360360808110156101b357600080fd5b5073ffffffffffffffffffffffffffffffffffffffff813581169160208101358216916040820135169060600135610341565b005b3480156101f457600080fd5b506101e66004803603604081101561020b57600080fd5b5073ffffffffffffffffffffffffffffffffffffffff8135169060200135610490565b34801561023a57600080fd5b506101e66004803603602081101561025157600080fd5b81019060208101813564010000000081111561026c57600080fd5b82018360208201111561027e57600080fd5b803590602001918460018302840111640100000000831117156102a057600080fd5b50909250905061058b565b3480156102b757600080fd5b506101e6600480360360208110156102ce57600080fd5b5035610859565b3480156102e157600080fd5b506101e6600480360360608110156102f857600080fd5b5073ffffffffffffffffffffffffffffffffffffffff813581169160208101359091169060400135610935565b60005473ffffffffffffffffffffffffffffffffffffffff1681565b6000811561034f5781610351565b425b60008054604080517ff732282b00000000000000000000000000000000000000000000000000000000815233600482015273ffffffffffffffffffffffffffffffffffffffff8a811660248301526c01000000000000000000000000898102908b02187fffffffffffffffffffffffffffffffffffffffff000000000000000000000000811660448401526064830187905292519596509194919092169263f732282b926084808201939182900301818387803b15801561041157600080fd5b505af1158015610425573d6000803e3d6000fd5b50506040805173ffffffffffffffffffffffffffffffffffffffff898116825288811660208301528183018790529151918a1693503392507f97bda78b7834715d21505da9c8801f7528412b8b3a6d49e6acad56a0ca9c5086919081900360600190a3505050505050565b6000811561049e57816104a0565b425b60008054604080517f9bdbf65200000000000000000000000000000000000000000000000000000000815233600482015273ffffffffffffffffffffffffffffffffffffffff8881166024830152604482018690529151949550911692639bdbf6529260648084019391929182900301818387803b15801561052157600080fd5b505af1158015610535573d6000803e3d6000fd5b505060408051848152905173ffffffffffffffffffffffffffffffffffffffff871693503392507f6c1800f274202aaab5d7cdb6ef958ce1c3a6ffe82696c4a872f11547485e36c49181900360200190a3505050565b8060008111801561059d575060208106155b60408051808201909152600c81527f494e56414c49445f53495a450000000000000000000000000000000000000000602082015290151561063a576040517f08c379a0000000000000000000000000000000000000000000000000000000008152600401808060200182810382528381815181526020019150805190602001908083836000838110156101175781810151838201526020016100ff565b5060208104905060608160405190808252806020026020018201604052801561066d578160200160208202803883390190505b506000805491925073ffffffffffffffffffffffffffffffffffffffff909116905b838110156107dd576106e38160200287878080601f016020809104026020016040519081016040528093929190818152602001838380828437600092019190915250929392505063ffffffff610a74169050565b83828151811015156106f157fe5b90602001906020020181815250508173ffffffffffffffffffffffffffffffffffffffff1663cfd854c233858481518110151561072a57fe5b906020019060200201516040518363ffffffff167c0100000000000000000000000000000000000000000000000000000000028152600401808373ffffffffffffffffffffffffffffffffffffffff1673ffffffffffffffffffffffffffffffffffffffff16815260200182815260200192505050600060405180830381600087803b1580156107b957600080fd5b505af11580156107cd573d6000803e3d6000fd5b50506001909201915061068f9050565b50604080516020808252845181830152845133937fa4f958623cd4c90b4a1213ca9f26b442398e4efad078048b6730c826fa4e5da193879390928392830191808601910280838360005b8381101561083f578181015183820152602001610827565b505050509050019250505060405180910390a25050505050565b600081156108675781610869565b425b60008054604080517f05e4556000000000000000000000000000000000000000000000000000000000815233600482015260248101859052905193945073ffffffffffffffffffffffffffffffffffffffff909116926305e455609260448084019391929182900301818387803b1580156108e357600080fd5b505af11580156108f7573d6000803e3d6000fd5b50506040805184815290513393507f83a782ac7424737a1190d4668474e765f07d603de0485a081dbc343ac1b0209992509081900360200190a25050565b600081156109435781610945565b425b60008054604080517fcb23e8990000000000000000000000000000000000000000000000000000000081523360048201526c01000000000000000000000000888102908a02187fffffffffffffffffffffffffffffffffffffffff00000000000000000000000081166024830152604482018690529151949550909373ffffffffffffffffffffffffffffffffffffffff9092169263cb23e8999260648084019382900301818387803b1580156109fb57600080fd5b505af1158015610a0f573d6000803e3d6000fd5b50506040805173ffffffffffffffffffffffffffffffffffffffff89811682528816602082015280820186905290513393507f03010b5cc0bf0153a225153a75169278a98eb21343f06fbff672a758a85b64a692509081900360600190a25050505050565b6000610a8283836020610a89565b9392505050565b6000818301845110151515610aff57604080517f08c379a000000000000000000000000000000000000000000000000000000000815260206004820152600c60248201527f494e56414c49445f53495a450000000000000000000000000000000000000000604482015290519081900360640190fd5b509190910101519056fea165627a7a723058202e03af8f08f8d078bc0e827473ba1c2df8cd400c511f6582e4ee2dccbf60bcd20029",
  "source": "/*\n\n  Copyright 2017 Loopring Project Ltd (Loopring Foundation).\n\n  Licensed under the Apache License, Version 2.0 (the \"License\");\n  you may not use this file except in compliance with the License.\n  You may obtain a copy of the License at\n\n  http://www.apache.org/licenses/LICENSE-2.0\n\n  Unless required by applicable law or agreed to in writing, software\n  distributed under the License is distributed on an \"AS IS\" BASIS,\n  WITHOUT WARRANTIES OR CONDITIONS OF ANY KIND, either express or implied.\n  See the License for the specific language governing permissions and\n  limitations under the License.\n*/\npragma solidity 0.5.2;\n\nimport \"../iface/IOrderCanceller.sol\";\nimport \"../iface/ITradeHistory.sol\";\n\nimport \"../lib/BytesUtil.sol\";\nimport \"../lib/NoDefaultFunc.sol\";\n\n\n/// @title An Implementation of IExchange.\n/// @author Daniel Wang - <daniel@loopring.org>,\n/// @author Kongliang Zhong - <kongliang@loopring.org>\n/// @author Brechtpd - <brecht@loopring.org>\n/// Recognized contributing developers from the community:\n///     https://github.com/rainydio\n///     https://github.com/BenjaminPrice\n///     https://github.com/jonasshen\n///     https://github.com/Hephyrius\ncontract OrderCanceller is IOrderCanceller, NoDefaultFunc {\n    using BytesUtil       for bytes;\n\n    address public tradeHistoryAddress = address(0x0);\n\n    constructor(\n        address _tradeHistoryAddress\n        )\n        public\n    {\n        require(_tradeHistoryAddress != address(0x0), ZERO_ADDRESS);\n\n        tradeHistoryAddress = _tradeHistoryAddress;\n    }\n\n    function cancelOrders(\n        bytes calldata orderHashes\n        )\n        external\n    {\n        uint size = orderHashes.length;\n        require(size > 0 && size % 32 == 0, INVALID_SIZE);\n\n        size /= 32;\n        bytes32[] memory hashes = new bytes32[](size);\n\n        ITradeHistory tradeHistory = ITradeHistory(tradeHistoryAddress);\n\n        for (uint i = 0; i < size; i++) {\n            hashes[i] = orderHashes.bytesToBytes32(i * 32);\n            tradeHistory.setCancelled(msg.sender, hashes[i]);\n        }\n\n        emit OrdersCancelled(\n            msg.sender,\n            hashes\n        );\n    }\n\n    function cancelAllOrdersForTradingPair(\n        address token1,\n        address token2,\n        uint    cutoff\n        )\n        external\n    {\n        uint t = (cutoff == 0) ? block.timestamp : cutoff;\n\n        bytes20 tokenPair = bytes20(token1) ^ bytes20(token2);\n\n        ITradeHistory(tradeHistoryAddress).setTradingPairCutoffs(\n            msg.sender,\n            tokenPair,\n            t\n        );\n\n        emit AllOrdersCancelledForTradingPair(\n            msg.sender,\n            token1,\n            token2,\n            t\n        );\n    }\n\n    function cancelAllOrders(\n        uint   cutoff\n        )\n        external\n    {\n        uint t = (cutoff == 0) ? block.timestamp : cutoff;\n\n        ITradeHistory(tradeHistoryAddress).setCutoffs(msg.sender, t);\n\n        emit AllOrdersCancelled(\n            msg.sender,\n            t\n        );\n    }\n\n    function cancelAllOrdersForTradingPairOfOwner(\n        address owner,\n        address token1,\n        address token2,\n        uint    cutoff\n        )\n        external\n    {\n        uint t = (cutoff == 0) ? block.timestamp : cutoff;\n\n        bytes20 tokenPair = bytes20(token1) ^ bytes20(token2);\n\n        ITradeHistory(tradeHistoryAddress).setTradingPairCutoffsOfOwner(\n            msg.sender,\n            owner,\n            tokenPair,\n            t\n        );\n\n        emit AllOrdersCancelledForTradingPairByBroker(\n            msg.sender,\n            owner,\n            token1,\n            token2,\n            t\n        );\n    }\n\n    function cancelAllOrdersOfOwner(\n        address owner,\n        uint    cutoff\n        )\n        external\n    {\n        uint t = (cutoff == 0) ? block.timestamp : cutoff;\n\n        ITradeHistory(tradeHistoryAddress).setCutoffsOfOwner(\n            msg.sender,\n            owner,\n            t\n        );\n\n        emit AllOrdersCancelledByBroker(\n            msg.sender,\n            owner,\n            t\n        );\n    }\n\n}\n",
  "sourcePath": "/usr/local/klzhong/workspace/loopring/protocol2/contracts/impl/OrderCanceller.sol",
  "compiler": {
    "name": "solc",
    "version": "0.5.2+commit.1df8f40c.Emscripten.clang"
  },
  "schemaVersion": "3.0.0",
  "updatedAt": "2019-03-19T09:16:27.486Z",
  "devdoc": {
    "author": "Daniel Wang - <daniel@loopring.org>,Kongliang Zhong - <kongliang@loopring.org>Brechtpd - <brecht@loopring.org> Recognized contributing developers from the community:     https://github.com/rainydio     https://github.com/BenjaminPrice     https://github.com/jonasshen     https://github.com/Hephyrius",
    "methods": {},
    "title": "An Implementation of IExchange."
  },
  "userdoc": {
    "methods": {}
  }
}