{
  "contractName": "OrderBook",
  "abi": [
    {
      "constant": true,
      "inputs": [
        {
          "name": "",
          "type": "bytes32"
        }
      ],
      "name": "orderSubmitted",
      "outputs": [
        {
          "name": "",
          "type": "bool"
        }
      ],
      "payable": false,
      "stateMutability": "view",
      "type": "function"
    },
    {
      "payable": true,
      "stateMutability": "payable",
      "type": "fallback"
    },
    {
      "anonymous": false,
      "inputs": [
        {
          "indexed": false,
          "name": "orderHash",
          "type": "bytes32"
        },
        {
          "indexed": false,
          "name": "orderData",
          "type": "bytes"
        }
      ],
      "name": "OrderSubmitted",
      "type": "event"
    },
    {
      "constant": false,
      "inputs": [
        {
          "name": "data",
          "type": "bytes"
        }
      ],
      "name": "submitOrder",
      "outputs": [
        {
          "name": "",
          "type": "bytes32"
        }
      ],
      "payable": false,
      "stateMutability": "nonpayable",
      "type": "function"
    }
  ],
  "bytecode": "0x608060405234801561001057600080fd5b506113df806100206000396000f3fe608060405260043610610045577c010000000000000000000000000000000000000000000000000000000060003504634778a5be81146101155780635f18532914610153575b604080518082018252600b81527f554e535550504f52544544000000000000000000000000000000000000000000602080830191825292517f08c379a00000000000000000000000000000000000000000000000000000000081526004810193845282516024820152825192939283926044909201919080838360005b838110156100da5781810151838201526020016100c2565b50505050905090810190601f1680156101075780820380516001836020036101000a031916815260200191505b509250505060405180910390fd5b34801561012157600080fd5b5061013f6004803603602081101561013857600080fd5b50356101e2565b604080519115158252519081900360200190f35b34801561015f57600080fd5b506101d06004803603602081101561017657600080fd5b81019060208101813564010000000081111561019157600080fd5b8201836020820111156101a357600080fd5b803590602001918460018302840111640100000000831117156101c557600080fd5b5090925090506101f7565b60408051918252519081900360200190f35b60006020819052908152604090205460ff1681565b60408051808201909152600c81527f494e56414c49445f53495a45000000000000000000000000000000000000000060208201526000906102e083101561029a576040517f08c379a0000000000000000000000000000000000000000000000000000000008152600401808060200182810382528381815181526020019150805190602001908083836000838110156100da5781810151838201526020016100c2565b506102a3611210565b6104c06040519081016040528060008152602001610301600087878080601f016020809104026020016040519081016040528093929190818152602001838380828437600092019190915250929392505063ffffffff610f4f169050565b73ffffffffffffffffffffffffffffffffffffffff168152602001610366602087878080601f016020809104026020016040519081016040528093929190818152602001838380828437600092019190915250929392505063ffffffff610f4f169050565b73ffffffffffffffffffffffffffffffffffffffff1681526020016103cb604087878080601f016020809104026020016040519081016040528093929190818152602001838380828437600092019190915250929392505063ffffffff610f4f169050565b73ffffffffffffffffffffffffffffffffffffffff168152602001610430606087878080601f016020809104026020016040519081016040528093929190818152602001838380828437600092019190915250929392505063ffffffff610f4f169050565b815260200161047f608087878080601f016020809104026020016040519081016040528093929190818152602001838380828437600092019190915250929392505063ffffffff610f4f169050565b81526020016104ce60a087878080601f016020809104026020016040519081016040528093929190818152602001838380828437600092019190915250929392505063ffffffff610f4f169050565b815260200160606040519081016040528060011515815260200160008152602001600081525081526020016060604051908101604052806001151581526020016000815260200160008152508152602001600073ffffffffffffffffffffffffffffffffffffffff16815260200161058660c087878080601f016020809104026020016040519081016040528093929190818152602001838380828437600092019190915250929392505063ffffffff610f4f169050565b73ffffffffffffffffffffffffffffffffffffffff1681526020016060604051908101604052806001151581526020016000815260200160008152508152602001606060405190810160405280600115158152602001600081526020016000815250815260200161063760e087878080601f016020809104026020016040519081016040528093929190818152602001838380828437600092019190915250929392505063ffffffff610f4f169050565b73ffffffffffffffffffffffffffffffffffffffff16815260200161069d61010087878080601f016020809104026020016040519081016040528093929190818152602001838380828437600092019190915250929392505063ffffffff610f4f169050565b73ffffffffffffffffffffffffffffffffffffffff16815260200161070361012087878080601f016020809104026020016040519081016040528093929190818152602001838380828437600092019190915250929392505063ffffffff610f4f169050565b8152604080516000808252602080830184528085019290925282518181528083018452838501528251601f8901839004830281018301909352878352606090930192916107789161014091908a908a9081908401838280828437600092019190915250929392505063ffffffff610f4f169050565b11151581526020016107cb61016087878080601f016020809104026020016040519081016040528093929190818152602001838380828437600092019190915250929392505063ffffffff610f4f169050565b73ffffffffffffffffffffffffffffffffffffffff16815260200161083161018087878080601f016020809104026020016040519081016040528093929190818152602001838380828437600092019190915250929392505063ffffffff610f4f169050565b8152602001600060010b815260200161088b6101a087878080601f016020809104026020016040519081016040528093929190818152602001838380828437600092019190915250929392505063ffffffff610f4f169050565b61ffff1681526020016108df6101c087878080601f016020809104026020016040519081016040528093929190818152602001838380828437600092019190915250929392505063ffffffff610f4f169050565b61ffff1681526020016109336101e087878080601f016020809104026020016040519081016040528093929190818152602001838380828437600092019190915250929392505063ffffffff610f4f169050565b73ffffffffffffffffffffffffffffffffffffffff16815260200161099961020087878080601f016020809104026020016040519081016040528093929190818152602001838380828437600092019190915250929392505063ffffffff610f4f169050565b61ffff16815260200160001515815260200160006001028152602001600073ffffffffffffffffffffffffffffffffffffffff1681526020016000815260200160008152602001600115158152602001610a3461022087878080601f016020809104026020016040519081016040528093929190818152602001838380828437600092019190915250929392505063ffffffff610f4f169050565b6000811115610a3f57fe5b6000811115610a4a57fe5b8152602001610a9a61024087878080601f016020809104026020016040519081016040528093929190818152602001838380828437600092019190915250929392505063ffffffff610f4f169050565b6000811115610aa557fe5b6000811115610ab057fe5b8152602001610b0061026087878080601f016020809104026020016040519081016040528093929190818152602001838380828437600092019190915250929392505063ffffffff610f4f169050565b6000811115610b0b57fe5b6000811115610b1657fe5b8152602001610b6661028087878080601f016020809104026020016040519081016040528093929190818152602001838380828437600092019190915250929392505063ffffffff610f4f169050565b8152602001610bb66102a087878080601f016020809104026020016040519081016040528093929190818152602001838380828437600092019190915250929392505063ffffffff610f4f169050565b8152602001610c066102c087878080601f016020809104026020016040519081016040528093929190818152602001838380828437600092019190915250929392505063ffffffff610f64169050565b90526104a08101515160408051808201909152600c81527f494e56414c49445f53495a45000000000000000000000000000000000000000060208201529192506102e0018414610cb2576040517f08c379a0000000000000000000000000000000000000000000000000000000008152600401808060200182810382528381815181526020019150805190602001908083836000838110156100da5781810151838201526020016100c2565b50806020015173ffffffffffffffffffffffffffffffffffffffff163373ffffffffffffffffffffffffffffffffffffffff161480610d21575080610140015173ffffffffffffffffffffffffffffffffffffffff163373ffffffffffffffffffffffffffffffffffffffff16145b60408051808201909152601a81527f554e415554484f52495a45445f4f4e434841494e5f4f524445520000000000006020820152901515610dbe576040517f08c379a0000000000000000000000000000000000000000000000000000000008152600401808060200182810382528381815181526020019150805190602001908083836000838110156100da5781810151838201526020016100c2565b50610dc881610fe3565b61036081015160009081526020818152604091829020548251808401909352600d83527f414c52454144595f4558495354000000000000000000000000000000000000009183019190915260ff1615610e7d576040517f08c379a0000000000000000000000000000000000000000000000000000000008152600401808060200182810382528381815181526020019150805190602001908083836000838110156100da5781810151838201526020016100c2565b50610360810180516000908152602081815260409182902080547fffffffffffffffffffffffffffffffffffffffffffffffffffffffffffffff00166001179055915181518181529283018281529183018690527f59f858504f8d8ad967dd7453df850e265270474e364b7e2fbd3333e06efdbfc09290918791879160608201848480828437600083820152604051601f9091017fffffffffffffffffffffffffffffffffffffffffffffffffffffffffffffffe016909201829003965090945050505050a161036001519392505050565b6000610f5d83836020611190565b9392505050565b606081602001835110151515610fdb57604080517f08c379a000000000000000000000000000000000000000000000000000000000815260206004820152600c60248201527f494e56414c49445f53495a450000000000000000000000000000000000000000604482015290519081900360640190fd5b500160200190565b60007f40b942178d2a51f1f61934268590778feb8114db632db7d88537c98d2b05c5f2600102905060007faea25658c273c666156bd427f83a666135fcde6887a6c25fc1cd1562bc4f3f34600102905060006104a0840151805160208201206040518560008201526080870151602082015260a08701516040820152610280870151606082015260c087015160808201526101e087015160a0820152602087015160c0820152604087015160e082015260608701516101008201526101208701516101208201526101408701516101408201526101a08701516101608201526101c08701516101808201526103008701516101a08201526102608701516101c08201526103208701516101e08201526102c08701516102008201526102e08701516102208201526102408701516102408201526104008701516102608201526104208701516102808201526104408701516102a08201526104608701516102c08201526104808701516102e082015281610300820152610320812061190160008301528560208301528060408301526042601e830120945050505050808461036001818152505050505050565b600081830184511015151561120657604080517f08c379a000000000000000000000000000000000000000000000000000000000815260206004820152600c60248201527f494e56414c49445f53495a450000000000000000000000000000000000000000604482015290519081900360640190fd5b5091909101015190565b6105c06040519081016040528060008152602001600073ffffffffffffffffffffffffffffffffffffffff168152602001600073ffffffffffffffffffffffffffffffffffffffff168152602001600073ffffffffffffffffffffffffffffffffffffffff16815260200160008152602001600081526020016000815260200161129861138f565b81526020016112a561138f565b815260006020820181905260408201526060016112c061138f565b81526020016112cd61138f565b81526000602082018190526040820181905260608083018290526080830181905260a083015260c0820181905260e08201819052610100820181905261012082018190526101408201819052610160820181905261018082018190526101a082018190526101c082018190526101e0820181905261020082018190526102208201819052610240820181905261026082018190526102809091019081526020016000815260200160008152600060208201819052604082015260609081015290565b6060604051908101604052806000151581526020016000815260200160008152509056fea165627a7a7230582042b5906b333eaec0a38e964a0fa7e61b1cf9ec6d7c7065f5d857633e1db545540029",
  "source": "/*\n\n  Copyright 2017 Loopring Project Ltd (Loopring Foundation).\n\n  Licensed under the Apache License, Version 2.0 (the \"License\");\n  you may not use this file except in compliance with the License.\n  You may obtain a copy of the License at\n\n  http://www.apache.org/licenses/LICENSE-2.0\n\n  Unless required by applicable law or agreed to in writing, software\n  distributed under the License is distributed on an \"AS IS\" BASIS,\n  WITHOUT WARRANTIES OR CONDITIONS OF ANY KIND, either express or implied.\n  See the License for the specific language governing permissions and\n  limitations under the License.\n*/\npragma solidity 0.5.2;\n\nimport \"../helper/OrderHelper.sol\";\nimport \"../iface/IOrderBook.sol\";\nimport \"../impl/Data.sol\";\nimport \"../lib/BytesUtil.sol\";\nimport \"../lib/NoDefaultFunc.sol\";\n\n\n/// @title An Implementation of IOrderbook.\n/// @author Daniel Wang - <daniel@loopring.org>.\n/// @author Kongliang Zhong - <kongliang@loopring.org>.\ncontract OrderBook is IOrderBook, NoDefaultFunc {\n    using OrderHelper     for Data.Order;\n    using BytesUtil       for bytes;\n\n    function submitOrder(\n        bytes calldata data\n        )\n        external\n        returns (bytes32)\n    {\n        require(data.length >= 23 * 32, INVALID_SIZE);\n\n        Data.Order memory order = Data.Order(\n            0,                                                      // version\n            address(data.bytesToUint(0 * 32)),                      // owner\n            address(data.bytesToUint(1 * 32)),                      // tokenS\n            address(data.bytesToUint(2 * 32)),                      // tokenB\n            data.bytesToUint(3 * 32),                               // amountS\n            data.bytesToUint(4 * 32),                               // amountB\n            data.bytesToUint(5 * 32),                               // validSince\n            Data.Spendable(true, 0, 0),\n            Data.Spendable(true, 0, 0),\n            address(0x0),\n            address(data.bytesToUint(6 * 32)),                      // broker\n            Data.Spendable(true, 0, 0),\n            Data.Spendable(true, 0, 0),\n            address(data.bytesToUint(7 * 32)),                      // orderInterceptor\n            address(data.bytesToUint(8 * 32)),                      // wallet\n            uint(data.bytesToUint(9 * 32)),                         // validUtil\n            new bytes(0),\n            new bytes(0),\n            bool(data.bytesToUint(10 * 32) > 0),                    // allOrNone\n            address(data.bytesToUint(11 * 32)),                     // feeToken\n            data.bytesToUint(12 * 32),                              // feeAmount\n            0,\n            uint16(data.bytesToUint(13 * 32)),                      // tokenSFeePercentage\n            uint16(data.bytesToUint(14 * 32)),                      // tokenBFeePercentage\n            address(data.bytesToUint(15 * 32)),                     // tokenRecipient\n            uint16(data.bytesToUint(16 * 32)),                      // walletSplitPercentage\n            false,\n            bytes32(0x0),\n            address(0x0),\n            0,\n            0,\n            true,\n            Data.TokenType(data.bytesToUint(17 * 32)),              // tokenTypeS\n            Data.TokenType(data.bytesToUint(18 * 32)),              // tokenTypeB\n            Data.TokenType(data.bytesToUint(19 * 32)),              // tokenTypeFee\n            data.bytesToBytes32(20 * 32),                           // trancheS\n            data.bytesToBytes32(21 * 32),                           // trancheB\n            data.subBytes(22 * 32)                                  // transferDataS\n        );\n        require(data.length == 23 * 32 + order.transferDataS.length, INVALID_SIZE);\n\n        /// msg.sender must be order's owner or broker.\n        /// no need to check order's broker is registered here. it will be checked during\n        /// ring settlement.\n        require(\n            msg.sender == order.owner || msg.sender == order.broker,\n            UNAUTHORIZED_ONCHAIN_ORDER\n        );\n\n        // Calculate the order hash\n        order.updateHash();\n\n        // Register the hash\n        require(!orderSubmitted[order.hash], ALREADY_EXIST);\n        orderSubmitted[order.hash] = true;\n\n        // Broadcast the order data\n        emit OrderSubmitted(order.hash, data);\n\n        return order.hash;\n    }\n\n}\n",
  "sourcePath": "/usr/local/klzhong/workspace/loopring/protocol2/contracts/impl/OrderBook.sol",
  "compiler": {
    "name": "solc",
    "version": "0.5.2+commit.1df8f40c.Emscripten.clang"
  },
  "schemaVersion": "3.0.0",
  "updatedAt": "2019-03-19T09:16:27.484Z",
  "devdoc": {
    "author": "Daniel Wang - <daniel@loopring.org>.Kongliang Zhong - <kongliang@loopring.org>.",
    "methods": {},
    "title": "An Implementation of IOrderbook."
  },
  "userdoc": {
    "methods": {}
  }
}