{
  "contractName": "PublicExchangeDeserializer",
  "abi": [
    {
      "constant": true,
      "inputs": [],
      "name": "LRC_TOKEN_ADDRESS",
      "outputs": [
        {
          "name": "",
          "type": "address"
        }
      ],
      "payable": false,
      "stateMutability": "view",
      "type": "function"
    }
  ],
  "bytecode": "0x60c761002f600b82828239805160001a6073146000811461001f57610021565bfe5b5030600052607381538281f3fe7300000000000000000000000000000000000000003014608060405260043610604f577c010000000000000000000000000000000000000000000000000000000060003504632530211281146054575b600080fd5b605a6083565b6040805173ffffffffffffffffffffffffffffffffffffffff9092168252519081900360200190f35b73ef68e7c694f40c8202821edf525de3782458639f8156fea165627a7a72305820b4918e4aa85929806dd52e27dcd178d0343b96f4bc232dcbde504b56f38ff59c0029",
  "source": "/*\n\n  Copyright 2017 Loopring Project Ltd (Loopring Foundation).\n\n  Licensed under the Apache License, Version 2.0 (the \"License\");\n  you may not use this file except in compliance with the License.\n  You may obtain a copy of the License at\n\n  http://www.apache.org/licenses/LICENSE-2.0\n\n  Unless required by applicable law or agreed to in writing, software\n  distributed under the License is distributed on an \"AS IS\" BASIS,\n  WITHOUT WARRANTIES OR CONDITIONS OF ANY KIND, either express or implied.\n  See the License for the specific language governing permissions and\n  limitations under the License.\n*/\npragma solidity 0.5.2;\n\nimport \"./ExchangeDeserializer.sol\";\n\n\n/// @title A public library for deserializing loopring submitRings params.\n/// @author Daniel Wang - <daniel@loopring.org>,\nlibrary PublicExchangeDeserializer {\n\n    address public constant LRC_TOKEN_ADDRESS = 0xEF68e7C694F40c8202821eDF525dE3782458639f;\n\n    function deserialize(\n        bytes memory data\n        )\n        internal\n        view\n        returns (\n            Data.Mining memory mining,\n            Data.Order[] memory orders,\n            Data.Ring[] memory rings\n        )\n    {\n        (\n            mining,\n            orders,\n            rings\n        ) = ExchangeDeserializer.deserialize(LRC_TOKEN_ADDRESS, data);\n    }\n}\n",
  "sourcePath": "/usr/local/klzhong/workspace/loopring/protocol2/contracts/impl/PublicExchangeDeserializer.sol",
  "compiler": {
    "name": "solc",
    "version": "0.5.2+commit.1df8f40c.Emscripten.clang"
  },
  "schemaVersion": "3.0.0",
  "updatedAt": "2019-03-19T09:16:27.496Z",
  "devdoc": {
    "author": "Daniel Wang - <daniel@loopring.org>,",
    "methods": {},
    "title": "A public library for deserializing loopring submitRings params."
  },
  "userdoc": {
    "methods": {}
  }
}