{
  "contractName": "RingSubmitter",
  "abi": [
    {
      "constant": true,
      "inputs": [],
      "name": "orderBrokerRegistryAddress",
      "outputs": [
        {
          "name": "",
          "type": "address"
        }
      ],
      "payable": false,
      "stateMutability": "view",
      "type": "function"
    },
    {
      "constant": true,
      "inputs": [],
      "name": "wethTokenAddress",
      "outputs": [
        {
          "name": "",
          "type": "address"
        }
      ],
      "payable": false,
      "stateMutability": "view",
      "type": "function"
    },
    {
      "constant": true,
      "inputs": [],
      "name": "tradeHistoryAddress",
      "outputs": [
        {
          "name": "",
          "type": "address"
        }
      ],
      "payable": false,
      "stateMutability": "view",
      "type": "function"
    },
    {
      "constant": true,
      "inputs": [],
      "name": "ringIndex",
      "outputs": [
        {
          "name": "",
          "type": "uint64"
        }
      ],
      "payable": false,
      "stateMutability": "view",
      "type": "function"
    },
    {
      "constant": true,
      "inputs": [],
      "name": "lrcTokenAddress",
      "outputs": [
        {
          "name": "",
          "type": "address"
        }
      ],
      "payable": false,
      "stateMutability": "view",
      "type": "function"
    },
    {
      "constant": true,
      "inputs": [],
      "name": "delegateAddress",
      "outputs": [
        {
          "name": "",
          "type": "address"
        }
      ],
      "payable": false,
      "stateMutability": "view",
      "type": "function"
    },
    {
      "constant": true,
      "inputs": [],
      "name": "orderBookAddress",
      "outputs": [
        {
          "name": "",
          "type": "address"
        }
      ],
      "payable": false,
      "stateMutability": "view",
      "type": "function"
    },
    {
      "constant": true,
      "inputs": [],
      "name": "orderRegistryAddress",
      "outputs": [
        {
          "name": "",
          "type": "address"
        }
      ],
      "payable": false,
      "stateMutability": "view",
      "type": "function"
    },
    {
      "constant": true,
      "inputs": [],
      "name": "MAX_RING_SIZE",
      "outputs": [
        {
          "name": "",
          "type": "uint256"
        }
      ],
      "payable": false,
      "stateMutability": "view",
      "type": "function"
    },
    {
      "constant": true,
      "inputs": [],
      "name": "FEE_PERCENTAGE_BASE",
      "outputs": [
        {
          "name": "",
          "type": "uint16"
        }
      ],
      "payable": false,
      "stateMutability": "view",
      "type": "function"
    },
    {
      "constant": true,
      "inputs": [],
      "name": "burnRateTableAddress",
      "outputs": [
        {
          "name": "",
          "type": "address"
        }
      ],
      "payable": false,
      "stateMutability": "view",
      "type": "function"
    },
    {
      "constant": true,
      "inputs": [],
      "name": "feeHolderAddress",
      "outputs": [
        {
          "name": "",
          "type": "address"
        }
      ],
      "payable": false,
      "stateMutability": "view",
      "type": "function"
    },
    {
      "inputs": [
        {
          "name": "_lrcTokenAddress",
          "type": "address"
        },
        {
          "name": "_wethTokenAddress",
          "type": "address"
        },
        {
          "name": "_delegateAddress",
          "type": "address"
        },
        {
          "name": "_tradeHistoryAddress",
          "type": "address"
        },
        {
          "name": "_orderBrokerRegistryAddress",
          "type": "address"
        },
        {
          "name": "_orderRegistryAddress",
          "type": "address"
        },
        {
          "name": "_feeHolderAddress",
          "type": "address"
        },
        {
          "name": "_orderBookAddress",
          "type": "address"
        },
        {
          "name": "_burnRateTableAddress",
          "type": "address"
        }
      ],
      "payable": false,
      "stateMutability": "nonpayable",
      "type": "constructor"
    },
    {
      "payable": true,
      "stateMutability": "payable",
      "type": "fallback"
    },
    {
      "anonymous": false,
      "inputs": [
        {
          "indexed": false,
          "name": "_ringIndex",
          "type": "uint256"
        },
        {
          "indexed": true,
          "name": "_ringHash",
          "type": "bytes32"
        },
        {
          "indexed": true,
          "name": "_feeRecipient",
          "type": "address"
        },
        {
          "indexed": false,
          "name": "_fills",
          "type": "bytes"
        }
      ],
      "name": "RingMined",
      "type": "event"
    },
    {
      "anonymous": false,
      "inputs": [
        {
          "indexed": false,
          "name": "_ringHash",
          "type": "bytes32"
        }
      ],
      "name": "InvalidRing",
      "type": "event"
    },
    {
      "constant": false,
      "inputs": [
        {
          "name": "data",
          "type": "bytes"
        }
      ],
      "name": "submitRings",
      "outputs": [],
      "payable": false,
      "stateMutability": "nonpayable",
      "type": "function"
    }
  ],
  "bytecode": "0x608060405260008054600160a060020a0319908116909155600180548216905560028054821690556003805482169055600480548216905560058054821690556006805482169055600780549091169055600880547fffffffff000000000000000000000000000000000000000000000000000000001690553480156200008557600080fd5b506040516101208062004e7f8339810180604052610120811015620000a957600080fd5b5080516020808301516040808501516060860151608087015160a088015160c089015160e08a0151610100909a01518651808801909752600c87527f5a45524f5f414444524553530000000000000000000000000000000000000000988701989098529798959793969295919490939290600160a060020a038a161515620001cc576040517f08c379a00000000000000000000000000000000000000000000000000000000081526004018080602001828103825283818151815260200191508051906020019080838360005b838110156200019057818101518382015260200162000176565b50505050905090810190601f168015620001be5780820380516001836020036101000a031916815260200191505b509250505060405180910390fd5b5060408051808201909152600c81527f5a45524f5f4144445245535300000000000000000000000000000000000000006020820152600160a060020a038916151562000276576040517f08c379a0000000000000000000000000000000000000000000000000000000008152600401808060200182810382528381815181526020019150805190602001908083836000838110156200019057818101518382015260200162000176565b5060408051808201909152600c81527f5a45524f5f4144445245535300000000000000000000000000000000000000006020820152600160a060020a038816151562000320576040517f08c379a0000000000000000000000000000000000000000000000000000000008152600401808060200182810382528381815181526020019150805190602001908083836000838110156200019057818101518382015260200162000176565b5060408051808201909152600c81527f5a45524f5f4144445245535300000000000000000000000000000000000000006020820152600160a060020a0387161515620003ca576040517f08c379a0000000000000000000000000000000000000000000000000000000008152600401808060200182810382528381815181526020019150805190602001908083836000838110156200019057818101518382015260200162000176565b5060408051808201909152600c81527f5a45524f5f4144445245535300000000000000000000000000000000000000006020820152600160a060020a038616151562000474576040517f08c379a0000000000000000000000000000000000000000000000000000000008152600401808060200182810382528381815181526020019150805190602001908083836000838110156200019057818101518382015260200162000176565b5060408051808201909152600c81527f5a45524f5f4144445245535300000000000000000000000000000000000000006020820152600160a060020a03851615156200051e576040517f08c379a0000000000000000000000000000000000000000000000000000000008152600401808060200182810382528381815181526020019150805190602001908083836000838110156200019057818101518382015260200162000176565b5060408051808201909152600c81527f5a45524f5f4144445245535300000000000000000000000000000000000000006020820152600160a060020a0384161515620005c8576040517f08c379a0000000000000000000000000000000000000000000000000000000008152600401808060200182810382528381815181526020019150805190602001908083836000838110156200019057818101518382015260200162000176565b5060408051808201909152600c81527f5a45524f5f4144445245535300000000000000000000000000000000000000006020820152600160a060020a038316151562000672576040517f08c379a0000000000000000000000000000000000000000000000000000000008152600401808060200182810382528381815181526020019150805190602001908083836000838110156200019057818101518382015260200162000176565b5060408051808201909152600c81527f5a45524f5f4144445245535300000000000000000000000000000000000000006020820152600160a060020a03821615156200071c576040517f08c379a0000000000000000000000000000000000000000000000000000000008152600401808060200182810382528381815181526020019150805190602001908083836000838110156200019057818101518382015260200162000176565b5060008054600160a060020a0319908116600160a060020a039b8c161782556001805482169a8c169a909a17909955600280548a16988b1698909817909755600380548916968a169690961790955560048054881694891694909417909355600580548716928816929092179091556006805486169187169190911790556007805485169186169190911790556008805490931693169290921790556146b6908190620007c990396000f3fe6080604052600436106100ef576000357c0100000000000000000000000000000000000000000000000000000000900480639409d8701161009c578063cbaef59b11610076578063cbaef59b146102d4578063cd117ae614610353578063f00fd4bb1461037f578063fece782614610394576100ef565b80639409d870146102835780639c6a283714610298578063a37641ff146102ad576100ef565b806341ffbc1f116100cd57806341ffbc1f146102275780634c0a6532146102595780636d96a2aa1461026e576100ef565b80630af46ab0146101bf5780630f9dad71146101fd57806312f510f214610212575b604080518082018252600b81527f554e535550504f52544544000000000000000000000000000000000000000000602080830191825292517f08c379a00000000000000000000000000000000000000000000000000000000081526004810193845282516024820152825192939283926044909201919080838360005b8381101561018457818101518382015260200161016c565b50505050905090810190601f1680156101b15780820380516001836020036101000a031916815260200191505b509250505060405180910390fd5b3480156101cb57600080fd5b506101d46103a9565b6040805173ffffffffffffffffffffffffffffffffffffffff9092168252519081900360200190f35b34801561020957600080fd5b506101d46103c5565b34801561021e57600080fd5b506101d46103e1565b34801561023357600080fd5b5061023c6103fd565b6040805167ffffffffffffffff9092168252519081900360200190f35b34801561026557600080fd5b506101d4610425565b34801561027a57600080fd5b506101d4610441565b34801561028f57600080fd5b506101d461045d565b3480156102a457600080fd5b506101d4610479565b3480156102b957600080fd5b506102c2610495565b60408051918252519081900360200190f35b3480156102e057600080fd5b50610351600480360360208110156102f757600080fd5b81019060208101813564010000000081111561031257600080fd5b82018360208201111561032457600080fd5b8035906020019184600183028401116401000000008311171561034657600080fd5b50909250905061049a565b005b34801561035f57600080fd5b50610368610be4565b6040805161ffff9092168252519081900360200190f35b34801561038b57600080fd5b506101d4610bea565b3480156103a057600080fd5b506101d4610c06565b60045473ffffffffffffffffffffffffffffffffffffffff1681565b60015473ffffffffffffffffffffffffffffffffffffffff1681565b60035473ffffffffffffffffffffffffffffffffffffffff1681565b60085474010000000000000000000000000000000000000000900467ffffffffffffffff1681565b60005473ffffffffffffffffffffffffffffffffffffffff1681565b60025473ffffffffffffffffffffffffffffffffffffffff1681565b60075473ffffffffffffffffffffffffffffffffffffffff1681565b60055473ffffffffffffffffffffffffffffffffffffffff1681565b600881565b600060606104a661450c565b50604080516101e0810182526000805473ffffffffffffffffffffffffffffffffffffffff908116835260025481166020808501919091526003548216848601526004548216606085015260055482166080850152600654821660a085015260078054831660c086015260085492831660e086015267ffffffffffffffff74010000000000000000000000000000000000000000909304831661010086018190526103e86101208701526101408601889052610160860185905261018086018590526101a086018590526101c0860194909452855180870190965285527f5245454e5452590000000000000000000000000000000000000000000000000090850152919291678000000000000000909104161561061f576040517f08c379a00000000000000000000000000000000000000000000000000000000081526004018080602001828103825283818151815260200191508051906020019080838360008381101561018457818101518382015260200161016c565b5080610100015167800000000000000017600860146101000a81548167ffffffffffffffff021916908367ffffffffffffffff160217905550610660614587565b6060806106c46000809054906101000a900473ffffffffffffffffffffffffffffffffffffffff1689898080601f016020809104026020016040519081016040528093929190818152602001838380828437600092019190915250610c2292505050565b9250925092506106d5848383610f4e565b600095505b81518610156107365761070382878151811015156106f457fe5b90602001906020020151610f71565b61072b84838881518110151561071557fe5b602090810290910101519063ffffffff61111e16565b6001909501946106da565b610740848361123a565b600095505b81518610156108745761077684838881518110151561076057fe5b602090810290910101519063ffffffff61138016565b600186015b825181101561086857828181518110151561079257fe5b90602001906020020151610360015183888151811015156107af57fe5b90602001906020020151610360015114156040805190810160405280600d81526020017f494e56414c49445f56414c55450000000000000000000000000000000000000081525090151561085f576040517f08c379a00000000000000000000000000000000000000000000000000000000081526004018080602001828103825283818151815260200191508051906020019080838360008381101561018457818101518382015260200161016c565b5060010161077b565b50600190950194610745565b600095505b80518610156108ad576108a2818781518110151561089357fe5b906020019060200201516113b8565b600190950194610879565b6108bd838263ffffffff61141816565b6108c68361147c565b6108cf836114be565b60408051808201909152600b81527f494e56414c49445f534947000000000000000000000000000000000000000000602082015290151561096c576040517f08c379a00000000000000000000000000000000000000000000000000000000081526004018080602001828103825283818151815260200191508051906020019080838360008381101561018457818101518382015260200161016c565b50600095505b8151861015610a32576000861180156109f15750816001870381518110151561099757fe5b90602001906020020151610120015173ffffffffffffffffffffffffffffffffffffffff1682878151811015156109ca57fe5b90602001906020020151610120015173ffffffffffffffffffffffffffffffffffffffff16145b156109fb57610a27565b610a2783606001518388815181101515610a1157fe5b602090810290910101519063ffffffff61151016565b600190950194610972565b600095505b8051861015610aa357610a486145b6565b8187815181101515610a5657fe5b906020019060200201519050610a6b8161154a565b610a7481611654565b610a84818663ffffffff61170f16565b806080015115610a9757610a9781611a02565b50600190950194610a37565b610aad8282611a3a565b600095505b8051861015610b6957610ac36145b6565b8187815181101515610ad157fe5b906020019060200201519050806080015115610b2557610af881868663ffffffff611b3016565b6101008501805167ffffffffffffffff6001820181169092528551610b209284921690611b4a565b610b5d565b604080820151815190815290517f977ca9d66ddf6e18cac50dbf89ee6dcce72d4635c60a13314945868798f73cdc9181900360200190a15b50600190950194610ab2565b610b7284611bb6565b610b7b84611c2d565b610b858483611cc6565b50505061010001516008805467ffffffffffffffff90921674010000000000000000000000000000000000000000027fffffffff0000000000000000ffffffffffffffffffffffffffffffffffffffff90921691909117905550505050565b6103e881565b60085473ffffffffffffffffffffffffffffffffffffffff1681565b60065473ffffffffffffffffffffffffffffffffffffffff1681565b610c2a614587565b606080610c356145eb565b610c4685600063ffffffff611d9b16565b61ffff168152610c5d85600263ffffffff611d9b16565b61ffff166020820152610c7785600463ffffffff611d9b16565b61ffff166040820152610c9185600663ffffffff611d9b16565b61ffff166060820152805115610d0857604080517f08c379a000000000000000000000000000000000000000000000000000000000815260206004820181905260248201527f556e737570706f727465642073657269616c697a6174696f6e20666f726d6174604482015290519081900360640190fd5b6020810151600010610d7b57604080517f08c379a000000000000000000000000000000000000000000000000000000000815260206004820152601860248201527f496e76616c6964206e756d626572206f66206f72646572730000000000000000604482015290519081900360640190fd5b6040810151600010610dee57604080517f08c379a000000000000000000000000000000000000000000000000000000000815260206004820152601760248201527f496e76616c6964206e756d626572206f662072696e6773000000000000000000604482015290519081900360640190fd5b6060810151600010610e6157604080517f08c379a000000000000000000000000000000000000000000000000000000000815260206004820152601c60248201527f496e76616c6964206e756d626572206f66207370656e6461626c657300000000604482015290519081900360640190fd5b60208101516040820151865187926008840192600e80860193603c909302860190810192600990920201602e81019190869003604e011115610f0457604080517f08c379a000000000000000000000000000000000000000000000000000000000815260206004820152601260248201527f496e76616c696420696e70757420646174610000000000000000000000000000604482015290519081900360640190fd5b610f118185600201611db6565b9850610f2b8184600201886020015189606001518f611e21565b9750610f3f8260010187604001518a6122e2565b96505050505050509250925092565b610f588383612423565b610f628382612441565b610f6c83826124d2565b505050565b60007f40b942178d2a51f1f61934268590778feb8114db632db7d88537c98d2b05c5f2600102905060007faea25658c273c666156bd427f83a666135fcde6887a6c25fc1cd1562bc4f3f34600102905060006104a0840151805160208201206040518560008201526080870151602082015260a08701516040820152610280870151606082015260c087015160808201526101e087015160a0820152602087015160c0820152604087015160e082015260608701516101008201526101208701516101208201526101408701516101408201526101a08701516101608201526101c08701516101808201526103008701516101a08201526102608701516101c08201526103208701516101e08201526102c08701516102008201526102e08701516102208201526102408701516102408201526104008701516102608201526104208701516102808201526104408701516102a08201526104608701516102c08201526104808701516102e082015281610300820152610320812061190160008301528560208301528060408301526042601e830120945050505050808461036001818152505050505050565b61014082015173ffffffffffffffffffffffffffffffffffffffff16151561116657602082015173ffffffffffffffffffffffffffffffffffffffff16610140830152611236565b60608101516020830151610140840151604080517f2dfc6eed00000000000000000000000000000000000000000000000000000000815273ffffffffffffffffffffffffffffffffffffffff9384166004820152918316602483015280516000949390931692632dfc6eed926044808201939291829003018186803b1580156111ee57600080fd5b505afa158015611202573d6000803e3d6000fd5b505050506040513d604081101561121857600080fd5b50516103e0840151909150801561122c5750805b15156103e0840152505b5050565b60408083015190517faec782d400000000000000000000000000000000000000000000000000000000808252602060048301528351600502602483015291906044810160005b85518110156112ee5760206001820102860151610140810151600084015260208101516020840152610360810151604084015260c081015160608401526c01000000000000000000000000606082015160408301511802608084015260a08301925050600181019050611280565b5060208551600201028083848403856000885af180153d83141517156113245780151561131f573d6000803e3d6000fd5b600080fd5b60005b8751811015611375576020600182010288015160206002830102860151806103a0830152806103c083015260001981141560006103e084015111166103e08301525050600181019050611327565b505050505050505050565b6103a082015115156113a557611396828261255d565b6113a08282612736565b6113af565b6113af828261290f565b611236826129bf565b80516040516020830151600091908190835b8581101561140457602081810283010151516102a08101516103609091015161ffff909116600285015283526022909201916001016113ca565b505081900390206040909301929092525050565b60006020820151604081015160015b845181101561144c576001016020810285015160408101519093509190911890611427565b50604051603481019190915260208501516014820152845181526048600c90910120606090940193909352505050565b602081015173ffffffffffffffffffffffffffffffffffffffff1615156114bb57805173ffffffffffffffffffffffffffffffffffffffff1660208201525b50565b6000816040015151600014156114f15750602081015173ffffffffffffffffffffffffffffffffffffffff16331461150b565b6115088260200151836060015184604001516129eb565b90505b919050565b610220820151511561123657816103e00151801561153e575061153e826101200151828461022001516129eb565b15156103e08301525050565b8060800151801561156957508051600110801561156957508051600810155b1515608082015260005b81518110156112365781516000906000198382010181151561159157fe5b069050826080015180156115c2575060208301518051839081106115b157fe5b60209081029091010151516103e001515b1580156080850181905290611644575060208301518051829081106115e357fe5b90602001906020020151600001516060015173ffffffffffffffffffffffffffffffffffffffff1683602001518381518110151561161d57fe5b60209081029091010151516040015173ffffffffffffffffffffffffffffffffffffffff16145b1515608084015250600101611573565b60005b81516000190181101561123657600082602001518281518110151561167857fe5b6020908102909101015151604001519050600182015b835181101561170557836080015180156116f6575060208401518051829081106116b457fe5b90602001906020020151600001516040015173ffffffffffffffffffffffffffffffffffffffff168273ffffffffffffffffffffffffffffffffffffffff1614155b1515608085015260010161168e565b5050600101611657565b8160800151151561171f57611236565b600080805b8451831015611764576117598486602001518581518110151561174357fe5b602090810290910101519063ffffffff612eba16565b600190920191611724565b845160001901915060005b600083126117dd5785516000198482010181151561178957fe5b0691506117cf858760200151858151811015156117a257fe5b906020019060200201518860200151858151811015156117be57fe5b906020019060200201518685613136565b60001990930192905061176f565b85516000190192505b808312611825578551600019848201018115156117ff57fe5b069150611818858760200151858151811015156117a257fe5b50600019909201916117e6565b600093505b85518410156118c35785608001518015611863575061186386602001518581518110151561185457fe5b906020019060200201516131dd565b15156080870152602086015180516118b891908690811061188057fe5b9060200190602002015161010001518760200151868151811015156118a157fe5b60209081029091010151519063ffffffff61322a16565b60019093019261182a565b600093505b855184101561199b578551600019858201018115156118e357fe5b06915060006119318760200151848151811015156118fd57fe5b906020019060200201518789602001518881518110151561191a57fe5b60209081029091010151919063ffffffff61323c16565b905080151561194757506000608087015261199b565b600087602001518681518110151561195b57fe5b90602001906020020151600001516102a00151905060008160010b121561198e57606088018051600083900360010b0190525b50506001909301926118c8565b856080015180156119b55750846101200151866060015111155b15156080870152600093505b85518410156119fa576119ef8660200151858151811015156119df57fe5b602090810290910101515161342c565b6001909301926119c1565b505050505050565b60005b815181101561123657611a32826020015182815181101515611a2357fe5b90602001906020020151613446565b600101611a05565b60015b8015610f6c57506000805b8351811015611ac4578381815181101515611a5f57fe5b906020019060200201516103e0015115611abc57611a938482815181101515611a8457fe5b90602001906020020151613534565b8180611ab957508381815181101515611aa857fe5b906020019060200201516103e00151155b91505b600101611a48565b508015611b2b5760005b8251811015611b2957611adf6145b6565b8382815181101515611aed57fe5b906020019060200201519050806080015115611b2057611b0c8161154a565b80608001511515611b2057611b2081613564565b50600101611ace565b505b611a3d565b611b3b83838361359c565b610f6c8383836000015161360c565b604080840151845182518581526020810184905261010090910292810183905290917fb2ef4bc5209dff0c46d5dfddb2b68a23bd4820e8f33107fde76ed15ba90695c99160608101611ba2888263ffffffff61367b16565b905085858584840385a35050505050505050565b806101c00151816101a001511415611bcd576114bb565b60008160200151905060006020836101a00151846101c0015103811515611bf057fe5b04905060006044846101a001510390506000846101c001519050826024830152600082838303846000885af18015156119fa573d6000803e3d6000fd5b8061018001518161016001511415611c44576114bb565b60a081015161016082015161018083015160208282039081047fffffffffffffffffffffffffffffffffffffffffffffffffffffffffffffffe08401819052927fffffffffffffffffffffffffffffffffffffffffffffffffffffffffffffffbc01919060009083906044018183885af18015156119fa573d6000803e3d6000fd5b60408083015190517f843ff0e500000000000000000000000000000000000000000000000000000000808252602060048301529190604481016000805b8651811015611d6357602060018201028701516103a08101516103c0820151808214158060006103e0860151111615611d545761036084015160008801528260208801526040870196506002860195505b50505050600181019050611d03565b506000811115611d9257806024840152600083848403856000885af1801515611d90573d6000803e3d6000fd5b505b50505050505050565b6000611da983836002613726565b61ffff1690505b92915050565b611dbe614587565b604080516000808252602080830184523260148881019182528751600461ffff91821681028b018301518952928590526002890151811683028a019091015187840152888301948552968101519096169095029095019093019082015291905290565b60408051600081526020808201858152858202830184019093526060926104c0916001880102908490878015611e7157816020015b611e5e614614565b815260200190600190039081611e565790505b509050600060405195508860008701528884028301860160405260005b898110156122d35780850284018701806020836001010289015261ffff60008d0151169250826000820152600461ffff60028e01511602925073ffffffffffffffffffffffffffffffffffffffff8360148f010151166020820152600461ffff60048e01511602925073ffffffffffffffffffffffffffffffffffffffff8360148f010151166040820152600461ffff60068e01511602925073ffffffffffffffffffffffffffffffffffffffff8360148f010151166060820152600461ffff60088e0151160292508260208e0101516080820152600461ffff600a8e0151160292508260208e01015160a0820152600461ffff600c8e01511602925063ffffffff8360048f0101511660c082015261ffff600e8d0151169250898310830292506020600184010284015160e082015261ffff60108d01511692508983108302925060206001840102840151610100820152600461ffff60128e01511602925073ffffffffffffffffffffffffffffffffffffffff8360148f01015116610120820152600461ffff60148e01511602925073ffffffffffffffffffffffffffffffffffffffff8360148f01015116610140820152600461ffff60168e01511602925073ffffffffffffffffffffffffffffffffffffffff8360148f010151166101a0820152600461ffff60188e01511602925073ffffffffffffffffffffffffffffffffffffffff8360148f010151166101c0820152600461ffff601a8e01511602925063ffffffff8360048f010151166101e08201528660208e0152600461ffff601c8e015116029250602083018d01610200820152600461ffff601e8e015116029250602083018d01610220820152600060208e015261ffff60208d0151169250600083116102408201528860148e0152600461ffff60228e01511602925073ffffffffffffffffffffffffffffffffffffffff8360148f01015116610260820152600060148e0152600461ffff60248e0151160292508260208e01015161028082015261ffff60268d0151169250826102a082015261ffff60288d0151169250826102c082015261ffff602a8d0151169250826102e0820152602081015160148e0152600461ffff602c8e01511602925073ffffffffffffffffffffffffffffffffffffffff8360148f01015116610300820152600060148e015261ffff602e8d01511692508261032082015261ffff60308d01511692508261040082015261ffff60328d01511692508261042082015261ffff60348d015116925082610440820152600461ffff60368e0151160292508260208e010151610460820152600461ffff60388e0151160292508260208e0101516104808201528660208e0152600461ffff603a8e015116029250602083018d016104a0820152600060208e015260006103408201526000610360820152600061038082015260006103a082015260006103c082015260016103e0820152603c8c019b5050600181019050611e8e565b50505050505095945050505050565b604080518381526001840160200260a080860282018301909352909161014060005b868110156124185780830284018501806020600184010287015260ff89511660018a019950600881111561233757600080fd5b604051816000820152602082600101028101828602810160405282600085015281602085015260006040850152600060608501526001608085015260005b83811015612404578087028201806020600184010285015260ff8e51168c51811015156123a157600080fd5b60018f019e50602060018201028d0151600083015260006020830152600060408301526000606083015260006080830152600060a0830152600060c0830152600060e0830152600061010083015260006101208301525050600181019050612375565b505050600803989098019750600101612304565b505050509392505050565b51604080516000815260809092028201602001905261014090910152565b6000805b8251811015612480576000838281518110151561245e57fe5b6020908102919091010151516003810102600902929092019150600101612445565b50604080517f4a874dd900000000000000000000000000000000000000000000000000000000815260206004820181905260449302810183019091520161016083018190526101809092019190915250565b6000805b825181101561250b57600083828151811015156124ef57fe5b60209081029091010151516010029290920191506001016124d6565b50604080517ffa369e660000000000000000000000000000000000000000000000000000000081526020600482018190526044930281018301909152016101a083018190526101c09092019190915250565b8151158080156125865750602083015173ffffffffffffffffffffffffffffffffffffffff1615155b90508080156125ae5750604083015173ffffffffffffffffffffffffffffffffffffffff1615155b90508080156125d65750606083015173ffffffffffffffffffffffffffffffffffffffff1615155b90508080156125e85750608083015115155b90508080156125fa575060a083015115155b9050808015612623575061026083015173ffffffffffffffffffffffffffffffffffffffff1615155b905080801561263f5750816101200151836102c0015161ffff16105b905080801561265b5750816101200151836102e0015161ffff16105b90508080156126745750606483610320015161ffff1611155b90508080156126a157506000836104000151600081111561269157fe5b1480156126a15750610460830151155b90508080156126ce5750600083610420015160008111156126be57fe5b1480156126ce5750610480830151155b90508080156126ed5750600083610440015160008111156126eb57fe5b145b905080801561270057506104a083015151155b90508080156127135750428360c0015111155b9050826103e0015180156127245750805b15156103e0840152610f6c838361290f565b6102008201515115156128e8576000816080015173ffffffffffffffffffffffffffffffffffffffff16631c8566968461014001518561036001516040518363ffffffff167c0100000000000000000000000000000000000000000000000000000000028152600401808373ffffffffffffffffffffffffffffffffffffffff1673ffffffffffffffffffffffffffffffffffffffff1681526020018281526020019250505060206040518083038186803b1580156127f457600080fd5b505afa158015612808573d6000803e3d6000fd5b505050506040513d602081101561281e57600080fd5b505190508015156128e257826103e0015180156128d957508160c0015173ffffffffffffffffffffffffffffffffffffffff16634778a5be8461036001516040518263ffffffff167c01000000000000000000000000000000000000000000000000000000000281526004018082815260200191505060206040518083038186803b1580156128ac57600080fd5b505afa1580156128c0573d6000803e3d6000fd5b505050506040513d60208110156128d657600080fd5b50515b15156103e08401525b50611236565b816103e00151801561153e575061153e8261014001518361036001518461020001516129eb565b60016101e08301511580612927575042836101e00151115b9050808015612946575081610120015160010b836102a0015160010b13155b9050808015612968575081610120015160000360010b836102a0015160010b12155b61012084015190915073ffffffffffffffffffffffffffffffffffffffff16156129a25780801561299f5750600083610220015151115b90505b826103e00151801561122c575015156103e0929092019190915250565b6000816102c0015161ffff1611806129e057506000816102e0015161ffff16115b151561034090910152565b80516000906002811015612a6057604080517f08c379a000000000000000000000000000000000000000000000000000000000815260206004820152601860248201527f696e76616c6964206d756c74696861736820666f726d61740000000000000000604482015290519081900360640190fd5b600183015160028085015190810160ff168314612ade57604080517f08c379a000000000000000000000000000000000000000000000000000000000815260206004820152601260248201527f626164206d756c7469686173682073697a650000000000000000000000000000604482015290519081900360640190fd5b60ff82161515612ce05773ffffffffffffffffffffffffffffffffffffffff87161515612b6c57604080517f08c379a000000000000000000000000000000000000000000000000000000000815260206004820152601660248201527f696e76616c6964207369676e6572206164647265737300000000000000000000604482015290519081900360640190fd5b604160ff821614612bde57604080517f08c379a000000000000000000000000000000000000000000000000000000000815260206004820152601b60248201527f62616420457468657265756d206d756c7469686173682073697a650000000000604482015290519081900360640190fd5b604080517f19457468657265756d205369676e6564204d6573736167653a0a3332000000008152601c8101889052603c9020600387015160238801516043890151845160008152602081810180885286905260ff85168288015260608201849052608082018390529551949593949293919260019260a08084019391927fffffffffffffffffffffffffffffffffffffffffffffffffffffffffffffffe081019281900390910190855afa158015612c9a573d6000803e3d6000fd5b5050506020604051035173ffffffffffffffffffffffffffffffffffffffff168b73ffffffffffffffffffffffffffffffffffffffff1614975050505050505050612eb3565b60ff821660011415612eab5773ffffffffffffffffffffffffffffffffffffffff87161515612d7057604080517f08c379a000000000000000000000000000000000000000000000000000000000815260206004820152601660248201527f696e76616c6964207369676e6572206164647265737300000000000000000000604482015290519081900360640190fd5b604160ff821614612de257604080517f08c379a000000000000000000000000000000000000000000000000000000000815260206004820152601960248201527f62616420454950373132206d756c7469686173682073697a6500000000000000604482015290519081900360640190fd5b600385015160238601516043870151604080516000815260208082018084528c905260ff8616828401526060820185905260808201849052915160019260a08084019391927fffffffffffffffffffffffffffffffffffffffffffffffffffffffffffffffe081019281900390910190855afa158015612e66573d6000803e3d6000fd5b5050506020604051035173ffffffffffffffffffffffffffffffffffffffff168a73ffffffffffffffffffffffffffffffffffffffff16149650505050505050612eb3565b600093505050505b9392505050565b8151600090612ecf908363ffffffff6137a616565b83516103a0810151608090910151919250600091612ef29163ffffffff6137c416565b9050808210612f015780612f03565b815b6101008501528351610340015115156130fb57835160608101516102609091015173ffffffffffffffffffffffffffffffffffffffff9081169116148015612f705750835161030081015160209091015173ffffffffffffffffffffffffffffffffffffffff9081169116145b8015612f885750835160a08101516102809091015111155b15156130fb578351608081015161010086015161028090920151600092612fb5919063ffffffff61383b16565b811515612fbe57fe5b04905060008111156130f9578451600090612fdf908663ffffffff6138c216565b905085600001516040015173ffffffffffffffffffffffffffffffffffffffff168660000151610260015173ffffffffffffffffffffffffffffffffffffffff161480156130335750838287610100015101115b156130ba5780841461304157fe5b8551610280810151608090910151600091613062919063ffffffff6138e216565b875160800151909150819061307e90879063ffffffff61383b16565b81151561308757fe5b046101008801528651610280015181906130a890879063ffffffff61383b16565b8115156130b157fe5b049250506130f7565b808211156130f757855161028081015160809091015191925082916130e690839063ffffffff61383b16565b8115156130ef57fe5b046101008701525b505b505b8351608081015160a09091015161010086015161311d9163ffffffff61383b16565b81151561312657fe5b0461012090940193909352505050565b61010084015184516102c0015182919061ffff16600081111561318b576000886101200151613173838a610100015161383b90919063ffffffff16565b81151561317c57fe5b04905080886101000151039250505b8186610120015111156131d2576101208601829052855160a08101516080909101518694506131c190849063ffffffff61383b16565b8115156131ca57fe5b046101008701525b505095945050505050565b60006131ff826101000151836000015160a00151846000015160800151613954565b15905080801561321457506000826101000151115b9050808015611db0575050610120015160001090565b60e09091015160400180519091019052565b82516103400151600090156132c3576000604085015261012082015184516102c001516101008601516132789161ffff1663ffffffff61383b16565b81151561328157fe5b0460608501526101208083015185516102e001519186015190916132af919061ffff1663ffffffff61383b16565b8115156132b857fe5b0460808501526133df565b835160808101516101008601516102809092015190916132e9919063ffffffff61383b16565b8115156132f257fe5b0460408501526000606080860182905260808601919091528451908101516102609091015173ffffffffffffffffffffffffffffffffffffffff90811691161480156133635750835161030081015160209091015173ffffffffffffffffffffffffffffffffffffffff9081169116145b80156133785750836040015184610120015110155b1561338d576040840180516080860152600090525b6000846040015111156133df5783516000906133af908463ffffffff6138c216565b905080856040015111156133c7576000915050612eb3565b604085015185516133dd9163ffffffff61398a16565b505b61012083015160608501516101008601510310613424575061012082018051606085015161010086018051829003929092036020870152915190910190526001612eb3565b506000612eb3565b60e081015160006040918201819052610100909201510152565b602080820180516101008401805185516103a00180519190930101909152905190516040840151845160e00151909301519101919061348b908363ffffffff6137c416565b835160e001516020908101919091528351610100015101516134b3908263ffffffff6137c416565b83516101000151602001528251610380015173ffffffffffffffffffffffffffffffffffffffff1615610f6c5782516101600151602001516134fb908363ffffffff6137c416565b83516101600151602090810191909152835161018001510151613524908263ffffffff6137c416565b8351610180015160200152505050565b806102400151156114bb57806103e00151801561355957508060800151816103a00151145b15156103e082015250565b60005b81518110156112365761359482602001518281518110151561358557fe5b9060200190602002015161399d565b600101613567565b6135a4614638565b83815260208101839052815173ffffffffffffffffffffffffffffffffffffffff16604082015260005b8451811015613605576135fc828660200151838151811015156135ed57fe5b906020019060200201516139ca565b506001016135ce565b5050505050565b60005b83518110156136755761366c838386602001518481518110151561362f57fe5b60209081029091018101519088015188516000198782010181151561365057fe5b0681518110151561365d57fe5b90602001906020020151613ac6565b5060010161360f565b50505050565b815160208301518291906101009060005b8381101561371c5760208102602001820151805160a082015160408301510360c083015160608401510360e084015160808501510361036084015160008b0152602084015160208b0152604084015160408b015261010085015160608b0152602085015160808b01528260a08b01528160c08b01528060e08b0152878a019950505050505060018101905061368c565b5050505092915050565b600081830184511015151561379c57604080517f08c379a000000000000000000000000000000000000000000000000000000000815260206004820152600c60248201527f494e56414c49445f53495a450000000000000000000000000000000000000000604482015290519081900360640190fd5b5091909101015190565b6000612eb38260200151846040015185602001518660e00151613c8b565b60008282111561383557604080517f08c379a000000000000000000000000000000000000000000000000000000000815260206004820152600d60248201527f494e56414c49445f56414c554500000000000000000000000000000000000000604482015290519081900360640190fd5b50900390565b818102821580613855575081838281151561385257fe5b04145b1515611db057604080517f08c379a000000000000000000000000000000000000000000000000000000000815260206004820152600d60248201527f494e56414c49445f56414c554500000000000000000000000000000000000000604482015290519081900360640190fd5b6000612eb382602001518461026001518560200151866101000151613c8b565b81810182811015611db057604080517f08c379a000000000000000000000000000000000000000000000000000000000815260206004820152600d60248201527f494e56414c49445f56414c554500000000000000000000000000000000000000604482015290519081900360640190fd5b600080613961858561383b565b90506000838281151561397057fe5b0690508161397f82606461383b565b119695505050505050565b6101009091015160400180519091019052565b602081015161010082015182516103a001516139c19290910163ffffffff6137c416565b90516103a00152565b80516103400151600090613a0e5781516101c0015173ffffffffffffffffffffffffffffffffffffffff1615613a065781516103200151613a09565b60005b613a11565b60645b61ffff16606084015281516102a00151600190810b900b608084015281516020015173ffffffffffffffffffffffffffffffffffffffff90811660a085015282516101c001511660c084015281516103400151151560e0840152815161026001516040830151613a82918591613ccd565b60a08301528151604001516060830151613a9d918591613ccd565b60c08301528151606001516080830151613ab8918591613ccd565b60e090920191909152919050565b600080613ae48360e0015184608001516137c490919063ffffffff16565b90506000613b1482613b0887606001518861010001516137c490919063ffffffff16565b9063ffffffff6137c416565b90506000613b4383613b378860c0015189606001516137c490919063ffffffff16565b9063ffffffff6138e216565b90506000613b628760a0015188604001516137c490919063ffffffff16565b90508660000151610260015173ffffffffffffffffffffffffffffffffffffffff1687600001516040015173ffffffffffffffffffffffffffffffffffffffff161415613bc057613bb9828263ffffffff6138e216565b9150600090505b613bed896101a001518a6101c00151896000015161026001518a60000151602001518d60a0015186613f36565b6101c08a018190526101a08a01518851604081015160209091015160a08d0151613c1a9492919087613f36565b6101c08a018190526101a08a01518851604081015160209091015189516103000151613c499492919088613f36565b6101c08a018190526101a08a015188516040810151602091820151918b0151613c759492908d90613f36565b896101c001818152505050505050949350505050565b80516000901515613cab57613ca185858561400d565b6020830152600182525b60408201516020830151613cc49163ffffffff6137c416565b95945050505050565b6000811515613cde57506000612eb3565b60e084015182908015613d09575060c085015173ffffffffffffffffffffffffffffffffffffffff16155b15613d12575060005b600080808080851115613f13576064613d388a606001518761383b90919063ffffffff16565b811515613d4157fe5b04935083850392506000896080015160010b1315613d8f576020890151610120015160808a0151613d7e90859060010b830363ffffffff61383b16565b811515613d8757fe5b049250613da4565b6000896080015160010b1215613da457600092505b6000613db08a8a6141a2565b60208b0151610120015190915063ffffffff82161115613dcc57fe5b60208a01516101200151613de98563ffffffff8085169061383b16565b811515613df257fe5b049250828403935089602001516101200151613e1d8263ffffffff168761383b90919063ffffffff16565b811515613e2657fe5b0491508185039450613e518a6020015161016001518b6020015161018001518b8d60c001518961439c565b60208b01805161018090810192909252516101608101519181015160a090910151613e829291908c9087870161439c565b60208b0151610180015289516060015184906000108015613ea35750600085115b15613ee357613eb38b8b87614426565b60208b015161012001518b5160600151613ed6908790830363ffffffff61383b16565b811515613edf57fe5b0490505b613f068b6020015161016001518c6020015161018001518c8e604001518561439c565b60208c0151610180015250505b613f29878585018484010163ffffffff6137c416565b9998505050505050505050565b60008082118015613f7357508273ffffffffffffffffffffffffffffffffffffffff168473ffffffffffffffffffffffffffffffffffffffff1614155b15614000576001875b87811015613fce57805160208201516040830151898314898314168882141615613fc3576060840151870187811015613fb457600080fd5b806060860152600095508b9450505b505050608001613f7c565b506001811415613ff7578560008801528460208801528360408801528260608801526080870196505b50859050614003565b50845b9695505050505050565b604080517fdd62ed3e00000000000000000000000000000000000000000000000000000000815273ffffffffffffffffffffffffffffffffffffffff83811660048301528581166024830152915160009285929083169163dd62ed3e91604480820192602092909190829003018186803b15801561408a57600080fd5b505afa15801561409e573d6000803e3d6000fd5b505050506040513d60208110156140b457600080fd5b50519150811561419a5760008173ffffffffffffffffffffffffffffffffffffffff166370a08231856040518263ffffffff167c0100000000000000000000000000000000000000000000000000000000028152600401808273ffffffffffffffffffffffffffffffffffffffff1673ffffffffffffffffffffffffffffffffffffffff16815260200191505060206040518083038186803b15801561415957600080fd5b505afa15801561416d573d6000803e3d6000fd5b505050506040513d602081101561418357600080fd5b505190508281106141945782614196565b805b9250505b509392505050565b60208201516101400151805160009190825b818110156142895782818151811015156141ca57fe5b906020019060200201516c01000000000000000000000000900473ffffffffffffffffffffffffffffffffffffffff168573ffffffffffffffffffffffffffffffffffffffff161415614281576000838260010181518110151561422a57fe5b906020019060200201517c0100000000000000000000000000000000000000000000000000000000900490508660e00151614269578061ffff16614276565b6201000063ffffffff8216045b945050505050611db0565b6002016141b4565b506000856020015160e0015173ffffffffffffffffffffffffffffffffffffffff166342b5f375866040518263ffffffff167c0100000000000000000000000000000000000000000000000000000000028152600401808273ffffffffffffffffffffffffffffffffffffffff1673ffffffffffffffffffffffffffffffffffffffff16815260200191505060206040518083038186803b15801561432d57600080fd5b505afa158015614341573d6000803e3d6000fd5b505050506040513d602081101561435757600080fd5b5051602060018401810285018781520181905260028301845260e0870151909150614386578061ffff16614003565b6201000063ffffffff8216049695505050505050565b60008115156143ac575083613cc4565b6001865b868110156143f8578051602082015187821487821416156143ee5760408301518601868110156143df57600080fd5b80604085015260009450899350505b50506060016143b0565b50600181141561441b578460008701528360208701528260408701526060860195505b509395945050505050565b60005b835151811015613675578351602001518051600091908390811061444957fe5b60209081029091010151516102a0015160010b1215614504576000846020015161012001516144aa8660000151602001518481518110151561448757fe5b60209081029091010151516102a00151859060000360010b63ffffffff61383b16565b8115156144b357fe5b0490506144f8856020015161016001518660200151610180015186886000015160200151868151811015156144e457fe5b60209081029091018101515101518561439c565b60208601516101800152505b600101614429565b604080516101e08101825260008082526020820181905291810182905260608082018390526080820183905260a0820183905260c0820183905260e0820183905261010082018390526101208201839052610140820152610160810182905261018081018290526101a081018290526101c081019190915290565b6040805160a0810182526000808252602082018190526060928201839052918101829052608081019190915290565b60a060405190810160405280600081526020016060815260200160008019168152602001600081526020016000151581525090565b608060405190810160405280600081526020016000815260200160008152602001600081525090565b60606040519081016040528060001515815260200160008152602001600081525090565b6103406040519081016040528061464d6145b6565b815260200161465a61450c565b815260006020820181905260408201819052606082018190526080820181905260a0820181905260c0909101529056fea165627a7a7230582059c0bdb1cf49a69f5384231f73ebbd00cea9a8c31802c889675fb86c988f0b780029",
  "source": "/*\n\n  Copyright 2017 Loopring Project Ltd (Loopring Foundation).\n\n  Licensed under the Apache License, Version 2.0 (the \"License\");\n  you may not use this file except in compliance with the License.\n  You may obtain a copy of the License at\n\n  http://www.apache.org/licenses/LICENSE-2.0\n\n  Unless required by applicable law or agreed to in writing, software\n  distributed under the License is distributed on an \"AS IS\" BASIS,\n  WITHOUT WARRANTIES OR CONDITIONS OF ANY KIND, either express or implied.\n  See the License for the specific language governing permissions and\n  limitations under the License.\n*/\npragma solidity 0.5.2;\n\nimport \"../helper/MiningHelper.sol\";\nimport \"../helper/OrderHelper.sol\";\nimport \"../helper/RingHelper.sol\";\n\nimport \"../iface/IBrokerRegistry.sol\";\nimport \"../iface/IBurnRateTable.sol\";\nimport \"../iface/IFeeHolder.sol\";\nimport \"../iface/IOrderRegistry.sol\";\nimport \"../iface/IOrderBook.sol\";\nimport \"../iface/IRingSubmitter.sol\";\nimport \"../iface/ITradeDelegate.sol\";\nimport \"../iface/ITradeHistory.sol\";\n\nimport \"../lib/BytesUtil.sol\";\nimport \"../lib/MathUint.sol\";\nimport \"../lib/NoDefaultFunc.sol\";\n\nimport \"./Data.sol\";\nimport \"./ExchangeDeserializer.sol\";\n\n\n/// @title An Implementation of IRingSubmitter.\n/// @author Daniel Wang - <daniel@loopring.org>,\n/// @author Kongliang Zhong - <kongliang@loopring.org>\n/// @author Brechtpd - <brecht@loopring.org>\n/// Recognized contributing developers from the community:\n///     https://github.com/rainydio\n///     https://github.com/BenjaminPrice\n///     https://github.com/jonasshen\n///     https://github.com/Hephyrius\ncontract RingSubmitter is IRingSubmitter, NoDefaultFunc {\n    using MathUint      for uint;\n    using BytesUtil     for bytes;\n    using OrderHelper     for Data.Order;\n    using RingHelper      for Data.Ring;\n    using MiningHelper    for Data.Mining;\n\n    address public  lrcTokenAddress             = address(0x0);\n    address public  wethTokenAddress            = address(0x0);\n    address public  delegateAddress             = address(0x0);\n    address public  tradeHistoryAddress         = address(0x0);\n    address public  orderBrokerRegistryAddress  = address(0x0);\n    address public  orderRegistryAddress        = address(0x0);\n    address public  feeHolderAddress            = address(0x0);\n    address public  orderBookAddress            = address(0x0);\n    address public  burnRateTableAddress        = address(0x0);\n\n    uint64  public  ringIndex                   = 0;\n\n    uint    public constant MAX_RING_SIZE       = 8;\n\n    struct SubmitRingsParam {\n        uint16[]    encodeSpecs;\n        uint16      miningSpec;\n        uint16[]    orderSpecs;\n        uint8[][]   ringSpecs;\n        address[]   addressList;\n        uint[]      uintList;\n        bytes[]     bytesList;\n    }\n\n    constructor(\n        address _lrcTokenAddress,\n        address _wethTokenAddress,\n        address _delegateAddress,\n        address _tradeHistoryAddress,\n        address _orderBrokerRegistryAddress,\n        address _orderRegistryAddress,\n        address _feeHolderAddress,\n        address _orderBookAddress,\n        address _burnRateTableAddress\n        )\n        public\n    {\n        require(_lrcTokenAddress != address(0x0), ZERO_ADDRESS);\n        require(_wethTokenAddress != address(0x0), ZERO_ADDRESS);\n        require(_delegateAddress != address(0x0), ZERO_ADDRESS);\n        require(_tradeHistoryAddress != address(0x0), ZERO_ADDRESS);\n        require(_orderBrokerRegistryAddress != address(0x0), ZERO_ADDRESS);\n        require(_orderRegistryAddress != address(0x0), ZERO_ADDRESS);\n        require(_feeHolderAddress != address(0x0), ZERO_ADDRESS);\n        require(_orderBookAddress != address(0x0), ZERO_ADDRESS);\n        require(_burnRateTableAddress != address(0x0), ZERO_ADDRESS);\n\n        lrcTokenAddress = _lrcTokenAddress;\n        wethTokenAddress = _wethTokenAddress;\n        delegateAddress = _delegateAddress;\n        tradeHistoryAddress = _tradeHistoryAddress;\n        orderBrokerRegistryAddress = _orderBrokerRegistryAddress;\n        orderRegistryAddress = _orderRegistryAddress;\n        feeHolderAddress = _feeHolderAddress;\n        orderBookAddress = _orderBookAddress;\n        burnRateTableAddress = _burnRateTableAddress;\n    }\n\n    function submitRings(\n        bytes calldata data\n        )\n        external\n    {\n        uint i;\n        bytes32[] memory tokenBurnRates;\n        Data.Context memory ctx = Data.Context(\n            lrcTokenAddress,\n            ITradeDelegate(delegateAddress),\n            ITradeHistory(tradeHistoryAddress),\n            IBrokerRegistry(orderBrokerRegistryAddress),\n            IOrderRegistry(orderRegistryAddress),\n            IFeeHolder(feeHolderAddress),\n            IOrderBook(orderBookAddress),\n            IBurnRateTable(burnRateTableAddress),\n            ringIndex,\n            FEE_PERCENTAGE_BASE,\n            tokenBurnRates,\n            0,\n            0,\n            0,\n            0\n        );\n\n        // Check if the highest bit of ringIndex is '1'\n        require((ctx.ringIndex >> 63) == 0, REENTRY);\n\n        // Set the highest bit of ringIndex to '1' (IN STORAGE!)\n        ringIndex = ctx.ringIndex | (1 << 63);\n\n        (\n            Data.Mining  memory mining,\n            Data.Order[] memory orders,\n            Data.Ring[]  memory rings\n        ) = ExchangeDeserializer.deserialize(lrcTokenAddress, data);\n\n        // Allocate memory that is used to batch things for all rings\n        setupLists(ctx, orders, rings);\n\n        for (i = 0; i < orders.length; i++) {\n            orders[i].updateHash();\n            orders[i].updateBrokerAndInterceptor(ctx);\n        }\n\n        batchGetFilledAndCheckCancelled(ctx, orders);\n\n        for (i = 0; i < orders.length; i++) {\n            orders[i].check(ctx);\n            // An order can only be sent once\n            for (uint j = i + 1; j < orders.length; j++) {\n                require(orders[i].hash != orders[j].hash, INVALID_VALUE);\n            }\n        }\n\n        for (i = 0; i < rings.length; i++) {\n            rings[i].updateHash();\n        }\n\n        mining.updateHash(rings);\n        mining.updateMinerAndInterceptor();\n        require(mining.checkMinerSignature(), INVALID_SIG);\n\n        for (i = 0; i < orders.length; i++) {\n            // We don't need to verify the dual author signature again if it uses the same\n            // dual author address as the previous order (the miner can optimize the order of the orders\n            // so this happens as much as possible). We don't need to check if the signature is the same\n            // because the same mining hash is signed for all orders.\n            if(i > 0 && orders[i].dualAuthAddr == orders[i - 1].dualAuthAddr) {\n                continue;\n            }\n            orders[i].checkDualAuthSignature(mining.hash);\n        }\n\n        for (i = 0; i < rings.length; i++) {\n            Data.Ring memory ring = rings[i];\n            ring.checkOrdersValid();\n            ring.checkForSubRings();\n            ring.calculateFillAmountAndFee(ctx);\n            if (ring.valid) {\n                ring.adjustOrderStates();\n            }\n        }\n\n        // Check if the allOrNone orders are completely filled over all rings\n        // This can invalidate rings\n        checkRings(orders, rings);\n\n        for (i = 0; i < rings.length; i++) {\n            Data.Ring memory ring = rings[i];\n            if (ring.valid) {\n                // Only settle rings we have checked to be valid\n                ring.doPayments(ctx, mining);\n                emitRingMinedEvent(\n                    ring,\n                    ctx.ringIndex++,\n                    mining.feeRecipient\n                );\n            } else {\n                emit InvalidRing(ring.hash);\n            }\n        }\n\n        // Do all token transfers for all rings\n        batchTransferTokens(ctx);\n        // Do all fee payments for all rings\n        batchPayFees(ctx);\n        // Update all order stats\n        updateOrdersStats(ctx, orders);\n\n        // Update ringIndex while setting the highest bit of ringIndex back to '0'\n        ringIndex = ctx.ringIndex;\n    }\n\n    function checkRings(\n        Data.Order[] memory orders,\n        Data.Ring[] memory rings\n        )\n        internal\n        pure\n    {\n        // Check if allOrNone orders are completely filled\n        // When a ring is turned invalid because of an allOrNone order we have to\n        // recheck the other rings again because they may contain other allOrNone orders\n        // that may not be completely filled anymore.\n        bool reevaluateRings = true;\n        while (reevaluateRings) {\n            reevaluateRings = false;\n            for (uint i = 0; i < orders.length; i++) {\n                if (orders[i].valid) {\n                    orders[i].validateAllOrNone();\n                    // Check if the order valid status has changed\n                    reevaluateRings = reevaluateRings || !orders[i].valid;\n                }\n            }\n            if (reevaluateRings) {\n                for (uint i = 0; i < rings.length; i++) {\n                    Data.Ring memory ring = rings[i];\n                    if (ring.valid) {\n                        ring.checkOrdersValid();\n                        if (!ring.valid) {\n                            // If the ring was valid before the completely filled check we have to revert the filled amountS\n                            // of the orders in the ring. This is a bit awkward so maybe there's a better solution.\n                            ring.revertOrderStats();\n                        }\n                    }\n                }\n            }\n        }\n    }\n\n    function emitRingMinedEvent(\n        Data.Ring memory ring,\n        uint _ringIndex,\n        address feeRecipient\n        )\n        internal\n    {\n        bytes32 ringHash = ring.hash;\n        // keccak256(\"RingMined(uint256,bytes32,address,bytes)\")\n        bytes32 ringMinedSignature = 0xb2ef4bc5209dff0c46d5dfddb2b68a23bd4820e8f33107fde76ed15ba90695c9;\n        uint fillsSize = ring.size * 8 * 32;\n\n        uint data;\n        uint ptr;\n        assembly {\n            data := mload(0x40)\n            ptr := data\n            mstore(ptr, _ringIndex)                     // ring index data\n            mstore(add(ptr, 32), 0x40)                  // offset to fills data\n            mstore(add(ptr, 64), fillsSize)             // fills length\n            ptr := add(ptr, 96)\n        }\n        ptr = ring.generateFills(ptr);\n\n        assembly {\n            log3(\n                data,                                   // data start\n                sub(ptr, data),                         // data length\n                ringMinedSignature,                     // Topic 0: RingMined signature\n                ringHash,                               // Topic 1: ring hash\n                feeRecipient                            // Topic 2: feeRecipient\n            )\n        }\n    }\n\n    function setupLists(\n        Data.Context memory ctx,\n        Data.Order[] memory orders,\n        Data.Ring[] memory rings\n        )\n        internal\n        pure\n    {\n        setupTokenBurnRateList(ctx, orders);\n        setupFeePaymentList(ctx, rings);\n        setupTokenTransferList(ctx, rings);\n    }\n\n    function setupTokenBurnRateList(\n        Data.Context memory ctx,\n        Data.Order[] memory orders\n        )\n        internal\n        pure\n    {\n        // Allocate enough memory to store burn rates for all tokens even\n        // if every token is unique (max 2 unique tokens / order)\n        uint maxNumTokenBurnRates = orders.length * 2;\n        bytes32[] memory tokenBurnRates;\n        assembly {\n            tokenBurnRates := mload(0x40)\n            mstore(tokenBurnRates, 0)                               // tokenBurnRates.length\n            mstore(0x40, add(\n                tokenBurnRates,\n                add(32, mul(maxNumTokenBurnRates, 64))\n            ))\n        }\n        ctx.tokenBurnRates = tokenBurnRates;\n    }\n\n    function setupFeePaymentList(\n        Data.Context memory ctx,\n        Data.Ring[] memory rings\n        )\n        internal\n        pure\n    {\n        uint totalMaxSizeFeePayments = 0;\n        for (uint i = 0; i < rings.length; i++) {\n            // Up to (ringSize + 3) * 3 payments per order (because of fee sharing by miner)\n            // (3 x 32 bytes for every fee payment)\n            uint ringSize = rings[i].size;\n            uint maxSize = (ringSize + 3) * 3 * ringSize * 3;\n            totalMaxSizeFeePayments += maxSize;\n        }\n        // Store the data directly in the call data format as expected by batchAddFeeBalances:\n        // - 0x00: batchAddFeeBalances selector (4 bytes)\n        // - 0x04: parameter offset (batchAddFeeBalances has a single function parameter) (32 bytes)\n        // - 0x24: length of the array passed into the function (32 bytes)\n        // - 0x44: the array data (32 bytes x length)\n        bytes4 batchAddFeeBalancesSelector = ctx.feeHolder.batchAddFeeBalances.selector;\n        uint ptr;\n        assembly {\n            let data := mload(0x40)\n            mstore(data, batchAddFeeBalancesSelector)\n            mstore(add(data, 4), 32)\n            ptr := add(data, 68)\n            mstore(0x40, add(ptr, mul(totalMaxSizeFeePayments, 32)))\n        }\n        ctx.feeData = ptr;\n        ctx.feePtr = ptr;\n    }\n\n    function setupTokenTransferList(\n        Data.Context memory ctx,\n        Data.Ring[] memory rings\n        )\n        internal\n        pure\n    {\n        uint totalMaxSizeTransfers = 0;\n        for (uint i = 0; i < rings.length; i++) {\n            // Up to 4 transfers per order\n            // (4 x 32 bytes for every transfer)\n            uint maxSize = 4 * rings[i].size * 4;\n            totalMaxSizeTransfers += maxSize;\n        }\n        // Store the data directly in the call data format as expected by batchTransfer:\n        // - 0x00: batchTransfer selector (4 bytes)\n        // - 0x04: parameter offset (batchTransfer has a single function parameter) (32 bytes)\n        // - 0x24: length of the array passed into the function (32 bytes)\n        // - 0x44: the array data (32 bytes x length)\n        bytes4 batchTransferSelector = ctx.delegate.batchTransfer.selector;\n        uint ptr;\n        assembly {\n            let data := mload(0x40)\n            mstore(data, batchTransferSelector)\n            mstore(add(data, 4), 32)\n            ptr := add(data, 68)\n            mstore(0x40, add(ptr, mul(totalMaxSizeTransfers, 32)))\n        }\n        ctx.transferData = ptr;\n        ctx.transferPtr = ptr;\n    }\n\n    function updateOrdersStats(\n        Data.Context memory ctx,\n        Data.Order[] memory orders\n        )\n        internal\n    {\n        // Store the data directly in the call data format as expected by batchUpdateFilled:\n        // - 0x00: batchUpdateFilled selector (4 bytes)\n        // - 0x04: parameter offset (batchUpdateFilled has a single function parameter) (32 bytes)\n        // - 0x24: length of the array passed into the function (32 bytes)\n        // - 0x44: the array data (32 bytes x length)\n        // For every (valid) order we store 2 words:\n        // - order.hash\n        // - order.filledAmountS after all rings\n        bytes4 batchUpdateFilledSelector = ctx.tradeHistory.batchUpdateFilled.selector;\n        address _tradeHistoryAddress = address(ctx.tradeHistory);\n        assembly {\n            let data := mload(0x40)\n            mstore(data, batchUpdateFilledSelector)\n            mstore(add(data, 4), 32)\n            let ptr := add(data, 68)\n            let arrayLength := 0\n            for { let i := 0 } lt(i, mload(orders)) { i := add(i, 1) } {\n                let order := mload(add(orders, mul(add(i, 1), 32)))\n                let filledAmount := mload(add(order, 928))                               // order.filledAmountS\n                let initialFilledAmount := mload(add(order, 960))                        // order.initialFilledAmountS\n                let filledAmountChanged := iszero(eq(filledAmount, initialFilledAmount))\n                // if (order.valid && filledAmountChanged)\n                if and(gt(mload(add(order, 992)), 0), filledAmountChanged) {             // order.valid\n                    mstore(add(ptr,   0), mload(add(order, 864)))                        // order.hash\n                    mstore(add(ptr,  32), filledAmount)\n\n                    ptr := add(ptr, 64)\n                    arrayLength := add(arrayLength, 2)\n                }\n            }\n\n            // Only do the external call if the list is not empty\n            if gt(arrayLength, 0) {\n                mstore(add(data, 36), arrayLength)      // filledInfo.length\n\n                let success := call(\n                    gas,                                // forward all gas\n                    _tradeHistoryAddress,               // external address\n                    0,                                  // wei\n                    data,                               // input start\n                    sub(ptr, data),                     // input length\n                    data,                               // output start\n                    0                                   // output length\n                )\n                if eq(success, 0) {\n                    // Propagate the revert message\n                    returndatacopy(0, 0, returndatasize())\n                    revert(0, returndatasize())\n                }\n            }\n        }\n    }\n\n    function batchGetFilledAndCheckCancelled(\n        Data.Context memory ctx,\n        Data.Order[] memory orders\n        )\n        internal\n    {\n        // Store the data in the call data format as expected by batchGetFilledAndCheckCancelled:\n        // - 0x00: batchGetFilledAndCheckCancelled selector (4 bytes)\n        // - 0x04: parameter offset (batchGetFilledAndCheckCancelled has a single function parameter) (32 bytes)\n        // - 0x24: length of the array passed into the function (32 bytes)\n        // - 0x44: the array data (32 bytes x length)\n        // For every order we store 5 words:\n        // - order.broker\n        // - order.owner\n        // - order.hash\n        // - order.validSince\n        // - The trading pair of the order: order.tokenS ^ order.tokenB\n        bytes4 batchGetFilledAndCheckCancelledSelector = ctx.tradeHistory.batchGetFilledAndCheckCancelled.selector;\n        address _tradeHistoryAddress = address(ctx.tradeHistory);\n        assembly {\n            let data := mload(0x40)\n            mstore(data, batchGetFilledAndCheckCancelledSelector)\n            mstore(add(data,  4), 32)\n            mstore(add(data, 36), mul(mload(orders), 5))                // orders.length\n            let ptr := add(data, 68)\n            for { let i := 0 } lt(i, mload(orders)) { i := add(i, 1) } {\n                let order := mload(add(orders, mul(add(i, 1), 32)))     // orders[i]\n                mstore(add(ptr,   0), mload(add(order, 320)))           // order.broker\n                mstore(add(ptr,  32), mload(add(order,  32)))           // order.owner\n                mstore(add(ptr,  64), mload(add(order, 864)))           // order.hash\n                mstore(add(ptr,  96), mload(add(order, 192)))           // order.validSince\n                // bytes20(order.tokenS) ^ bytes20(order.tokenB)        // tradingPair\n                mstore(add(ptr, 128), mul(\n                    xor(\n                        mload(add(order, 64)),                 // order.tokenS\n                        mload(add(order, 96))                  // order.tokenB\n                    ),\n                    0x1000000000000000000000000)               // shift left 12 bytes (bytes20 is padded on the right)\n                )\n                ptr := add(ptr, 160)                                    // 5 * 32\n            }\n            // Return data is stored just like the call data without the signature:\n            // 0x00: Offset to data\n            // 0x20: Array length\n            // 0x40: Array data\n            let returnDataSize := mul(add(2, mload(orders)), 32)\n            let success := call(\n                gas,                                // forward all gas\n                _tradeHistoryAddress,               // external address\n                0,                                  // wei\n                data,                               // input start\n                sub(ptr, data),                     // input length\n                data,                               // output start\n                returnDataSize                      // output length\n            )\n            // Check if the call was successful and the return data is the expected size\n            if or(eq(success, 0), iszero(eq(returndatasize(), returnDataSize))) {\n                if eq(success, 0) {\n                    // Propagate the revert message\n                    returndatacopy(0, 0, returndatasize())\n                    revert(0, returndatasize())\n                }\n                revert(0, 0)\n            }\n            for { let i := 0 } lt(i, mload(orders)) { i := add(i, 1) } {\n                let order := mload(add(orders, mul(add(i, 1), 32)))     // orders[i]\n                let fill := mload(add(data,  mul(add(i, 2), 32)))       // fills[i]\n                mstore(add(order, 928), fill)                           // order.filledAmountS\n                mstore(add(order, 960), fill)                           // order.initialFilledAmountS\n                // If fills[i] == ~uint(0) the order was cancelled\n                // order.valid = order.valid && (order.filledAmountS != ~uint(0))\n                mstore(add(order, 992),                                 // order.valid\n                    and(\n                        gt(mload(add(order, 992)), 0),                  // order.valid\n                        iszero(eq(fill, not(0)))                        // fill != ~uint(0\n                    )\n                )\n            }\n        }\n    }\n\n    function batchTransferTokens(\n        Data.Context memory ctx\n        )\n        internal\n    {\n        // Check if there are any transfers\n        if (ctx.transferData == ctx.transferPtr) {\n            return;\n        }\n        // We stored the token transfers in the call data as expected by batchTransfer.\n        // The only thing we still need to do is update the final length of the array and call\n        // the function on the TradeDelegate contract with the generated data.\n        address _tradeDelegateAddress = address(ctx.delegate);\n        uint arrayLength = (ctx.transferPtr - ctx.transferData) / 32;\n        uint data = ctx.transferData - 68;\n        uint ptr = ctx.transferPtr;\n        assembly {\n            mstore(add(data, 36), arrayLength)      // batch.length\n\n            let success := call(\n                gas,                                // forward all gas\n                _tradeDelegateAddress,              // external address\n                0,                                  // wei\n                data,                               // input start\n                sub(ptr, data),                     // input length\n                data,                               // output start\n                0                                   // output length\n            )\n            if eq(success, 0) {\n                // Propagate the revert message\n                returndatacopy(0, 0, returndatasize())\n                revert(0, returndatasize())\n            }\n        }\n    }\n\n    function batchPayFees(\n        Data.Context memory ctx\n        )\n        internal\n    {\n        // Check if there are any fee payments\n        if (ctx.feeData == ctx.feePtr) {\n            return;\n        }\n        // We stored the fee payments in the call data as expected by batchAddFeeBalances.\n        // The only thing we still need to do is update the final length of the array and call\n        // the function on the FeeHolder contract with the generated data.\n        address _feeHolderAddress = address(ctx.feeHolder);\n        uint arrayLength = (ctx.feePtr - ctx.feeData) / 32;\n        uint data = ctx.feeData - 68;\n        uint ptr = ctx.feePtr;\n        assembly {\n            mstore(add(data, 36), arrayLength)      // batch.length\n\n            let success := call(\n                gas,                                // forward all gas\n                _feeHolderAddress,                  // external address\n                0,                                  // wei\n                data,                               // input start\n                sub(ptr, data),                     // input length\n                data,                               // output start\n                0                                   // output length\n            )\n            if eq(success, 0) {\n                // Propagate the revert message\n                returndatacopy(0, 0, returndatasize())\n                revert(0, returndatasize())\n            }\n        }\n    }\n\n}\n",
  "sourcePath": "/usr/local/klzhong/workspace/loopring/protocol2/contracts/impl/RingSubmitter.sol",
  "compiler": {
    "name": "solc",
    "version": "0.5.2+commit.1df8f40c.Emscripten.clang"
  },
  "schemaVersion": "3.0.0",
  "updatedAt": "2019-03-19T09:16:27.496Z",
  "devdoc": {
    "author": "Daniel Wang - <daniel@loopring.org>,Kongliang Zhong - <kongliang@loopring.org>Brechtpd - <brecht@loopring.org> Recognized contributing developers from the community:     https://github.com/rainydio     https://github.com/BenjaminPrice     https://github.com/jonasshen     https://github.com/Hephyrius",
    "methods": {},
    "title": "An Implementation of IRingSubmitter."
  },
  "userdoc": {
    "methods": {}
  }
}