{
  "contractName": "TransferableMultsig",
  "abi": [
    {
      "constant": true,
      "inputs": [
        {
          "name": "",
          "type": "uint256"
        }
      ],
      "name": "owners",
      "outputs": [
        {
          "name": "",
          "type": "address"
        }
      ],
      "payable": false,
      "stateMutability": "view",
      "type": "function"
    },
    {
      "constant": true,
      "inputs": [],
      "name": "threshold",
      "outputs": [
        {
          "name": "",
          "type": "uint256"
        }
      ],
      "payable": false,
      "stateMutability": "view",
      "type": "function"
    },
    {
      "constant": true,
      "inputs": [],
      "name": "nonce",
      "outputs": [
        {
          "name": "",
          "type": "uint256"
        }
      ],
      "payable": false,
      "stateMutability": "view",
      "type": "function"
    },
    {
      "inputs": [
        {
          "name": "_threshold",
          "type": "uint256"
        },
        {
          "name": "_owners",
          "type": "address[]"
        }
      ],
      "payable": false,
      "stateMutability": "nonpayable",
      "type": "constructor"
    },
    {
      "payable": true,
      "stateMutability": "payable",
      "type": "fallback"
    },
    {
      "constant": false,
      "inputs": [
        {
          "name": "sigV",
          "type": "uint8[]"
        },
        {
          "name": "sigR",
          "type": "bytes32[]"
        },
        {
          "name": "sigS",
          "type": "bytes32[]"
        },
        {
          "name": "destination",
          "type": "address"
        },
        {
          "name": "value",
          "type": "uint256"
        },
        {
          "name": "data",
          "type": "bytes"
        }
      ],
      "name": "execute",
      "outputs": [],
      "payable": false,
      "stateMutability": "nonpayable",
      "type": "function"
    },
    {
      "constant": false,
      "inputs": [
        {
          "name": "sigV",
          "type": "uint8[]"
        },
        {
          "name": "sigR",
          "type": "bytes32[]"
        },
        {
          "name": "sigS",
          "type": "bytes32[]"
        },
        {
          "name": "_threshold",
          "type": "uint256"
        },
        {
          "name": "_owners",
          "type": "address[]"
        }
      ],
      "name": "transferOwnership",
      "outputs": [],
      "payable": false,
      "stateMutability": "nonpayable",
      "type": "function"
    }
  ],
  "bytecode": "0x60806040523480156200001157600080fd5b50604051620016d3380380620016d3833981018060405260408110156200003757600080fd5b8151602083018051919392830192916401000000008111156200005957600080fd5b820160208101848111156200006d57600080fd5b81518560208202830111640100000000821117156200008b57600080fd5b5050929190505050620000ae8282620000b6640100000000026401000000009004565b505062000567565b805160408051808201909152600c81527f494e56414c49445f53495a450000000000000000000000000000000000000000602082015290600a101562000197576040517f08c379a00000000000000000000000000000000000000000000000000000000081526004018080602001828103825283818151815260200191508051906020019080838360005b838110156200015b57818101518382015260200162000141565b50505050905090810190601f168015620001895780820380516001836020036101000a031916815260200191505b509250505060405180910390fd5b50805160408051808201909152600c81527f494e56414c49445f53495a4500000000000000000000000000000000000000006020820152908311156200023b576040517f08c379a0000000000000000000000000000000000000000000000000000000008152600401808060200182810382528381815181526020019150805190602001908083836000838110156200015b57818101518382015260200162000141565b5060408051808201909152600d81527f494e56414c49445f56414c5545000000000000000000000000000000000000006020820152821515620002dc576040517f08c379a0000000000000000000000000000000000000000000000000000000008152600401808060200182810382528381815181526020019150805190602001908083836000838110156200015b57818101518382015260200162000141565b50606060038054806020026020016040519081016040528092919081815260200182805480156200033757602002820191906000526020600020905b8154600160a060020a0316815260019091019060200180831162000318575b50939450600093505050505b81518110156200039d5760006002600084848151811015156200036257fe5b602090810291909101810151600160a060020a03168252810191909152604001600020805460ff191691151591909117905560010162000343565b506000805b8351811015620004b15760008482815181101515620003bd57fe5b90602001906020020151905082600160a060020a031681600160a060020a0316116040805190810160405280600f81526020017f494e56414c49445f41444452455353000000000000000000000000000000000081525090151562000480576040517f08c379a0000000000000000000000000000000000000000000000000000000008152600401808060200182810382528381815181526020019150805190602001908083836000838110156200015b57818101518382015260200162000141565b50600160a060020a0381166000908152600260205260409020805460ff1916600190811790915590925001620003a2565b508251620004c7906003906020860190620004d3565b50505060019190915550565b8280548282559060005260206000209081019282156200052b579160200282015b828111156200052b5782518254600160a060020a031916600160a060020a03909116178255602090920191600190910190620004f4565b50620005399291506200053d565b5090565b6200056491905b8082111562000539578054600160a060020a031916815560010162000544565b90565b61115c80620005776000396000f3fe608060405260043610610077576000357c010000000000000000000000000000000000000000000000000000000090048063affed0e011610060578063affed0e0146100f3578063e01060f814610108578063f12d394f1461027f57610077565b8063025e7c271461007957806342cde4e8146100cc575b005b34801561008557600080fd5b506100a36004803603602081101561009c57600080fd5b5035610414565b6040805173ffffffffffffffffffffffffffffffffffffffff9092168252519081900360200190f35b3480156100d857600080fd5b506100e1610449565b60408051918252519081900360200190f35b3480156100ff57600080fd5b506100e161044f565b34801561011457600080fd5b50610077600480360360a081101561012b57600080fd5b81019060208101813564010000000081111561014657600080fd5b82018360208201111561015857600080fd5b8035906020019184602083028401116401000000008311171561017a57600080fd5b91939092909160208101903564010000000081111561019857600080fd5b8201836020820111156101aa57600080fd5b803590602001918460208302840111640100000000831117156101cc57600080fd5b9193909290916020810190356401000000008111156101ea57600080fd5b8201836020820111156101fc57600080fd5b8035906020019184602083028401116401000000008311171561021e57600080fd5b9193909282359260408101906020013564010000000081111561024057600080fd5b82018360208201111561025257600080fd5b8035906020019184602083028401116401000000008311171561027457600080fd5b509092509050610455565b34801561028b57600080fd5b50610077600480360360c08110156102a257600080fd5b8101906020810181356401000000008111156102bd57600080fd5b8201836020820111156102cf57600080fd5b803590602001918460208302840111640100000000831117156102f157600080fd5b91939092909160208101903564010000000081111561030f57600080fd5b82018360208201111561032157600080fd5b8035906020019184602083028401116401000000008311171561034357600080fd5b91939092909160208101903564010000000081111561036157600080fd5b82018360208201111561037357600080fd5b8035906020019184602083028401116401000000008311171561039557600080fd5b9193909273ffffffffffffffffffffffffffffffffffffffff8335169260208101359291906060810190604001356401000000008111156103d557600080fd5b8201836020820111156103e757600080fd5b8035906020019184600183028401116401000000008311171561040957600080fd5b5090925090506105e1565b600380548290811061042257fe5b60009182526020909120015473ffffffffffffffffffffffffffffffffffffffff16905081565b60015481565b60005481565b600080546001810182556040517f1900000000000000000000000000000000000000000000000000000000000000602080830182815260218401869052306c010000000000000000000000008102602286015260368501869052605685018a90529294869490928a928a928a926076909101908490840280828437808301925050509750505050505050506040516020818303038152906040528051906020012090506105988a8a8080602002602001604051908101604052809392919081815260200183836020028082843760009201919091525050604080516020808e0282810182019093528d82529093508d92508c91829185019084908082843760009201919091525050604080516020808d0282810182019093528c82529093508c92508b918291850190849080828437600092019190915250879250610832915050565b6105d584848480806020026020016040519081016040528093929190818152602001838360200280828437600092019190915250610c2092505050565b50505050505050505050565b600080546001810182556040517f19000000000000000000000000000000000000000000000000000000000000006020820181815260218301859052306c0100000000000000000000000081810260228601526036850186905273ffffffffffffffffffffffffffffffffffffffff8b16026056850152606a84018990529193859390918a918a918a918a9190608a0183838082843780830192505050985050505050505050506040516020818303038152906040528051906020012090506107408b8b8080602002602001604051908101604052809392919081815260200183836020028082843760009201919091525050604080516020808f0282810182019093528e82529093508e92508d91829185019084908082843760009201919091525050604080516020808e0282810182019093528d82529093508d92508c918291850190849080828437600092019190915250879250610832915050565b60008573ffffffffffffffffffffffffffffffffffffffff16858585604051808383808284376040519201945060009350909150508083038185875af1925050503d80600081146107ad576040519150601f19603f3d011682016040523d82523d6000602084013e6107b2565b606091505b5050905080151561082457604080517f08c379a000000000000000000000000000000000000000000000000000000000815260206004820152600f60248201527f657865637574696f6e206572726f720000000000000000000000000000000000604482015290519081900360640190fd5b505050505050505050505050565b600154835160408051808201909152600c81527f494e56414c49445f53495a4500000000000000000000000000000000000000006020820152908214610910576040517f08c379a00000000000000000000000000000000000000000000000000000000081526004018080602001828103825283818151815260200191508051906020019080838360005b838110156108d55781810151838201526020016108bd565b50505050905090810190601f1680156109025780820380516001836020036101000a031916815260200191505b509250505060405180910390fd5b50825160408051808201909152600c81527f494e56414c49445f53495a45000000000000000000000000000000000000000060208201529082146109b0576040517f08c379a0000000000000000000000000000000000000000000000000000000008152600401808060200182810382528381815181526020019150805190602001908083836000838110156108d55781810151838201526020016108bd565b50845160408051808201909152600c81527f494e56414c49445f53495a4500000000000000000000000000000000000000006020820152908214610a50576040517f08c379a0000000000000000000000000000000000000000000000000000000008152600401808060200182810382528381815181526020019150805190602001908083836000838110156108d55781810151838201526020016108bd565b506000805b600154811015610c175760006001858984815181101515610a7257fe5b906020019060200201518985815181101515610a8a57fe5b906020019060200201518986815181101515610aa257fe5b9060200190602002015160405160008152602001604052604051808581526020018460ff1660ff1681526020018381526020018281526020019450505050506020604051602081039080840390855afa158015610b03573d6000803e3d6000fd5b5050506020604051035190508273ffffffffffffffffffffffffffffffffffffffff168173ffffffffffffffffffffffffffffffffffffffff16118015610b6f575073ffffffffffffffffffffffffffffffffffffffff811660009081526002602052604090205460ff165b60408051808201909152600f81527f494e56414c49445f4144445245535300000000000000000000000000000000006020820152901515610c0c576040517f08c379a0000000000000000000000000000000000000000000000000000000008152600401808060200182810382528381815181526020019150805190602001908083836000838110156108d55781810151838201526020016108bd565b509150600101610a55565b50505050505050565b805160408051808201909152600c81527f494e56414c49445f53495a450000000000000000000000000000000000000000602082015290600a1015610cc1576040517f08c379a0000000000000000000000000000000000000000000000000000000008152600401808060200182810382528381815181526020019150805190602001908083836000838110156108d55781810151838201526020016108bd565b50805160408051808201909152600c81527f494e56414c49445f53495a450000000000000000000000000000000000000000602082015290831115610d62576040517f08c379a0000000000000000000000000000000000000000000000000000000008152600401808060200182810382528381815181526020019150805190602001908083836000838110156108d55781810151838201526020016108bd565b5060408051808201909152600d81527f494e56414c49445f56414c5545000000000000000000000000000000000000006020820152821515610e00576040517f08c379a0000000000000000000000000000000000000000000000000000000008152600401808060200182810382528381815181526020019150805190602001908083836000838110156108d55781810151838201526020016108bd565b5060606003805480602002602001604051908101604052809291908181526020018280548015610e6657602002820191906000526020600020905b815473ffffffffffffffffffffffffffffffffffffffff168152600190910190602001808311610e3b575b50939450600093505050505b8151811015610ef4576000600260008484815181101515610e8f57fe5b60209081029190910181015173ffffffffffffffffffffffffffffffffffffffff16825281019190915260400160002080547fffffffffffffffffffffffffffffffffffffffffffffffffffffffffffffff0016911515919091179055600101610e72565b506000805b83518110156110475760008482815181101515610f1257fe5b9060200190602002015190508273ffffffffffffffffffffffffffffffffffffffff168173ffffffffffffffffffffffffffffffffffffffff16116040805190810160405280600f81526020017f494e56414c49445f414444524553530000000000000000000000000000000000815250901515610fec576040517f08c379a0000000000000000000000000000000000000000000000000000000008152600401808060200182810382528381815181526020019150805190602001908083836000838110156108d55781810151838201526020016108bd565b5073ffffffffffffffffffffffffffffffffffffffff8116600090815260026020526040902080547fffffffffffffffffffffffffffffffffffffffffffffffffffffffffffffff0016600190811790915590925001610ef9565b50825161105b906003906020860190611067565b50505060019190915550565b8280548282559060005260206000209081019282156110e1579160200282015b828111156110e157825182547fffffffffffffffffffffffff00000000000000000000000000000000000000001673ffffffffffffffffffffffffffffffffffffffff909116178255602090920191600190910190611087565b506110ed9291506110f1565b5090565b61112d91905b808211156110ed5780547fffffffffffffffffffffffff00000000000000000000000000000000000000001681556001016110f7565b9056fea165627a7a72305820410d0fbb2643b48ec06caaf477d804c7b9314404ab43c9c6345eb77c97ffa84f0029",
  "source": "/*\n\n  Copyright 2017 Loopring Project Ltd (Loopring Foundation).\n\n  Licensed under the Apache License, Version 2.0 (the \"License\");\n  you may not use this file except in compliance with the License.\n  You may obtain a copy of the License at\n\n  http://www.apache.org/licenses/LICENSE-2.0\n\n  Unless required by applicable law or agreed to in writing, software\n  distributed under the License is distributed on an \"AS IS\" BASIS,\n  WITHOUT WARRANTIES OR CONDITIONS OF ANY KIND, either express or implied.\n  See the License for the specific language governing permissions and\n  limitations under the License.\n*/\npragma solidity 0.5.2;\n\nimport \"../iface/Errors.sol\";\nimport \"./ITransferableMultsig.sol\";\n\n\n/// @title An Implementation of ITransferableMultsig\n/// @author Daniel Wang - <daniel@loopring.org>.\ncontract TransferableMultsig is ITransferableMultsig, Errors {\n\n    uint public nonce;                  // (only) mutable state\n    uint public threshold;              // immutable state\n    mapping (address => bool) ownerMap; // immutable state\n    address[] public owners;            // immutable state\n\n    constructor(\n        uint             _threshold,\n        address[] memory _owners\n        )\n        public\n    {\n        updateOwners(_threshold, _owners);\n    }\n\n    // default function does nothing.\n    function ()\n        external\n        payable\n    {\n    }\n\n    function execute(\n        uint8[] calldata   sigV,\n        bytes32[] calldata sigR,\n        bytes32[] calldata sigS,\n        address            destination,\n        uint               value,\n        bytes calldata     data\n        )\n        external\n    {\n        // Follows ERC191 signature scheme:\n        //    https://github.com/ethereum/EIPs/issues/191\n        bytes32 txHash = keccak256(\n            abi.encodePacked(\n                byte(0x19),\n                byte(0),\n                this,\n                nonce++,\n                destination,\n                value,\n                data\n            )\n        );\n\n        verifySignatures(\n            sigV,\n            sigR,\n            sigS,\n            txHash\n        );\n\n        (bool success, ) = destination.call.value(value)(data);\n        require(success, \"execution error\");\n    }\n\n    function transferOwnership(\n        uint8[] calldata   sigV,\n        bytes32[] calldata sigR,\n        bytes32[] calldata sigS,\n        uint               _threshold,\n        address[] calldata _owners\n        )\n        external\n    {\n        // Follows ERC191 signature scheme:\n        //    https://github.com/ethereum/EIPs/issues/191\n        bytes32 txHash = keccak256(\n            abi.encodePacked(\n                byte(0x19),\n                byte(0),\n                this,\n                nonce++,\n                _threshold,\n                _owners\n            )\n        );\n\n        verifySignatures(\n            sigV,\n            sigR,\n            sigS,\n            txHash\n        );\n        updateOwners(_threshold, _owners);\n    }\n\n    function verifySignatures(\n        uint8[] memory   sigV,\n        bytes32[] memory sigR,\n        bytes32[] memory sigS,\n        bytes32          txHash\n        )\n        internal\n        view\n    {\n        uint _threshold = threshold;\n        require(_threshold == sigR.length, INVALID_SIZE);\n        require(_threshold == sigS.length, INVALID_SIZE);\n        require(_threshold == sigV.length, INVALID_SIZE);\n\n        address lastAddr = address(0x0); // cannot have 0x0 as an owner\n        for (uint i = 0; i < threshold; i++) {\n            address recovered = ecrecover(\n                txHash,\n                sigV[i],\n                sigR[i],\n                sigS[i]\n            );\n\n            require(recovered > lastAddr && ownerMap[recovered], INVALID_ADDRESS);\n            lastAddr = recovered;\n        }\n    }\n\n    function updateOwners(\n        uint             _threshold,\n        address[] memory _owners\n        )\n        internal\n    {\n        require(_owners.length <= 10, INVALID_SIZE);\n        require(_threshold <= _owners.length, INVALID_SIZE);\n        require(_threshold != 0, INVALID_VALUE);\n\n        // remove all current owners from ownerMap.\n        address[] memory currentOwners = owners;\n        for (uint i = 0; i < currentOwners.length; i++) {\n            ownerMap[currentOwners[i]] = false;\n        }\n\n        address lastAddr = address(0x0);\n        for (uint i = 0; i < _owners.length; i++) {\n            address owner = _owners[i];\n            require(owner > lastAddr, INVALID_ADDRESS);\n\n            ownerMap[owner] = true;\n            lastAddr = owner;\n        }\n        owners = _owners;\n        threshold = _threshold;\n    }\n}\n",
  "sourcePath": "/usr/local/klzhong/workspace/loopring/protocol2/contracts/lib/TransferableMultsig.sol",
  "compiler": {
    "name": "solc",
    "version": "0.5.2+commit.1df8f40c.Emscripten.clang"
  },
  "schemaVersion": "3.0.0",
  "updatedAt": "2019-03-19T09:16:27.512Z",
  "devdoc": {
    "author": "Daniel Wang - <daniel@loopring.org>.",
    "methods": {},
    "title": "An Implementation of ITransferableMultsig"
  },
  "userdoc": {
    "methods": {}
  }
}