{
  "contractName": "Voting",
  "abi": [
    {
      "constant": true,
      "inputs": [
        {
          "name": "",
          "type": "bytes32"
        }
      ],
      "name": "votesReceived",
      "outputs": [
        {
          "name": "",
          "type": "uint256"
        }
      ],
      "payable": false,
      "stateMutability": "view",
      "type": "function"
    },
    {
      "constant": true,
      "inputs": [
        {
          "name": "",
          "type": "address"
        }
      ],
      "name": "voteFlag",
      "outputs": [
        {
          "name": "",
          "type": "bool"
        }
      ],
      "payable": false,
      "stateMutability": "view",
      "type": "function"
    },
    {
      "constant": true,
      "inputs": [
        {
          "name": "",
          "type": "uint256"
        }
      ],
      "name": "candidateList",
      "outputs": [
        {
          "name": "",
          "type": "bytes32"
        }
      ],
      "payable": false,
      "stateMutability": "view",
      "type": "function"
    },
    {
      "inputs": [
        {
          "name": "candidateNames",
          "type": "bytes32[]"
        }
      ],
      "payable": false,
      "stateMutability": "nonpayable",
      "type": "constructor"
    },
    {
      "constant": true,
      "inputs": [
        {
          "name": "candidate",
          "type": "bytes32"
        }
      ],
      "name": "totalVotesFor",
      "outputs": [
        {
          "name": "",
          "type": "uint256"
        }
      ],
      "payable": false,
      "stateMutability": "view",
      "type": "function"
    },
    {
      "constant": false,
      "inputs": [
        {
          "name": "candidate",
          "type": "bytes32"
        }
      ],
      "name": "voteForCandidate",
      "outputs": [],
      "payable": false,
      "stateMutability": "nonpayable",
      "type": "function"
    },
    {
      "constant": true,
      "inputs": [
        {
          "name": "candidate",
          "type": "bytes32"
        }
      ],
      "name": "validCandidate",
      "outputs": [
        {
          "name": "",
          "type": "bool"
        }
      ],
      "payable": false,
      "stateMutability": "view",
      "type": "function"
    },
    {
      "constant": true,
      "inputs": [],
      "name": "getCandidateList",
      "outputs": [
        {
          "name": "",
          "type": "bytes32[]"
        }
      ],
      "payable": false,
      "stateMutability": "view",
      "type": "function"
    }
  ],
  "bytecode": "0x608060405260028054600160a060020a03191673ef68e7c694f40c8202821edf525de3782458639f17905534801561003657600080fd5b506040516107743803806107748339810180604052602081101561005957600080fd5b81019080805164010000000081111561007157600080fd5b8201602081018481111561008457600080fd5b81518560208202830111640100000000821117156100a157600080fd5b505080519093506100bb92506003915060208401906100c2565b505061012a565b8280548282559060005260206000209081019282156100fd579160200282015b828111156100fd5782518255916020019190600101906100e2565b5061010992915061010d565b5090565b61012791905b808211156101095760008155600101610113565b90565b61063b806101396000396000f3fe608060405234801561001057600080fd5b506004361061009a576000357c0100000000000000000000000000000000000000000000000000000000900480639961282d116100785780639961282d1461011c578063b13c744b1461014f578063cc9ab2671461016c578063fdbc40061461018b5761009a565b80632f265cf71461009f578063392e6678146100ce5780637021939f146100ff575b600080fd5b6100bc600480360360208110156100b557600080fd5b50356101e3565b60408051918252519081900360200190f35b6100eb600480360360208110156100e457600080fd5b50356102de565b604080519115158252519081900360200190f35b6100bc6004803603602081101561011557600080fd5b5035610328565b6100eb6004803603602081101561013257600080fd5b503573ffffffffffffffffffffffffffffffffffffffff1661033a565b6100bc6004803603602081101561016557600080fd5b503561034f565b6101896004803603602081101561018257600080fd5b503561036e565b005b6101936105b7565b60408051602080825283518183015283519192839290830191858101910280838360005b838110156101cf5781810151838201526020016101b7565b505050509050019250505060405180910390f35b60006101ee826102de565b60408051808201909152601181527f494e56414c49445f43414e44494441544500000000000000000000000000000060208201529015156102c7576040517f08c379a00000000000000000000000000000000000000000000000000000000081526004018080602001828103825283818151815260200191508051906020019080838360005b8381101561028c578181015183820152602001610274565b50505050905090810190601f1680156102b95780820380516001836020036101000a031916815260200191505b509250505060405180910390fd5b50506000818152602081905260409020545b919050565b6000805b60035481101561031f57826003828154811015156102fc57fe5b906000526020600020015414156103175760019150506102d9565b6001016102e2565b50600092915050565b60006020819052908152604090205481565b60016020526000908152604090205460ff1681565b600380548290811061035d57fe5b600091825260209091200154905081565b610377816102de565b60408051808201909152601181527f494e56414c49445f43414e4449444154450000000000000000000000000000006020820152901515610414576040517f08c379a00000000000000000000000000000000000000000000000000000000081526004018080602001828103825283818151815260200191508051906020019080838360008381101561028c578181015183820152602001610274565b5033600090815260016020818152604092839020548351808501909452600d84527f414c52454144595f564f544544000000000000000000000000000000000000009184019190915260ff16151514156104ca576040517f08c379a00000000000000000000000000000000000000000000000000000000081526004018080602001828103825283818151815260200191508051906020019080838360008381101561028c578181015183820152602001610274565b50600254604080517f70a08231000000000000000000000000000000000000000000000000000000008152336004820152905160009273ffffffffffffffffffffffffffffffffffffffff16916370a08231916024808301926020929190829003018186803b15801561053c57600080fd5b505afa158015610550573d6000803e3d6000fd5b505050506040513d602081101561056657600080fd5b50516000928352602083815260408085208054909301909255338452600190819052922080547fffffffffffffffffffffffffffffffffffffffffffffffffffffffffffffff001690921790915550565b6060600380548060200260200160405190810160405280929190818152602001828054801561060557602002820191906000526020600020905b8154815260200190600101908083116105f1575b505050505090509056fea165627a7a7230582076a01e8ef527197c662fc65f9a7d115dece34d9a20b0e52ded45eb635e9242a90029",
  "source": "pragma solidity 0.5.2;\n\nimport \"../lib/ERC20.sol\";\nimport \"../iface/Errors.sol\";\n\n\ncontract Voting is Errors {\n    /*\n    The key of the mapping is candidate name stored as type bytes32 and value is\n    an unsigned integer which used to store the vote count\n    */\n    mapping (bytes32 => uint256) public votesReceived;\n\n    mapping (address => bool) public voteFlag;\n\n    address lrcAddress = 0xEF68e7C694F40c8202821eDF525dE3782458639f;\n\n    bytes32[] public candidateList;\n\n    constructor(\n        bytes32[] memory candidateNames\n        )\n        public\n    {\n        candidateList = candidateNames;\n    }\n\n    function totalVotesFor(\n        bytes32 candidate\n        )\n        public\n        view\n        returns (uint256)\n    {\n        require(validCandidate(candidate), INVALID_CANDIDATE);\n\n        return votesReceived[candidate];\n    }\n\n    function voteForCandidate(\n        bytes32 candidate\n        )\n        public\n    {\n        require(validCandidate(candidate), INVALID_CANDIDATE);\n        require(voteFlag[msg.sender] != true, ALREADY_VOTED);\n\n        uint256 balance = ERC20(lrcAddress).balanceOf(msg.sender);\n        votesReceived[candidate] += balance;\n        voteFlag[msg.sender] = true;\n    }\n\n    function validCandidate(\n        bytes32 candidate\n        )\n        public\n        view\n        returns (bool)\n    {\n        for(uint i = 0; i < candidateList.length; i++) {\n            if (candidateList[i] == candidate) {\n                return true;\n            }\n        }\n\n        return false;\n    }\n\n    // This function returns the list of candidates.\n    function getCandidateList()\n        public\n        view\n        returns (bytes32[] memory)\n    {\n        return candidateList;\n    }\n}\n",
  "sourcePath": "/usr/local/klzhong/workspace/loopring/protocol2/contracts/impl/Voting.sol",
  "compiler": {
    "name": "solc",
    "version": "0.5.2+commit.1df8f40c.Emscripten.clang"
  },
  "schemaVersion": "3.0.0",
  "updatedAt": "2019-03-19T09:16:27.503Z",
  "devdoc": {
    "methods": {}
  },
  "userdoc": {
    "methods": {}
  }
}