{
  "_format": "hh-sol-artifact-1",
  "contractName": "RecoveryModule",
  "sourceName": "contracts/version2_0/modules/RecoveryModule.sol",
  "abi": [
    {
      "anonymous": false,
      "inputs": [
        {
          "indexed": false,
          "internalType": "address",
          "name": "prevOwner",
          "type": "address"
        },
        {
          "indexed": false,
          "internalType": "address",
          "name": "newOwner",
          "type": "address"
        }
      ],
      "name": "OwnerChanged",
      "type": "event"
    },
    {
      "inputs": [],
      "name": "RECOVER_TYPEHASH",
      "outputs": [
        {
          "internalType": "bytes32",
          "name": "",
          "type": "bytes32"
        }
      ],
      "stateMutability": "view",
      "type": "function"
    },
    {
      "inputs": [],
      "name": "TOUCH_GRACE_PERIOD",
      "outputs": [
        {
          "internalType": "uint256",
          "name": "",
          "type": "uint256"
        }
      ],
      "stateMutability": "view",
      "type": "function"
    },
    {
      "inputs": [],
      "name": "bindableMethods",
      "outputs": [
        {
          "internalType": "bytes4[]",
          "name": "methods",
          "type": "bytes4[]"
        }
      ],
      "stateMutability": "pure",
      "type": "function"
    },
    {
      "inputs": [
        {
          "internalType": "address",
          "name": "newOwner",
          "type": "address"
        }
      ],
      "name": "initOwner",
      "outputs": [],
      "stateMutability": "nonpayable",
      "type": "function"
    },
    {
      "inputs": [
        {
          "components": [
            {
              "internalType": "address[]",
              "name": "signers",
              "type": "address[]"
            },
            {
              "internalType": "bytes[]",
              "name": "signatures",
              "type": "bytes[]"
            },
            {
              "internalType": "uint256",
              "name": "validUntil",
              "type": "uint256"
            }
          ],
          "internalType": "struct SignedRequest.Request",
          "name": "request",
          "type": "tuple"
        },
        {
          "internalType": "address",
          "name": "newOwner",
          "type": "address"
        }
      ],
      "name": "recover",
      "outputs": [],
      "stateMutability": "nonpayable",
      "type": "function"
    }
  ],
  "bytecode": "0x608060405234801561001057600080fd5b50611662806100206000396000f3fe608060405234801561001057600080fd5b50600436106100575760003560e01c80630d0092971461005c5780631ec2bad014610078578063840fdc7814610096578063afa3363d146100b4578063b2a70f88146100d2575b600080fd5b61007660048036038101906100719190610bfc565b6100ee565b005b6100806103f9565b60405161008d9190611138565b60405180910390f35b61009e61041d565b6040516100ab9190611279565b60405180910390f35b6100bc610424565b6040516100c99190611116565b60405180910390f35b6100ec60048036038101906100e79190610ca0565b610535565b005b80600073ffffffffffffffffffffffffffffffffffffffff168173ffffffffffffffffffffffffffffffffffffffff161415801561014857506101468173ffffffffffffffffffffffffffffffffffffffff16610810565b155b610187576040517f08c379a000000000000000000000000000000000000000000000000000000000815260040161017e906111ea565b60405180910390fd5b60008060000160009054906101000a900473ffffffffffffffffffffffffffffffffffffffff169050600073ffffffffffffffffffffffffffffffffffffffff168173ffffffffffffffffffffffffffffffffffffffff161461021f576040517f08c379a00000000000000000000000000000000000000000000000000000000081526004016102169061118a565b60405180910390fd5b6000610229610855565b73ffffffffffffffffffffffffffffffffffffffff166354fd4d506040518163ffffffff1660e01b815260040160206040518083038186803b15801561026e57600080fd5b505afa158015610282573d6000803e3d6000fd5b505050506040513d601f19601f820116820180604052508101906102a69190610c25565b90508073ffffffffffffffffffffffffffffffffffffffff166393e44e2f6102cc61085d565b6040518263ffffffff1660e01b81526004016102e891906110d2565b60206040518083038186803b15801561030057600080fd5b505afa158015610314573d6000803e3d6000fd5b505050506040513d601f19601f820116820180604052508101906103389190610c4e565b610377576040517f08c379a000000000000000000000000000000000000000000000000000000000815260040161036e906111aa565b60405180910390fd5b836000800160006101000a81548173ffffffffffffffffffffffffffffffffffffffff021916908373ffffffffffffffffffffffffffffffffffffffff1602179055507fb532073b38c83145e3e5135377a08bf9aab55bc0fd7c1179cd4fb995d2a5159c82856040516103eb9291906110ed565b60405180910390a150505050565b7f1f741b77752b52bd5aa38e5dfad2c0a562f2380bb3691f4a02f57fb7dc94be2081565b62278d0081565b6060600267ffffffffffffffff8111801561043e57600080fd5b5060405190808252806020026020018201604052801561046d5781602001602082028036833780820191505090505b509050630d00929760e01b8160008151811061048557fe5b60200260200101907bffffffffffffffffffffffffffffffffffffffffffffffffffffffff191690817bffffffffffffffffffffffffffffffffffffffffffffffffffffffff19168152505063b2a70f8860e01b816001815181106104e657fe5b60200260200101907bffffffffffffffffffffffffffffffffffffffffffffffffffffffff191690817bffffffffffffffffffffffffffffffffffffffffffffffffffffffff19168152505090565b80600073ffffffffffffffffffffffffffffffffffffffff168173ffffffffffffffffffffffffffffffffffffffff161415801561058f575061058d8173ffffffffffffffffffffffffffffffffffffffff16610810565b155b6105ce576040517f08c379a00000000000000000000000000000000000000000000000000000000081526004016105c5906111ea565b60405180910390fd5b816105d7610855565b73ffffffffffffffffffffffffffffffffffffffff16638da5cb5b6040518163ffffffff1660e01b815260040160206040518083038186803b15801561061c57600080fd5b505afa158015610630573d6000803e3d6000fd5b505050506040513d601f19601f820116820180604052508101906106549190610c25565b73ffffffffffffffffffffffffffffffffffffffff168173ffffffffffffffffffffffffffffffffffffffff1614156106c2576040517f08c379a00000000000000000000000000000000000000000000000000000000081526004016106b9906111ca565b60405180910390fd5b6107156000857f1f741b77752b52bd5aa38e5dfad2c0a562f2380bb3691f4a02f57fb7dc94be2087604001358760405160200161070193929190611153565b60405160208183030381529060405261092f565b61072c8360016000610a339092919063ffffffff16565b1561074c5761074a834260016000610a41909392919063ffffffff16565b505b6107566000610a4b565b61076a600080610a4e90919063ffffffff16565b7fb532073b38c83145e3e5135377a08bf9aab55bc0fd7c1179cd4fb995d2a5159c6000800160009054906101000a900473ffffffffffffffffffffffffffffffffffffffff16846040516107bf9291906110ed565b60405180910390a1826000800160006101000a81548173ffffffffffffffffffffffffffffffffffffffff021916908373ffffffffffffffffffffffffffffffffffffffff16021790555050505050565b600080823f90506000801b811415801561084d57507fc5d2460186f7233c927e7db2dcc703c0e500b653ca82273b7bfad8045d85a47060001b8114155b915050919050565b600030905090565b60003073ffffffffffffffffffffffffffffffffffffffff163373ffffffffffffffffffffffffffffffffffffffff1614801561089f57506038600036905010155b156109285761092161090660346000369050036000368080601f016020809104026020016040519081016040528093929190818152602001838380828437600081840152601f19601f82011690508083019250505050505050610a5890919063ffffffff16565b73ffffffffffffffffffffffffffffffffffffffff16610a8f565b905061092c565b3390505b90565b600073__$937b6fee264ab6132cdeb8aa56d2145971$__63c236e73c9091610955610855565b73ffffffffffffffffffffffffffffffffffffffff1663cb73ac566040518163ffffffff1660e01b815260040160206040518083038186803b15801561099a57600080fd5b505afa1580156109ae573d6000803e3d6000fd5b505050506040513d601f19601f820116820180604052508101906109d29190610c77565b6109da610a99565b8787876040518763ffffffff1660e01b81526004016109fe9695949392919061120a565b60006040518083038186803b158015610a1657600080fd5b505af4158015610a2a573d6000803e3d6000fd5b50505050505050565b600080309050509392505050565b6000949350505050565b50565b6000309050505050565b60006014820183511015610a6b57600080fd5b60006c01000000000000000000000000836020860101510490508091505092915050565b6000819050919050565b60003073ffffffffffffffffffffffffffffffffffffffff163373ffffffffffffffffffffffffffffffffffffffff16148015610adb57506038600036905010155b15610b4657610b3f60206000369050036000368080601f016020809104026020016040519081016040528093929190818152602001838380828437600081840152601f19601f82011690508083019250505050505050610b5090919063ffffffff16565b9050610b4d565b6000801b90505b90565b60006020820183511015610b6357600080fd5b60008260208501015190508091505092915050565b600081359050610b87816115d0565b92915050565b600081519050610b9c816115d0565b92915050565b600081519050610bb1816115e7565b92915050565b600081519050610bc6816115fe565b92915050565b600060608284031215610bde57600080fd5b81905092915050565b600081359050610bf681611615565b92915050565b600060208284031215610c0e57600080fd5b6000610c1c84828501610b78565b91505092915050565b600060208284031215610c3757600080fd5b6000610c4584828501610b8d565b91505092915050565b600060208284031215610c6057600080fd5b6000610c6e84828501610ba2565b91505092915050565b600060208284031215610c8957600080fd5b6000610c9784828501610bb7565b91505092915050565b60008060408385031215610cb357600080fd5b600083013567ffffffffffffffff811115610ccd57600080fd5b610cd985828601610bcc565b9250506020610cea85828601610b78565b9150509250929050565b6000610d008383610d58565b60208301905092915050565b6000610d188383610eb6565b60208301905092915050565b6000610d31848484610ec5565b90509392505050565b610d438161151f565b82525050565b610d528161148e565b82525050565b610d618161148e565b82525050565b6000610d7383856112f5565b9350610d7e82611294565b8060005b85811015610db757610d94828461135b565b610d9e8882610cf4565b9750610da9836112ce565b925050600181019050610d82565b5085925050509392505050565b6000610dcf826112b8565b610dd98185611306565b9350610de48361129e565b8060005b83811015610e15578151610dfc8882610d0c565b9750610e07836112db565b925050600181019050610de8565b5085935050505092915050565b6000610e2e8385611317565b935083602084028501610e40846112ae565b8060005b87811015610e86578484038952610e5b8284611420565b610e66868284610d24565b9550610e71846112e8565b935060208b019a505050600181019050610e44565b50829750879450505050509392505050565b610ea1816114ac565b82525050565b610eb0816114ac565b82525050565b610ebf816114b6565b82525050565b6000610ed18385611339565b9350610ede838584611567565b610ee7836115ab565b840190509392505050565b6000610efd826112c3565b610f078185611328565b9350610f17818560208601611576565b610f20816115ab565b840191505092915050565b610f3481611531565b82525050565b6000610f4760138361134a565b91507f494e495449414c495a45445f414c5245414459000000000000000000000000006000830152602082019050919050565b6000610f87600c8361134a565b91507f554e415554484f52495a454400000000000000000000000000000000000000006000830152602082019050919050565b6000610fc760108361134a565b91507f414444524553535f49535f4f574e4552000000000000000000000000000000006000830152602082019050919050565b6000611007600d8361134a565b91507f494e56414c49445f4f574e4552000000000000000000000000000000000000006000830152602082019050919050565b60006060830161104d6000840184611372565b8583036000870152611060838284610d67565b9250505061107160208401846113c9565b8583036020870152611084838284610e22565b925050506110956040840184611477565b6110a260408601826110c3565b508091505092915050565b8082525050565b6110bd81611515565b82525050565b6110cc81611515565b82525050565b60006020820190506110e76000830184610d3a565b92915050565b60006040820190506111026000830185610d49565b61110f6020830184610d49565b9392505050565b600060208201905081810360008301526111308184610dc4565b905092915050565b600060208201905061114d6000830184610e98565b92915050565b60006060820190506111686000830186610e98565b61117560208301856110b4565b6111826040830184610d49565b949350505050565b600060208201905081810360008301526111a381610f3a565b9050919050565b600060208201905081810360008301526111c381610f7a565b9050919050565b600060208201905081810360008301526111e381610fba565b9050919050565b6000602082019050818103600083015261120381610ffa565b9050919050565b600060c08201905061121f60008301896110ad565b61122c6020830188610ea7565b6112396040830187610ea7565b6112466060830186610f2b565b8181036080830152611258818561103a565b905081810360a083015261126c8184610ef2565b9050979650505050505050565b600060208201905061128e60008301846110b4565b92915050565b6000819050919050565b6000819050602082019050919050565b6000819050919050565b600081519050919050565b600081519050919050565b6000602082019050919050565b6000602082019050919050565b6000602082019050919050565b600082825260208201905092915050565b600082825260208201905092915050565b600082825260208201905092915050565b600082825260208201905092915050565b600082825260208201905092915050565b600082825260208201905092915050565b600061136a6020840184610b78565b905092915050565b6000808335600160200384360303811261138b57600080fd5b83810192508235915060208301925067ffffffffffffffff8211156113af57600080fd5b6020820236038413156113c157600080fd5b509250929050565b600080833560016020038436030381126113e257600080fd5b83810192508235915060208301925067ffffffffffffffff82111561140657600080fd5b60208202360384131561141857600080fd5b509250929050565b6000808335600160200384360303811261143957600080fd5b83810192508235915060208301925067ffffffffffffffff82111561145d57600080fd5b60018202360384131561146f57600080fd5b509250929050565b60006114866020840184610be7565b905092915050565b6000611499826114f5565b9050919050565b60008115159050919050565b6000819050919050565b60007fffffffff0000000000000000000000000000000000000000000000000000000082169050919050565b60008190506114f0826115bc565b919050565b600073ffffffffffffffffffffffffffffffffffffffff82169050919050565b6000819050919050565b600061152a82611543565b9050919050565b600061153c826114e2565b9050919050565b600061154e82611555565b9050919050565b6000611560826114f5565b9050919050565b82818337600083830152505050565b60005b83811015611594578082015181840152602081019050611579565b838111156115a3576000848401525b50505050565bfe5b6000601f19601f8301169050919050565b600581106115cd576115cc6115a9565b5b50565b6115d98161148e565b81146115e457600080fd5b50565b6115f0816114a0565b81146115fb57600080fd5b50565b611607816114ac565b811461161257600080fd5b50565b61161e81611515565b811461162957600080fd5b5056fea26469706673582212209d7a2cd3046b6fe7f97055599f1b31dee68138e8d29ce132006097f4af39df9c64736f6c63430007030033",
  "linkReferences": {
    "contracts/version2_0/utils/SignedRequest.sol": {
      "SignedRequest": [
        {
          "length": 20,
          "start": 2387
        }
      ]
    }
  },
  "deployedLinkReferences": {
    "contracts/version2_0/utils/SignedRequest.sol": {
      "SignedRequest": [
        {
          "length": 20,
          "start": 2355
        }
      ]
    }
  }
}