{
  "_format": "hh-sol-artifact-1",
  "contractName": "ENSConsumer",
  "sourceName": "contracts/thirdparty/ens/ENSConsumer.sol",
  "abi": [
    {
      "inputs": [
        {
          "internalType": "address",
          "name": "_ensRegistry",
          "type": "address"
        }
      ],
      "stateMutability": "nonpayable",
      "type": "constructor"
    },
    {
      "inputs": [],
      "name": "ADDR_REVERSE_NODE",
      "outputs": [
        {
          "internalType": "bytes32",
          "name": "",
          "type": "bytes32"
        }
      ],
      "stateMutability": "view",
      "type": "function"
    },
    {
      "inputs": [],
      "name": "getENSRegistry",
      "outputs": [
        {
          "internalType": "contract ENSRegistry",
          "name": "",
          "type": "address"
        }
      ],
      "stateMutability": "view",
      "type": "function"
    },
    {
      "inputs": [],
      "name": "getENSReverseRegistrar",
      "outputs": [
        {
          "internalType": "contract ENSReverseRegistrar",
          "name": "",
          "type": "address"
        }
      ],
      "stateMutability": "view",
      "type": "function"
    },
    {
      "inputs": [
        {
          "internalType": "bytes32",
          "name": "_node",
          "type": "bytes32"
        }
      ],
      "name": "resolveEns",
      "outputs": [
        {
          "internalType": "address",
          "name": "",
          "type": "address"
        }
      ],
      "stateMutability": "view",
      "type": "function"
    }
  ],
  "bytecode": "0x60a060405234801561001057600080fd5b506040516104363803806104368339818101604052602081101561003357600080fd5b81019080805190602001909291905050508073ffffffffffffffffffffffffffffffffffffffff1660808173ffffffffffffffffffffffffffffffffffffffff1660601b815250505060805160601c61039d610099600039806101f0525061039d6000f3fe608060405234801561001057600080fd5b506004361061004c5760003560e01c806309d73442146100515780632f680795146100855780637cf8a2eb146100b95780639eb869c7146100d7575b600080fd5b61005961012f565b604051808273ffffffffffffffffffffffffffffffffffffffff16815260200191505060405180910390f35b61008d6101ec565b604051808273ffffffffffffffffffffffffffffffffffffffff16815260200191505060405180910390f35b6100c1610214565b6040518082815260200191505060405180910390f35b610103600480360360208110156100ed57600080fd5b810190808035906020019092919050505061023b565b604051808273ffffffffffffffffffffffffffffffffffffffff16815260200191505060405180910390f35b60006101396101ec565b73ffffffffffffffffffffffffffffffffffffffff166302571be37f91d1777781884d03a6757a803996e38de2a42967fb37eeaca72729271025a9e260001b6040518263ffffffff1660e01b81526004018082815260200191505060206040518083038186803b1580156101ac57600080fd5b505afa1580156101c0573d6000803e3d6000fd5b505050506040513d60208110156101d657600080fd5b8101908080519060200190929190505050905090565b60007f0000000000000000000000000000000000000000000000000000000000000000905090565b7f91d1777781884d03a6757a803996e38de2a42967fb37eeaca72729271025a9e260001b81565b6000806102466101ec565b73ffffffffffffffffffffffffffffffffffffffff16630178b8bf846040518263ffffffff1660e01b81526004018082815260200191505060206040518083038186803b15801561029657600080fd5b505afa1580156102aa573d6000803e3d6000fd5b505050506040513d60208110156102c057600080fd5b810190808051906020019092919050505090508073ffffffffffffffffffffffffffffffffffffffff16633b3b57de846040518263ffffffff1660e01b81526004018082815260200191505060206040518083038186803b15801561032457600080fd5b505afa158015610338573d6000803e3d6000fd5b505050506040513d602081101561034e57600080fd5b810190808051906020019092919050505091505091905056fea26469706673582212200b833e69a9eb4b1eedb344c29527630e902f4a3c49fed22615fe0ab5f0b1dce464736f6c63430007030033",
  "linkReferences": {},
  "deployedLinkReferences": {}
}